{
	"contracts/Fungees.sol": {
		"MyToken": {
			"abi": [
				{
					"inputs": [
						{
							"internalType": "address",
							"name": "initialOwner",
							"type": "address"
						}
					],
					"stateMutability": "nonpayable",
					"type": "constructor"
				},
				{
					"inputs": [
						{
							"internalType": "address",
							"name": "sender",
							"type": "address"
						},
						{
							"internalType": "uint256",
							"name": "tokenId",
							"type": "uint256"
						},
						{
							"internalType": "address",
							"name": "owner",
							"type": "address"
						}
					],
					"name": "ERC721IncorrectOwner",
					"type": "error"
				},
				{
					"inputs": [
						{
							"internalType": "address",
							"name": "operator",
							"type": "address"
						},
						{
							"internalType": "uint256",
							"name": "tokenId",
							"type": "uint256"
						}
					],
					"name": "ERC721InsufficientApproval",
					"type": "error"
				},
				{
					"inputs": [
						{
							"internalType": "address",
							"name": "approver",
							"type": "address"
						}
					],
					"name": "ERC721InvalidApprover",
					"type": "error"
				},
				{
					"inputs": [
						{
							"internalType": "address",
							"name": "operator",
							"type": "address"
						}
					],
					"name": "ERC721InvalidOperator",
					"type": "error"
				},
				{
					"inputs": [
						{
							"internalType": "address",
							"name": "owner",
							"type": "address"
						}
					],
					"name": "ERC721InvalidOwner",
					"type": "error"
				},
				{
					"inputs": [
						{
							"internalType": "address",
							"name": "receiver",
							"type": "address"
						}
					],
					"name": "ERC721InvalidReceiver",
					"type": "error"
				},
				{
					"inputs": [
						{
							"internalType": "address",
							"name": "sender",
							"type": "address"
						}
					],
					"name": "ERC721InvalidSender",
					"type": "error"
				},
				{
					"inputs": [
						{
							"internalType": "uint256",
							"name": "tokenId",
							"type": "uint256"
						}
					],
					"name": "ERC721NonexistentToken",
					"type": "error"
				},
				{
					"inputs": [
						{
							"internalType": "address",
							"name": "owner",
							"type": "address"
						}
					],
					"name": "OwnableInvalidOwner",
					"type": "error"
				},
				{
					"inputs": [
						{
							"internalType": "address",
							"name": "account",
							"type": "address"
						}
					],
					"name": "OwnableUnauthorizedAccount",
					"type": "error"
				},
				{
					"anonymous": false,
					"inputs": [
						{
							"indexed": true,
							"internalType": "address",
							"name": "owner",
							"type": "address"
						},
						{
							"indexed": true,
							"internalType": "address",
							"name": "approved",
							"type": "address"
						},
						{
							"indexed": true,
							"internalType": "uint256",
							"name": "tokenId",
							"type": "uint256"
						}
					],
					"name": "Approval",
					"type": "event"
				},
				{
					"anonymous": false,
					"inputs": [
						{
							"indexed": true,
							"internalType": "address",
							"name": "owner",
							"type": "address"
						},
						{
							"indexed": true,
							"internalType": "address",
							"name": "operator",
							"type": "address"
						},
						{
							"indexed": false,
							"internalType": "bool",
							"name": "approved",
							"type": "bool"
						}
					],
					"name": "ApprovalForAll",
					"type": "event"
				},
				{
					"anonymous": false,
					"inputs": [
						{
							"indexed": false,
							"internalType": "uint256",
							"name": "_fromTokenId",
							"type": "uint256"
						},
						{
							"indexed": false,
							"internalType": "uint256",
							"name": "_toTokenId",
							"type": "uint256"
						}
					],
					"name": "BatchMetadataUpdate",
					"type": "event"
				},
				{
					"anonymous": false,
					"inputs": [
						{
							"indexed": false,
							"internalType": "uint256",
							"name": "_tokenId",
							"type": "uint256"
						}
					],
					"name": "MetadataUpdate",
					"type": "event"
				},
				{
					"anonymous": false,
					"inputs": [
						{
							"indexed": true,
							"internalType": "address",
							"name": "previousOwner",
							"type": "address"
						},
						{
							"indexed": true,
							"internalType": "address",
							"name": "newOwner",
							"type": "address"
						}
					],
					"name": "OwnershipTransferred",
					"type": "event"
				},
				{
					"anonymous": false,
					"inputs": [
						{
							"indexed": true,
							"internalType": "address",
							"name": "from",
							"type": "address"
						},
						{
							"indexed": true,
							"internalType": "address",
							"name": "to",
							"type": "address"
						},
						{
							"indexed": true,
							"internalType": "uint256",
							"name": "tokenId",
							"type": "uint256"
						}
					],
					"name": "Transfer",
					"type": "event"
				},
				{
					"inputs": [
						{
							"internalType": "address",
							"name": "to",
							"type": "address"
						},
						{
							"internalType": "uint256",
							"name": "tokenId",
							"type": "uint256"
						}
					],
					"name": "approve",
					"outputs": [],
					"stateMutability": "nonpayable",
					"type": "function"
				},
				{
					"inputs": [
						{
							"internalType": "address",
							"name": "owner",
							"type": "address"
						}
					],
					"name": "balanceOf",
					"outputs": [
						{
							"internalType": "uint256",
							"name": "",
							"type": "uint256"
						}
					],
					"stateMutability": "view",
					"type": "function"
				},
				{
					"inputs": [
						{
							"internalType": "uint256",
							"name": "tokenId",
							"type": "uint256"
						}
					],
					"name": "burn",
					"outputs": [],
					"stateMutability": "nonpayable",
					"type": "function"
				},
				{
					"inputs": [
						{
							"internalType": "uint256",
							"name": "tokenId",
							"type": "uint256"
						}
					],
					"name": "getApproved",
					"outputs": [
						{
							"internalType": "address",
							"name": "",
							"type": "address"
						}
					],
					"stateMutability": "view",
					"type": "function"
				},
				{
					"inputs": [
						{
							"internalType": "address",
							"name": "owner",
							"type": "address"
						},
						{
							"internalType": "address",
							"name": "operator",
							"type": "address"
						}
					],
					"name": "isApprovedForAll",
					"outputs": [
						{
							"internalType": "bool",
							"name": "",
							"type": "bool"
						}
					],
					"stateMutability": "view",
					"type": "function"
				},
				{
					"inputs": [],
					"name": "name",
					"outputs": [
						{
							"internalType": "string",
							"name": "",
							"type": "string"
						}
					],
					"stateMutability": "view",
					"type": "function"
				},
				{
					"inputs": [],
					"name": "owner",
					"outputs": [
						{
							"internalType": "address",
							"name": "",
							"type": "address"
						}
					],
					"stateMutability": "view",
					"type": "function"
				},
				{
					"inputs": [
						{
							"internalType": "uint256",
							"name": "tokenId",
							"type": "uint256"
						}
					],
					"name": "ownerOf",
					"outputs": [
						{
							"internalType": "address",
							"name": "",
							"type": "address"
						}
					],
					"stateMutability": "view",
					"type": "function"
				},
				{
					"inputs": [],
					"name": "renounceOwnership",
					"outputs": [],
					"stateMutability": "nonpayable",
					"type": "function"
				},
				{
					"inputs": [
						{
							"internalType": "address",
							"name": "to",
							"type": "address"
						},
						{
							"internalType": "string",
							"name": "uri",
							"type": "string"
						}
					],
					"name": "safeMint",
					"outputs": [],
					"stateMutability": "nonpayable",
					"type": "function"
				},
				{
					"inputs": [
						{
							"internalType": "address",
							"name": "from",
							"type": "address"
						},
						{
							"internalType": "address",
							"name": "to",
							"type": "address"
						},
						{
							"internalType": "uint256",
							"name": "tokenId",
							"type": "uint256"
						}
					],
					"name": "safeTransferFrom",
					"outputs": [],
					"stateMutability": "nonpayable",
					"type": "function"
				},
				{
					"inputs": [
						{
							"internalType": "address",
							"name": "from",
							"type": "address"
						},
						{
							"internalType": "address",
							"name": "to",
							"type": "address"
						},
						{
							"internalType": "uint256",
							"name": "tokenId",
							"type": "uint256"
						},
						{
							"internalType": "bytes",
							"name": "data",
							"type": "bytes"
						}
					],
					"name": "safeTransferFrom",
					"outputs": [],
					"stateMutability": "nonpayable",
					"type": "function"
				},
				{
					"inputs": [
						{
							"internalType": "address",
							"name": "operator",
							"type": "address"
						},
						{
							"internalType": "bool",
							"name": "approved",
							"type": "bool"
						}
					],
					"name": "setApprovalForAll",
					"outputs": [],
					"stateMutability": "nonpayable",
					"type": "function"
				},
				{
					"inputs": [
						{
							"internalType": "bytes4",
							"name": "interfaceId",
							"type": "bytes4"
						}
					],
					"name": "supportsInterface",
					"outputs": [
						{
							"internalType": "bool",
							"name": "",
							"type": "bool"
						}
					],
					"stateMutability": "view",
					"type": "function"
				},
				{
					"inputs": [],
					"name": "symbol",
					"outputs": [
						{
							"internalType": "string",
							"name": "",
							"type": "string"
						}
					],
					"stateMutability": "view",
					"type": "function"
				},
				{
					"inputs": [
						{
							"internalType": "uint256",
							"name": "tokenId",
							"type": "uint256"
						}
					],
					"name": "tokenURI",
					"outputs": [
						{
							"internalType": "string",
							"name": "",
							"type": "string"
						}
					],
					"stateMutability": "view",
					"type": "function"
				},
				{
					"inputs": [
						{
							"internalType": "address",
							"name": "from",
							"type": "address"
						},
						{
							"internalType": "address",
							"name": "to",
							"type": "address"
						},
						{
							"internalType": "uint256",
							"name": "tokenId",
							"type": "uint256"
						}
					],
					"name": "transferFrom",
					"outputs": [],
					"stateMutability": "nonpayable",
					"type": "function"
				},
				{
					"inputs": [
						{
							"internalType": "address",
							"name": "newOwner",
							"type": "address"
						}
					],
					"name": "transferOwnership",
					"outputs": [],
					"stateMutability": "nonpayable",
					"type": "function"
				}
			],
			"devdoc": {
				"errors": {
					"ERC721IncorrectOwner(address,uint256,address)": [
						{
							"details": "Indicates an error related to the ownership over a particular token. Used in transfers.",
							"params": {
								"owner": "Address of the current owner of a token.",
								"sender": "Address whose tokens are being transferred.",
								"tokenId": "Identifier number of a token."
							}
						}
					],
					"ERC721InsufficientApproval(address,uint256)": [
						{
							"details": "Indicates a failure with the `operator`’s approval. Used in transfers.",
							"params": {
								"operator": "Address that may be allowed to operate on tokens without being their owner.",
								"tokenId": "Identifier number of a token."
							}
						}
					],
					"ERC721InvalidApprover(address)": [
						{
							"details": "Indicates a failure with the `approver` of a token to be approved. Used in approvals.",
							"params": {
								"approver": "Address initiating an approval operation."
							}
						}
					],
					"ERC721InvalidOperator(address)": [
						{
							"details": "Indicates a failure with the `operator` to be approved. Used in approvals.",
							"params": {
								"operator": "Address that may be allowed to operate on tokens without being their owner."
							}
						}
					],
					"ERC721InvalidOwner(address)": [
						{
							"details": "Indicates that an address can't be an owner. For example, `address(0)` is a forbidden owner in EIP-20. Used in balance queries.",
							"params": {
								"owner": "Address of the current owner of a token."
							}
						}
					],
					"ERC721InvalidReceiver(address)": [
						{
							"details": "Indicates a failure with the token `receiver`. Used in transfers.",
							"params": {
								"receiver": "Address to which tokens are being transferred."
							}
						}
					],
					"ERC721InvalidSender(address)": [
						{
							"details": "Indicates a failure with the token `sender`. Used in transfers.",
							"params": {
								"sender": "Address whose tokens are being transferred."
							}
						}
					],
					"ERC721NonexistentToken(uint256)": [
						{
							"details": "Indicates a `tokenId` whose `owner` is the zero address.",
							"params": {
								"tokenId": "Identifier number of a token."
							}
						}
					],
					"OwnableInvalidOwner(address)": [
						{
							"details": "The owner is not a valid owner account. (eg. `address(0)`)"
						}
					],
					"OwnableUnauthorizedAccount(address)": [
						{
							"details": "The caller account is not authorized to perform an operation."
						}
					]
				},
				"events": {
					"Approval(address,address,uint256)": {
						"details": "Emitted when `owner` enables `approved` to manage the `tokenId` token."
					},
					"ApprovalForAll(address,address,bool)": {
						"details": "Emitted when `owner` enables or disables (`approved`) `operator` to manage all of its assets."
					},
					"BatchMetadataUpdate(uint256,uint256)": {
						"details": "This event emits when the metadata of a range of tokens is changed. So that the third-party platforms such as NFT market could timely update the images and related attributes of the NFTs."
					},
					"MetadataUpdate(uint256)": {
						"details": "This event emits when the metadata of a token is changed. So that the third-party platforms such as NFT market could timely update the images and related attributes of the NFT."
					},
					"Transfer(address,address,uint256)": {
						"details": "Emitted when `tokenId` token is transferred from `from` to `to`."
					}
				},
				"kind": "dev",
				"methods": {
					"approve(address,uint256)": {
						"details": "See {IERC721-approve}."
					},
					"balanceOf(address)": {
						"details": "See {IERC721-balanceOf}."
					},
					"burn(uint256)": {
						"details": "Burns `tokenId`. See {ERC721-_burn}. Requirements: - The caller must own `tokenId` or be an approved operator."
					},
					"getApproved(uint256)": {
						"details": "See {IERC721-getApproved}."
					},
					"isApprovedForAll(address,address)": {
						"details": "See {IERC721-isApprovedForAll}."
					},
					"name()": {
						"details": "See {IERC721Metadata-name}."
					},
					"owner()": {
						"details": "Returns the address of the current owner."
					},
					"ownerOf(uint256)": {
						"details": "See {IERC721-ownerOf}."
					},
					"renounceOwnership()": {
						"details": "Leaves the contract without owner. It will not be possible to call `onlyOwner` functions. Can only be called by the current owner. NOTE: Renouncing ownership will leave the contract without an owner, thereby disabling any functionality that is only available to the owner."
					},
					"safeTransferFrom(address,address,uint256)": {
						"details": "See {IERC721-safeTransferFrom}."
					},
					"safeTransferFrom(address,address,uint256,bytes)": {
						"details": "See {IERC721-safeTransferFrom}."
					},
					"setApprovalForAll(address,bool)": {
						"details": "See {IERC721-setApprovalForAll}."
					},
					"symbol()": {
						"details": "See {IERC721Metadata-symbol}."
					},
					"transferFrom(address,address,uint256)": {
						"details": "See {IERC721-transferFrom}."
					},
					"transferOwnership(address)": {
						"details": "Transfers ownership of the contract to a new account (`newOwner`). Can only be called by the current owner."
					}
				},
				"stateVariables": {
					"_nextTokenId": {
						"details": "Stores the next token ID."
					}
				},
				"version": 1
			},
			"evm": {
				"assembly": "    /* \"contracts/Fungees.sol\":350:1292  contract MyToken is ERC721, ERC721URIStorage, ERC721Burnable, Ownable {... */\n  mstore(0x40, 0x80)\n    /* \"contracts/Fungees.sol\":426:529  constructor(address initialOwner)... */\n  callvalue\n  dup1\n  iszero\n  tag_1\n  jumpi\n  0x00\n  dup1\n  revert\ntag_1:\n  pop\n  mload(0x40)\n  sub(codesize, bytecodeSize)\n  dup1\n  bytecodeSize\n  dup4\n  codecopy\n  dup2\n  dup2\n  add\n  0x40\n  mstore\n  dup2\n  add\n  swap1\n  tag_2\n  swap2\n  swap1\n  tag_3\n  jump\t// in\ntag_2:\n    /* \"contracts/Fungees.sol\":509:521  initialOwner */\n  dup1\n    /* \"@openzeppelin/contracts@5.0.0/token/ERC721/ERC721.sol\":1381:1494  constructor(string memory name_, string memory symbol_) {... */\n  mload(0x40)\n  dup1\n  0x40\n  add\n  0x40\n  mstore\n  dup1\n  0x07\n  dup2\n  mstore\n  0x20\n  add\n  0x46756e6765657300000000000000000000000000000000000000000000000000\n  dup2\n  mstore\n  pop\n  mload(0x40)\n  dup1\n  0x40\n  add\n  0x40\n  mstore\n  dup1\n  0x03\n  dup2\n  mstore\n  0x20\n  add\n  0x46756e0000000000000000000000000000000000000000000000000000000000\n  dup2\n  mstore\n  pop\n    /* \"@openzeppelin/contracts@5.0.0/token/ERC721/ERC721.sol\":1455:1460  name_ */\n  dup2\n    /* \"@openzeppelin/contracts@5.0.0/token/ERC721/ERC721.sol\":1447:1452  _name */\n  0x00\n    /* \"@openzeppelin/contracts@5.0.0/token/ERC721/ERC721.sol\":1447:1460  _name = name_ */\n  swap1\n  dup2\n  tag_8\n  swap2\n  swap1\n  tag_9\n  jump\t// in\ntag_8:\n  pop\n    /* \"@openzeppelin/contracts@5.0.0/token/ERC721/ERC721.sol\":1480:1487  symbol_ */\n  dup1\n    /* \"@openzeppelin/contracts@5.0.0/token/ERC721/ERC721.sol\":1470:1477  _symbol */\n  0x01\n    /* \"@openzeppelin/contracts@5.0.0/token/ERC721/ERC721.sol\":1470:1487  _symbol = symbol_ */\n  swap1\n  dup2\n  tag_10\n  swap2\n  swap1\n  tag_9\n  jump\t// in\ntag_10:\n  pop\n    /* \"@openzeppelin/contracts@5.0.0/token/ERC721/ERC721.sol\":1381:1494  constructor(string memory name_, string memory symbol_) {... */\n  pop\n  pop\n    /* \"@openzeppelin/contracts@5.0.0/access/Ownable.sol\":1297:1298  0 */\n  0x00\n    /* \"@openzeppelin/contracts@5.0.0/access/Ownable.sol\":1273:1299  initialOwner == address(0) */\n  0xffffffffffffffffffffffffffffffffffffffff\n  and\n    /* \"@openzeppelin/contracts@5.0.0/access/Ownable.sol\":1273:1285  initialOwner */\n  dup2\n    /* \"@openzeppelin/contracts@5.0.0/access/Ownable.sol\":1273:1299  initialOwner == address(0) */\n  0xffffffffffffffffffffffffffffffffffffffff\n  and\n  sub\n    /* \"@openzeppelin/contracts@5.0.0/access/Ownable.sol\":1269:1364  if (initialOwner == address(0)) {... */\n  tag_12\n  jumpi\n    /* \"@openzeppelin/contracts@5.0.0/access/Ownable.sol\":1350:1351  0 */\n  0x00\n    /* \"@openzeppelin/contracts@5.0.0/access/Ownable.sol\":1322:1353  OwnableInvalidOwner(address(0)) */\n  mload(0x40)\n  0x1e4fbdf700000000000000000000000000000000000000000000000000000000\n  dup2\n  mstore\n  0x04\n  add\n  tag_13\n  swap2\n  swap1\n  tag_14\n  jump\t// in\ntag_13:\n  mload(0x40)\n  dup1\n  swap2\n  sub\n  swap1\n  revert\n    /* \"@openzeppelin/contracts@5.0.0/access/Ownable.sol\":1269:1364  if (initialOwner == address(0)) {... */\ntag_12:\n    /* \"@openzeppelin/contracts@5.0.0/access/Ownable.sol\":1373:1405  _transferOwnership(initialOwner) */\n  tag_15\n    /* \"@openzeppelin/contracts@5.0.0/access/Ownable.sol\":1392:1404  initialOwner */\n  dup2\n    /* \"@openzeppelin/contracts@5.0.0/access/Ownable.sol\":1373:1391  _transferOwnership */\n  shl(0x20, tag_16)\n    /* \"@openzeppelin/contracts@5.0.0/access/Ownable.sol\":1373:1405  _transferOwnership(initialOwner) */\n  0x20\n  shr\n  jump\t// in\ntag_15:\n    /* \"@openzeppelin/contracts@5.0.0/access/Ownable.sol\":1225:1412  constructor(address initialOwner) {... */\n  pop\n    /* \"contracts/Fungees.sol\":426:529  constructor(address initialOwner)... */\n  pop\n    /* \"contracts/Fungees.sol\":350:1292  contract MyToken is ERC721, ERC721URIStorage, ERC721Burnable, Ownable {... */\n  jump(tag_18)\n    /* \"@openzeppelin/contracts@5.0.0/access/Ownable.sol\":2912:3099  function _transferOwnership(address newOwner) internal virtual {... */\ntag_16:\n    /* \"@openzeppelin/contracts@5.0.0/access/Ownable.sol\":2985:3001  address oldOwner */\n  0x00\n    /* \"@openzeppelin/contracts@5.0.0/access/Ownable.sol\":3004:3010  _owner */\n  0x07\n  0x00\n  swap1\n  sload\n  swap1\n  0x0100\n  exp\n  swap1\n  div\n  0xffffffffffffffffffffffffffffffffffffffff\n  and\n    /* \"@openzeppelin/contracts@5.0.0/access/Ownable.sol\":2985:3010  address oldOwner = _owner */\n  swap1\n  pop\n    /* \"@openzeppelin/contracts@5.0.0/access/Ownable.sol\":3029:3037  newOwner */\n  dup2\n    /* \"@openzeppelin/contracts@5.0.0/access/Ownable.sol\":3020:3026  _owner */\n  0x07\n  0x00\n    /* \"@openzeppelin/contracts@5.0.0/access/Ownable.sol\":3020:3037  _owner = newOwner */\n  0x0100\n  exp\n  dup2\n  sload\n  dup2\n  0xffffffffffffffffffffffffffffffffffffffff\n  mul\n  not\n  and\n  swap1\n  dup4\n  0xffffffffffffffffffffffffffffffffffffffff\n  and\n  mul\n  or\n  swap1\n  sstore\n  pop\n    /* \"@openzeppelin/contracts@5.0.0/access/Ownable.sol\":3083:3091  newOwner */\n  dup2\n    /* \"@openzeppelin/contracts@5.0.0/access/Ownable.sol\":3052:3092  OwnershipTransferred(oldOwner, newOwner) */\n  0xffffffffffffffffffffffffffffffffffffffff\n  and\n    /* \"@openzeppelin/contracts@5.0.0/access/Ownable.sol\":3073:3081  oldOwner */\n  dup2\n    /* \"@openzeppelin/contracts@5.0.0/access/Ownable.sol\":3052:3092  OwnershipTransferred(oldOwner, newOwner) */\n  0xffffffffffffffffffffffffffffffffffffffff\n  and\n  0x8be0079c531659141344cd1fd0a4f28419497f9722a3daafe3b4186f6b6457e0\n  mload(0x40)\n  mload(0x40)\n  dup1\n  swap2\n  sub\n  swap1\n  log3\n    /* \"@openzeppelin/contracts@5.0.0/access/Ownable.sol\":2975:3099  {... */\n  pop\n    /* \"@openzeppelin/contracts@5.0.0/access/Ownable.sol\":2912:3099  function _transferOwnership(address newOwner) internal virtual {... */\n  pop\n  jump\t// out\n    /* \"#utility.yul\":88:205   */\ntag_21:\n    /* \"#utility.yul\":197:198   */\n  0x00\n    /* \"#utility.yul\":194:195   */\n  dup1\n    /* \"#utility.yul\":187:199   */\n  revert\n    /* \"#utility.yul\":334:460   */\ntag_23:\n    /* \"#utility.yul\":371:378   */\n  0x00\n    /* \"#utility.yul\":411:453   */\n  0xffffffffffffffffffffffffffffffffffffffff\n    /* \"#utility.yul\":404:409   */\n  dup3\n    /* \"#utility.yul\":400:454   */\n  and\n    /* \"#utility.yul\":389:454   */\n  swap1\n  pop\n    /* \"#utility.yul\":334:460   */\n  swap2\n  swap1\n  pop\n  jump\t// out\n    /* \"#utility.yul\":466:562   */\ntag_24:\n    /* \"#utility.yul\":503:510   */\n  0x00\n    /* \"#utility.yul\":532:556   */\n  tag_54\n    /* \"#utility.yul\":550:555   */\n  dup3\n    /* \"#utility.yul\":532:556   */\n  tag_23\n  jump\t// in\ntag_54:\n    /* \"#utility.yul\":521:556   */\n  swap1\n  pop\n    /* \"#utility.yul\":466:562   */\n  swap2\n  swap1\n  pop\n  jump\t// out\n    /* \"#utility.yul\":568:690   */\ntag_25:\n    /* \"#utility.yul\":641:665   */\n  tag_56\n    /* \"#utility.yul\":659:664   */\n  dup2\n    /* \"#utility.yul\":641:665   */\n  tag_24\n  jump\t// in\ntag_56:\n    /* \"#utility.yul\":634:639   */\n  dup2\n    /* \"#utility.yul\":631:666   */\n  eq\n    /* \"#utility.yul\":621:684   */\n  tag_57\n  jumpi\n    /* \"#utility.yul\":680:681   */\n  0x00\n    /* \"#utility.yul\":677:678   */\n  dup1\n    /* \"#utility.yul\":670:682   */\n  revert\n    /* \"#utility.yul\":621:684   */\ntag_57:\n    /* \"#utility.yul\":568:690   */\n  pop\n  jump\t// out\n    /* \"#utility.yul\":696:839   */\ntag_26:\n    /* \"#utility.yul\":753:758   */\n  0x00\n    /* \"#utility.yul\":784:790   */\n  dup2\n    /* \"#utility.yul\":778:791   */\n  mload\n    /* \"#utility.yul\":769:791   */\n  swap1\n  pop\n    /* \"#utility.yul\":800:833   */\n  tag_59\n    /* \"#utility.yul\":827:832   */\n  dup2\n    /* \"#utility.yul\":800:833   */\n  tag_25\n  jump\t// in\ntag_59:\n    /* \"#utility.yul\":696:839   */\n  swap3\n  swap2\n  pop\n  pop\n  jump\t// out\n    /* \"#utility.yul\":845:1196   */\ntag_3:\n    /* \"#utility.yul\":915:921   */\n  0x00\n    /* \"#utility.yul\":964:966   */\n  0x20\n    /* \"#utility.yul\":952:961   */\n  dup3\n    /* \"#utility.yul\":943:950   */\n  dup5\n    /* \"#utility.yul\":939:962   */\n  sub\n    /* \"#utility.yul\":935:967   */\n  slt\n    /* \"#utility.yul\":932:1051   */\n  iszero\n  tag_61\n  jumpi\n    /* \"#utility.yul\":970:1049   */\n  tag_62\n  tag_21\n  jump\t// in\ntag_62:\n    /* \"#utility.yul\":932:1051   */\ntag_61:\n    /* \"#utility.yul\":1090:1091   */\n  0x00\n    /* \"#utility.yul\":1115:1179   */\n  tag_63\n    /* \"#utility.yul\":1171:1178   */\n  dup5\n    /* \"#utility.yul\":1162:1168   */\n  dup3\n    /* \"#utility.yul\":1151:1160   */\n  dup6\n    /* \"#utility.yul\":1147:1169   */\n  add\n    /* \"#utility.yul\":1115:1179   */\n  tag_26\n  jump\t// in\ntag_63:\n    /* \"#utility.yul\":1105:1179   */\n  swap2\n  pop\n    /* \"#utility.yul\":1061:1189   */\n  pop\n    /* \"#utility.yul\":845:1196   */\n  swap3\n  swap2\n  pop\n  pop\n  jump\t// out\n    /* \"#utility.yul\":1202:1301   */\ntag_27:\n    /* \"#utility.yul\":1254:1260   */\n  0x00\n    /* \"#utility.yul\":1288:1293   */\n  dup2\n    /* \"#utility.yul\":1282:1294   */\n  mload\n    /* \"#utility.yul\":1272:1294   */\n  swap1\n  pop\n    /* \"#utility.yul\":1202:1301   */\n  swap2\n  swap1\n  pop\n  jump\t// out\n    /* \"#utility.yul\":1307:1487   */\ntag_28:\n    /* \"#utility.yul\":1355:1432   */\n  0x4e487b7100000000000000000000000000000000000000000000000000000000\n    /* \"#utility.yul\":1352:1353   */\n  0x00\n    /* \"#utility.yul\":1345:1433   */\n  mstore\n    /* \"#utility.yul\":1452:1456   */\n  0x41\n    /* \"#utility.yul\":1449:1450   */\n  0x04\n    /* \"#utility.yul\":1442:1457   */\n  mstore\n    /* \"#utility.yul\":1476:1480   */\n  0x24\n    /* \"#utility.yul\":1473:1474   */\n  0x00\n    /* \"#utility.yul\":1466:1481   */\n  revert\n    /* \"#utility.yul\":1493:1673   */\ntag_29:\n    /* \"#utility.yul\":1541:1618   */\n  0x4e487b7100000000000000000000000000000000000000000000000000000000\n    /* \"#utility.yul\":1538:1539   */\n  0x00\n    /* \"#utility.yul\":1531:1619   */\n  mstore\n    /* \"#utility.yul\":1638:1642   */\n  0x22\n    /* \"#utility.yul\":1635:1636   */\n  0x04\n    /* \"#utility.yul\":1628:1643   */\n  mstore\n    /* \"#utility.yul\":1662:1666   */\n  0x24\n    /* \"#utility.yul\":1659:1660   */\n  0x00\n    /* \"#utility.yul\":1652:1667   */\n  revert\n    /* \"#utility.yul\":1679:1999   */\ntag_30:\n    /* \"#utility.yul\":1723:1729   */\n  0x00\n    /* \"#utility.yul\":1760:1761   */\n  0x02\n    /* \"#utility.yul\":1754:1758   */\n  dup3\n    /* \"#utility.yul\":1750:1762   */\n  div\n    /* \"#utility.yul\":1740:1762   */\n  swap1\n  pop\n    /* \"#utility.yul\":1807:1808   */\n  0x01\n    /* \"#utility.yul\":1801:1805   */\n  dup3\n    /* \"#utility.yul\":1797:1809   */\n  and\n    /* \"#utility.yul\":1828:1846   */\n  dup1\n    /* \"#utility.yul\":1818:1899   */\n  tag_68\n  jumpi\n    /* \"#utility.yul\":1884:1888   */\n  0x7f\n    /* \"#utility.yul\":1876:1882   */\n  dup3\n    /* \"#utility.yul\":1872:1889   */\n  and\n    /* \"#utility.yul\":1862:1889   */\n  swap2\n  pop\n    /* \"#utility.yul\":1818:1899   */\ntag_68:\n    /* \"#utility.yul\":1946:1948   */\n  0x20\n    /* \"#utility.yul\":1938:1944   */\n  dup3\n    /* \"#utility.yul\":1935:1949   */\n  lt\n    /* \"#utility.yul\":1915:1933   */\n  dup2\n    /* \"#utility.yul\":1912:1950   */\n  sub\n    /* \"#utility.yul\":1909:1993   */\n  tag_69\n  jumpi\n    /* \"#utility.yul\":1965:1983   */\n  tag_70\n  tag_29\n  jump\t// in\ntag_70:\n    /* \"#utility.yul\":1909:1993   */\ntag_69:\n    /* \"#utility.yul\":1730:1999   */\n  pop\n    /* \"#utility.yul\":1679:1999   */\n  swap2\n  swap1\n  pop\n  jump\t// out\n    /* \"#utility.yul\":2005:2146   */\ntag_31:\n    /* \"#utility.yul\":2054:2058   */\n  0x00\n    /* \"#utility.yul\":2077:2080   */\n  dup2\n    /* \"#utility.yul\":2069:2080   */\n  swap1\n  pop\n    /* \"#utility.yul\":2100:2103   */\n  dup2\n    /* \"#utility.yul\":2097:2098   */\n  0x00\n    /* \"#utility.yul\":2090:2104   */\n  mstore\n    /* \"#utility.yul\":2134:2138   */\n  0x20\n    /* \"#utility.yul\":2131:2132   */\n  0x00\n    /* \"#utility.yul\":2121:2139   */\n  keccak256\n    /* \"#utility.yul\":2113:2139   */\n  swap1\n  pop\n    /* \"#utility.yul\":2005:2146   */\n  swap2\n  swap1\n  pop\n  jump\t// out\n    /* \"#utility.yul\":2152:2245   */\ntag_32:\n    /* \"#utility.yul\":2189:2195   */\n  0x00\n    /* \"#utility.yul\":2236:2238   */\n  0x20\n    /* \"#utility.yul\":2231:2233   */\n  0x1f\n    /* \"#utility.yul\":2224:2229   */\n  dup4\n    /* \"#utility.yul\":2220:2234   */\n  add\n    /* \"#utility.yul\":2216:2239   */\n  div\n    /* \"#utility.yul\":2206:2239   */\n  swap1\n  pop\n    /* \"#utility.yul\":2152:2245   */\n  swap2\n  swap1\n  pop\n  jump\t// out\n    /* \"#utility.yul\":2251:2358   */\ntag_33:\n    /* \"#utility.yul\":2295:2303   */\n  0x00\n    /* \"#utility.yul\":2345:2350   */\n  dup3\n    /* \"#utility.yul\":2339:2343   */\n  dup3\n    /* \"#utility.yul\":2335:2351   */\n  shl\n    /* \"#utility.yul\":2314:2351   */\n  swap1\n  pop\n    /* \"#utility.yul\":2251:2358   */\n  swap3\n  swap2\n  pop\n  pop\n  jump\t// out\n    /* \"#utility.yul\":2364:2757   */\ntag_34:\n    /* \"#utility.yul\":2433:2439   */\n  0x00\n    /* \"#utility.yul\":2483:2484   */\n  0x08\n    /* \"#utility.yul\":2471:2481   */\n  dup4\n    /* \"#utility.yul\":2467:2485   */\n  mul\n    /* \"#utility.yul\":2506:2603   */\n  tag_75\n    /* \"#utility.yul\":2536:2602   */\n  0xffffffffffffffffffffffffffffffffffffffffffffffffffffffffffffffff\n    /* \"#utility.yul\":2525:2534   */\n  dup3\n    /* \"#utility.yul\":2506:2603   */\n  tag_33\n  jump\t// in\ntag_75:\n    /* \"#utility.yul\":2624:2663   */\n  tag_76\n    /* \"#utility.yul\":2654:2662   */\n  dup7\n    /* \"#utility.yul\":2643:2652   */\n  dup4\n    /* \"#utility.yul\":2624:2663   */\n  tag_33\n  jump\t// in\ntag_76:\n    /* \"#utility.yul\":2612:2663   */\n  swap6\n  pop\n    /* \"#utility.yul\":2696:2700   */\n  dup1\n    /* \"#utility.yul\":2692:2701   */\n  not\n    /* \"#utility.yul\":2685:2690   */\n  dup5\n    /* \"#utility.yul\":2681:2702   */\n  and\n    /* \"#utility.yul\":2672:2702   */\n  swap4\n  pop\n    /* \"#utility.yul\":2745:2749   */\n  dup1\n    /* \"#utility.yul\":2735:2743   */\n  dup7\n    /* \"#utility.yul\":2731:2750   */\n  and\n    /* \"#utility.yul\":2724:2729   */\n  dup5\n    /* \"#utility.yul\":2721:2751   */\n  or\n    /* \"#utility.yul\":2711:2751   */\n  swap3\n  pop\n    /* \"#utility.yul\":2440:2757   */\n  pop\n  pop\n    /* \"#utility.yul\":2364:2757   */\n  swap4\n  swap3\n  pop\n  pop\n  pop\n  jump\t// out\n    /* \"#utility.yul\":2763:2840   */\ntag_35:\n    /* \"#utility.yul\":2800:2807   */\n  0x00\n    /* \"#utility.yul\":2829:2834   */\n  dup2\n    /* \"#utility.yul\":2818:2834   */\n  swap1\n  pop\n    /* \"#utility.yul\":2763:2840   */\n  swap2\n  swap1\n  pop\n  jump\t// out\n    /* \"#utility.yul\":2846:2906   */\ntag_36:\n    /* \"#utility.yul\":2874:2877   */\n  0x00\n    /* \"#utility.yul\":2895:2900   */\n  dup2\n    /* \"#utility.yul\":2888:2900   */\n  swap1\n  pop\n    /* \"#utility.yul\":2846:2906   */\n  swap2\n  swap1\n  pop\n  jump\t// out\n    /* \"#utility.yul\":2912:3054   */\ntag_37:\n    /* \"#utility.yul\":2962:2971   */\n  0x00\n    /* \"#utility.yul\":2995:3048   */\n  tag_80\n    /* \"#utility.yul\":3013:3047   */\n  tag_81\n    /* \"#utility.yul\":3022:3046   */\n  tag_82\n    /* \"#utility.yul\":3040:3045   */\n  dup5\n    /* \"#utility.yul\":3022:3046   */\n  tag_35\n  jump\t// in\ntag_82:\n    /* \"#utility.yul\":3013:3047   */\n  tag_36\n  jump\t// in\ntag_81:\n    /* \"#utility.yul\":2995:3048   */\n  tag_35\n  jump\t// in\ntag_80:\n    /* \"#utility.yul\":2982:3048   */\n  swap1\n  pop\n    /* \"#utility.yul\":2912:3054   */\n  swap2\n  swap1\n  pop\n  jump\t// out\n    /* \"#utility.yul\":3060:3135   */\ntag_38:\n    /* \"#utility.yul\":3103:3106   */\n  0x00\n    /* \"#utility.yul\":3124:3129   */\n  dup2\n    /* \"#utility.yul\":3117:3129   */\n  swap1\n  pop\n    /* \"#utility.yul\":3060:3135   */\n  swap2\n  swap1\n  pop\n  jump\t// out\n    /* \"#utility.yul\":3141:3410   */\ntag_39:\n    /* \"#utility.yul\":3251:3290   */\n  tag_85\n    /* \"#utility.yul\":3282:3289   */\n  dup4\n    /* \"#utility.yul\":3251:3290   */\n  tag_37\n  jump\t// in\ntag_85:\n    /* \"#utility.yul\":3312:3403   */\n  tag_86\n    /* \"#utility.yul\":3361:3402   */\n  tag_87\n    /* \"#utility.yul\":3385:3401   */\n  dup3\n    /* \"#utility.yul\":3361:3402   */\n  tag_38\n  jump\t// in\ntag_87:\n    /* \"#utility.yul\":3353:3359   */\n  dup5\n    /* \"#utility.yul\":3346:3350   */\n  dup5\n    /* \"#utility.yul\":3340:3351   */\n  sload\n    /* \"#utility.yul\":3312:3403   */\n  tag_34\n  jump\t// in\ntag_86:\n    /* \"#utility.yul\":3306:3310   */\n  dup3\n    /* \"#utility.yul\":3299:3404   */\n  sstore\n    /* \"#utility.yul\":3217:3410   */\n  pop\n    /* \"#utility.yul\":3141:3410   */\n  pop\n  pop\n  pop\n  jump\t// out\n    /* \"#utility.yul\":3416:3489   */\ntag_40:\n    /* \"#utility.yul\":3461:3464   */\n  0x00\n    /* \"#utility.yul\":3416:3489   */\n  swap1\n  jump\t// out\n    /* \"#utility.yul\":3495:3684   */\ntag_41:\n    /* \"#utility.yul\":3572:3604   */\n  tag_90\n  tag_40\n  jump\t// in\ntag_90:\n    /* \"#utility.yul\":3613:3678   */\n  tag_91\n    /* \"#utility.yul\":3671:3677   */\n  dup2\n    /* \"#utility.yul\":3663:3669   */\n  dup5\n    /* \"#utility.yul\":3657:3661   */\n  dup5\n    /* \"#utility.yul\":3613:3678   */\n  tag_39\n  jump\t// in\ntag_91:\n    /* \"#utility.yul\":3548:3684   */\n  pop\n    /* \"#utility.yul\":3495:3684   */\n  pop\n  pop\n  jump\t// out\n    /* \"#utility.yul\":3690:3876   */\ntag_42:\n    /* \"#utility.yul\":3750:3870   */\ntag_93:\n    /* \"#utility.yul\":3767:3770   */\n  dup2\n    /* \"#utility.yul\":3760:3765   */\n  dup2\n    /* \"#utility.yul\":3757:3771   */\n  lt\n    /* \"#utility.yul\":3750:3870   */\n  iszero\n  tag_95\n  jumpi\n    /* \"#utility.yul\":3821:3860   */\n  tag_96\n    /* \"#utility.yul\":3858:3859   */\n  0x00\n    /* \"#utility.yul\":3851:3856   */\n  dup3\n    /* \"#utility.yul\":3821:3860   */\n  tag_41\n  jump\t// in\ntag_96:\n    /* \"#utility.yul\":3794:3795   */\n  0x01\n    /* \"#utility.yul\":3787:3792   */\n  dup2\n    /* \"#utility.yul\":3783:3796   */\n  add\n    /* \"#utility.yul\":3774:3796   */\n  swap1\n  pop\n    /* \"#utility.yul\":3750:3870   */\n  jump(tag_93)\ntag_95:\n    /* \"#utility.yul\":3690:3876   */\n  pop\n  pop\n  jump\t// out\n    /* \"#utility.yul\":3882:4425   */\ntag_43:\n    /* \"#utility.yul\":3983:3985   */\n  0x1f\n    /* \"#utility.yul\":3978:3981   */\n  dup3\n    /* \"#utility.yul\":3975:3986   */\n  gt\n    /* \"#utility.yul\":3972:4418   */\n  iszero\n  tag_98\n  jumpi\n    /* \"#utility.yul\":4017:4055   */\n  tag_99\n    /* \"#utility.yul\":4049:4054   */\n  dup2\n    /* \"#utility.yul\":4017:4055   */\n  tag_31\n  jump\t// in\ntag_99:\n    /* \"#utility.yul\":4101:4130   */\n  tag_100\n    /* \"#utility.yul\":4119:4129   */\n  dup5\n    /* \"#utility.yul\":4101:4130   */\n  tag_32\n  jump\t// in\ntag_100:\n    /* \"#utility.yul\":4091:4099   */\n  dup2\n    /* \"#utility.yul\":4087:4131   */\n  add\n    /* \"#utility.yul\":4284:4286   */\n  0x20\n    /* \"#utility.yul\":4272:4282   */\n  dup6\n    /* \"#utility.yul\":4269:4287   */\n  lt\n    /* \"#utility.yul\":4266:4315   */\n  iszero\n  tag_101\n  jumpi\n    /* \"#utility.yul\":4305:4313   */\n  dup2\n    /* \"#utility.yul\":4290:4313   */\n  swap1\n  pop\n    /* \"#utility.yul\":4266:4315   */\ntag_101:\n    /* \"#utility.yul\":4328:4408   */\n  tag_102\n    /* \"#utility.yul\":4384:4406   */\n  tag_103\n    /* \"#utility.yul\":4402:4405   */\n  dup6\n    /* \"#utility.yul\":4384:4406   */\n  tag_32\n  jump\t// in\ntag_103:\n    /* \"#utility.yul\":4374:4382   */\n  dup4\n    /* \"#utility.yul\":4370:4407   */\n  add\n    /* \"#utility.yul\":4357:4368   */\n  dup3\n    /* \"#utility.yul\":4328:4408   */\n  tag_42\n  jump\t// in\ntag_102:\n    /* \"#utility.yul\":3987:4418   */\n  pop\n  pop\n    /* \"#utility.yul\":3972:4418   */\ntag_98:\n    /* \"#utility.yul\":3882:4425   */\n  pop\n  pop\n  pop\n  jump\t// out\n    /* \"#utility.yul\":4431:4548   */\ntag_44:\n    /* \"#utility.yul\":4485:4493   */\n  0x00\n    /* \"#utility.yul\":4535:4540   */\n  dup3\n    /* \"#utility.yul\":4529:4533   */\n  dup3\n    /* \"#utility.yul\":4525:4541   */\n  shr\n    /* \"#utility.yul\":4504:4541   */\n  swap1\n  pop\n    /* \"#utility.yul\":4431:4548   */\n  swap3\n  swap2\n  pop\n  pop\n  jump\t// out\n    /* \"#utility.yul\":4554:4723   */\ntag_45:\n    /* \"#utility.yul\":4598:4604   */\n  0x00\n    /* \"#utility.yul\":4631:4682   */\n  tag_106\n    /* \"#utility.yul\":4679:4680   */\n  0x00\n    /* \"#utility.yul\":4675:4681   */\n  not\n    /* \"#utility.yul\":4667:4672   */\n  dup5\n    /* \"#utility.yul\":4664:4665   */\n  0x08\n    /* \"#utility.yul\":4660:4673   */\n  mul\n    /* \"#utility.yul\":4631:4682   */\n  tag_44\n  jump\t// in\ntag_106:\n    /* \"#utility.yul\":4627:4683   */\n  not\n    /* \"#utility.yul\":4712:4716   */\n  dup1\n    /* \"#utility.yul\":4706:4710   */\n  dup4\n    /* \"#utility.yul\":4702:4717   */\n  and\n    /* \"#utility.yul\":4692:4717   */\n  swap2\n  pop\n    /* \"#utility.yul\":4605:4723   */\n  pop\n    /* \"#utility.yul\":4554:4723   */\n  swap3\n  swap2\n  pop\n  pop\n  jump\t// out\n    /* \"#utility.yul\":4728:5023   */\ntag_46:\n    /* \"#utility.yul\":4804:4808   */\n  0x00\n    /* \"#utility.yul\":4950:4979   */\n  tag_108\n    /* \"#utility.yul\":4975:4978   */\n  dup4\n    /* \"#utility.yul\":4969:4973   */\n  dup4\n    /* \"#utility.yul\":4950:4979   */\n  tag_45\n  jump\t// in\ntag_108:\n    /* \"#utility.yul\":4942:4979   */\n  swap2\n  pop\n    /* \"#utility.yul\":5012:5015   */\n  dup3\n    /* \"#utility.yul\":5009:5010   */\n  0x02\n    /* \"#utility.yul\":5005:5016   */\n  mul\n    /* \"#utility.yul\":4999:5003   */\n  dup3\n    /* \"#utility.yul\":4996:5017   */\n  or\n    /* \"#utility.yul\":4988:5017   */\n  swap1\n  pop\n    /* \"#utility.yul\":4728:5023   */\n  swap3\n  swap2\n  pop\n  pop\n  jump\t// out\n    /* \"#utility.yul\":5028:6423   */\ntag_9:\n    /* \"#utility.yul\":5145:5182   */\n  tag_110\n    /* \"#utility.yul\":5178:5181   */\n  dup3\n    /* \"#utility.yul\":5145:5182   */\n  tag_27\n  jump\t// in\ntag_110:\n    /* \"#utility.yul\":5247:5265   */\n  0xffffffffffffffff\n    /* \"#utility.yul\":5239:5245   */\n  dup2\n    /* \"#utility.yul\":5236:5266   */\n  gt\n    /* \"#utility.yul\":5233:5289   */\n  iszero\n  tag_111\n  jumpi\n    /* \"#utility.yul\":5269:5287   */\n  tag_112\n  tag_28\n  jump\t// in\ntag_112:\n    /* \"#utility.yul\":5233:5289   */\ntag_111:\n    /* \"#utility.yul\":5313:5351   */\n  tag_113\n    /* \"#utility.yul\":5345:5349   */\n  dup3\n    /* \"#utility.yul\":5339:5350   */\n  sload\n    /* \"#utility.yul\":5313:5351   */\n  tag_30\n  jump\t// in\ntag_113:\n    /* \"#utility.yul\":5398:5465   */\n  tag_114\n    /* \"#utility.yul\":5458:5464   */\n  dup3\n    /* \"#utility.yul\":5450:5456   */\n  dup3\n    /* \"#utility.yul\":5444:5448   */\n  dup6\n    /* \"#utility.yul\":5398:5465   */\n  tag_43\n  jump\t// in\ntag_114:\n    /* \"#utility.yul\":5492:5493   */\n  0x00\n    /* \"#utility.yul\":5516:5520   */\n  0x20\n    /* \"#utility.yul\":5503:5520   */\n  swap1\n  pop\n    /* \"#utility.yul\":5548:5550   */\n  0x1f\n    /* \"#utility.yul\":5540:5546   */\n  dup4\n    /* \"#utility.yul\":5537:5551   */\n  gt\n    /* \"#utility.yul\":5565:5566   */\n  0x01\n    /* \"#utility.yul\":5560:6178   */\n  dup2\n  eq\n  tag_116\n  jumpi\n    /* \"#utility.yul\":6222:6223   */\n  0x00\n    /* \"#utility.yul\":6239:6245   */\n  dup5\n    /* \"#utility.yul\":6236:6313   */\n  iszero\n  tag_117\n  jumpi\n    /* \"#utility.yul\":6288:6297   */\n  dup3\n    /* \"#utility.yul\":6283:6286   */\n  dup8\n    /* \"#utility.yul\":6279:6298   */\n  add\n    /* \"#utility.yul\":6273:6299   */\n  mload\n    /* \"#utility.yul\":6264:6299   */\n  swap1\n  pop\n    /* \"#utility.yul\":6236:6313   */\ntag_117:\n    /* \"#utility.yul\":6339:6406   */\n  tag_118\n    /* \"#utility.yul\":6399:6405   */\n  dup6\n    /* \"#utility.yul\":6392:6397   */\n  dup3\n    /* \"#utility.yul\":6339:6406   */\n  tag_46\n  jump\t// in\ntag_118:\n    /* \"#utility.yul\":6333:6337   */\n  dup7\n    /* \"#utility.yul\":6326:6407   */\n  sstore\n    /* \"#utility.yul\":6195:6417   */\n  pop\n    /* \"#utility.yul\":5530:6417   */\n  jump(tag_115)\n    /* \"#utility.yul\":5560:6178   */\ntag_116:\n    /* \"#utility.yul\":5612:5616   */\n  0x1f\n    /* \"#utility.yul\":5608:5617   */\n  not\n    /* \"#utility.yul\":5600:5606   */\n  dup5\n    /* \"#utility.yul\":5596:5618   */\n  and\n    /* \"#utility.yul\":5646:5683   */\n  tag_119\n    /* \"#utility.yul\":5678:5682   */\n  dup7\n    /* \"#utility.yul\":5646:5683   */\n  tag_31\n  jump\t// in\ntag_119:\n    /* \"#utility.yul\":5705:5706   */\n  0x00\n    /* \"#utility.yul\":5719:5927   */\ntag_120:\n    /* \"#utility.yul\":5733:5740   */\n  dup3\n    /* \"#utility.yul\":5730:5731   */\n  dup2\n    /* \"#utility.yul\":5727:5741   */\n  lt\n    /* \"#utility.yul\":5719:5927   */\n  iszero\n  tag_122\n  jumpi\n    /* \"#utility.yul\":5812:5821   */\n  dup5\n    /* \"#utility.yul\":5807:5810   */\n  dup10\n    /* \"#utility.yul\":5803:5822   */\n  add\n    /* \"#utility.yul\":5797:5823   */\n  mload\n    /* \"#utility.yul\":5789:5795   */\n  dup3\n    /* \"#utility.yul\":5782:5824   */\n  sstore\n    /* \"#utility.yul\":5863:5864   */\n  0x01\n    /* \"#utility.yul\":5855:5861   */\n  dup3\n    /* \"#utility.yul\":5851:5865   */\n  add\n    /* \"#utility.yul\":5841:5865   */\n  swap2\n  pop\n    /* \"#utility.yul\":5910:5912   */\n  0x20\n    /* \"#utility.yul\":5899:5908   */\n  dup6\n    /* \"#utility.yul\":5895:5913   */\n  add\n    /* \"#utility.yul\":5882:5913   */\n  swap5\n  pop\n    /* \"#utility.yul\":5756:5760   */\n  0x20\n    /* \"#utility.yul\":5753:5754   */\n  dup2\n    /* \"#utility.yul\":5749:5761   */\n  add\n    /* \"#utility.yul\":5744:5761   */\n  swap1\n  pop\n    /* \"#utility.yul\":5719:5927   */\n  jump(tag_120)\ntag_122:\n    /* \"#utility.yul\":5955:5961   */\n  dup7\n    /* \"#utility.yul\":5946:5953   */\n  dup4\n    /* \"#utility.yul\":5943:5962   */\n  lt\n    /* \"#utility.yul\":5940:6119   */\n  iszero\n  tag_123\n  jumpi\n    /* \"#utility.yul\":6013:6022   */\n  dup5\n    /* \"#utility.yul\":6008:6011   */\n  dup10\n    /* \"#utility.yul\":6004:6023   */\n  add\n    /* \"#utility.yul\":5998:6024   */\n  mload\n    /* \"#utility.yul\":6056:6104   */\n  tag_124\n    /* \"#utility.yul\":6098:6102   */\n  0x1f\n    /* \"#utility.yul\":6090:6096   */\n  dup10\n    /* \"#utility.yul\":6086:6103   */\n  and\n    /* \"#utility.yul\":6075:6084   */\n  dup3\n    /* \"#utility.yul\":6056:6104   */\n  tag_45\n  jump\t// in\ntag_124:\n    /* \"#utility.yul\":6048:6054   */\n  dup4\n    /* \"#utility.yul\":6041:6105   */\n  sstore\n    /* \"#utility.yul\":5963:6119   */\n  pop\n    /* \"#utility.yul\":5940:6119   */\ntag_123:\n    /* \"#utility.yul\":6165:6166   */\n  0x01\n    /* \"#utility.yul\":6161:6162   */\n  0x02\n    /* \"#utility.yul\":6153:6159   */\n  dup9\n    /* \"#utility.yul\":6149:6163   */\n  mul\n    /* \"#utility.yul\":6145:6167   */\n  add\n    /* \"#utility.yul\":6139:6143   */\n  dup9\n    /* \"#utility.yul\":6132:6168   */\n  sstore\n    /* \"#utility.yul\":5567:6178   */\n  pop\n  pop\n  pop\n    /* \"#utility.yul\":5530:6417   */\ntag_115:\n  pop\n    /* \"#utility.yul\":5120:6423   */\n  pop\n  pop\n  pop\n    /* \"#utility.yul\":5028:6423   */\n  pop\n  pop\n  jump\t// out\n    /* \"#utility.yul\":6429:6547   */\ntag_47:\n    /* \"#utility.yul\":6516:6540   */\n  tag_126\n    /* \"#utility.yul\":6534:6539   */\n  dup2\n    /* \"#utility.yul\":6516:6540   */\n  tag_24\n  jump\t// in\ntag_126:\n    /* \"#utility.yul\":6511:6514   */\n  dup3\n    /* \"#utility.yul\":6504:6541   */\n  mstore\n    /* \"#utility.yul\":6429:6547   */\n  pop\n  pop\n  jump\t// out\n    /* \"#utility.yul\":6553:6775   */\ntag_14:\n    /* \"#utility.yul\":6646:6650   */\n  0x00\n    /* \"#utility.yul\":6684:6686   */\n  0x20\n    /* \"#utility.yul\":6673:6682   */\n  dup3\n    /* \"#utility.yul\":6669:6687   */\n  add\n    /* \"#utility.yul\":6661:6687   */\n  swap1\n  pop\n    /* \"#utility.yul\":6697:6768   */\n  tag_128\n    /* \"#utility.yul\":6765:6766   */\n  0x00\n    /* \"#utility.yul\":6754:6763   */\n  dup4\n    /* \"#utility.yul\":6750:6767   */\n  add\n    /* \"#utility.yul\":6741:6747   */\n  dup5\n    /* \"#utility.yul\":6697:6768   */\n  tag_47\n  jump\t// in\ntag_128:\n    /* \"#utility.yul\":6553:6775   */\n  swap3\n  swap2\n  pop\n  pop\n  jump\t// out\n    /* \"contracts/Fungees.sol\":350:1292  contract MyToken is ERC721, ERC721URIStorage, ERC721Burnable, Ownable {... */\ntag_18:\n  dataSize(sub_0)\n  dup1\n  dataOffset(sub_0)\n  0x00\n  codecopy\n  0x00\n  return\nstop\n\nsub_0: assembly {\n        /* \"contracts/Fungees.sol\":350:1292  contract MyToken is ERC721, ERC721URIStorage, ERC721Burnable, Ownable {... */\n      mstore(0x40, 0x80)\n      callvalue\n      dup1\n      iszero\n      tag_1\n      jumpi\n      0x00\n      dup1\n      revert\n    tag_1:\n      pop\n      jumpi(tag_2, lt(calldatasize, 0x04))\n      shr(0xe0, calldataload(0x00))\n      dup1\n      0x715018a6\n      gt\n      tag_21\n      jumpi\n      dup1\n      0xb88d4fde\n      gt\n      tag_22\n      jumpi\n      dup1\n      0xb88d4fde\n      eq\n      tag_16\n      jumpi\n      dup1\n      0xc87b56dd\n      eq\n      tag_17\n      jumpi\n      dup1\n      0xd204c45e\n      eq\n      tag_18\n      jumpi\n      dup1\n      0xe985e9c5\n      eq\n      tag_19\n      jumpi\n      dup1\n      0xf2fde38b\n      eq\n      tag_20\n      jumpi\n      jump(tag_2)\n    tag_22:\n      dup1\n      0x715018a6\n      eq\n      tag_12\n      jumpi\n      dup1\n      0x8da5cb5b\n      eq\n      tag_13\n      jumpi\n      dup1\n      0x95d89b41\n      eq\n      tag_14\n      jumpi\n      dup1\n      0xa22cb465\n      eq\n      tag_15\n      jumpi\n      jump(tag_2)\n    tag_21:\n      dup1\n      0x23b872dd\n      gt\n      tag_23\n      jumpi\n      dup1\n      0x23b872dd\n      eq\n      tag_7\n      jumpi\n      dup1\n      0x42842e0e\n      eq\n      tag_8\n      jumpi\n      dup1\n      0x42966c68\n      eq\n      tag_9\n      jumpi\n      dup1\n      0x6352211e\n      eq\n      tag_10\n      jumpi\n      dup1\n      0x70a08231\n      eq\n      tag_11\n      jumpi\n      jump(tag_2)\n    tag_23:\n      dup1\n      0x01ffc9a7\n      eq\n      tag_3\n      jumpi\n      dup1\n      0x06fdde03\n      eq\n      tag_4\n      jumpi\n      dup1\n      0x081812fc\n      eq\n      tag_5\n      jumpi\n      dup1\n      0x095ea7b3\n      eq\n      tag_6\n      jumpi\n    tag_2:\n      0x00\n      dup1\n      revert\n        /* \"contracts/Fungees.sol\":1085:1290  function supportsInterface(bytes4 interfaceId)... */\n    tag_3:\n      tag_24\n      0x04\n      dup1\n      calldatasize\n      sub\n      dup2\n      add\n      swap1\n      tag_25\n      swap2\n      swap1\n      tag_26\n      jump\t// in\n    tag_25:\n      tag_27\n      jump\t// in\n    tag_24:\n      mload(0x40)\n      tag_28\n      swap2\n      swap1\n      tag_29\n      jump\t// in\n    tag_28:\n      mload(0x40)\n      dup1\n      swap2\n      sub\n      swap1\n      return\n        /* \"@openzeppelin/contracts@5.0.0/token/ERC721/ERC721.sol\":2365:2454  function name() public view virtual returns (string memory) {... */\n    tag_4:\n      tag_30\n      tag_31\n      jump\t// in\n    tag_30:\n      mload(0x40)\n      tag_32\n      swap2\n      swap1\n      tag_33\n      jump\t// in\n    tag_32:\n      mload(0x40)\n      dup1\n      swap2\n      sub\n      swap1\n      return\n        /* \"@openzeppelin/contracts@5.0.0/token/ERC721/ERC721.sol\":3497:3651  function getApproved(uint256 tokenId) public view virtual returns (address) {... */\n    tag_5:\n      tag_34\n      0x04\n      dup1\n      calldatasize\n      sub\n      dup2\n      add\n      swap1\n      tag_35\n      swap2\n      swap1\n      tag_36\n      jump\t// in\n    tag_35:\n      tag_37\n      jump\t// in\n    tag_34:\n      mload(0x40)\n      tag_38\n      swap2\n      swap1\n      tag_39\n      jump\t// in\n    tag_38:\n      mload(0x40)\n      dup1\n      swap2\n      sub\n      swap1\n      return\n        /* \"@openzeppelin/contracts@5.0.0/token/ERC721/ERC721.sol\":3323:3436  function approve(address to, uint256 tokenId) public virtual {... */\n    tag_6:\n      tag_40\n      0x04\n      dup1\n      calldatasize\n      sub\n      dup2\n      add\n      swap1\n      tag_41\n      swap2\n      swap1\n      tag_42\n      jump\t// in\n    tag_41:\n      tag_43\n      jump\t// in\n    tag_40:\n      stop\n        /* \"@openzeppelin/contracts@5.0.0/token/ERC721/ERC721.sol\":4143:4721  function transferFrom(address from, address to, uint256 tokenId) public virtual {... */\n    tag_7:\n      tag_44\n      0x04\n      dup1\n      calldatasize\n      sub\n      dup2\n      add\n      swap1\n      tag_45\n      swap2\n      swap1\n      tag_46\n      jump\t// in\n    tag_45:\n      tag_47\n      jump\t// in\n    tag_44:\n      stop\n        /* \"@openzeppelin/contracts@5.0.0/token/ERC721/ERC721.sol\":4787:4919  function safeTransferFrom(address from, address to, uint256 tokenId) public {... */\n    tag_8:\n      tag_48\n      0x04\n      dup1\n      calldatasize\n      sub\n      dup2\n      add\n      swap1\n      tag_49\n      swap2\n      swap1\n      tag_46\n      jump\t// in\n    tag_49:\n      tag_50\n      jump\t// in\n    tag_48:\n      stop\n        /* \"@openzeppelin/contracts@5.0.0/token/ERC721/extensions/ERC721Burnable.sol\":561:875  function burn(uint256 tokenId) public virtual {... */\n    tag_9:\n      tag_51\n      0x04\n      dup1\n      calldatasize\n      sub\n      dup2\n      add\n      swap1\n      tag_52\n      swap2\n      swap1\n      tag_36\n      jump\t// in\n    tag_52:\n      tag_53\n      jump\t// in\n    tag_51:\n      stop\n        /* \"@openzeppelin/contracts@5.0.0/token/ERC721/ERC721.sol\":2185:2303  function ownerOf(uint256 tokenId) public view virtual returns (address) {... */\n    tag_10:\n      tag_54\n      0x04\n      dup1\n      calldatasize\n      sub\n      dup2\n      add\n      swap1\n      tag_55\n      swap2\n      swap1\n      tag_36\n      jump\t// in\n    tag_55:\n      tag_56\n      jump\t// in\n    tag_54:\n      mload(0x40)\n      tag_57\n      swap2\n      swap1\n      tag_39\n      jump\t// in\n    tag_57:\n      mload(0x40)\n      dup1\n      swap2\n      sub\n      swap1\n      return\n        /* \"@openzeppelin/contracts@5.0.0/token/ERC721/ERC721.sol\":1920:2128  function balanceOf(address owner) public view virtual returns (uint256) {... */\n    tag_11:\n      tag_58\n      0x04\n      dup1\n      calldatasize\n      sub\n      dup2\n      add\n      swap1\n      tag_59\n      swap2\n      swap1\n      tag_60\n      jump\t// in\n    tag_59:\n      tag_61\n      jump\t// in\n    tag_58:\n      mload(0x40)\n      tag_62\n      swap2\n      swap1\n      tag_63\n      jump\t// in\n    tag_62:\n      mload(0x40)\n      dup1\n      swap2\n      sub\n      swap1\n      return\n        /* \"@openzeppelin/contracts@5.0.0/access/Ownable.sol\":2293:2394  function renounceOwnership() public virtual onlyOwner {... */\n    tag_12:\n      tag_64\n      tag_65\n      jump\t// in\n    tag_64:\n      stop\n        /* \"@openzeppelin/contracts@5.0.0/access/Ownable.sol\":1638:1723  function owner() public view virtual returns (address) {... */\n    tag_13:\n      tag_66\n      tag_67\n      jump\t// in\n    tag_66:\n      mload(0x40)\n      tag_68\n      swap2\n      swap1\n      tag_39\n      jump\t// in\n    tag_68:\n      mload(0x40)\n      dup1\n      swap2\n      sub\n      swap1\n      return\n        /* \"@openzeppelin/contracts@5.0.0/token/ERC721/ERC721.sol\":2518:2611  function symbol() public view virtual returns (string memory) {... */\n    tag_14:\n      tag_69\n      tag_70\n      jump\t// in\n    tag_69:\n      mload(0x40)\n      tag_71\n      swap2\n      swap1\n      tag_33\n      jump\t// in\n    tag_71:\n      mload(0x40)\n      dup1\n      swap2\n      sub\n      swap1\n      return\n        /* \"@openzeppelin/contracts@5.0.0/token/ERC721/ERC721.sol\":3718:3862  function setApprovalForAll(address operator, bool approved) public virtual {... */\n    tag_15:\n      tag_72\n      0x04\n      dup1\n      calldatasize\n      sub\n      dup2\n      add\n      swap1\n      tag_73\n      swap2\n      swap1\n      tag_74\n      jump\t// in\n    tag_73:\n      tag_75\n      jump\t// in\n    tag_72:\n      stop\n        /* \"@openzeppelin/contracts@5.0.0/token/ERC721/ERC721.sol\":4985:5193  function safeTransferFrom(address from, address to, uint256 tokenId, bytes memory data) public virtual {... */\n    tag_16:\n      tag_76\n      0x04\n      dup1\n      calldatasize\n      sub\n      dup2\n      add\n      swap1\n      tag_77\n      swap2\n      swap1\n      tag_78\n      jump\t// in\n    tag_77:\n      tag_79\n      jump\t// in\n    tag_76:\n      stop\n        /* \"contracts/Fungees.sol\":890:1079  function tokenURI(uint256 tokenId)... */\n    tag_17:\n      tag_80\n      0x04\n      dup1\n      calldatasize\n      sub\n      dup2\n      add\n      swap1\n      tag_81\n      swap2\n      swap1\n      tag_36\n      jump\t// in\n    tag_81:\n      tag_82\n      jump\t// in\n    tag_80:\n      mload(0x40)\n      tag_83\n      swap2\n      swap1\n      tag_33\n      jump\t// in\n    tag_83:\n      mload(0x40)\n      dup1\n      swap2\n      sub\n      swap1\n      return\n        /* \"contracts/Fungees.sol\":613:816  function safeMint(address to, string memory uri)... */\n    tag_18:\n      tag_84\n      0x04\n      dup1\n      calldatasize\n      sub\n      dup2\n      add\n      swap1\n      tag_85\n      swap2\n      swap1\n      tag_86\n      jump\t// in\n    tag_85:\n      tag_87\n      jump\t// in\n    tag_84:\n      stop\n        /* \"@openzeppelin/contracts@5.0.0/token/ERC721/ERC721.sol\":3928:4081  function isApprovedForAll(address owner, address operator) public view virtual returns (bool) {... */\n    tag_19:\n      tag_88\n      0x04\n      dup1\n      calldatasize\n      sub\n      dup2\n      add\n      swap1\n      tag_89\n      swap2\n      swap1\n      tag_90\n      jump\t// in\n    tag_89:\n      tag_91\n      jump\t// in\n    tag_88:\n      mload(0x40)\n      tag_92\n      swap2\n      swap1\n      tag_29\n      jump\t// in\n    tag_92:\n      mload(0x40)\n      dup1\n      swap2\n      sub\n      swap1\n      return\n        /* \"@openzeppelin/contracts@5.0.0/access/Ownable.sol\":2543:2758  function transferOwnership(address newOwner) public virtual onlyOwner {... */\n    tag_20:\n      tag_93\n      0x04\n      dup1\n      calldatasize\n      sub\n      dup2\n      add\n      swap1\n      tag_94\n      swap2\n      swap1\n      tag_60\n      jump\t// in\n    tag_94:\n      tag_95\n      jump\t// in\n    tag_93:\n      stop\n        /* \"contracts/Fungees.sol\":1085:1290  function supportsInterface(bytes4 interfaceId)... */\n    tag_27:\n        /* \"contracts/Fungees.sol\":1220:1224  bool */\n      0x00\n        /* \"contracts/Fungees.sol\":1247:1283  super.supportsInterface(interfaceId) */\n      tag_97\n        /* \"contracts/Fungees.sol\":1271:1282  interfaceId */\n      dup3\n        /* \"contracts/Fungees.sol\":1247:1270  super.supportsInterface */\n      tag_98\n        /* \"contracts/Fungees.sol\":1247:1283  super.supportsInterface(interfaceId) */\n      jump\t// in\n    tag_97:\n        /* \"contracts/Fungees.sol\":1240:1283  return super.supportsInterface(interfaceId) */\n      swap1\n      pop\n        /* \"contracts/Fungees.sol\":1085:1290  function supportsInterface(bytes4 interfaceId)... */\n      swap2\n      swap1\n      pop\n      jump\t// out\n        /* \"@openzeppelin/contracts@5.0.0/token/ERC721/ERC721.sol\":2365:2454  function name() public view virtual returns (string memory) {... */\n    tag_31:\n        /* \"@openzeppelin/contracts@5.0.0/token/ERC721/ERC721.sol\":2410:2423  string memory */\n      0x60\n        /* \"@openzeppelin/contracts@5.0.0/token/ERC721/ERC721.sol\":2442:2447  _name */\n      0x00\n        /* \"@openzeppelin/contracts@5.0.0/token/ERC721/ERC721.sol\":2435:2447  return _name */\n      dup1\n      sload\n      tag_100\n      swap1\n      tag_101\n      jump\t// in\n    tag_100:\n      dup1\n      0x1f\n      add\n      0x20\n      dup1\n      swap2\n      div\n      mul\n      0x20\n      add\n      mload(0x40)\n      swap1\n      dup2\n      add\n      0x40\n      mstore\n      dup1\n      swap3\n      swap2\n      swap1\n      dup2\n      dup2\n      mstore\n      0x20\n      add\n      dup3\n      dup1\n      sload\n      tag_102\n      swap1\n      tag_101\n      jump\t// in\n    tag_102:\n      dup1\n      iszero\n      tag_103\n      jumpi\n      dup1\n      0x1f\n      lt\n      tag_104\n      jumpi\n      0x0100\n      dup1\n      dup4\n      sload\n      div\n      mul\n      dup4\n      mstore\n      swap2\n      0x20\n      add\n      swap2\n      jump(tag_103)\n    tag_104:\n      dup3\n      add\n      swap2\n      swap1\n      0x00\n      mstore\n      keccak256(0x00, 0x20)\n      swap1\n    tag_105:\n      dup2\n      sload\n      dup2\n      mstore\n      swap1\n      0x01\n      add\n      swap1\n      0x20\n      add\n      dup1\n      dup4\n      gt\n      tag_105\n      jumpi\n      dup3\n      swap1\n      sub\n      0x1f\n      and\n      dup3\n      add\n      swap2\n    tag_103:\n      pop\n      pop\n      pop\n      pop\n      pop\n      swap1\n      pop\n        /* \"@openzeppelin/contracts@5.0.0/token/ERC721/ERC721.sol\":2365:2454  function name() public view virtual returns (string memory) {... */\n      swap1\n      jump\t// out\n        /* \"@openzeppelin/contracts@5.0.0/token/ERC721/ERC721.sol\":3497:3651  function getApproved(uint256 tokenId) public view virtual returns (address) {... */\n    tag_37:\n        /* \"@openzeppelin/contracts@5.0.0/token/ERC721/ERC721.sol\":3564:3571  address */\n      0x00\n        /* \"@openzeppelin/contracts@5.0.0/token/ERC721/ERC721.sol\":3583:3605  _requireOwned(tokenId) */\n      tag_107\n        /* \"@openzeppelin/contracts@5.0.0/token/ERC721/ERC721.sol\":3597:3604  tokenId */\n      dup3\n        /* \"@openzeppelin/contracts@5.0.0/token/ERC721/ERC721.sol\":3583:3596  _requireOwned */\n      tag_108\n        /* \"@openzeppelin/contracts@5.0.0/token/ERC721/ERC721.sol\":3583:3605  _requireOwned(tokenId) */\n      jump\t// in\n    tag_107:\n      pop\n        /* \"@openzeppelin/contracts@5.0.0/token/ERC721/ERC721.sol\":3623:3644  _getApproved(tokenId) */\n      tag_109\n        /* \"@openzeppelin/contracts@5.0.0/token/ERC721/ERC721.sol\":3636:3643  tokenId */\n      dup3\n        /* \"@openzeppelin/contracts@5.0.0/token/ERC721/ERC721.sol\":3623:3635  _getApproved */\n      tag_110\n        /* \"@openzeppelin/contracts@5.0.0/token/ERC721/ERC721.sol\":3623:3644  _getApproved(tokenId) */\n      jump\t// in\n    tag_109:\n        /* \"@openzeppelin/contracts@5.0.0/token/ERC721/ERC721.sol\":3616:3644  return _getApproved(tokenId) */\n      swap1\n      pop\n        /* \"@openzeppelin/contracts@5.0.0/token/ERC721/ERC721.sol\":3497:3651  function getApproved(uint256 tokenId) public view virtual returns (address) {... */\n      swap2\n      swap1\n      pop\n      jump\t// out\n        /* \"@openzeppelin/contracts@5.0.0/token/ERC721/ERC721.sol\":3323:3436  function approve(address to, uint256 tokenId) public virtual {... */\n    tag_43:\n        /* \"@openzeppelin/contracts@5.0.0/token/ERC721/ERC721.sol\":3394:3429  _approve(to, tokenId, _msgSender()) */\n      tag_112\n        /* \"@openzeppelin/contracts@5.0.0/token/ERC721/ERC721.sol\":3403:3405  to */\n      dup3\n        /* \"@openzeppelin/contracts@5.0.0/token/ERC721/ERC721.sol\":3407:3414  tokenId */\n      dup3\n        /* \"@openzeppelin/contracts@5.0.0/token/ERC721/ERC721.sol\":3416:3428  _msgSender() */\n      tag_113\n        /* \"@openzeppelin/contracts@5.0.0/token/ERC721/ERC721.sol\":3416:3426  _msgSender */\n      tag_114\n        /* \"@openzeppelin/contracts@5.0.0/token/ERC721/ERC721.sol\":3416:3428  _msgSender() */\n      jump\t// in\n    tag_113:\n        /* \"@openzeppelin/contracts@5.0.0/token/ERC721/ERC721.sol\":3394:3402  _approve */\n      tag_115\n        /* \"@openzeppelin/contracts@5.0.0/token/ERC721/ERC721.sol\":3394:3429  _approve(to, tokenId, _msgSender()) */\n      jump\t// in\n    tag_112:\n        /* \"@openzeppelin/contracts@5.0.0/token/ERC721/ERC721.sol\":3323:3436  function approve(address to, uint256 tokenId) public virtual {... */\n      pop\n      pop\n      jump\t// out\n        /* \"@openzeppelin/contracts@5.0.0/token/ERC721/ERC721.sol\":4143:4721  function transferFrom(address from, address to, uint256 tokenId) public virtual {... */\n    tag_47:\n        /* \"@openzeppelin/contracts@5.0.0/token/ERC721/ERC721.sol\":4251:4252  0 */\n      0x00\n        /* \"@openzeppelin/contracts@5.0.0/token/ERC721/ERC721.sol\":4237:4253  to == address(0) */\n      0xffffffffffffffffffffffffffffffffffffffff\n      and\n        /* \"@openzeppelin/contracts@5.0.0/token/ERC721/ERC721.sol\":4237:4239  to */\n      dup3\n        /* \"@openzeppelin/contracts@5.0.0/token/ERC721/ERC721.sol\":4237:4253  to == address(0) */\n      0xffffffffffffffffffffffffffffffffffffffff\n      and\n      sub\n        /* \"@openzeppelin/contracts@5.0.0/token/ERC721/ERC721.sol\":4233:4320  if (to == address(0)) {... */\n      tag_117\n      jumpi\n        /* \"@openzeppelin/contracts@5.0.0/token/ERC721/ERC721.sol\":4306:4307  0 */\n      0x00\n        /* \"@openzeppelin/contracts@5.0.0/token/ERC721/ERC721.sol\":4276:4309  ERC721InvalidReceiver(address(0)) */\n      mload(0x40)\n      0x64a0ae9200000000000000000000000000000000000000000000000000000000\n      dup2\n      mstore\n      0x04\n      add\n      tag_118\n      swap2\n      swap1\n      tag_39\n      jump\t// in\n    tag_118:\n      mload(0x40)\n      dup1\n      swap2\n      sub\n      swap1\n      revert\n        /* \"@openzeppelin/contracts@5.0.0/token/ERC721/ERC721.sol\":4233:4320  if (to == address(0)) {... */\n    tag_117:\n        /* \"@openzeppelin/contracts@5.0.0/token/ERC721/ERC721.sol\":4538:4559  address previousOwner */\n      0x00\n        /* \"@openzeppelin/contracts@5.0.0/token/ERC721/ERC721.sol\":4562:4596  _update(to, tokenId, _msgSender()) */\n      tag_119\n        /* \"@openzeppelin/contracts@5.0.0/token/ERC721/ERC721.sol\":4570:4572  to */\n      dup4\n        /* \"@openzeppelin/contracts@5.0.0/token/ERC721/ERC721.sol\":4574:4581  tokenId */\n      dup4\n        /* \"@openzeppelin/contracts@5.0.0/token/ERC721/ERC721.sol\":4583:4595  _msgSender() */\n      tag_120\n        /* \"@openzeppelin/contracts@5.0.0/token/ERC721/ERC721.sol\":4583:4593  _msgSender */\n      tag_114\n        /* \"@openzeppelin/contracts@5.0.0/token/ERC721/ERC721.sol\":4583:4595  _msgSender() */\n      jump\t// in\n    tag_120:\n        /* \"@openzeppelin/contracts@5.0.0/token/ERC721/ERC721.sol\":4562:4569  _update */\n      tag_121\n        /* \"@openzeppelin/contracts@5.0.0/token/ERC721/ERC721.sol\":4562:4596  _update(to, tokenId, _msgSender()) */\n      jump\t// in\n    tag_119:\n        /* \"@openzeppelin/contracts@5.0.0/token/ERC721/ERC721.sol\":4538:4596  address previousOwner = _update(to, tokenId, _msgSender()) */\n      swap1\n      pop\n        /* \"@openzeppelin/contracts@5.0.0/token/ERC721/ERC721.sol\":4627:4631  from */\n      dup4\n        /* \"@openzeppelin/contracts@5.0.0/token/ERC721/ERC721.sol\":4610:4631  previousOwner != from */\n      0xffffffffffffffffffffffffffffffffffffffff\n      and\n        /* \"@openzeppelin/contracts@5.0.0/token/ERC721/ERC721.sol\":4610:4623  previousOwner */\n      dup2\n        /* \"@openzeppelin/contracts@5.0.0/token/ERC721/ERC721.sol\":4610:4631  previousOwner != from */\n      0xffffffffffffffffffffffffffffffffffffffff\n      and\n      eq\n        /* \"@openzeppelin/contracts@5.0.0/token/ERC721/ERC721.sol\":4606:4715  if (previousOwner != from) {... */\n      tag_122\n      jumpi\n        /* \"@openzeppelin/contracts@5.0.0/token/ERC721/ERC721.sol\":4675:4679  from */\n      dup4\n        /* \"@openzeppelin/contracts@5.0.0/token/ERC721/ERC721.sol\":4681:4688  tokenId */\n      dup3\n        /* \"@openzeppelin/contracts@5.0.0/token/ERC721/ERC721.sol\":4690:4703  previousOwner */\n      dup3\n        /* \"@openzeppelin/contracts@5.0.0/token/ERC721/ERC721.sol\":4654:4704  ERC721IncorrectOwner(from, tokenId, previousOwner) */\n      mload(0x40)\n      0x64283d7b00000000000000000000000000000000000000000000000000000000\n      dup2\n      mstore\n      0x04\n      add\n      tag_123\n      swap4\n      swap3\n      swap2\n      swap1\n      tag_124\n      jump\t// in\n    tag_123:\n      mload(0x40)\n      dup1\n      swap2\n      sub\n      swap1\n      revert\n        /* \"@openzeppelin/contracts@5.0.0/token/ERC721/ERC721.sol\":4606:4715  if (previousOwner != from) {... */\n    tag_122:\n        /* \"@openzeppelin/contracts@5.0.0/token/ERC721/ERC721.sol\":4223:4721  {... */\n      pop\n        /* \"@openzeppelin/contracts@5.0.0/token/ERC721/ERC721.sol\":4143:4721  function transferFrom(address from, address to, uint256 tokenId) public virtual {... */\n      pop\n      pop\n      pop\n      jump\t// out\n        /* \"@openzeppelin/contracts@5.0.0/token/ERC721/ERC721.sol\":4787:4919  function safeTransferFrom(address from, address to, uint256 tokenId) public {... */\n    tag_50:\n        /* \"@openzeppelin/contracts@5.0.0/token/ERC721/ERC721.sol\":4873:4912  safeTransferFrom(from, to, tokenId, \"\") */\n      tag_126\n        /* \"@openzeppelin/contracts@5.0.0/token/ERC721/ERC721.sol\":4890:4894  from */\n      dup4\n        /* \"@openzeppelin/contracts@5.0.0/token/ERC721/ERC721.sol\":4896:4898  to */\n      dup4\n        /* \"@openzeppelin/contracts@5.0.0/token/ERC721/ERC721.sol\":4900:4907  tokenId */\n      dup4\n        /* \"@openzeppelin/contracts@5.0.0/token/ERC721/ERC721.sol\":4873:4912  safeTransferFrom(from, to, tokenId, \"\") */\n      mload(0x40)\n      dup1\n      0x20\n      add\n      0x40\n      mstore\n      dup1\n      0x00\n      dup2\n      mstore\n      pop\n        /* \"@openzeppelin/contracts@5.0.0/token/ERC721/ERC721.sol\":4873:4889  safeTransferFrom */\n      tag_79\n        /* \"@openzeppelin/contracts@5.0.0/token/ERC721/ERC721.sol\":4873:4912  safeTransferFrom(from, to, tokenId, \"\") */\n      jump\t// in\n    tag_126:\n        /* \"@openzeppelin/contracts@5.0.0/token/ERC721/ERC721.sol\":4787:4919  function safeTransferFrom(address from, address to, uint256 tokenId) public {... */\n      pop\n      pop\n      pop\n      jump\t// out\n        /* \"@openzeppelin/contracts@5.0.0/token/ERC721/extensions/ERC721Burnable.sol\":561:875  function burn(uint256 tokenId) public virtual {... */\n    tag_53:\n        /* \"@openzeppelin/contracts@5.0.0/token/ERC721/extensions/ERC721Burnable.sol\":826:868  _update(address(0), tokenId, _msgSender()) */\n      tag_128\n        /* \"@openzeppelin/contracts@5.0.0/token/ERC721/extensions/ERC721Burnable.sol\":842:843  0 */\n      0x00\n        /* \"@openzeppelin/contracts@5.0.0/token/ERC721/extensions/ERC721Burnable.sol\":846:853  tokenId */\n      dup3\n        /* \"@openzeppelin/contracts@5.0.0/token/ERC721/extensions/ERC721Burnable.sol\":855:867  _msgSender() */\n      tag_129\n        /* \"@openzeppelin/contracts@5.0.0/token/ERC721/extensions/ERC721Burnable.sol\":855:865  _msgSender */\n      tag_114\n        /* \"@openzeppelin/contracts@5.0.0/token/ERC721/extensions/ERC721Burnable.sol\":855:867  _msgSender() */\n      jump\t// in\n    tag_129:\n        /* \"@openzeppelin/contracts@5.0.0/token/ERC721/extensions/ERC721Burnable.sol\":826:833  _update */\n      tag_121\n        /* \"@openzeppelin/contracts@5.0.0/token/ERC721/extensions/ERC721Burnable.sol\":826:868  _update(address(0), tokenId, _msgSender()) */\n      jump\t// in\n    tag_128:\n      pop\n        /* \"@openzeppelin/contracts@5.0.0/token/ERC721/extensions/ERC721Burnable.sol\":561:875  function burn(uint256 tokenId) public virtual {... */\n      pop\n      jump\t// out\n        /* \"@openzeppelin/contracts@5.0.0/token/ERC721/ERC721.sol\":2185:2303  function ownerOf(uint256 tokenId) public view virtual returns (address) {... */\n    tag_56:\n        /* \"@openzeppelin/contracts@5.0.0/token/ERC721/ERC721.sol\":2248:2255  address */\n      0x00\n        /* \"@openzeppelin/contracts@5.0.0/token/ERC721/ERC721.sol\":2274:2296  _requireOwned(tokenId) */\n      tag_131\n        /* \"@openzeppelin/contracts@5.0.0/token/ERC721/ERC721.sol\":2288:2295  tokenId */\n      dup3\n        /* \"@openzeppelin/contracts@5.0.0/token/ERC721/ERC721.sol\":2274:2287  _requireOwned */\n      tag_108\n        /* \"@openzeppelin/contracts@5.0.0/token/ERC721/ERC721.sol\":2274:2296  _requireOwned(tokenId) */\n      jump\t// in\n    tag_131:\n        /* \"@openzeppelin/contracts@5.0.0/token/ERC721/ERC721.sol\":2267:2296  return _requireOwned(tokenId) */\n      swap1\n      pop\n        /* \"@openzeppelin/contracts@5.0.0/token/ERC721/ERC721.sol\":2185:2303  function ownerOf(uint256 tokenId) public view virtual returns (address) {... */\n      swap2\n      swap1\n      pop\n      jump\t// out\n        /* \"@openzeppelin/contracts@5.0.0/token/ERC721/ERC721.sol\":1920:2128  function balanceOf(address owner) public view virtual returns (uint256) {... */\n    tag_61:\n        /* \"@openzeppelin/contracts@5.0.0/token/ERC721/ERC721.sol\":1983:1990  uint256 */\n      0x00\n        /* \"@openzeppelin/contracts@5.0.0/token/ERC721/ERC721.sol\":2023:2024  0 */\n      dup1\n        /* \"@openzeppelin/contracts@5.0.0/token/ERC721/ERC721.sol\":2006:2025  owner == address(0) */\n      0xffffffffffffffffffffffffffffffffffffffff\n      and\n        /* \"@openzeppelin/contracts@5.0.0/token/ERC721/ERC721.sol\":2006:2011  owner */\n      dup3\n        /* \"@openzeppelin/contracts@5.0.0/token/ERC721/ERC721.sol\":2006:2025  owner == address(0) */\n      0xffffffffffffffffffffffffffffffffffffffff\n      and\n      sub\n        /* \"@openzeppelin/contracts@5.0.0/token/ERC721/ERC721.sol\":2002:2089  if (owner == address(0)) {... */\n      tag_133\n      jumpi\n        /* \"@openzeppelin/contracts@5.0.0/token/ERC721/ERC721.sol\":2075:2076  0 */\n      0x00\n        /* \"@openzeppelin/contracts@5.0.0/token/ERC721/ERC721.sol\":2048:2078  ERC721InvalidOwner(address(0)) */\n      mload(0x40)\n      0x89c62b6400000000000000000000000000000000000000000000000000000000\n      dup2\n      mstore\n      0x04\n      add\n      tag_134\n      swap2\n      swap1\n      tag_39\n      jump\t// in\n    tag_134:\n      mload(0x40)\n      dup1\n      swap2\n      sub\n      swap1\n      revert\n        /* \"@openzeppelin/contracts@5.0.0/token/ERC721/ERC721.sol\":2002:2089  if (owner == address(0)) {... */\n    tag_133:\n        /* \"@openzeppelin/contracts@5.0.0/token/ERC721/ERC721.sol\":2105:2114  _balances */\n      0x03\n        /* \"@openzeppelin/contracts@5.0.0/token/ERC721/ERC721.sol\":2105:2121  _balances[owner] */\n      0x00\n        /* \"@openzeppelin/contracts@5.0.0/token/ERC721/ERC721.sol\":2115:2120  owner */\n      dup4\n        /* \"@openzeppelin/contracts@5.0.0/token/ERC721/ERC721.sol\":2105:2121  _balances[owner] */\n      0xffffffffffffffffffffffffffffffffffffffff\n      and\n      0xffffffffffffffffffffffffffffffffffffffff\n      and\n      dup2\n      mstore\n      0x20\n      add\n      swap1\n      dup2\n      mstore\n      0x20\n      add\n      0x00\n      keccak256\n      sload\n        /* \"@openzeppelin/contracts@5.0.0/token/ERC721/ERC721.sol\":2098:2121  return _balances[owner] */\n      swap1\n      pop\n        /* \"@openzeppelin/contracts@5.0.0/token/ERC721/ERC721.sol\":1920:2128  function balanceOf(address owner) public view virtual returns (uint256) {... */\n      swap2\n      swap1\n      pop\n      jump\t// out\n        /* \"@openzeppelin/contracts@5.0.0/access/Ownable.sol\":2293:2394  function renounceOwnership() public virtual onlyOwner {... */\n    tag_65:\n        /* \"@openzeppelin/contracts@5.0.0/access/Ownable.sol\":1531:1544  _checkOwner() */\n      tag_136\n        /* \"@openzeppelin/contracts@5.0.0/access/Ownable.sol\":1531:1542  _checkOwner */\n      tag_137\n        /* \"@openzeppelin/contracts@5.0.0/access/Ownable.sol\":1531:1544  _checkOwner() */\n      jump\t// in\n    tag_136:\n        /* \"@openzeppelin/contracts@5.0.0/access/Ownable.sol\":2357:2387  _transferOwnership(address(0)) */\n      tag_139\n        /* \"@openzeppelin/contracts@5.0.0/access/Ownable.sol\":2384:2385  0 */\n      0x00\n        /* \"@openzeppelin/contracts@5.0.0/access/Ownable.sol\":2357:2375  _transferOwnership */\n      tag_140\n        /* \"@openzeppelin/contracts@5.0.0/access/Ownable.sol\":2357:2387  _transferOwnership(address(0)) */\n      jump\t// in\n    tag_139:\n        /* \"@openzeppelin/contracts@5.0.0/access/Ownable.sol\":2293:2394  function renounceOwnership() public virtual onlyOwner {... */\n      jump\t// out\n        /* \"@openzeppelin/contracts@5.0.0/access/Ownable.sol\":1638:1723  function owner() public view virtual returns (address) {... */\n    tag_67:\n        /* \"@openzeppelin/contracts@5.0.0/access/Ownable.sol\":1684:1691  address */\n      0x00\n        /* \"@openzeppelin/contracts@5.0.0/access/Ownable.sol\":1710:1716  _owner */\n      0x07\n      0x00\n      swap1\n      sload\n      swap1\n      0x0100\n      exp\n      swap1\n      div\n      0xffffffffffffffffffffffffffffffffffffffff\n      and\n        /* \"@openzeppelin/contracts@5.0.0/access/Ownable.sol\":1703:1716  return _owner */\n      swap1\n      pop\n        /* \"@openzeppelin/contracts@5.0.0/access/Ownable.sol\":1638:1723  function owner() public view virtual returns (address) {... */\n      swap1\n      jump\t// out\n        /* \"@openzeppelin/contracts@5.0.0/token/ERC721/ERC721.sol\":2518:2611  function symbol() public view virtual returns (string memory) {... */\n    tag_70:\n        /* \"@openzeppelin/contracts@5.0.0/token/ERC721/ERC721.sol\":2565:2578  string memory */\n      0x60\n        /* \"@openzeppelin/contracts@5.0.0/token/ERC721/ERC721.sol\":2597:2604  _symbol */\n      0x01\n        /* \"@openzeppelin/contracts@5.0.0/token/ERC721/ERC721.sol\":2590:2604  return _symbol */\n      dup1\n      sload\n      tag_143\n      swap1\n      tag_101\n      jump\t// in\n    tag_143:\n      dup1\n      0x1f\n      add\n      0x20\n      dup1\n      swap2\n      div\n      mul\n      0x20\n      add\n      mload(0x40)\n      swap1\n      dup2\n      add\n      0x40\n      mstore\n      dup1\n      swap3\n      swap2\n      swap1\n      dup2\n      dup2\n      mstore\n      0x20\n      add\n      dup3\n      dup1\n      sload\n      tag_144\n      swap1\n      tag_101\n      jump\t// in\n    tag_144:\n      dup1\n      iszero\n      tag_145\n      jumpi\n      dup1\n      0x1f\n      lt\n      tag_146\n      jumpi\n      0x0100\n      dup1\n      dup4\n      sload\n      div\n      mul\n      dup4\n      mstore\n      swap2\n      0x20\n      add\n      swap2\n      jump(tag_145)\n    tag_146:\n      dup3\n      add\n      swap2\n      swap1\n      0x00\n      mstore\n      keccak256(0x00, 0x20)\n      swap1\n    tag_147:\n      dup2\n      sload\n      dup2\n      mstore\n      swap1\n      0x01\n      add\n      swap1\n      0x20\n      add\n      dup1\n      dup4\n      gt\n      tag_147\n      jumpi\n      dup3\n      swap1\n      sub\n      0x1f\n      and\n      dup3\n      add\n      swap2\n    tag_145:\n      pop\n      pop\n      pop\n      pop\n      pop\n      swap1\n      pop\n        /* \"@openzeppelin/contracts@5.0.0/token/ERC721/ERC721.sol\":2518:2611  function symbol() public view virtual returns (string memory) {... */\n      swap1\n      jump\t// out\n        /* \"@openzeppelin/contracts@5.0.0/token/ERC721/ERC721.sol\":3718:3862  function setApprovalForAll(address operator, bool approved) public virtual {... */\n    tag_75:\n        /* \"@openzeppelin/contracts@5.0.0/token/ERC721/ERC721.sol\":3803:3855  _setApprovalForAll(_msgSender(), operator, approved) */\n      tag_149\n        /* \"@openzeppelin/contracts@5.0.0/token/ERC721/ERC721.sol\":3822:3834  _msgSender() */\n      tag_150\n        /* \"@openzeppelin/contracts@5.0.0/token/ERC721/ERC721.sol\":3822:3832  _msgSender */\n      tag_114\n        /* \"@openzeppelin/contracts@5.0.0/token/ERC721/ERC721.sol\":3822:3834  _msgSender() */\n      jump\t// in\n    tag_150:\n        /* \"@openzeppelin/contracts@5.0.0/token/ERC721/ERC721.sol\":3836:3844  operator */\n      dup4\n        /* \"@openzeppelin/contracts@5.0.0/token/ERC721/ERC721.sol\":3846:3854  approved */\n      dup4\n        /* \"@openzeppelin/contracts@5.0.0/token/ERC721/ERC721.sol\":3803:3821  _setApprovalForAll */\n      tag_151\n        /* \"@openzeppelin/contracts@5.0.0/token/ERC721/ERC721.sol\":3803:3855  _setApprovalForAll(_msgSender(), operator, approved) */\n      jump\t// in\n    tag_149:\n        /* \"@openzeppelin/contracts@5.0.0/token/ERC721/ERC721.sol\":3718:3862  function setApprovalForAll(address operator, bool approved) public virtual {... */\n      pop\n      pop\n      jump\t// out\n        /* \"@openzeppelin/contracts@5.0.0/token/ERC721/ERC721.sol\":4985:5193  function safeTransferFrom(address from, address to, uint256 tokenId, bytes memory data) public virtual {... */\n    tag_79:\n        /* \"@openzeppelin/contracts@5.0.0/token/ERC721/ERC721.sol\":5098:5129  transferFrom(from, to, tokenId) */\n      tag_153\n        /* \"@openzeppelin/contracts@5.0.0/token/ERC721/ERC721.sol\":5111:5115  from */\n      dup5\n        /* \"@openzeppelin/contracts@5.0.0/token/ERC721/ERC721.sol\":5117:5119  to */\n      dup5\n        /* \"@openzeppelin/contracts@5.0.0/token/ERC721/ERC721.sol\":5121:5128  tokenId */\n      dup5\n        /* \"@openzeppelin/contracts@5.0.0/token/ERC721/ERC721.sol\":5098:5110  transferFrom */\n      tag_47\n        /* \"@openzeppelin/contracts@5.0.0/token/ERC721/ERC721.sol\":5098:5129  transferFrom(from, to, tokenId) */\n      jump\t// in\n    tag_153:\n        /* \"@openzeppelin/contracts@5.0.0/token/ERC721/ERC721.sol\":5139:5186  _checkOnERC721Received(from, to, tokenId, data) */\n      tag_154\n        /* \"@openzeppelin/contracts@5.0.0/token/ERC721/ERC721.sol\":5162:5166  from */\n      dup5\n        /* \"@openzeppelin/contracts@5.0.0/token/ERC721/ERC721.sol\":5168:5170  to */\n      dup5\n        /* \"@openzeppelin/contracts@5.0.0/token/ERC721/ERC721.sol\":5172:5179  tokenId */\n      dup5\n        /* \"@openzeppelin/contracts@5.0.0/token/ERC721/ERC721.sol\":5181:5185  data */\n      dup5\n        /* \"@openzeppelin/contracts@5.0.0/token/ERC721/ERC721.sol\":5139:5161  _checkOnERC721Received */\n      tag_155\n        /* \"@openzeppelin/contracts@5.0.0/token/ERC721/ERC721.sol\":5139:5186  _checkOnERC721Received(from, to, tokenId, data) */\n      jump\t// in\n    tag_154:\n        /* \"@openzeppelin/contracts@5.0.0/token/ERC721/ERC721.sol\":4985:5193  function safeTransferFrom(address from, address to, uint256 tokenId, bytes memory data) public virtual {... */\n      pop\n      pop\n      pop\n      pop\n      jump\t// out\n        /* \"contracts/Fungees.sol\":890:1079  function tokenURI(uint256 tokenId)... */\n    tag_82:\n        /* \"contracts/Fungees.sol\":1013:1026  string memory */\n      0x60\n        /* \"contracts/Fungees.sol\":1049:1072  super.tokenURI(tokenId) */\n      tag_157\n        /* \"contracts/Fungees.sol\":1064:1071  tokenId */\n      dup3\n        /* \"contracts/Fungees.sol\":1049:1063  super.tokenURI */\n      tag_158\n        /* \"contracts/Fungees.sol\":1049:1072  super.tokenURI(tokenId) */\n      jump\t// in\n    tag_157:\n        /* \"contracts/Fungees.sol\":1042:1072  return super.tokenURI(tokenId) */\n      swap1\n      pop\n        /* \"contracts/Fungees.sol\":890:1079  function tokenURI(uint256 tokenId)... */\n      swap2\n      swap1\n      pop\n      jump\t// out\n        /* \"contracts/Fungees.sol\":613:816  function safeMint(address to, string memory uri)... */\n    tag_87:\n        /* \"@openzeppelin/contracts@5.0.0/access/Ownable.sol\":1531:1544  _checkOwner() */\n      tag_160\n        /* \"@openzeppelin/contracts@5.0.0/access/Ownable.sol\":1531:1542  _checkOwner */\n      tag_137\n        /* \"@openzeppelin/contracts@5.0.0/access/Ownable.sol\":1531:1544  _checkOwner() */\n      jump\t// in\n    tag_160:\n        /* \"contracts/Fungees.sol\":709:724  uint256 tokenId */\n      0x00\n        /* \"contracts/Fungees.sol\":727:739  _nextTokenId */\n      0x08\n      0x00\n        /* \"contracts/Fungees.sol\":727:741  _nextTokenId++ */\n      dup2\n      sload\n      dup1\n      swap3\n      swap2\n      swap1\n      tag_162\n      swap1\n      tag_163\n      jump\t// in\n    tag_162:\n      swap2\n      swap1\n      pop\n      sstore\n        /* \"contracts/Fungees.sol\":709:741  uint256 tokenId = _nextTokenId++ */\n      swap1\n      pop\n        /* \"contracts/Fungees.sol\":751:773  _safeMint(to, tokenId) */\n      tag_164\n        /* \"contracts/Fungees.sol\":761:763  to */\n      dup4\n        /* \"contracts/Fungees.sol\":765:772  tokenId */\n      dup3\n        /* \"contracts/Fungees.sol\":751:760  _safeMint */\n      tag_165\n        /* \"contracts/Fungees.sol\":751:773  _safeMint(to, tokenId) */\n      jump\t// in\n    tag_164:\n        /* \"contracts/Fungees.sol\":783:809  _setTokenURI(tokenId, uri) */\n      tag_166\n        /* \"contracts/Fungees.sol\":796:803  tokenId */\n      dup2\n        /* \"contracts/Fungees.sol\":805:808  uri */\n      dup4\n        /* \"contracts/Fungees.sol\":783:795  _setTokenURI */\n      tag_167\n        /* \"contracts/Fungees.sol\":783:809  _setTokenURI(tokenId, uri) */\n      jump\t// in\n    tag_166:\n        /* \"contracts/Fungees.sol\":699:816  {... */\n      pop\n        /* \"contracts/Fungees.sol\":613:816  function safeMint(address to, string memory uri)... */\n      pop\n      pop\n      jump\t// out\n        /* \"@openzeppelin/contracts@5.0.0/token/ERC721/ERC721.sol\":3928:4081  function isApprovedForAll(address owner, address operator) public view virtual returns (bool) {... */\n    tag_91:\n        /* \"@openzeppelin/contracts@5.0.0/token/ERC721/ERC721.sol\":4016:4020  bool */\n      0x00\n        /* \"@openzeppelin/contracts@5.0.0/token/ERC721/ERC721.sol\":4039:4057  _operatorApprovals */\n      0x05\n        /* \"@openzeppelin/contracts@5.0.0/token/ERC721/ERC721.sol\":4039:4064  _operatorApprovals[owner] */\n      0x00\n        /* \"@openzeppelin/contracts@5.0.0/token/ERC721/ERC721.sol\":4058:4063  owner */\n      dup5\n        /* \"@openzeppelin/contracts@5.0.0/token/ERC721/ERC721.sol\":4039:4064  _operatorApprovals[owner] */\n      0xffffffffffffffffffffffffffffffffffffffff\n      and\n      0xffffffffffffffffffffffffffffffffffffffff\n      and\n      dup2\n      mstore\n      0x20\n      add\n      swap1\n      dup2\n      mstore\n      0x20\n      add\n      0x00\n      keccak256\n        /* \"@openzeppelin/contracts@5.0.0/token/ERC721/ERC721.sol\":4039:4074  _operatorApprovals[owner][operator] */\n      0x00\n        /* \"@openzeppelin/contracts@5.0.0/token/ERC721/ERC721.sol\":4065:4073  operator */\n      dup4\n        /* \"@openzeppelin/contracts@5.0.0/token/ERC721/ERC721.sol\":4039:4074  _operatorApprovals[owner][operator] */\n      0xffffffffffffffffffffffffffffffffffffffff\n      and\n      0xffffffffffffffffffffffffffffffffffffffff\n      and\n      dup2\n      mstore\n      0x20\n      add\n      swap1\n      dup2\n      mstore\n      0x20\n      add\n      0x00\n      keccak256\n      0x00\n      swap1\n      sload\n      swap1\n      0x0100\n      exp\n      swap1\n      div\n      0xff\n      and\n        /* \"@openzeppelin/contracts@5.0.0/token/ERC721/ERC721.sol\":4032:4074  return _operatorApprovals[owner][operator] */\n      swap1\n      pop\n        /* \"@openzeppelin/contracts@5.0.0/token/ERC721/ERC721.sol\":3928:4081  function isApprovedForAll(address owner, address operator) public view virtual returns (bool) {... */\n      swap3\n      swap2\n      pop\n      pop\n      jump\t// out\n        /* \"@openzeppelin/contracts@5.0.0/access/Ownable.sol\":2543:2758  function transferOwnership(address newOwner) public virtual onlyOwner {... */\n    tag_95:\n        /* \"@openzeppelin/contracts@5.0.0/access/Ownable.sol\":1531:1544  _checkOwner() */\n      tag_170\n        /* \"@openzeppelin/contracts@5.0.0/access/Ownable.sol\":1531:1542  _checkOwner */\n      tag_137\n        /* \"@openzeppelin/contracts@5.0.0/access/Ownable.sol\":1531:1544  _checkOwner() */\n      jump\t// in\n    tag_170:\n        /* \"@openzeppelin/contracts@5.0.0/access/Ownable.sol\":2647:2648  0 */\n      0x00\n        /* \"@openzeppelin/contracts@5.0.0/access/Ownable.sol\":2627:2649  newOwner == address(0) */\n      0xffffffffffffffffffffffffffffffffffffffff\n      and\n        /* \"@openzeppelin/contracts@5.0.0/access/Ownable.sol\":2627:2635  newOwner */\n      dup2\n        /* \"@openzeppelin/contracts@5.0.0/access/Ownable.sol\":2627:2649  newOwner == address(0) */\n      0xffffffffffffffffffffffffffffffffffffffff\n      and\n      sub\n        /* \"@openzeppelin/contracts@5.0.0/access/Ownable.sol\":2623:2714  if (newOwner == address(0)) {... */\n      tag_172\n      jumpi\n        /* \"@openzeppelin/contracts@5.0.0/access/Ownable.sol\":2700:2701  0 */\n      0x00\n        /* \"@openzeppelin/contracts@5.0.0/access/Ownable.sol\":2672:2703  OwnableInvalidOwner(address(0)) */\n      mload(0x40)\n      0x1e4fbdf700000000000000000000000000000000000000000000000000000000\n      dup2\n      mstore\n      0x04\n      add\n      tag_173\n      swap2\n      swap1\n      tag_39\n      jump\t// in\n    tag_173:\n      mload(0x40)\n      dup1\n      swap2\n      sub\n      swap1\n      revert\n        /* \"@openzeppelin/contracts@5.0.0/access/Ownable.sol\":2623:2714  if (newOwner == address(0)) {... */\n    tag_172:\n        /* \"@openzeppelin/contracts@5.0.0/access/Ownable.sol\":2723:2751  _transferOwnership(newOwner) */\n      tag_174\n        /* \"@openzeppelin/contracts@5.0.0/access/Ownable.sol\":2742:2750  newOwner */\n      dup2\n        /* \"@openzeppelin/contracts@5.0.0/access/Ownable.sol\":2723:2741  _transferOwnership */\n      tag_140\n        /* \"@openzeppelin/contracts@5.0.0/access/Ownable.sol\":2723:2751  _transferOwnership(newOwner) */\n      jump\t// in\n    tag_174:\n        /* \"@openzeppelin/contracts@5.0.0/access/Ownable.sol\":2543:2758  function transferOwnership(address newOwner) public virtual onlyOwner {... */\n      pop\n      jump\t// out\n        /* \"@openzeppelin/contracts@5.0.0/token/ERC721/extensions/ERC721URIStorage.sol\":937:1144  function supportsInterface(bytes4 interfaceId) public view virtual override(ERC721, IERC165) returns (bool) {... */\n    tag_98:\n        /* \"@openzeppelin/contracts@5.0.0/token/ERC721/extensions/ERC721URIStorage.sol\":1039:1043  bool */\n      0x00\n        /* \"@openzeppelin/contracts@5.0.0/token/ERC721/extensions/ERC721URIStorage.sol\":760:770  0x49064906 */\n      0x49064906\n        /* \"@openzeppelin/contracts@5.0.0/token/ERC721/extensions/ERC721URIStorage.sol\":753:771  bytes4(0x49064906) */\n      0xe0\n      shl\n        /* \"@openzeppelin/contracts@5.0.0/token/ERC721/extensions/ERC721URIStorage.sol\":1062:1097  interfaceId == ERC4906_INTERFACE_ID */\n      not(0xffffffffffffffffffffffffffffffffffffffffffffffffffffffff)\n      and\n        /* \"@openzeppelin/contracts@5.0.0/token/ERC721/extensions/ERC721URIStorage.sol\":1062:1073  interfaceId */\n      dup3\n        /* \"@openzeppelin/contracts@5.0.0/token/ERC721/extensions/ERC721URIStorage.sol\":1062:1097  interfaceId == ERC4906_INTERFACE_ID */\n      not(0xffffffffffffffffffffffffffffffffffffffffffffffffffffffff)\n      and\n      eq\n        /* \"@openzeppelin/contracts@5.0.0/token/ERC721/extensions/ERC721URIStorage.sol\":1062:1137  interfaceId == ERC4906_INTERFACE_ID || super.supportsInterface(interfaceId) */\n      dup1\n      tag_176\n      jumpi\n      pop\n        /* \"@openzeppelin/contracts@5.0.0/token/ERC721/extensions/ERC721URIStorage.sol\":1101:1137  super.supportsInterface(interfaceId) */\n      tag_177\n        /* \"@openzeppelin/contracts@5.0.0/token/ERC721/extensions/ERC721URIStorage.sol\":1125:1136  interfaceId */\n      dup3\n        /* \"@openzeppelin/contracts@5.0.0/token/ERC721/extensions/ERC721URIStorage.sol\":1101:1124  super.supportsInterface */\n      tag_178\n        /* \"@openzeppelin/contracts@5.0.0/token/ERC721/extensions/ERC721URIStorage.sol\":1101:1137  super.supportsInterface(interfaceId) */\n      jump\t// in\n    tag_177:\n        /* \"@openzeppelin/contracts@5.0.0/token/ERC721/extensions/ERC721URIStorage.sol\":1062:1137  interfaceId == ERC4906_INTERFACE_ID || super.supportsInterface(interfaceId) */\n    tag_176:\n        /* \"@openzeppelin/contracts@5.0.0/token/ERC721/extensions/ERC721URIStorage.sol\":1055:1137  return interfaceId == ERC4906_INTERFACE_ID || super.supportsInterface(interfaceId) */\n      swap1\n      pop\n        /* \"@openzeppelin/contracts@5.0.0/token/ERC721/extensions/ERC721URIStorage.sol\":937:1144  function supportsInterface(bytes4 interfaceId) public view virtual override(ERC721, IERC165) returns (bool) {... */\n      swap2\n      swap1\n      pop\n      jump\t// out\n        /* \"@openzeppelin/contracts@5.0.0/token/ERC721/ERC721.sol\":16138:16379  function _requireOwned(uint256 tokenId) internal view returns (address) {... */\n    tag_108:\n        /* \"@openzeppelin/contracts@5.0.0/token/ERC721/ERC721.sol\":16201:16208  address */\n      0x00\n        /* \"@openzeppelin/contracts@5.0.0/token/ERC721/ERC721.sol\":16220:16233  address owner */\n      dup1\n        /* \"@openzeppelin/contracts@5.0.0/token/ERC721/ERC721.sol\":16236:16253  _ownerOf(tokenId) */\n      tag_180\n        /* \"@openzeppelin/contracts@5.0.0/token/ERC721/ERC721.sol\":16245:16252  tokenId */\n      dup4\n        /* \"@openzeppelin/contracts@5.0.0/token/ERC721/ERC721.sol\":16236:16244  _ownerOf */\n      tag_181\n        /* \"@openzeppelin/contracts@5.0.0/token/ERC721/ERC721.sol\":16236:16253  _ownerOf(tokenId) */\n      jump\t// in\n    tag_180:\n        /* \"@openzeppelin/contracts@5.0.0/token/ERC721/ERC721.sol\":16220:16253  address owner = _ownerOf(tokenId) */\n      swap1\n      pop\n        /* \"@openzeppelin/contracts@5.0.0/token/ERC721/ERC721.sol\":16284:16285  0 */\n      0x00\n        /* \"@openzeppelin/contracts@5.0.0/token/ERC721/ERC721.sol\":16267:16286  owner == address(0) */\n      0xffffffffffffffffffffffffffffffffffffffff\n      and\n        /* \"@openzeppelin/contracts@5.0.0/token/ERC721/ERC721.sol\":16267:16272  owner */\n      dup2\n        /* \"@openzeppelin/contracts@5.0.0/token/ERC721/ERC721.sol\":16267:16286  owner == address(0) */\n      0xffffffffffffffffffffffffffffffffffffffff\n      and\n      sub\n        /* \"@openzeppelin/contracts@5.0.0/token/ERC721/ERC721.sol\":16263:16351  if (owner == address(0)) {... */\n      tag_182\n      jumpi\n        /* \"@openzeppelin/contracts@5.0.0/token/ERC721/ERC721.sol\":16332:16339  tokenId */\n      dup3\n        /* \"@openzeppelin/contracts@5.0.0/token/ERC721/ERC721.sol\":16309:16340  ERC721NonexistentToken(tokenId) */\n      mload(0x40)\n      0x7e27328900000000000000000000000000000000000000000000000000000000\n      dup2\n      mstore\n      0x04\n      add\n      tag_183\n      swap2\n      swap1\n      tag_63\n      jump\t// in\n    tag_183:\n      mload(0x40)\n      dup1\n      swap2\n      sub\n      swap1\n      revert\n        /* \"@openzeppelin/contracts@5.0.0/token/ERC721/ERC721.sol\":16263:16351  if (owner == address(0)) {... */\n    tag_182:\n        /* \"@openzeppelin/contracts@5.0.0/token/ERC721/ERC721.sol\":16367:16372  owner */\n      dup1\n        /* \"@openzeppelin/contracts@5.0.0/token/ERC721/ERC721.sol\":16360:16372  return owner */\n      swap2\n      pop\n      pop\n        /* \"@openzeppelin/contracts@5.0.0/token/ERC721/ERC721.sol\":16138:16379  function _requireOwned(uint256 tokenId) internal view returns (address) {... */\n      swap2\n      swap1\n      pop\n      jump\t// out\n        /* \"@openzeppelin/contracts@5.0.0/token/ERC721/ERC721.sol\":5938:6065  function _getApproved(uint256 tokenId) internal view virtual returns (address) {... */\n    tag_110:\n        /* \"@openzeppelin/contracts@5.0.0/token/ERC721/ERC721.sol\":6008:6015  address */\n      0x00\n        /* \"@openzeppelin/contracts@5.0.0/token/ERC721/ERC721.sol\":6034:6049  _tokenApprovals */\n      0x04\n        /* \"@openzeppelin/contracts@5.0.0/token/ERC721/ERC721.sol\":6034:6058  _tokenApprovals[tokenId] */\n      0x00\n        /* \"@openzeppelin/contracts@5.0.0/token/ERC721/ERC721.sol\":6050:6057  tokenId */\n      dup4\n        /* \"@openzeppelin/contracts@5.0.0/token/ERC721/ERC721.sol\":6034:6058  _tokenApprovals[tokenId] */\n      dup2\n      mstore\n      0x20\n      add\n      swap1\n      dup2\n      mstore\n      0x20\n      add\n      0x00\n      keccak256\n      0x00\n      swap1\n      sload\n      swap1\n      0x0100\n      exp\n      swap1\n      div\n      0xffffffffffffffffffffffffffffffffffffffff\n      and\n        /* \"@openzeppelin/contracts@5.0.0/token/ERC721/ERC721.sol\":6027:6058  return _tokenApprovals[tokenId] */\n      swap1\n      pop\n        /* \"@openzeppelin/contracts@5.0.0/token/ERC721/ERC721.sol\":5938:6065  function _getApproved(uint256 tokenId) internal view virtual returns (address) {... */\n      swap2\n      swap1\n      pop\n      jump\t// out\n        /* \"@openzeppelin/contracts@5.0.0/utils/Context.sol\":656:752  function _msgSender() internal view virtual returns (address) {... */\n    tag_114:\n        /* \"@openzeppelin/contracts@5.0.0/utils/Context.sol\":709:716  address */\n      0x00\n        /* \"@openzeppelin/contracts@5.0.0/utils/Context.sol\":735:745  msg.sender */\n      caller\n        /* \"@openzeppelin/contracts@5.0.0/utils/Context.sol\":728:745  return msg.sender */\n      swap1\n      pop\n        /* \"@openzeppelin/contracts@5.0.0/utils/Context.sol\":656:752  function _msgSender() internal view virtual returns (address) {... */\n      swap1\n      jump\t// out\n        /* \"@openzeppelin/contracts@5.0.0/token/ERC721/ERC721.sol\":14418:14538  function _approve(address to, uint256 tokenId, address auth) internal {... */\n    tag_115:\n        /* \"@openzeppelin/contracts@5.0.0/token/ERC721/ERC721.sol\":14498:14531  _approve(to, tokenId, auth, true) */\n      tag_187\n        /* \"@openzeppelin/contracts@5.0.0/token/ERC721/ERC721.sol\":14507:14509  to */\n      dup4\n        /* \"@openzeppelin/contracts@5.0.0/token/ERC721/ERC721.sol\":14511:14518  tokenId */\n      dup4\n        /* \"@openzeppelin/contracts@5.0.0/token/ERC721/ERC721.sol\":14520:14524  auth */\n      dup4\n        /* \"@openzeppelin/contracts@5.0.0/token/ERC721/ERC721.sol\":14526:14530  true */\n      0x01\n        /* \"@openzeppelin/contracts@5.0.0/token/ERC721/ERC721.sol\":14498:14506  _approve */\n      tag_188\n        /* \"@openzeppelin/contracts@5.0.0/token/ERC721/ERC721.sol\":14498:14531  _approve(to, tokenId, auth, true) */\n      jump\t// in\n    tag_187:\n        /* \"@openzeppelin/contracts@5.0.0/token/ERC721/ERC721.sol\":14418:14538  function _approve(address to, uint256 tokenId, address auth) internal {... */\n      pop\n      pop\n      pop\n      jump\t// out\n        /* \"@openzeppelin/contracts@5.0.0/token/ERC721/ERC721.sol\":8838:9633  function _update(address to, uint256 tokenId, address auth) internal virtual returns (address) {... */\n    tag_121:\n        /* \"@openzeppelin/contracts@5.0.0/token/ERC721/ERC721.sol\":8924:8931  address */\n      0x00\n        /* \"@openzeppelin/contracts@5.0.0/token/ERC721/ERC721.sol\":8943:8955  address from */\n      dup1\n        /* \"@openzeppelin/contracts@5.0.0/token/ERC721/ERC721.sol\":8958:8975  _ownerOf(tokenId) */\n      tag_190\n        /* \"@openzeppelin/contracts@5.0.0/token/ERC721/ERC721.sol\":8967:8974  tokenId */\n      dup5\n        /* \"@openzeppelin/contracts@5.0.0/token/ERC721/ERC721.sol\":8958:8966  _ownerOf */\n      tag_181\n        /* \"@openzeppelin/contracts@5.0.0/token/ERC721/ERC721.sol\":8958:8975  _ownerOf(tokenId) */\n      jump\t// in\n    tag_190:\n        /* \"@openzeppelin/contracts@5.0.0/token/ERC721/ERC721.sol\":8943:8975  address from = _ownerOf(tokenId) */\n      swap1\n      pop\n        /* \"@openzeppelin/contracts@5.0.0/token/ERC721/ERC721.sol\":9051:9052  0 */\n      0x00\n        /* \"@openzeppelin/contracts@5.0.0/token/ERC721/ERC721.sol\":9035:9053  auth != address(0) */\n      0xffffffffffffffffffffffffffffffffffffffff\n      and\n        /* \"@openzeppelin/contracts@5.0.0/token/ERC721/ERC721.sol\":9035:9039  auth */\n      dup4\n        /* \"@openzeppelin/contracts@5.0.0/token/ERC721/ERC721.sol\":9035:9053  auth != address(0) */\n      0xffffffffffffffffffffffffffffffffffffffff\n      and\n      eq\n        /* \"@openzeppelin/contracts@5.0.0/token/ERC721/ERC721.sol\":9031:9117  if (auth != address(0)) {... */\n      tag_191\n      jumpi\n        /* \"@openzeppelin/contracts@5.0.0/token/ERC721/ERC721.sol\":9069:9106  _checkAuthorized(from, auth, tokenId) */\n      tag_192\n        /* \"@openzeppelin/contracts@5.0.0/token/ERC721/ERC721.sol\":9086:9090  from */\n      dup2\n        /* \"@openzeppelin/contracts@5.0.0/token/ERC721/ERC721.sol\":9092:9096  auth */\n      dup5\n        /* \"@openzeppelin/contracts@5.0.0/token/ERC721/ERC721.sol\":9098:9105  tokenId */\n      dup7\n        /* \"@openzeppelin/contracts@5.0.0/token/ERC721/ERC721.sol\":9069:9085  _checkAuthorized */\n      tag_193\n        /* \"@openzeppelin/contracts@5.0.0/token/ERC721/ERC721.sol\":9069:9106  _checkAuthorized(from, auth, tokenId) */\n      jump\t// in\n    tag_192:\n        /* \"@openzeppelin/contracts@5.0.0/token/ERC721/ERC721.sol\":9031:9117  if (auth != address(0)) {... */\n    tag_191:\n        /* \"@openzeppelin/contracts@5.0.0/token/ERC721/ERC721.sol\":9177:9178  0 */\n      0x00\n        /* \"@openzeppelin/contracts@5.0.0/token/ERC721/ERC721.sol\":9161:9179  from != address(0) */\n      0xffffffffffffffffffffffffffffffffffffffff\n      and\n        /* \"@openzeppelin/contracts@5.0.0/token/ERC721/ERC721.sol\":9161:9165  from */\n      dup2\n        /* \"@openzeppelin/contracts@5.0.0/token/ERC721/ERC721.sol\":9161:9179  from != address(0) */\n      0xffffffffffffffffffffffffffffffffffffffff\n      and\n      eq\n        /* \"@openzeppelin/contracts@5.0.0/token/ERC721/ERC721.sol\":9157:9413  if (from != address(0)) {... */\n      tag_194\n      jumpi\n        /* \"@openzeppelin/contracts@5.0.0/token/ERC721/ERC721.sol\":9277:9325  _approve(address(0), tokenId, address(0), false) */\n      tag_195\n        /* \"@openzeppelin/contracts@5.0.0/token/ERC721/ERC721.sol\":9294:9295  0 */\n      0x00\n        /* \"@openzeppelin/contracts@5.0.0/token/ERC721/ERC721.sol\":9298:9305  tokenId */\n      dup6\n        /* \"@openzeppelin/contracts@5.0.0/token/ERC721/ERC721.sol\":9315:9316  0 */\n      0x00\n        /* \"@openzeppelin/contracts@5.0.0/token/ERC721/ERC721.sol\":9319:9324  false */\n      dup1\n        /* \"@openzeppelin/contracts@5.0.0/token/ERC721/ERC721.sol\":9277:9285  _approve */\n      tag_188\n        /* \"@openzeppelin/contracts@5.0.0/token/ERC721/ERC721.sol\":9277:9325  _approve(address(0), tokenId, address(0), false) */\n      jump\t// in\n    tag_195:\n        /* \"@openzeppelin/contracts@5.0.0/token/ERC721/ERC721.sol\":9387:9388  1 */\n      0x01\n        /* \"@openzeppelin/contracts@5.0.0/token/ERC721/ERC721.sol\":9368:9377  _balances */\n      0x03\n        /* \"@openzeppelin/contracts@5.0.0/token/ERC721/ERC721.sol\":9368:9383  _balances[from] */\n      0x00\n        /* \"@openzeppelin/contracts@5.0.0/token/ERC721/ERC721.sol\":9378:9382  from */\n      dup4\n        /* \"@openzeppelin/contracts@5.0.0/token/ERC721/ERC721.sol\":9368:9383  _balances[from] */\n      0xffffffffffffffffffffffffffffffffffffffff\n      and\n      0xffffffffffffffffffffffffffffffffffffffff\n      and\n      dup2\n      mstore\n      0x20\n      add\n      swap1\n      dup2\n      mstore\n      0x20\n      add\n      0x00\n      keccak256\n      0x00\n        /* \"@openzeppelin/contracts@5.0.0/token/ERC721/ERC721.sol\":9368:9388  _balances[from] -= 1 */\n      dup3\n      dup3\n      sload\n      sub\n      swap3\n      pop\n      pop\n      dup2\n      swap1\n      sstore\n      pop\n        /* \"@openzeppelin/contracts@5.0.0/token/ERC721/ERC721.sol\":9157:9413  if (from != address(0)) {... */\n    tag_194:\n        /* \"@openzeppelin/contracts@5.0.0/token/ERC721/ERC721.sol\":9441:9442  0 */\n      0x00\n        /* \"@openzeppelin/contracts@5.0.0/token/ERC721/ERC721.sol\":9427:9443  to != address(0) */\n      0xffffffffffffffffffffffffffffffffffffffff\n      and\n        /* \"@openzeppelin/contracts@5.0.0/token/ERC721/ERC721.sol\":9427:9429  to */\n      dup6\n        /* \"@openzeppelin/contracts@5.0.0/token/ERC721/ERC721.sol\":9427:9443  to != address(0) */\n      0xffffffffffffffffffffffffffffffffffffffff\n      and\n      eq\n        /* \"@openzeppelin/contracts@5.0.0/token/ERC721/ERC721.sol\":9423:9530  if (to != address(0)) {... */\n      tag_196\n      jumpi\n        /* \"@openzeppelin/contracts@5.0.0/token/ERC721/ERC721.sol\":9504:9505  1 */\n      0x01\n        /* \"@openzeppelin/contracts@5.0.0/token/ERC721/ERC721.sol\":9487:9496  _balances */\n      0x03\n        /* \"@openzeppelin/contracts@5.0.0/token/ERC721/ERC721.sol\":9487:9500  _balances[to] */\n      0x00\n        /* \"@openzeppelin/contracts@5.0.0/token/ERC721/ERC721.sol\":9497:9499  to */\n      dup8\n        /* \"@openzeppelin/contracts@5.0.0/token/ERC721/ERC721.sol\":9487:9500  _balances[to] */\n      0xffffffffffffffffffffffffffffffffffffffff\n      and\n      0xffffffffffffffffffffffffffffffffffffffff\n      and\n      dup2\n      mstore\n      0x20\n      add\n      swap1\n      dup2\n      mstore\n      0x20\n      add\n      0x00\n      keccak256\n      0x00\n        /* \"@openzeppelin/contracts@5.0.0/token/ERC721/ERC721.sol\":9487:9505  _balances[to] += 1 */\n      dup3\n      dup3\n      sload\n      add\n      swap3\n      pop\n      pop\n      dup2\n      swap1\n      sstore\n      pop\n        /* \"@openzeppelin/contracts@5.0.0/token/ERC721/ERC721.sol\":9423:9530  if (to != address(0)) {... */\n    tag_196:\n        /* \"@openzeppelin/contracts@5.0.0/token/ERC721/ERC721.sol\":9559:9561  to */\n      dup5\n        /* \"@openzeppelin/contracts@5.0.0/token/ERC721/ERC721.sol\":9540:9547  _owners */\n      0x02\n        /* \"@openzeppelin/contracts@5.0.0/token/ERC721/ERC721.sol\":9540:9556  _owners[tokenId] */\n      0x00\n        /* \"@openzeppelin/contracts@5.0.0/token/ERC721/ERC721.sol\":9548:9555  tokenId */\n      dup7\n        /* \"@openzeppelin/contracts@5.0.0/token/ERC721/ERC721.sol\":9540:9556  _owners[tokenId] */\n      dup2\n      mstore\n      0x20\n      add\n      swap1\n      dup2\n      mstore\n      0x20\n      add\n      0x00\n      keccak256\n      0x00\n        /* \"@openzeppelin/contracts@5.0.0/token/ERC721/ERC721.sol\":9540:9561  _owners[tokenId] = to */\n      0x0100\n      exp\n      dup2\n      sload\n      dup2\n      0xffffffffffffffffffffffffffffffffffffffff\n      mul\n      not\n      and\n      swap1\n      dup4\n      0xffffffffffffffffffffffffffffffffffffffff\n      and\n      mul\n      or\n      swap1\n      sstore\n      pop\n        /* \"@openzeppelin/contracts@5.0.0/token/ERC721/ERC721.sol\":9596:9603  tokenId */\n      dup4\n        /* \"@openzeppelin/contracts@5.0.0/token/ERC721/ERC721.sol\":9592:9594  to */\n      dup6\n        /* \"@openzeppelin/contracts@5.0.0/token/ERC721/ERC721.sol\":9577:9604  Transfer(from, to, tokenId) */\n      0xffffffffffffffffffffffffffffffffffffffff\n      and\n        /* \"@openzeppelin/contracts@5.0.0/token/ERC721/ERC721.sol\":9586:9590  from */\n      dup3\n        /* \"@openzeppelin/contracts@5.0.0/token/ERC721/ERC721.sol\":9577:9604  Transfer(from, to, tokenId) */\n      0xffffffffffffffffffffffffffffffffffffffff\n      and\n      0xddf252ad1be2c89b69c2b068fc378daa952ba7f163c4a11628f55a4df523b3ef\n      mload(0x40)\n      mload(0x40)\n      dup1\n      swap2\n      sub\n      swap1\n      log4\n        /* \"@openzeppelin/contracts@5.0.0/token/ERC721/ERC721.sol\":9622:9626  from */\n      dup1\n        /* \"@openzeppelin/contracts@5.0.0/token/ERC721/ERC721.sol\":9615:9626  return from */\n      swap2\n      pop\n      pop\n        /* \"@openzeppelin/contracts@5.0.0/token/ERC721/ERC721.sol\":8838:9633  function _update(address to, uint256 tokenId, address auth) internal virtual returns (address) {... */\n      swap4\n      swap3\n      pop\n      pop\n      pop\n      jump\t// out\n        /* \"@openzeppelin/contracts@5.0.0/access/Ownable.sol\":1796:1958  function _checkOwner() internal view virtual {... */\n    tag_137:\n        /* \"@openzeppelin/contracts@5.0.0/access/Ownable.sol\":1866:1878  _msgSender() */\n      tag_198\n        /* \"@openzeppelin/contracts@5.0.0/access/Ownable.sol\":1866:1876  _msgSender */\n      tag_114\n        /* \"@openzeppelin/contracts@5.0.0/access/Ownable.sol\":1866:1878  _msgSender() */\n      jump\t// in\n    tag_198:\n        /* \"@openzeppelin/contracts@5.0.0/access/Ownable.sol\":1855:1878  owner() != _msgSender() */\n      0xffffffffffffffffffffffffffffffffffffffff\n      and\n        /* \"@openzeppelin/contracts@5.0.0/access/Ownable.sol\":1855:1862  owner() */\n      tag_199\n        /* \"@openzeppelin/contracts@5.0.0/access/Ownable.sol\":1855:1860  owner */\n      tag_67\n        /* \"@openzeppelin/contracts@5.0.0/access/Ownable.sol\":1855:1862  owner() */\n      jump\t// in\n    tag_199:\n        /* \"@openzeppelin/contracts@5.0.0/access/Ownable.sol\":1855:1878  owner() != _msgSender() */\n      0xffffffffffffffffffffffffffffffffffffffff\n      and\n      eq\n        /* \"@openzeppelin/contracts@5.0.0/access/Ownable.sol\":1851:1952  if (owner() != _msgSender()) {... */\n      tag_200\n      jumpi\n        /* \"@openzeppelin/contracts@5.0.0/access/Ownable.sol\":1928:1940  _msgSender() */\n      tag_201\n        /* \"@openzeppelin/contracts@5.0.0/access/Ownable.sol\":1928:1938  _msgSender */\n      tag_114\n        /* \"@openzeppelin/contracts@5.0.0/access/Ownable.sol\":1928:1940  _msgSender() */\n      jump\t// in\n    tag_201:\n        /* \"@openzeppelin/contracts@5.0.0/access/Ownable.sol\":1901:1941  OwnableUnauthorizedAccount(_msgSender()) */\n      mload(0x40)\n      0x118cdaa700000000000000000000000000000000000000000000000000000000\n      dup2\n      mstore\n      0x04\n      add\n      tag_202\n      swap2\n      swap1\n      tag_39\n      jump\t// in\n    tag_202:\n      mload(0x40)\n      dup1\n      swap2\n      sub\n      swap1\n      revert\n        /* \"@openzeppelin/contracts@5.0.0/access/Ownable.sol\":1851:1952  if (owner() != _msgSender()) {... */\n    tag_200:\n        /* \"@openzeppelin/contracts@5.0.0/access/Ownable.sol\":1796:1958  function _checkOwner() internal view virtual {... */\n      jump\t// out\n        /* \"@openzeppelin/contracts@5.0.0/access/Ownable.sol\":2912:3099  function _transferOwnership(address newOwner) internal virtual {... */\n    tag_140:\n        /* \"@openzeppelin/contracts@5.0.0/access/Ownable.sol\":2985:3001  address oldOwner */\n      0x00\n        /* \"@openzeppelin/contracts@5.0.0/access/Ownable.sol\":3004:3010  _owner */\n      0x07\n      0x00\n      swap1\n      sload\n      swap1\n      0x0100\n      exp\n      swap1\n      div\n      0xffffffffffffffffffffffffffffffffffffffff\n      and\n        /* \"@openzeppelin/contracts@5.0.0/access/Ownable.sol\":2985:3010  address oldOwner = _owner */\n      swap1\n      pop\n        /* \"@openzeppelin/contracts@5.0.0/access/Ownable.sol\":3029:3037  newOwner */\n      dup2\n        /* \"@openzeppelin/contracts@5.0.0/access/Ownable.sol\":3020:3026  _owner */\n      0x07\n      0x00\n        /* \"@openzeppelin/contracts@5.0.0/access/Ownable.sol\":3020:3037  _owner = newOwner */\n      0x0100\n      exp\n      dup2\n      sload\n      dup2\n      0xffffffffffffffffffffffffffffffffffffffff\n      mul\n      not\n      and\n      swap1\n      dup4\n      0xffffffffffffffffffffffffffffffffffffffff\n      and\n      mul\n      or\n      swap1\n      sstore\n      pop\n        /* \"@openzeppelin/contracts@5.0.0/access/Ownable.sol\":3083:3091  newOwner */\n      dup2\n        /* \"@openzeppelin/contracts@5.0.0/access/Ownable.sol\":3052:3092  OwnershipTransferred(oldOwner, newOwner) */\n      0xffffffffffffffffffffffffffffffffffffffff\n      and\n        /* \"@openzeppelin/contracts@5.0.0/access/Ownable.sol\":3073:3081  oldOwner */\n      dup2\n        /* \"@openzeppelin/contracts@5.0.0/access/Ownable.sol\":3052:3092  OwnershipTransferred(oldOwner, newOwner) */\n      0xffffffffffffffffffffffffffffffffffffffff\n      and\n      0x8be0079c531659141344cd1fd0a4f28419497f9722a3daafe3b4186f6b6457e0\n      mload(0x40)\n      mload(0x40)\n      dup1\n      swap2\n      sub\n      swap1\n      log3\n        /* \"@openzeppelin/contracts@5.0.0/access/Ownable.sol\":2975:3099  {... */\n      pop\n        /* \"@openzeppelin/contracts@5.0.0/access/Ownable.sol\":2912:3099  function _transferOwnership(address newOwner) internal virtual {... */\n      pop\n      jump\t// out\n        /* \"@openzeppelin/contracts@5.0.0/token/ERC721/ERC721.sol\":15591:15903  function _setApprovalForAll(address owner, address operator, bool approved) internal virtual {... */\n    tag_151:\n        /* \"@openzeppelin/contracts@5.0.0/token/ERC721/ERC721.sol\":15718:15719  0 */\n      0x00\n        /* \"@openzeppelin/contracts@5.0.0/token/ERC721/ERC721.sol\":15698:15720  operator == address(0) */\n      0xffffffffffffffffffffffffffffffffffffffff\n      and\n        /* \"@openzeppelin/contracts@5.0.0/token/ERC721/ERC721.sol\":15698:15706  operator */\n      dup3\n        /* \"@openzeppelin/contracts@5.0.0/token/ERC721/ERC721.sol\":15698:15720  operator == address(0) */\n      0xffffffffffffffffffffffffffffffffffffffff\n      and\n      sub\n        /* \"@openzeppelin/contracts@5.0.0/token/ERC721/ERC721.sol\":15694:15785  if (operator == address(0)) {... */\n      tag_205\n      jumpi\n        /* \"@openzeppelin/contracts@5.0.0/token/ERC721/ERC721.sol\":15765:15773  operator */\n      dup2\n        /* \"@openzeppelin/contracts@5.0.0/token/ERC721/ERC721.sol\":15743:15774  ERC721InvalidOperator(operator) */\n      mload(0x40)\n      0x5b08ba1800000000000000000000000000000000000000000000000000000000\n      dup2\n      mstore\n      0x04\n      add\n      tag_206\n      swap2\n      swap1\n      tag_39\n      jump\t// in\n    tag_206:\n      mload(0x40)\n      dup1\n      swap2\n      sub\n      swap1\n      revert\n        /* \"@openzeppelin/contracts@5.0.0/token/ERC721/ERC721.sol\":15694:15785  if (operator == address(0)) {... */\n    tag_205:\n        /* \"@openzeppelin/contracts@5.0.0/token/ERC721/ERC721.sol\":15832:15840  approved */\n      dup1\n        /* \"@openzeppelin/contracts@5.0.0/token/ERC721/ERC721.sol\":15794:15812  _operatorApprovals */\n      0x05\n        /* \"@openzeppelin/contracts@5.0.0/token/ERC721/ERC721.sol\":15794:15819  _operatorApprovals[owner] */\n      0x00\n        /* \"@openzeppelin/contracts@5.0.0/token/ERC721/ERC721.sol\":15813:15818  owner */\n      dup6\n        /* \"@openzeppelin/contracts@5.0.0/token/ERC721/ERC721.sol\":15794:15819  _operatorApprovals[owner] */\n      0xffffffffffffffffffffffffffffffffffffffff\n      and\n      0xffffffffffffffffffffffffffffffffffffffff\n      and\n      dup2\n      mstore\n      0x20\n      add\n      swap1\n      dup2\n      mstore\n      0x20\n      add\n      0x00\n      keccak256\n        /* \"@openzeppelin/contracts@5.0.0/token/ERC721/ERC721.sol\":15794:15829  _operatorApprovals[owner][operator] */\n      0x00\n        /* \"@openzeppelin/contracts@5.0.0/token/ERC721/ERC721.sol\":15820:15828  operator */\n      dup5\n        /* \"@openzeppelin/contracts@5.0.0/token/ERC721/ERC721.sol\":15794:15829  _operatorApprovals[owner][operator] */\n      0xffffffffffffffffffffffffffffffffffffffff\n      and\n      0xffffffffffffffffffffffffffffffffffffffff\n      and\n      dup2\n      mstore\n      0x20\n      add\n      swap1\n      dup2\n      mstore\n      0x20\n      add\n      0x00\n      keccak256\n      0x00\n        /* \"@openzeppelin/contracts@5.0.0/token/ERC721/ERC721.sol\":15794:15840  _operatorApprovals[owner][operator] = approved */\n      0x0100\n      exp\n      dup2\n      sload\n      dup2\n      0xff\n      mul\n      not\n      and\n      swap1\n      dup4\n      iszero\n      iszero\n      mul\n      or\n      swap1\n      sstore\n      pop\n        /* \"@openzeppelin/contracts@5.0.0/token/ERC721/ERC721.sol\":15877:15885  operator */\n      dup2\n        /* \"@openzeppelin/contracts@5.0.0/token/ERC721/ERC721.sol\":15855:15896  ApprovalForAll(owner, operator, approved) */\n      0xffffffffffffffffffffffffffffffffffffffff\n      and\n        /* \"@openzeppelin/contracts@5.0.0/token/ERC721/ERC721.sol\":15870:15875  owner */\n      dup4\n        /* \"@openzeppelin/contracts@5.0.0/token/ERC721/ERC721.sol\":15855:15896  ApprovalForAll(owner, operator, approved) */\n      0xffffffffffffffffffffffffffffffffffffffff\n      and\n      0x17307eab39ab6107e8899845ad3d59bd9653f200f220920489ca2b5937696c31\n        /* \"@openzeppelin/contracts@5.0.0/token/ERC721/ERC721.sol\":15887:15895  approved */\n      dup4\n        /* \"@openzeppelin/contracts@5.0.0/token/ERC721/ERC721.sol\":15855:15896  ApprovalForAll(owner, operator, approved) */\n      mload(0x40)\n      tag_207\n      swap2\n      swap1\n      tag_29\n      jump\t// in\n    tag_207:\n      mload(0x40)\n      dup1\n      swap2\n      sub\n      swap1\n      log3\n        /* \"@openzeppelin/contracts@5.0.0/token/ERC721/ERC721.sol\":15591:15903  function _setApprovalForAll(address owner, address operator, bool approved) internal virtual {... */\n      pop\n      pop\n      pop\n      jump\t// out\n        /* \"@openzeppelin/contracts@5.0.0/token/ERC721/ERC721.sol\":16918:17700  function _checkOnERC721Received(address from, address to, uint256 tokenId, bytes memory data) private {... */\n    tag_155:\n        /* \"@openzeppelin/contracts@5.0.0/token/ERC721/ERC721.sol\":17051:17052  0 */\n      0x00\n        /* \"@openzeppelin/contracts@5.0.0/token/ERC721/ERC721.sol\":17034:17036  to */\n      dup4\n        /* \"@openzeppelin/contracts@5.0.0/token/ERC721/ERC721.sol\":17034:17048  to.code.length */\n      0xffffffffffffffffffffffffffffffffffffffff\n      and\n      extcodesize\n        /* \"@openzeppelin/contracts@5.0.0/token/ERC721/ERC721.sol\":17034:17052  to.code.length > 0 */\n      gt\n        /* \"@openzeppelin/contracts@5.0.0/token/ERC721/ERC721.sol\":17030:17694  if (to.code.length > 0) {... */\n      iszero\n      tag_209\n      jumpi\n        /* \"@openzeppelin/contracts@5.0.0/token/ERC721/ERC721.sol\":17088:17090  to */\n      dup3\n        /* \"@openzeppelin/contracts@5.0.0/token/ERC721/ERC721.sol\":17072:17108  IERC721Receiver(to).onERC721Received */\n      0xffffffffffffffffffffffffffffffffffffffff\n      and\n      0x150b7a02\n        /* \"@openzeppelin/contracts@5.0.0/token/ERC721/ERC721.sol\":17109:17121  _msgSender() */\n      tag_210\n        /* \"@openzeppelin/contracts@5.0.0/token/ERC721/ERC721.sol\":17109:17119  _msgSender */\n      tag_114\n        /* \"@openzeppelin/contracts@5.0.0/token/ERC721/ERC721.sol\":17109:17121  _msgSender() */\n      jump\t// in\n    tag_210:\n        /* \"@openzeppelin/contracts@5.0.0/token/ERC721/ERC721.sol\":17123:17127  from */\n      dup7\n        /* \"@openzeppelin/contracts@5.0.0/token/ERC721/ERC721.sol\":17129:17136  tokenId */\n      dup6\n        /* \"@openzeppelin/contracts@5.0.0/token/ERC721/ERC721.sol\":17138:17142  data */\n      dup6\n        /* \"@openzeppelin/contracts@5.0.0/token/ERC721/ERC721.sol\":17072:17143  IERC721Receiver(to).onERC721Received(_msgSender(), from, tokenId, data) */\n      mload(0x40)\n      dup6\n      0xffffffff\n      and\n      0xe0\n      shl\n      dup2\n      mstore\n      0x04\n      add\n      tag_211\n      swap5\n      swap4\n      swap3\n      swap2\n      swap1\n      tag_212\n      jump\t// in\n    tag_211:\n      0x20\n      mload(0x40)\n      dup1\n      dup4\n      sub\n      dup2\n      0x00\n      dup8\n      gas\n      call\n      swap3\n      pop\n      pop\n      pop\n      dup1\n      iszero\n      tag_213\n      jumpi\n      pop\n      mload(0x40)\n      returndatasize\n      not(0x1f)\n      0x1f\n      dup3\n      add\n      and\n      dup3\n      add\n      dup1\n      0x40\n      mstore\n      pop\n      dup2\n      add\n      swap1\n      tag_214\n      swap2\n      swap1\n      tag_215\n      jump\t// in\n    tag_214:\n      0x01\n    tag_213:\n        /* \"@openzeppelin/contracts@5.0.0/token/ERC721/ERC721.sol\":17068:17684  try IERC721Receiver(to).onERC721Received(_msgSender(), from, tokenId, data) returns (bytes4 retval) {... */\n      tag_216\n      jumpi\n      returndatasize\n      dup1\n      0x00\n      dup2\n      eq\n      tag_221\n      jumpi\n      mload(0x40)\n      swap2\n      pop\n      and(add(returndatasize, 0x3f), not(0x1f))\n      dup3\n      add\n      0x40\n      mstore\n      returndatasize\n      dup3\n      mstore\n      returndatasize\n      0x00\n      0x20\n      dup5\n      add\n      returndatacopy\n      jump(tag_220)\n    tag_221:\n      0x60\n      swap2\n      pop\n    tag_220:\n      pop\n        /* \"@openzeppelin/contracts@5.0.0/token/ERC721/ERC721.sol\":17398:17399  0 */\n      0x00\n        /* \"@openzeppelin/contracts@5.0.0/token/ERC721/ERC721.sol\":17381:17387  reason */\n      dup2\n        /* \"@openzeppelin/contracts@5.0.0/token/ERC721/ERC721.sol\":17381:17394  reason.length */\n      mload\n        /* \"@openzeppelin/contracts@5.0.0/token/ERC721/ERC721.sol\":17381:17399  reason.length == 0 */\n      sub\n        /* \"@openzeppelin/contracts@5.0.0/token/ERC721/ERC721.sol\":17377:17670  if (reason.length == 0) {... */\n      tag_222\n      jumpi\n        /* \"@openzeppelin/contracts@5.0.0/token/ERC721/ERC721.sol\":17452:17454  to */\n      dup4\n        /* \"@openzeppelin/contracts@5.0.0/token/ERC721/ERC721.sol\":17430:17455  ERC721InvalidReceiver(to) */\n      mload(0x40)\n      0x64a0ae9200000000000000000000000000000000000000000000000000000000\n      dup2\n      mstore\n      0x04\n      add\n      tag_223\n      swap2\n      swap1\n      tag_39\n      jump\t// in\n    tag_223:\n      mload(0x40)\n      dup1\n      swap2\n      sub\n      swap1\n      revert\n        /* \"@openzeppelin/contracts@5.0.0/token/ERC721/ERC721.sol\":17377:17670  if (reason.length == 0) {... */\n    tag_222:\n        /* \"@openzeppelin/contracts@5.0.0/token/ERC721/ERC721.sol\":17622:17628  reason */\n      dup1\n        /* \"@openzeppelin/contracts@5.0.0/token/ERC721/ERC721.sol\":17616:17629  mload(reason) */\n      mload\n        /* \"@openzeppelin/contracts@5.0.0/token/ERC721/ERC721.sol\":17607:17613  reason */\n      dup2\n        /* \"@openzeppelin/contracts@5.0.0/token/ERC721/ERC721.sol\":17603:17605  32 */\n      0x20\n        /* \"@openzeppelin/contracts@5.0.0/token/ERC721/ERC721.sol\":17599:17614  add(32, reason) */\n      add\n        /* \"@openzeppelin/contracts@5.0.0/token/ERC721/ERC721.sol\":17592:17630  revert(add(32, reason), mload(reason)) */\n      revert\n        /* \"@openzeppelin/contracts@5.0.0/token/ERC721/ERC721.sol\":17068:17684  try IERC721Receiver(to).onERC721Received(_msgSender(), from, tokenId, data) returns (bytes4 retval) {... */\n    tag_216:\n        /* \"@openzeppelin/contracts@5.0.0/token/ERC721/ERC721.sol\":17200:17241  IERC721Receiver.onERC721Received.selector */\n      shl(0xe0, 0x150b7a02)\n        /* \"@openzeppelin/contracts@5.0.0/token/ERC721/ERC721.sol\":17190:17241  retval != IERC721Receiver.onERC721Received.selector */\n      not(0xffffffffffffffffffffffffffffffffffffffffffffffffffffffff)\n      and\n        /* \"@openzeppelin/contracts@5.0.0/token/ERC721/ERC721.sol\":17190:17196  retval */\n      dup2\n        /* \"@openzeppelin/contracts@5.0.0/token/ERC721/ERC721.sol\":17190:17241  retval != IERC721Receiver.onERC721Received.selector */\n      not(0xffffffffffffffffffffffffffffffffffffffffffffffffffffffff)\n      and\n      eq\n        /* \"@openzeppelin/contracts@5.0.0/token/ERC721/ERC721.sol\":17186:17316  if (retval != IERC721Receiver.onERC721Received.selector) {... */\n      tag_226\n      jumpi\n        /* \"@openzeppelin/contracts@5.0.0/token/ERC721/ERC721.sol\":17294:17296  to */\n      dup4\n        /* \"@openzeppelin/contracts@5.0.0/token/ERC721/ERC721.sol\":17272:17297  ERC721InvalidReceiver(to) */\n      mload(0x40)\n      0x64a0ae9200000000000000000000000000000000000000000000000000000000\n      dup2\n      mstore\n      0x04\n      add\n      tag_227\n      swap2\n      swap1\n      tag_39\n      jump\t// in\n    tag_227:\n      mload(0x40)\n      dup1\n      swap2\n      sub\n      swap1\n      revert\n        /* \"@openzeppelin/contracts@5.0.0/token/ERC721/ERC721.sol\":17186:17316  if (retval != IERC721Receiver.onERC721Received.selector) {... */\n    tag_226:\n        /* \"@openzeppelin/contracts@5.0.0/token/ERC721/ERC721.sol\":17144:17330  returns (bytes4 retval) {... */\n      pop\n        /* \"@openzeppelin/contracts@5.0.0/token/ERC721/ERC721.sol\":17030:17694  if (to.code.length > 0) {... */\n    tag_209:\n        /* \"@openzeppelin/contracts@5.0.0/token/ERC721/ERC721.sol\":16918:17700  function _checkOnERC721Received(address from, address to, uint256 tokenId, bytes memory data) private {... */\n      pop\n      pop\n      pop\n      pop\n      jump\t// out\n        /* \"@openzeppelin/contracts@5.0.0/token/ERC721/extensions/ERC721URIStorage.sol\":1210:1803  function tokenURI(uint256 tokenId) public view virtual override returns (string memory) {... */\n    tag_158:\n        /* \"@openzeppelin/contracts@5.0.0/token/ERC721/extensions/ERC721URIStorage.sol\":1283:1296  string memory */\n      0x60\n        /* \"@openzeppelin/contracts@5.0.0/token/ERC721/extensions/ERC721URIStorage.sol\":1308:1330  _requireOwned(tokenId) */\n      tag_229\n        /* \"@openzeppelin/contracts@5.0.0/token/ERC721/extensions/ERC721URIStorage.sol\":1322:1329  tokenId */\n      dup3\n        /* \"@openzeppelin/contracts@5.0.0/token/ERC721/extensions/ERC721URIStorage.sol\":1308:1321  _requireOwned */\n      tag_108\n        /* \"@openzeppelin/contracts@5.0.0/token/ERC721/extensions/ERC721URIStorage.sol\":1308:1330  _requireOwned(tokenId) */\n      jump\t// in\n    tag_229:\n      pop\n        /* \"@openzeppelin/contracts@5.0.0/token/ERC721/extensions/ERC721URIStorage.sol\":1341:1364  string memory _tokenURI */\n      0x00\n        /* \"@openzeppelin/contracts@5.0.0/token/ERC721/extensions/ERC721URIStorage.sol\":1367:1377  _tokenURIs */\n      0x06\n        /* \"@openzeppelin/contracts@5.0.0/token/ERC721/extensions/ERC721URIStorage.sol\":1367:1386  _tokenURIs[tokenId] */\n      0x00\n        /* \"@openzeppelin/contracts@5.0.0/token/ERC721/extensions/ERC721URIStorage.sol\":1378:1385  tokenId */\n      dup5\n        /* \"@openzeppelin/contracts@5.0.0/token/ERC721/extensions/ERC721URIStorage.sol\":1367:1386  _tokenURIs[tokenId] */\n      dup2\n      mstore\n      0x20\n      add\n      swap1\n      dup2\n      mstore\n      0x20\n      add\n      0x00\n      keccak256\n        /* \"@openzeppelin/contracts@5.0.0/token/ERC721/extensions/ERC721URIStorage.sol\":1341:1386  string memory _tokenURI = _tokenURIs[tokenId] */\n      dup1\n      sload\n      tag_230\n      swap1\n      tag_101\n      jump\t// in\n    tag_230:\n      dup1\n      0x1f\n      add\n      0x20\n      dup1\n      swap2\n      div\n      mul\n      0x20\n      add\n      mload(0x40)\n      swap1\n      dup2\n      add\n      0x40\n      mstore\n      dup1\n      swap3\n      swap2\n      swap1\n      dup2\n      dup2\n      mstore\n      0x20\n      add\n      dup3\n      dup1\n      sload\n      tag_231\n      swap1\n      tag_101\n      jump\t// in\n    tag_231:\n      dup1\n      iszero\n      tag_232\n      jumpi\n      dup1\n      0x1f\n      lt\n      tag_233\n      jumpi\n      0x0100\n      dup1\n      dup4\n      sload\n      div\n      mul\n      dup4\n      mstore\n      swap2\n      0x20\n      add\n      swap2\n      jump(tag_232)\n    tag_233:\n      dup3\n      add\n      swap2\n      swap1\n      0x00\n      mstore\n      keccak256(0x00, 0x20)\n      swap1\n    tag_234:\n      dup2\n      sload\n      dup2\n      mstore\n      swap1\n      0x01\n      add\n      swap1\n      0x20\n      add\n      dup1\n      dup4\n      gt\n      tag_234\n      jumpi\n      dup3\n      swap1\n      sub\n      0x1f\n      and\n      dup3\n      add\n      swap2\n    tag_232:\n      pop\n      pop\n      pop\n      pop\n      pop\n      swap1\n      pop\n        /* \"@openzeppelin/contracts@5.0.0/token/ERC721/extensions/ERC721URIStorage.sol\":1396:1414  string memory base */\n      0x00\n        /* \"@openzeppelin/contracts@5.0.0/token/ERC721/extensions/ERC721URIStorage.sol\":1417:1427  _baseURI() */\n      tag_235\n        /* \"@openzeppelin/contracts@5.0.0/token/ERC721/extensions/ERC721URIStorage.sol\":1417:1425  _baseURI */\n      tag_236\n        /* \"@openzeppelin/contracts@5.0.0/token/ERC721/extensions/ERC721URIStorage.sol\":1417:1427  _baseURI() */\n      jump\t// in\n    tag_235:\n        /* \"@openzeppelin/contracts@5.0.0/token/ERC721/extensions/ERC721URIStorage.sol\":1396:1427  string memory base = _baseURI() */\n      swap1\n      pop\n        /* \"@openzeppelin/contracts@5.0.0/token/ERC721/extensions/ERC721URIStorage.sol\":1522:1523  0 */\n      0x00\n        /* \"@openzeppelin/contracts@5.0.0/token/ERC721/extensions/ERC721URIStorage.sol\":1506:1510  base */\n      dup2\n        /* \"@openzeppelin/contracts@5.0.0/token/ERC721/extensions/ERC721URIStorage.sol\":1500:1518  bytes(base).length */\n      mload\n        /* \"@openzeppelin/contracts@5.0.0/token/ERC721/extensions/ERC721URIStorage.sol\":1500:1523  bytes(base).length == 0 */\n      sub\n        /* \"@openzeppelin/contracts@5.0.0/token/ERC721/extensions/ERC721URIStorage.sol\":1496:1566  if (bytes(base).length == 0) {... */\n      tag_237\n      jumpi\n        /* \"@openzeppelin/contracts@5.0.0/token/ERC721/extensions/ERC721URIStorage.sol\":1546:1555  _tokenURI */\n      dup2\n        /* \"@openzeppelin/contracts@5.0.0/token/ERC721/extensions/ERC721URIStorage.sol\":1539:1555  return _tokenURI */\n      swap3\n      pop\n      pop\n      pop\n      jump(tag_228)\n        /* \"@openzeppelin/contracts@5.0.0/token/ERC721/extensions/ERC721URIStorage.sol\":1496:1566  if (bytes(base).length == 0) {... */\n    tag_237:\n        /* \"@openzeppelin/contracts@5.0.0/token/ERC721/extensions/ERC721URIStorage.sol\":1691:1692  0 */\n      0x00\n        /* \"@openzeppelin/contracts@5.0.0/token/ERC721/extensions/ERC721URIStorage.sol\":1671:1680  _tokenURI */\n      dup3\n        /* \"@openzeppelin/contracts@5.0.0/token/ERC721/extensions/ERC721URIStorage.sol\":1665:1688  bytes(_tokenURI).length */\n      mload\n        /* \"@openzeppelin/contracts@5.0.0/token/ERC721/extensions/ERC721URIStorage.sol\":1665:1692  bytes(_tokenURI).length > 0 */\n      gt\n        /* \"@openzeppelin/contracts@5.0.0/token/ERC721/extensions/ERC721URIStorage.sol\":1661:1756  if (bytes(_tokenURI).length > 0) {... */\n      iszero\n      tag_238\n      jumpi\n        /* \"@openzeppelin/contracts@5.0.0/token/ERC721/extensions/ERC721URIStorage.sol\":1729:1733  base */\n      dup1\n        /* \"@openzeppelin/contracts@5.0.0/token/ERC721/extensions/ERC721URIStorage.sol\":1735:1744  _tokenURI */\n      dup3\n        /* \"@openzeppelin/contracts@5.0.0/token/ERC721/extensions/ERC721URIStorage.sol\":1715:1745  string.concat(base, _tokenURI) */\n      add(0x20, mload(0x40))\n      tag_239\n      swap3\n      swap2\n      swap1\n      tag_240\n      jump\t// in\n    tag_239:\n      mload(0x40)\n      0x20\n      dup2\n      dup4\n      sub\n      sub\n      dup2\n      mstore\n      swap1\n      0x40\n      mstore\n        /* \"@openzeppelin/contracts@5.0.0/token/ERC721/extensions/ERC721URIStorage.sol\":1708:1745  return string.concat(base, _tokenURI) */\n      swap3\n      pop\n      pop\n      pop\n      jump(tag_228)\n        /* \"@openzeppelin/contracts@5.0.0/token/ERC721/extensions/ERC721URIStorage.sol\":1661:1756  if (bytes(_tokenURI).length > 0) {... */\n    tag_238:\n        /* \"@openzeppelin/contracts@5.0.0/token/ERC721/extensions/ERC721URIStorage.sol\":1773:1796  super.tokenURI(tokenId) */\n      tag_241\n        /* \"@openzeppelin/contracts@5.0.0/token/ERC721/extensions/ERC721URIStorage.sol\":1788:1795  tokenId */\n      dup5\n        /* \"@openzeppelin/contracts@5.0.0/token/ERC721/extensions/ERC721URIStorage.sol\":1773:1787  super.tokenURI */\n      tag_242\n        /* \"@openzeppelin/contracts@5.0.0/token/ERC721/extensions/ERC721URIStorage.sol\":1773:1796  super.tokenURI(tokenId) */\n      jump\t// in\n    tag_241:\n        /* \"@openzeppelin/contracts@5.0.0/token/ERC721/extensions/ERC721URIStorage.sol\":1766:1796  return super.tokenURI(tokenId) */\n      swap3\n      pop\n      pop\n      pop\n        /* \"@openzeppelin/contracts@5.0.0/token/ERC721/extensions/ERC721URIStorage.sol\":1210:1803  function tokenURI(uint256 tokenId) public view virtual override returns (string memory) {... */\n    tag_228:\n      swap2\n      swap1\n      pop\n      jump\t// out\n        /* \"@openzeppelin/contracts@5.0.0/token/ERC721/ERC721.sol\":10633:10733  function _safeMint(address to, uint256 tokenId) internal {... */\n    tag_165:\n        /* \"@openzeppelin/contracts@5.0.0/token/ERC721/ERC721.sol\":10700:10726  _safeMint(to, tokenId, \"\") */\n      tag_244\n        /* \"@openzeppelin/contracts@5.0.0/token/ERC721/ERC721.sol\":10710:10712  to */\n      dup3\n        /* \"@openzeppelin/contracts@5.0.0/token/ERC721/ERC721.sol\":10714:10721  tokenId */\n      dup3\n        /* \"@openzeppelin/contracts@5.0.0/token/ERC721/ERC721.sol\":10700:10726  _safeMint(to, tokenId, \"\") */\n      mload(0x40)\n      dup1\n      0x20\n      add\n      0x40\n      mstore\n      dup1\n      0x00\n      dup2\n      mstore\n      pop\n        /* \"@openzeppelin/contracts@5.0.0/token/ERC721/ERC721.sol\":10700:10709  _safeMint */\n      tag_245\n        /* \"@openzeppelin/contracts@5.0.0/token/ERC721/ERC721.sol\":10700:10726  _safeMint(to, tokenId, \"\") */\n      jump\t// in\n    tag_244:\n        /* \"@openzeppelin/contracts@5.0.0/token/ERC721/ERC721.sol\":10633:10733  function _safeMint(address to, uint256 tokenId) internal {... */\n      pop\n      pop\n      jump\t// out\n        /* \"@openzeppelin/contracts@5.0.0/token/ERC721/extensions/ERC721URIStorage.sol\":1922:2089  function _setTokenURI(uint256 tokenId, string memory _tokenURI) internal virtual {... */\n    tag_167:\n        /* \"@openzeppelin/contracts@5.0.0/token/ERC721/extensions/ERC721URIStorage.sol\":2035:2044  _tokenURI */\n      dup1\n        /* \"@openzeppelin/contracts@5.0.0/token/ERC721/extensions/ERC721URIStorage.sol\":2013:2023  _tokenURIs */\n      0x06\n        /* \"@openzeppelin/contracts@5.0.0/token/ERC721/extensions/ERC721URIStorage.sol\":2013:2032  _tokenURIs[tokenId] */\n      0x00\n        /* \"@openzeppelin/contracts@5.0.0/token/ERC721/extensions/ERC721URIStorage.sol\":2024:2031  tokenId */\n      dup5\n        /* \"@openzeppelin/contracts@5.0.0/token/ERC721/extensions/ERC721URIStorage.sol\":2013:2032  _tokenURIs[tokenId] */\n      dup2\n      mstore\n      0x20\n      add\n      swap1\n      dup2\n      mstore\n      0x20\n      add\n      0x00\n      keccak256\n        /* \"@openzeppelin/contracts@5.0.0/token/ERC721/extensions/ERC721URIStorage.sol\":2013:2044  _tokenURIs[tokenId] = _tokenURI */\n      swap1\n      dup2\n      tag_247\n      swap2\n      swap1\n      tag_248\n      jump\t// in\n    tag_247:\n      pop\n        /* \"@openzeppelin/contracts@5.0.0/token/ERC721/extensions/ERC721URIStorage.sol\":2059:2082  MetadataUpdate(tokenId) */\n      0xf8e1a15aba9398e019f0b49df1a4fde98ee17ae345cb5f6b5e2c27f5033e8ce7\n        /* \"@openzeppelin/contracts@5.0.0/token/ERC721/extensions/ERC721URIStorage.sol\":2074:2081  tokenId */\n      dup3\n        /* \"@openzeppelin/contracts@5.0.0/token/ERC721/extensions/ERC721URIStorage.sol\":2059:2082  MetadataUpdate(tokenId) */\n      mload(0x40)\n      tag_249\n      swap2\n      swap1\n      tag_63\n      jump\t// in\n    tag_249:\n      mload(0x40)\n      dup1\n      swap2\n      sub\n      swap1\n      log1\n        /* \"@openzeppelin/contracts@5.0.0/token/ERC721/extensions/ERC721URIStorage.sol\":1922:2089  function _setTokenURI(uint256 tokenId, string memory _tokenURI) internal virtual {... */\n      pop\n      pop\n      jump\t// out\n        /* \"@openzeppelin/contracts@5.0.0/token/ERC721/ERC721.sol\":1561:1861  function supportsInterface(bytes4 interfaceId) public view virtual override(ERC165, IERC165) returns (bool) {... */\n    tag_178:\n        /* \"@openzeppelin/contracts@5.0.0/token/ERC721/ERC721.sol\":1663:1667  bool */\n      0x00\n        /* \"@openzeppelin/contracts@5.0.0/token/ERC721/ERC721.sol\":1713:1738  type(IERC721).interfaceId */\n      0x80ac58cd00000000000000000000000000000000000000000000000000000000\n        /* \"@openzeppelin/contracts@5.0.0/token/ERC721/ERC721.sol\":1698:1738  interfaceId == type(IERC721).interfaceId */\n      not(0xffffffffffffffffffffffffffffffffffffffffffffffffffffffff)\n      and\n        /* \"@openzeppelin/contracts@5.0.0/token/ERC721/ERC721.sol\":1698:1709  interfaceId */\n      dup3\n        /* \"@openzeppelin/contracts@5.0.0/token/ERC721/ERC721.sol\":1698:1738  interfaceId == type(IERC721).interfaceId */\n      not(0xffffffffffffffffffffffffffffffffffffffffffffffffffffffff)\n      and\n      eq\n        /* \"@openzeppelin/contracts@5.0.0/token/ERC721/ERC721.sol\":1698:1802  interfaceId == type(IERC721).interfaceId ||... */\n      dup1\n      tag_251\n      jumpi\n      pop\n        /* \"@openzeppelin/contracts@5.0.0/token/ERC721/ERC721.sol\":1769:1802  type(IERC721Metadata).interfaceId */\n      0x5b5e139f00000000000000000000000000000000000000000000000000000000\n        /* \"@openzeppelin/contracts@5.0.0/token/ERC721/ERC721.sol\":1754:1802  interfaceId == type(IERC721Metadata).interfaceId */\n      not(0xffffffffffffffffffffffffffffffffffffffffffffffffffffffff)\n      and\n        /* \"@openzeppelin/contracts@5.0.0/token/ERC721/ERC721.sol\":1754:1765  interfaceId */\n      dup3\n        /* \"@openzeppelin/contracts@5.0.0/token/ERC721/ERC721.sol\":1754:1802  interfaceId == type(IERC721Metadata).interfaceId */\n      not(0xffffffffffffffffffffffffffffffffffffffffffffffffffffffff)\n      and\n      eq\n        /* \"@openzeppelin/contracts@5.0.0/token/ERC721/ERC721.sol\":1698:1802  interfaceId == type(IERC721).interfaceId ||... */\n    tag_251:\n        /* \"@openzeppelin/contracts@5.0.0/token/ERC721/ERC721.sol\":1698:1854  interfaceId == type(IERC721).interfaceId ||... */\n      dup1\n      tag_252\n      jumpi\n      pop\n        /* \"@openzeppelin/contracts@5.0.0/token/ERC721/ERC721.sol\":1818:1854  super.supportsInterface(interfaceId) */\n      tag_253\n        /* \"@openzeppelin/contracts@5.0.0/token/ERC721/ERC721.sol\":1842:1853  interfaceId */\n      dup3\n        /* \"@openzeppelin/contracts@5.0.0/token/ERC721/ERC721.sol\":1818:1841  super.supportsInterface */\n      tag_254\n        /* \"@openzeppelin/contracts@5.0.0/token/ERC721/ERC721.sol\":1818:1854  super.supportsInterface(interfaceId) */\n      jump\t// in\n    tag_253:\n        /* \"@openzeppelin/contracts@5.0.0/token/ERC721/ERC721.sol\":1698:1854  interfaceId == type(IERC721).interfaceId ||... */\n    tag_252:\n        /* \"@openzeppelin/contracts@5.0.0/token/ERC721/ERC721.sol\":1679:1854  return... */\n      swap1\n      pop\n        /* \"@openzeppelin/contracts@5.0.0/token/ERC721/ERC721.sol\":1561:1861  function supportsInterface(bytes4 interfaceId) public view virtual override(ERC165, IERC165) returns (bool) {... */\n      swap2\n      swap1\n      pop\n      jump\t// out\n        /* \"@openzeppelin/contracts@5.0.0/token/ERC721/ERC721.sol\":5707:5822  function _ownerOf(uint256 tokenId) internal view virtual returns (address) {... */\n    tag_181:\n        /* \"@openzeppelin/contracts@5.0.0/token/ERC721/ERC721.sol\":5773:5780  address */\n      0x00\n        /* \"@openzeppelin/contracts@5.0.0/token/ERC721/ERC721.sol\":5799:5806  _owners */\n      0x02\n        /* \"@openzeppelin/contracts@5.0.0/token/ERC721/ERC721.sol\":5799:5815  _owners[tokenId] */\n      0x00\n        /* \"@openzeppelin/contracts@5.0.0/token/ERC721/ERC721.sol\":5807:5814  tokenId */\n      dup4\n        /* \"@openzeppelin/contracts@5.0.0/token/ERC721/ERC721.sol\":5799:5815  _owners[tokenId] */\n      dup2\n      mstore\n      0x20\n      add\n      swap1\n      dup2\n      mstore\n      0x20\n      add\n      0x00\n      keccak256\n      0x00\n      swap1\n      sload\n      swap1\n      0x0100\n      exp\n      swap1\n      div\n      0xffffffffffffffffffffffffffffffffffffffff\n      and\n        /* \"@openzeppelin/contracts@5.0.0/token/ERC721/ERC721.sol\":5792:5815  return _owners[tokenId] */\n      swap1\n      pop\n        /* \"@openzeppelin/contracts@5.0.0/token/ERC721/ERC721.sol\":5707:5822  function _ownerOf(uint256 tokenId) internal view virtual returns (address) {... */\n      swap2\n      swap1\n      pop\n      jump\t// out\n        /* \"@openzeppelin/contracts@5.0.0/token/ERC721/ERC721.sol\":14720:15382  function _approve(address to, uint256 tokenId, address auth, bool emitEvent) internal virtual {... */\n    tag_188:\n        /* \"@openzeppelin/contracts@5.0.0/token/ERC721/ERC721.sol\":14880:14889  emitEvent */\n      dup1\n        /* \"@openzeppelin/contracts@5.0.0/token/ERC721/ERC721.sol\":14880:14911  emitEvent || auth != address(0) */\n      dup1\n      tag_257\n      jumpi\n      pop\n        /* \"@openzeppelin/contracts@5.0.0/token/ERC721/ERC721.sol\":14909:14910  0 */\n      0x00\n        /* \"@openzeppelin/contracts@5.0.0/token/ERC721/ERC721.sol\":14893:14911  auth != address(0) */\n      0xffffffffffffffffffffffffffffffffffffffff\n      and\n        /* \"@openzeppelin/contracts@5.0.0/token/ERC721/ERC721.sol\":14893:14897  auth */\n      dup3\n        /* \"@openzeppelin/contracts@5.0.0/token/ERC721/ERC721.sol\":14893:14911  auth != address(0) */\n      0xffffffffffffffffffffffffffffffffffffffff\n      and\n      eq\n      iszero\n        /* \"@openzeppelin/contracts@5.0.0/token/ERC721/ERC721.sol\":14880:14911  emitEvent || auth != address(0) */\n    tag_257:\n        /* \"@openzeppelin/contracts@5.0.0/token/ERC721/ERC721.sol\":14876:15336  if (emitEvent || auth != address(0)) {... */\n      iszero\n      tag_258\n      jumpi\n        /* \"@openzeppelin/contracts@5.0.0/token/ERC721/ERC721.sol\":14927:14940  address owner */\n      0x00\n        /* \"@openzeppelin/contracts@5.0.0/token/ERC721/ERC721.sol\":14943:14965  _requireOwned(tokenId) */\n      tag_259\n        /* \"@openzeppelin/contracts@5.0.0/token/ERC721/ERC721.sol\":14957:14964  tokenId */\n      dup5\n        /* \"@openzeppelin/contracts@5.0.0/token/ERC721/ERC721.sol\":14943:14956  _requireOwned */\n      tag_108\n        /* \"@openzeppelin/contracts@5.0.0/token/ERC721/ERC721.sol\":14943:14965  _requireOwned(tokenId) */\n      jump\t// in\n    tag_259:\n        /* \"@openzeppelin/contracts@5.0.0/token/ERC721/ERC721.sol\":14927:14965  address owner = _requireOwned(tokenId) */\n      swap1\n      pop\n        /* \"@openzeppelin/contracts@5.0.0/token/ERC721/ERC721.sol\":15109:15110  0 */\n      0x00\n        /* \"@openzeppelin/contracts@5.0.0/token/ERC721/ERC721.sol\":15093:15111  auth != address(0) */\n      0xffffffffffffffffffffffffffffffffffffffff\n      and\n        /* \"@openzeppelin/contracts@5.0.0/token/ERC721/ERC721.sol\":15093:15097  auth */\n      dup4\n        /* \"@openzeppelin/contracts@5.0.0/token/ERC721/ERC721.sol\":15093:15111  auth != address(0) */\n      0xffffffffffffffffffffffffffffffffffffffff\n      and\n      eq\n      iszero\n        /* \"@openzeppelin/contracts@5.0.0/token/ERC721/ERC721.sol\":15093:15128  auth != address(0) && owner != auth */\n      dup1\n      iszero\n      tag_260\n      jumpi\n      pop\n        /* \"@openzeppelin/contracts@5.0.0/token/ERC721/ERC721.sol\":15124:15128  auth */\n      dup3\n        /* \"@openzeppelin/contracts@5.0.0/token/ERC721/ERC721.sol\":15115:15128  owner != auth */\n      0xffffffffffffffffffffffffffffffffffffffff\n      and\n        /* \"@openzeppelin/contracts@5.0.0/token/ERC721/ERC721.sol\":15115:15120  owner */\n      dup2\n        /* \"@openzeppelin/contracts@5.0.0/token/ERC721/ERC721.sol\":15115:15128  owner != auth */\n      0xffffffffffffffffffffffffffffffffffffffff\n      and\n      eq\n      iszero\n        /* \"@openzeppelin/contracts@5.0.0/token/ERC721/ERC721.sol\":15093:15128  auth != address(0) && owner != auth */\n    tag_260:\n        /* \"@openzeppelin/contracts@5.0.0/token/ERC721/ERC721.sol\":15093:15162  auth != address(0) && owner != auth && !isApprovedForAll(owner, auth) */\n      dup1\n      iszero\n      tag_261\n      jumpi\n      pop\n        /* \"@openzeppelin/contracts@5.0.0/token/ERC721/ERC721.sol\":15133:15162  isApprovedForAll(owner, auth) */\n      tag_262\n        /* \"@openzeppelin/contracts@5.0.0/token/ERC721/ERC721.sol\":15150:15155  owner */\n      dup2\n        /* \"@openzeppelin/contracts@5.0.0/token/ERC721/ERC721.sol\":15157:15161  auth */\n      dup5\n        /* \"@openzeppelin/contracts@5.0.0/token/ERC721/ERC721.sol\":15133:15149  isApprovedForAll */\n      tag_91\n        /* \"@openzeppelin/contracts@5.0.0/token/ERC721/ERC721.sol\":15133:15162  isApprovedForAll(owner, auth) */\n      jump\t// in\n    tag_262:\n        /* \"@openzeppelin/contracts@5.0.0/token/ERC721/ERC721.sol\":15132:15162  !isApprovedForAll(owner, auth) */\n      iszero\n        /* \"@openzeppelin/contracts@5.0.0/token/ERC721/ERC721.sol\":15093:15162  auth != address(0) && owner != auth && !isApprovedForAll(owner, auth) */\n    tag_261:\n        /* \"@openzeppelin/contracts@5.0.0/token/ERC721/ERC721.sol\":15089:15231  if (auth != address(0) && owner != auth && !isApprovedForAll(owner, auth)) {... */\n      iszero\n      tag_263\n      jumpi\n        /* \"@openzeppelin/contracts@5.0.0/token/ERC721/ERC721.sol\":15211:15215  auth */\n      dup3\n        /* \"@openzeppelin/contracts@5.0.0/token/ERC721/ERC721.sol\":15189:15216  ERC721InvalidApprover(auth) */\n      mload(0x40)\n      0xa9fbf51f00000000000000000000000000000000000000000000000000000000\n      dup2\n      mstore\n      0x04\n      add\n      tag_264\n      swap2\n      swap1\n      tag_39\n      jump\t// in\n    tag_264:\n      mload(0x40)\n      dup1\n      swap2\n      sub\n      swap1\n      revert\n        /* \"@openzeppelin/contracts@5.0.0/token/ERC721/ERC721.sol\":15089:15231  if (auth != address(0) && owner != auth && !isApprovedForAll(owner, auth)) {... */\n    tag_263:\n        /* \"@openzeppelin/contracts@5.0.0/token/ERC721/ERC721.sol\":15249:15258  emitEvent */\n      dup2\n        /* \"@openzeppelin/contracts@5.0.0/token/ERC721/ERC721.sol\":15245:15326  if (emitEvent) {... */\n      iszero\n      tag_265\n      jumpi\n        /* \"@openzeppelin/contracts@5.0.0/token/ERC721/ERC721.sol\":15303:15310  tokenId */\n      dup4\n        /* \"@openzeppelin/contracts@5.0.0/token/ERC721/ERC721.sol\":15299:15301  to */\n      dup6\n        /* \"@openzeppelin/contracts@5.0.0/token/ERC721/ERC721.sol\":15283:15311  Approval(owner, to, tokenId) */\n      0xffffffffffffffffffffffffffffffffffffffff\n      and\n        /* \"@openzeppelin/contracts@5.0.0/token/ERC721/ERC721.sol\":15292:15297  owner */\n      dup3\n        /* \"@openzeppelin/contracts@5.0.0/token/ERC721/ERC721.sol\":15283:15311  Approval(owner, to, tokenId) */\n      0xffffffffffffffffffffffffffffffffffffffff\n      and\n      0x8c5be1e5ebec7d5bd14f71427d1e84f3dd0314c0f7b2291e5b200ac8c7c3b925\n      mload(0x40)\n      mload(0x40)\n      dup1\n      swap2\n      sub\n      swap1\n      log4\n        /* \"@openzeppelin/contracts@5.0.0/token/ERC721/ERC721.sol\":15245:15326  if (emitEvent) {... */\n    tag_265:\n        /* \"@openzeppelin/contracts@5.0.0/token/ERC721/ERC721.sol\":14913:15336  {... */\n      pop\n        /* \"@openzeppelin/contracts@5.0.0/token/ERC721/ERC721.sol\":14876:15336  if (emitEvent || auth != address(0)) {... */\n    tag_258:\n        /* \"@openzeppelin/contracts@5.0.0/token/ERC721/ERC721.sol\":15373:15375  to */\n      dup4\n        /* \"@openzeppelin/contracts@5.0.0/token/ERC721/ERC721.sol\":15346:15361  _tokenApprovals */\n      0x04\n        /* \"@openzeppelin/contracts@5.0.0/token/ERC721/ERC721.sol\":15346:15370  _tokenApprovals[tokenId] */\n      0x00\n        /* \"@openzeppelin/contracts@5.0.0/token/ERC721/ERC721.sol\":15362:15369  tokenId */\n      dup6\n        /* \"@openzeppelin/contracts@5.0.0/token/ERC721/ERC721.sol\":15346:15370  _tokenApprovals[tokenId] */\n      dup2\n      mstore\n      0x20\n      add\n      swap1\n      dup2\n      mstore\n      0x20\n      add\n      0x00\n      keccak256\n      0x00\n        /* \"@openzeppelin/contracts@5.0.0/token/ERC721/ERC721.sol\":15346:15375  _tokenApprovals[tokenId] = to */\n      0x0100\n      exp\n      dup2\n      sload\n      dup2\n      0xffffffffffffffffffffffffffffffffffffffff\n      mul\n      not\n      and\n      swap1\n      dup4\n      0xffffffffffffffffffffffffffffffffffffffff\n      and\n      mul\n      or\n      swap1\n      sstore\n      pop\n        /* \"@openzeppelin/contracts@5.0.0/token/ERC721/ERC721.sol\":14720:15382  function _approve(address to, uint256 tokenId, address auth, bool emitEvent) internal virtual {... */\n      pop\n      pop\n      pop\n      pop\n      jump\t// out\n        /* \"@openzeppelin/contracts@5.0.0/token/ERC721/ERC721.sol\":7082:7450  function _checkAuthorized(address owner, address spender, uint256 tokenId) internal view virtual {... */\n    tag_193:\n        /* \"@openzeppelin/contracts@5.0.0/token/ERC721/ERC721.sol\":7194:7232  _isAuthorized(owner, spender, tokenId) */\n      tag_267\n        /* \"@openzeppelin/contracts@5.0.0/token/ERC721/ERC721.sol\":7208:7213  owner */\n      dup4\n        /* \"@openzeppelin/contracts@5.0.0/token/ERC721/ERC721.sol\":7215:7222  spender */\n      dup4\n        /* \"@openzeppelin/contracts@5.0.0/token/ERC721/ERC721.sol\":7224:7231  tokenId */\n      dup4\n        /* \"@openzeppelin/contracts@5.0.0/token/ERC721/ERC721.sol\":7194:7207  _isAuthorized */\n      tag_268\n        /* \"@openzeppelin/contracts@5.0.0/token/ERC721/ERC721.sol\":7194:7232  _isAuthorized(owner, spender, tokenId) */\n      jump\t// in\n    tag_267:\n        /* \"@openzeppelin/contracts@5.0.0/token/ERC721/ERC721.sol\":7189:7444  if (!_isAuthorized(owner, spender, tokenId)) {... */\n      tag_269\n      jumpi\n        /* \"@openzeppelin/contracts@5.0.0/token/ERC721/ERC721.sol\":7269:7270  0 */\n      0x00\n        /* \"@openzeppelin/contracts@5.0.0/token/ERC721/ERC721.sol\":7252:7271  owner == address(0) */\n      0xffffffffffffffffffffffffffffffffffffffff\n      and\n        /* \"@openzeppelin/contracts@5.0.0/token/ERC721/ERC721.sol\":7252:7257  owner */\n      dup4\n        /* \"@openzeppelin/contracts@5.0.0/token/ERC721/ERC721.sol\":7252:7271  owner == address(0) */\n      0xffffffffffffffffffffffffffffffffffffffff\n      and\n      sub\n        /* \"@openzeppelin/contracts@5.0.0/token/ERC721/ERC721.sol\":7248:7434  if (owner == address(0)) {... */\n      tag_270\n      jumpi\n        /* \"@openzeppelin/contracts@5.0.0/token/ERC721/ERC721.sol\":7321:7328  tokenId */\n      dup1\n        /* \"@openzeppelin/contracts@5.0.0/token/ERC721/ERC721.sol\":7298:7329  ERC721NonexistentToken(tokenId) */\n      mload(0x40)\n      0x7e27328900000000000000000000000000000000000000000000000000000000\n      dup2\n      mstore\n      0x04\n      add\n      tag_271\n      swap2\n      swap1\n      tag_63\n      jump\t// in\n    tag_271:\n      mload(0x40)\n      dup1\n      swap2\n      sub\n      swap1\n      revert\n        /* \"@openzeppelin/contracts@5.0.0/token/ERC721/ERC721.sol\":7248:7434  if (owner == address(0)) {... */\n    tag_270:\n        /* \"@openzeppelin/contracts@5.0.0/token/ERC721/ERC721.sol\":7402:7409  spender */\n      dup2\n        /* \"@openzeppelin/contracts@5.0.0/token/ERC721/ERC721.sol\":7411:7418  tokenId */\n      dup2\n        /* \"@openzeppelin/contracts@5.0.0/token/ERC721/ERC721.sol\":7375:7419  ERC721InsufficientApproval(spender, tokenId) */\n      mload(0x40)\n      0x177e802f00000000000000000000000000000000000000000000000000000000\n      dup2\n      mstore\n      0x04\n      add\n      tag_273\n      swap3\n      swap2\n      swap1\n      tag_274\n      jump\t// in\n    tag_273:\n      mload(0x40)\n      dup1\n      swap2\n      sub\n      swap1\n      revert\n        /* \"@openzeppelin/contracts@5.0.0/token/ERC721/ERC721.sol\":7189:7444  if (!_isAuthorized(owner, spender, tokenId)) {... */\n    tag_269:\n        /* \"@openzeppelin/contracts@5.0.0/token/ERC721/ERC721.sol\":7082:7450  function _checkAuthorized(address owner, address spender, uint256 tokenId) internal view virtual {... */\n      pop\n      pop\n      pop\n      jump\t// out\n        /* \"@openzeppelin/contracts@5.0.0/token/ERC721/ERC721.sol\":3174:3266  function _baseURI() internal view virtual returns (string memory) {... */\n    tag_236:\n        /* \"@openzeppelin/contracts@5.0.0/token/ERC721/ERC721.sol\":3225:3238  string memory */\n      0x60\n        /* \"@openzeppelin/contracts@5.0.0/token/ERC721/ERC721.sol\":3250:3259  return \"\" */\n      mload(0x40)\n      dup1\n      0x20\n      add\n      0x40\n      mstore\n      dup1\n      0x00\n      dup2\n      mstore\n      pop\n      swap1\n      pop\n        /* \"@openzeppelin/contracts@5.0.0/token/ERC721/ERC721.sol\":3174:3266  function _baseURI() internal view virtual returns (string memory) {... */\n      swap1\n      jump\t// out\n        /* \"@openzeppelin/contracts@5.0.0/token/ERC721/ERC721.sol\":2677:2932  function tokenURI(uint256 tokenId) public view virtual returns (string memory) {... */\n    tag_242:\n        /* \"@openzeppelin/contracts@5.0.0/token/ERC721/ERC721.sol\":2741:2754  string memory */\n      0x60\n        /* \"@openzeppelin/contracts@5.0.0/token/ERC721/ERC721.sol\":2766:2788  _requireOwned(tokenId) */\n      tag_277\n        /* \"@openzeppelin/contracts@5.0.0/token/ERC721/ERC721.sol\":2780:2787  tokenId */\n      dup3\n        /* \"@openzeppelin/contracts@5.0.0/token/ERC721/ERC721.sol\":2766:2779  _requireOwned */\n      tag_108\n        /* \"@openzeppelin/contracts@5.0.0/token/ERC721/ERC721.sol\":2766:2788  _requireOwned(tokenId) */\n      jump\t// in\n    tag_277:\n      pop\n        /* \"@openzeppelin/contracts@5.0.0/token/ERC721/ERC721.sol\":2799:2820  string memory baseURI */\n      0x00\n        /* \"@openzeppelin/contracts@5.0.0/token/ERC721/ERC721.sol\":2823:2833  _baseURI() */\n      tag_278\n        /* \"@openzeppelin/contracts@5.0.0/token/ERC721/ERC721.sol\":2823:2831  _baseURI */\n      tag_236\n        /* \"@openzeppelin/contracts@5.0.0/token/ERC721/ERC721.sol\":2823:2833  _baseURI() */\n      jump\t// in\n    tag_278:\n        /* \"@openzeppelin/contracts@5.0.0/token/ERC721/ERC721.sol\":2799:2833  string memory baseURI = _baseURI() */\n      swap1\n      pop\n        /* \"@openzeppelin/contracts@5.0.0/token/ERC721/ERC721.sol\":2874:2875  0 */\n      0x00\n        /* \"@openzeppelin/contracts@5.0.0/token/ERC721/ERC721.sol\":2856:2863  baseURI */\n      dup2\n        /* \"@openzeppelin/contracts@5.0.0/token/ERC721/ERC721.sol\":2850:2871  bytes(baseURI).length */\n      mload\n        /* \"@openzeppelin/contracts@5.0.0/token/ERC721/ERC721.sol\":2850:2875  bytes(baseURI).length > 0 */\n      gt\n        /* \"@openzeppelin/contracts@5.0.0/token/ERC721/ERC721.sol\":2850:2925  bytes(baseURI).length > 0 ? string.concat(baseURI, tokenId.toString()) : \"\" */\n      tag_279\n      jumpi\n      mload(0x40)\n      dup1\n      0x20\n      add\n      0x40\n      mstore\n      dup1\n      0x00\n      dup2\n      mstore\n      pop\n      jump(tag_280)\n    tag_279:\n        /* \"@openzeppelin/contracts@5.0.0/token/ERC721/ERC721.sol\":2892:2899  baseURI */\n      dup1\n        /* \"@openzeppelin/contracts@5.0.0/token/ERC721/ERC721.sol\":2901:2919  tokenId.toString() */\n      tag_281\n        /* \"@openzeppelin/contracts@5.0.0/token/ERC721/ERC721.sol\":2901:2908  tokenId */\n      dup5\n        /* \"@openzeppelin/contracts@5.0.0/token/ERC721/ERC721.sol\":2901:2917  tokenId.toString */\n      tag_282\n        /* \"@openzeppelin/contracts@5.0.0/token/ERC721/ERC721.sol\":2901:2919  tokenId.toString() */\n      jump\t// in\n    tag_281:\n        /* \"@openzeppelin/contracts@5.0.0/token/ERC721/ERC721.sol\":2878:2920  string.concat(baseURI, tokenId.toString()) */\n      add(0x20, mload(0x40))\n      tag_283\n      swap3\n      swap2\n      swap1\n      tag_240\n      jump\t// in\n    tag_283:\n      mload(0x40)\n      0x20\n      dup2\n      dup4\n      sub\n      sub\n      dup2\n      mstore\n      swap1\n      0x40\n      mstore\n        /* \"@openzeppelin/contracts@5.0.0/token/ERC721/ERC721.sol\":2850:2925  bytes(baseURI).length > 0 ? string.concat(baseURI, tokenId.toString()) : \"\" */\n    tag_280:\n        /* \"@openzeppelin/contracts@5.0.0/token/ERC721/ERC721.sol\":2843:2925  return bytes(baseURI).length > 0 ? string.concat(baseURI, tokenId.toString()) : \"\" */\n      swap2\n      pop\n      pop\n        /* \"@openzeppelin/contracts@5.0.0/token/ERC721/ERC721.sol\":2677:2932  function tokenURI(uint256 tokenId) public view virtual returns (string memory) {... */\n      swap2\n      swap1\n      pop\n      jump\t// out\n        /* \"@openzeppelin/contracts@5.0.0/token/ERC721/ERC721.sol\":10954:11136  function _safeMint(address to, uint256 tokenId, bytes memory data) internal virtual {... */\n    tag_245:\n        /* \"@openzeppelin/contracts@5.0.0/token/ERC721/ERC721.sol\":11048:11066  _mint(to, tokenId) */\n      tag_285\n        /* \"@openzeppelin/contracts@5.0.0/token/ERC721/ERC721.sol\":11054:11056  to */\n      dup4\n        /* \"@openzeppelin/contracts@5.0.0/token/ERC721/ERC721.sol\":11058:11065  tokenId */\n      dup4\n        /* \"@openzeppelin/contracts@5.0.0/token/ERC721/ERC721.sol\":11048:11053  _mint */\n      tag_286\n        /* \"@openzeppelin/contracts@5.0.0/token/ERC721/ERC721.sol\":11048:11066  _mint(to, tokenId) */\n      jump\t// in\n    tag_285:\n        /* \"@openzeppelin/contracts@5.0.0/token/ERC721/ERC721.sol\":11076:11129  _checkOnERC721Received(address(0), to, tokenId, data) */\n      tag_287\n        /* \"@openzeppelin/contracts@5.0.0/token/ERC721/ERC721.sol\":11107:11108  0 */\n      0x00\n        /* \"@openzeppelin/contracts@5.0.0/token/ERC721/ERC721.sol\":11111:11113  to */\n      dup5\n        /* \"@openzeppelin/contracts@5.0.0/token/ERC721/ERC721.sol\":11115:11122  tokenId */\n      dup5\n        /* \"@openzeppelin/contracts@5.0.0/token/ERC721/ERC721.sol\":11124:11128  data */\n      dup5\n        /* \"@openzeppelin/contracts@5.0.0/token/ERC721/ERC721.sol\":11076:11098  _checkOnERC721Received */\n      tag_155\n        /* \"@openzeppelin/contracts@5.0.0/token/ERC721/ERC721.sol\":11076:11129  _checkOnERC721Received(address(0), to, tokenId, data) */\n      jump\t// in\n    tag_287:\n        /* \"@openzeppelin/contracts@5.0.0/token/ERC721/ERC721.sol\":10954:11136  function _safeMint(address to, uint256 tokenId, bytes memory data) internal virtual {... */\n      pop\n      pop\n      pop\n      jump\t// out\n        /* \"@openzeppelin/contracts@5.0.0/utils/introspection/ERC165.sol\":762:908  function supportsInterface(bytes4 interfaceId) public view virtual returns (bool) {... */\n    tag_254:\n        /* \"@openzeppelin/contracts@5.0.0/utils/introspection/ERC165.sol\":838:842  bool */\n      0x00\n        /* \"@openzeppelin/contracts@5.0.0/utils/introspection/ERC165.sol\":876:901  type(IERC165).interfaceId */\n      0x01ffc9a700000000000000000000000000000000000000000000000000000000\n        /* \"@openzeppelin/contracts@5.0.0/utils/introspection/ERC165.sol\":861:901  interfaceId == type(IERC165).interfaceId */\n      not(0xffffffffffffffffffffffffffffffffffffffffffffffffffffffff)\n      and\n        /* \"@openzeppelin/contracts@5.0.0/utils/introspection/ERC165.sol\":861:872  interfaceId */\n      dup3\n        /* \"@openzeppelin/contracts@5.0.0/utils/introspection/ERC165.sol\":861:901  interfaceId == type(IERC165).interfaceId */\n      not(0xffffffffffffffffffffffffffffffffffffffffffffffffffffffff)\n      and\n      eq\n        /* \"@openzeppelin/contracts@5.0.0/utils/introspection/ERC165.sol\":854:901  return interfaceId == type(IERC165).interfaceId */\n      swap1\n      pop\n        /* \"@openzeppelin/contracts@5.0.0/utils/introspection/ERC165.sol\":762:908  function supportsInterface(bytes4 interfaceId) public view virtual returns (bool) {... */\n      swap2\n      swap1\n      pop\n      jump\t// out\n        /* \"@openzeppelin/contracts@5.0.0/token/ERC721/ERC721.sol\":6376:6648  function _isAuthorized(address owner, address spender, uint256 tokenId) internal view virtual returns (bool) {... */\n    tag_268:\n        /* \"@openzeppelin/contracts@5.0.0/token/ERC721/ERC721.sol\":6479:6483  bool */\n      0x00\n        /* \"@openzeppelin/contracts@5.0.0/token/ERC721/ERC721.sol\":6533:6534  0 */\n      dup1\n        /* \"@openzeppelin/contracts@5.0.0/token/ERC721/ERC721.sol\":6514:6535  spender != address(0) */\n      0xffffffffffffffffffffffffffffffffffffffff\n      and\n        /* \"@openzeppelin/contracts@5.0.0/token/ERC721/ERC721.sol\":6514:6521  spender */\n      dup4\n        /* \"@openzeppelin/contracts@5.0.0/token/ERC721/ERC721.sol\":6514:6535  spender != address(0) */\n      0xffffffffffffffffffffffffffffffffffffffff\n      and\n      eq\n      iszero\n        /* \"@openzeppelin/contracts@5.0.0/token/ERC721/ERC721.sol\":6514:6641  spender != address(0) &&... */\n      dup1\n      iszero\n      tag_290\n      jumpi\n      pop\n        /* \"@openzeppelin/contracts@5.0.0/token/ERC721/ERC721.sol\":6561:6568  spender */\n      dup3\n        /* \"@openzeppelin/contracts@5.0.0/token/ERC721/ERC721.sol\":6552:6568  owner == spender */\n      0xffffffffffffffffffffffffffffffffffffffff\n      and\n        /* \"@openzeppelin/contracts@5.0.0/token/ERC721/ERC721.sol\":6552:6557  owner */\n      dup5\n        /* \"@openzeppelin/contracts@5.0.0/token/ERC721/ERC721.sol\":6552:6568  owner == spender */\n      0xffffffffffffffffffffffffffffffffffffffff\n      and\n      eq\n        /* \"@openzeppelin/contracts@5.0.0/token/ERC721/ERC721.sol\":6552:6604  owner == spender || isApprovedForAll(owner, spender) */\n      dup1\n      tag_291\n      jumpi\n      pop\n        /* \"@openzeppelin/contracts@5.0.0/token/ERC721/ERC721.sol\":6572:6604  isApprovedForAll(owner, spender) */\n      tag_292\n        /* \"@openzeppelin/contracts@5.0.0/token/ERC721/ERC721.sol\":6589:6594  owner */\n      dup5\n        /* \"@openzeppelin/contracts@5.0.0/token/ERC721/ERC721.sol\":6596:6603  spender */\n      dup5\n        /* \"@openzeppelin/contracts@5.0.0/token/ERC721/ERC721.sol\":6572:6588  isApprovedForAll */\n      tag_91\n        /* \"@openzeppelin/contracts@5.0.0/token/ERC721/ERC721.sol\":6572:6604  isApprovedForAll(owner, spender) */\n      jump\t// in\n    tag_292:\n        /* \"@openzeppelin/contracts@5.0.0/token/ERC721/ERC721.sol\":6552:6604  owner == spender || isApprovedForAll(owner, spender) */\n    tag_291:\n        /* \"@openzeppelin/contracts@5.0.0/token/ERC721/ERC721.sol\":6552:6640  owner == spender || isApprovedForAll(owner, spender) || _getApproved(tokenId) == spender */\n      dup1\n      tag_293\n      jumpi\n      pop\n        /* \"@openzeppelin/contracts@5.0.0/token/ERC721/ERC721.sol\":6633:6640  spender */\n      dup3\n        /* \"@openzeppelin/contracts@5.0.0/token/ERC721/ERC721.sol\":6608:6640  _getApproved(tokenId) == spender */\n      0xffffffffffffffffffffffffffffffffffffffff\n      and\n        /* \"@openzeppelin/contracts@5.0.0/token/ERC721/ERC721.sol\":6608:6629  _getApproved(tokenId) */\n      tag_294\n        /* \"@openzeppelin/contracts@5.0.0/token/ERC721/ERC721.sol\":6621:6628  tokenId */\n      dup4\n        /* \"@openzeppelin/contracts@5.0.0/token/ERC721/ERC721.sol\":6608:6620  _getApproved */\n      tag_110\n        /* \"@openzeppelin/contracts@5.0.0/token/ERC721/ERC721.sol\":6608:6629  _getApproved(tokenId) */\n      jump\t// in\n    tag_294:\n        /* \"@openzeppelin/contracts@5.0.0/token/ERC721/ERC721.sol\":6608:6640  _getApproved(tokenId) == spender */\n      0xffffffffffffffffffffffffffffffffffffffff\n      and\n      eq\n        /* \"@openzeppelin/contracts@5.0.0/token/ERC721/ERC721.sol\":6552:6640  owner == spender || isApprovedForAll(owner, spender) || _getApproved(tokenId) == spender */\n    tag_293:\n        /* \"@openzeppelin/contracts@5.0.0/token/ERC721/ERC721.sol\":6514:6641  spender != address(0) &&... */\n    tag_290:\n        /* \"@openzeppelin/contracts@5.0.0/token/ERC721/ERC721.sol\":6495:6641  return... */\n      swap1\n      pop\n        /* \"@openzeppelin/contracts@5.0.0/token/ERC721/ERC721.sol\":6376:6648  function _isAuthorized(address owner, address spender, uint256 tokenId) internal view virtual returns (bool) {... */\n      swap4\n      swap3\n      pop\n      pop\n      pop\n      jump\t// out\n        /* \"@openzeppelin/contracts@5.0.0/utils/Strings.sol\":637:1335  function toString(uint256 value) internal pure returns (string memory) {... */\n    tag_282:\n        /* \"@openzeppelin/contracts@5.0.0/utils/Strings.sol\":693:706  string memory */\n      0x60\n        /* \"@openzeppelin/contracts@5.0.0/utils/Strings.sol\":742:756  uint256 length */\n      0x00\n        /* \"@openzeppelin/contracts@5.0.0/utils/Strings.sol\":779:780  1 */\n      0x01\n        /* \"@openzeppelin/contracts@5.0.0/utils/Strings.sol\":759:776  Math.log10(value) */\n      tag_296\n        /* \"@openzeppelin/contracts@5.0.0/utils/Strings.sol\":770:775  value */\n      dup5\n        /* \"@openzeppelin/contracts@5.0.0/utils/Strings.sol\":759:769  Math.log10 */\n      tag_297\n        /* \"@openzeppelin/contracts@5.0.0/utils/Strings.sol\":759:776  Math.log10(value) */\n      jump\t// in\n    tag_296:\n        /* \"@openzeppelin/contracts@5.0.0/utils/Strings.sol\":759:780  Math.log10(value) + 1 */\n      add\n        /* \"@openzeppelin/contracts@5.0.0/utils/Strings.sol\":742:780  uint256 length = Math.log10(value) + 1 */\n      swap1\n      pop\n        /* \"@openzeppelin/contracts@5.0.0/utils/Strings.sol\":794:814  string memory buffer */\n      0x00\n        /* \"@openzeppelin/contracts@5.0.0/utils/Strings.sol\":828:834  length */\n      dup2\n        /* \"@openzeppelin/contracts@5.0.0/utils/Strings.sol\":817:835  new string(length) */\n      0xffffffffffffffff\n      dup2\n      gt\n      iszero\n      tag_298\n      jumpi\n      tag_299\n      tag_300\n      jump\t// in\n    tag_299:\n    tag_298:\n      mload(0x40)\n      swap1\n      dup1\n      dup3\n      mstore\n      dup1\n      0x1f\n      add\n      not(0x1f)\n      and\n      0x20\n      add\n      dup3\n      add\n      0x40\n      mstore\n      dup1\n      iszero\n      tag_301\n      jumpi\n      dup2\n      0x20\n      add\n      0x01\n      dup3\n      mul\n      dup1\n      calldatasize\n      dup4\n      calldatacopy\n      dup1\n      dup3\n      add\n      swap2\n      pop\n      pop\n      swap1\n      pop\n    tag_301:\n      pop\n        /* \"@openzeppelin/contracts@5.0.0/utils/Strings.sol\":794:835  string memory buffer = new string(length) */\n      swap1\n      pop\n        /* \"@openzeppelin/contracts@5.0.0/utils/Strings.sol\":849:860  uint256 ptr */\n      0x00\n        /* \"@openzeppelin/contracts@5.0.0/utils/Strings.sol\":975:981  length */\n      dup3\n        /* \"@openzeppelin/contracts@5.0.0/utils/Strings.sol\":971:973  32 */\n      0x20\n        /* \"@openzeppelin/contracts@5.0.0/utils/Strings.sol\":967:982  add(32, length) */\n      add\n        /* \"@openzeppelin/contracts@5.0.0/utils/Strings.sol\":959:965  buffer */\n      dup3\n        /* \"@openzeppelin/contracts@5.0.0/utils/Strings.sol\":955:983  add(buffer, add(32, length)) */\n      add\n        /* \"@openzeppelin/contracts@5.0.0/utils/Strings.sol\":948:983  ptr := add(buffer, add(32, length)) */\n      swap1\n      pop\n        /* \"@openzeppelin/contracts@5.0.0/utils/Strings.sol\":1010:1292  while (true) {... */\n    tag_302:\n        /* \"@openzeppelin/contracts@5.0.0/utils/Strings.sol\":1017:1021  true */\n      0x01\n        /* \"@openzeppelin/contracts@5.0.0/utils/Strings.sol\":1010:1292  while (true) {... */\n      iszero\n      tag_303\n      jumpi\n        /* \"@openzeppelin/contracts@5.0.0/utils/Strings.sol\":1041:1046  ptr-- */\n      dup1\n      dup1\n      0x01\n      swap1\n      sub\n      swap2\n      pop\n      pop\n        /* \"@openzeppelin/contracts@5.0.0/utils/Strings.sol\":1180:1190  HEX_DIGITS */\n      0x3031323334353637383961626364656600000000000000000000000000000000\n        /* \"@openzeppelin/contracts@5.0.0/utils/Strings.sol\":1175:1177  10 */\n      0x0a\n        /* \"@openzeppelin/contracts@5.0.0/utils/Strings.sol\":1168:1173  value */\n      dup7\n        /* \"@openzeppelin/contracts@5.0.0/utils/Strings.sol\":1164:1178  mod(value, 10) */\n      mod\n        /* \"@openzeppelin/contracts@5.0.0/utils/Strings.sol\":1159:1191  byte(mod(value, 10), HEX_DIGITS) */\n      byte\n        /* \"@openzeppelin/contracts@5.0.0/utils/Strings.sol\":1154:1157  ptr */\n      dup2\n        /* \"@openzeppelin/contracts@5.0.0/utils/Strings.sol\":1146:1192  mstore8(ptr, byte(mod(value, 10), HEX_DIGITS)) */\n      mstore8\n        /* \"@openzeppelin/contracts@5.0.0/utils/Strings.sol\":1236:1238  10 */\n      0x0a\n        /* \"@openzeppelin/contracts@5.0.0/utils/Strings.sol\":1227:1238  value /= 10 */\n      dup6\n      dup2\n      tag_304\n      jumpi\n      tag_305\n      tag_306\n      jump\t// in\n    tag_305:\n    tag_304:\n      div\n      swap5\n      pop\n        /* \"@openzeppelin/contracts@5.0.0/utils/Strings.sol\":1269:1270  0 */\n      0x00\n        /* \"@openzeppelin/contracts@5.0.0/utils/Strings.sol\":1260:1265  value */\n      dup6\n        /* \"@openzeppelin/contracts@5.0.0/utils/Strings.sol\":1260:1270  value == 0 */\n      sub\n        /* \"@openzeppelin/contracts@5.0.0/utils/Strings.sol\":1010:1292  while (true) {... */\n      tag_302\n        /* \"@openzeppelin/contracts@5.0.0/utils/Strings.sol\":1256:1277  if (value == 0) break */\n      jumpi\n        /* \"@openzeppelin/contracts@5.0.0/utils/Strings.sol\":1010:1292  while (true) {... */\n    tag_303:\n        /* \"@openzeppelin/contracts@5.0.0/utils/Strings.sol\":1312:1318  buffer */\n      dup2\n        /* \"@openzeppelin/contracts@5.0.0/utils/Strings.sol\":1305:1318  return buffer */\n      swap4\n      pop\n      pop\n      pop\n      pop\n        /* \"@openzeppelin/contracts@5.0.0/utils/Strings.sol\":637:1335  function toString(uint256 value) internal pure returns (string memory) {... */\n      swap2\n      swap1\n      pop\n      jump\t// out\n        /* \"@openzeppelin/contracts@5.0.0/token/ERC721/ERC721.sol\":9955:10282  function _mint(address to, uint256 tokenId) internal {... */\n    tag_286:\n        /* \"@openzeppelin/contracts@5.0.0/token/ERC721/ERC721.sol\":10036:10037  0 */\n      0x00\n        /* \"@openzeppelin/contracts@5.0.0/token/ERC721/ERC721.sol\":10022:10038  to == address(0) */\n      0xffffffffffffffffffffffffffffffffffffffff\n      and\n        /* \"@openzeppelin/contracts@5.0.0/token/ERC721/ERC721.sol\":10022:10024  to */\n      dup3\n        /* \"@openzeppelin/contracts@5.0.0/token/ERC721/ERC721.sol\":10022:10038  to == address(0) */\n      0xffffffffffffffffffffffffffffffffffffffff\n      and\n      sub\n        /* \"@openzeppelin/contracts@5.0.0/token/ERC721/ERC721.sol\":10018:10105  if (to == address(0)) {... */\n      tag_309\n      jumpi\n        /* \"@openzeppelin/contracts@5.0.0/token/ERC721/ERC721.sol\":10091:10092  0 */\n      0x00\n        /* \"@openzeppelin/contracts@5.0.0/token/ERC721/ERC721.sol\":10061:10094  ERC721InvalidReceiver(address(0)) */\n      mload(0x40)\n      0x64a0ae9200000000000000000000000000000000000000000000000000000000\n      dup2\n      mstore\n      0x04\n      add\n      tag_310\n      swap2\n      swap1\n      tag_39\n      jump\t// in\n    tag_310:\n      mload(0x40)\n      dup1\n      swap2\n      sub\n      swap1\n      revert\n        /* \"@openzeppelin/contracts@5.0.0/token/ERC721/ERC721.sol\":10018:10105  if (to == address(0)) {... */\n    tag_309:\n        /* \"@openzeppelin/contracts@5.0.0/token/ERC721/ERC721.sol\":10114:10135  address previousOwner */\n      0x00\n        /* \"@openzeppelin/contracts@5.0.0/token/ERC721/ERC721.sol\":10138:10170  _update(to, tokenId, address(0)) */\n      tag_311\n        /* \"@openzeppelin/contracts@5.0.0/token/ERC721/ERC721.sol\":10146:10148  to */\n      dup4\n        /* \"@openzeppelin/contracts@5.0.0/token/ERC721/ERC721.sol\":10150:10157  tokenId */\n      dup4\n        /* \"@openzeppelin/contracts@5.0.0/token/ERC721/ERC721.sol\":10167:10168  0 */\n      0x00\n        /* \"@openzeppelin/contracts@5.0.0/token/ERC721/ERC721.sol\":10138:10145  _update */\n      tag_121\n        /* \"@openzeppelin/contracts@5.0.0/token/ERC721/ERC721.sol\":10138:10170  _update(to, tokenId, address(0)) */\n      jump\t// in\n    tag_311:\n        /* \"@openzeppelin/contracts@5.0.0/token/ERC721/ERC721.sol\":10114:10170  address previousOwner = _update(to, tokenId, address(0)) */\n      swap1\n      pop\n        /* \"@openzeppelin/contracts@5.0.0/token/ERC721/ERC721.sol\":10209:10210  0 */\n      0x00\n        /* \"@openzeppelin/contracts@5.0.0/token/ERC721/ERC721.sol\":10184:10211  previousOwner != address(0) */\n      0xffffffffffffffffffffffffffffffffffffffff\n      and\n        /* \"@openzeppelin/contracts@5.0.0/token/ERC721/ERC721.sol\":10184:10197  previousOwner */\n      dup2\n        /* \"@openzeppelin/contracts@5.0.0/token/ERC721/ERC721.sol\":10184:10211  previousOwner != address(0) */\n      0xffffffffffffffffffffffffffffffffffffffff\n      and\n      eq\n        /* \"@openzeppelin/contracts@5.0.0/token/ERC721/ERC721.sol\":10180:10276  if (previousOwner != address(0)) {... */\n      tag_312\n      jumpi\n        /* \"@openzeppelin/contracts@5.0.0/token/ERC721/ERC721.sol\":10262:10263  0 */\n      0x00\n        /* \"@openzeppelin/contracts@5.0.0/token/ERC721/ERC721.sol\":10234:10265  ERC721InvalidSender(address(0)) */\n      mload(0x40)\n      0x73c6ac6e00000000000000000000000000000000000000000000000000000000\n      dup2\n      mstore\n      0x04\n      add\n      tag_313\n      swap2\n      swap1\n      tag_39\n      jump\t// in\n    tag_313:\n      mload(0x40)\n      dup1\n      swap2\n      sub\n      swap1\n      revert\n        /* \"@openzeppelin/contracts@5.0.0/token/ERC721/ERC721.sol\":10180:10276  if (previousOwner != address(0)) {... */\n    tag_312:\n        /* \"@openzeppelin/contracts@5.0.0/token/ERC721/ERC721.sol\":10008:10282  {... */\n      pop\n        /* \"@openzeppelin/contracts@5.0.0/token/ERC721/ERC721.sol\":9955:10282  function _mint(address to, uint256 tokenId) internal {... */\n      pop\n      pop\n      jump\t// out\n        /* \"@openzeppelin/contracts@5.0.0/utils/math/Math.sol\":12214:13130  function log10(uint256 value) internal pure returns (uint256) {... */\n    tag_297:\n        /* \"@openzeppelin/contracts@5.0.0/utils/math/Math.sol\":12267:12274  uint256 */\n      0x00\n        /* \"@openzeppelin/contracts@5.0.0/utils/math/Math.sol\":12286:12300  uint256 result */\n      dup1\n        /* \"@openzeppelin/contracts@5.0.0/utils/math/Math.sol\":12303:12304  0 */\n      0x00\n        /* \"@openzeppelin/contracts@5.0.0/utils/math/Math.sol\":12286:12304  uint256 result = 0 */\n      swap1\n      pop\n        /* \"@openzeppelin/contracts@5.0.0/utils/math/Math.sol\":12351:12359  10 ** 64 */\n      0x184f03e93ff9f4daa797ed6e38ed64bf6a1f010000000000000000\n        /* \"@openzeppelin/contracts@5.0.0/utils/math/Math.sol\":12342:12347  value */\n      dup4\n        /* \"@openzeppelin/contracts@5.0.0/utils/math/Math.sol\":12342:12359  value >= 10 ** 64 */\n      lt\n        /* \"@openzeppelin/contracts@5.0.0/utils/math/Math.sol\":12338:12441  if (value >= 10 ** 64) {... */\n      tag_315\n      jumpi\n        /* \"@openzeppelin/contracts@5.0.0/utils/math/Math.sol\":12388:12396  10 ** 64 */\n      0x184f03e93ff9f4daa797ed6e38ed64bf6a1f010000000000000000\n        /* \"@openzeppelin/contracts@5.0.0/utils/math/Math.sol\":12379:12396  value /= 10 ** 64 */\n      dup4\n      dup2\n      tag_316\n      jumpi\n      tag_317\n      tag_306\n      jump\t// in\n    tag_317:\n    tag_316:\n      div\n      swap3\n      pop\n        /* \"@openzeppelin/contracts@5.0.0/utils/math/Math.sol\":12424:12426  64 */\n      0x40\n        /* \"@openzeppelin/contracts@5.0.0/utils/math/Math.sol\":12414:12426  result += 64 */\n      dup2\n      add\n      swap1\n      pop\n        /* \"@openzeppelin/contracts@5.0.0/utils/math/Math.sol\":12338:12441  if (value >= 10 ** 64) {... */\n    tag_315:\n        /* \"@openzeppelin/contracts@5.0.0/utils/math/Math.sol\":12467:12475  10 ** 32 */\n      0x04ee2d6d415b85acef8100000000\n        /* \"@openzeppelin/contracts@5.0.0/utils/math/Math.sol\":12458:12463  value */\n      dup4\n        /* \"@openzeppelin/contracts@5.0.0/utils/math/Math.sol\":12458:12475  value >= 10 ** 32 */\n      lt\n        /* \"@openzeppelin/contracts@5.0.0/utils/math/Math.sol\":12454:12557  if (value >= 10 ** 32) {... */\n      tag_318\n      jumpi\n        /* \"@openzeppelin/contracts@5.0.0/utils/math/Math.sol\":12504:12512  10 ** 32 */\n      0x04ee2d6d415b85acef8100000000\n        /* \"@openzeppelin/contracts@5.0.0/utils/math/Math.sol\":12495:12512  value /= 10 ** 32 */\n      dup4\n      dup2\n      tag_319\n      jumpi\n      tag_320\n      tag_306\n      jump\t// in\n    tag_320:\n    tag_319:\n      div\n      swap3\n      pop\n        /* \"@openzeppelin/contracts@5.0.0/utils/math/Math.sol\":12540:12542  32 */\n      0x20\n        /* \"@openzeppelin/contracts@5.0.0/utils/math/Math.sol\":12530:12542  result += 32 */\n      dup2\n      add\n      swap1\n      pop\n        /* \"@openzeppelin/contracts@5.0.0/utils/math/Math.sol\":12454:12557  if (value >= 10 ** 32) {... */\n    tag_318:\n        /* \"@openzeppelin/contracts@5.0.0/utils/math/Math.sol\":12583:12591  10 ** 16 */\n      0x2386f26fc10000\n        /* \"@openzeppelin/contracts@5.0.0/utils/math/Math.sol\":12574:12579  value */\n      dup4\n        /* \"@openzeppelin/contracts@5.0.0/utils/math/Math.sol\":12574:12591  value >= 10 ** 16 */\n      lt\n        /* \"@openzeppelin/contracts@5.0.0/utils/math/Math.sol\":12570:12673  if (value >= 10 ** 16) {... */\n      tag_321\n      jumpi\n        /* \"@openzeppelin/contracts@5.0.0/utils/math/Math.sol\":12620:12628  10 ** 16 */\n      0x2386f26fc10000\n        /* \"@openzeppelin/contracts@5.0.0/utils/math/Math.sol\":12611:12628  value /= 10 ** 16 */\n      dup4\n      dup2\n      tag_322\n      jumpi\n      tag_323\n      tag_306\n      jump\t// in\n    tag_323:\n    tag_322:\n      div\n      swap3\n      pop\n        /* \"@openzeppelin/contracts@5.0.0/utils/math/Math.sol\":12656:12658  16 */\n      0x10\n        /* \"@openzeppelin/contracts@5.0.0/utils/math/Math.sol\":12646:12658  result += 16 */\n      dup2\n      add\n      swap1\n      pop\n        /* \"@openzeppelin/contracts@5.0.0/utils/math/Math.sol\":12570:12673  if (value >= 10 ** 16) {... */\n    tag_321:\n        /* \"@openzeppelin/contracts@5.0.0/utils/math/Math.sol\":12699:12706  10 ** 8 */\n      0x05f5e100\n        /* \"@openzeppelin/contracts@5.0.0/utils/math/Math.sol\":12690:12695  value */\n      dup4\n        /* \"@openzeppelin/contracts@5.0.0/utils/math/Math.sol\":12690:12706  value >= 10 ** 8 */\n      lt\n        /* \"@openzeppelin/contracts@5.0.0/utils/math/Math.sol\":12686:12786  if (value >= 10 ** 8) {... */\n      tag_324\n      jumpi\n        /* \"@openzeppelin/contracts@5.0.0/utils/math/Math.sol\":12735:12742  10 ** 8 */\n      0x05f5e100\n        /* \"@openzeppelin/contracts@5.0.0/utils/math/Math.sol\":12726:12742  value /= 10 ** 8 */\n      dup4\n      dup2\n      tag_325\n      jumpi\n      tag_326\n      tag_306\n      jump\t// in\n    tag_326:\n    tag_325:\n      div\n      swap3\n      pop\n        /* \"@openzeppelin/contracts@5.0.0/utils/math/Math.sol\":12770:12771  8 */\n      0x08\n        /* \"@openzeppelin/contracts@5.0.0/utils/math/Math.sol\":12760:12771  result += 8 */\n      dup2\n      add\n      swap1\n      pop\n        /* \"@openzeppelin/contracts@5.0.0/utils/math/Math.sol\":12686:12786  if (value >= 10 ** 8) {... */\n    tag_324:\n        /* \"@openzeppelin/contracts@5.0.0/utils/math/Math.sol\":12812:12819  10 ** 4 */\n      0x2710\n        /* \"@openzeppelin/contracts@5.0.0/utils/math/Math.sol\":12803:12808  value */\n      dup4\n        /* \"@openzeppelin/contracts@5.0.0/utils/math/Math.sol\":12803:12819  value >= 10 ** 4 */\n      lt\n        /* \"@openzeppelin/contracts@5.0.0/utils/math/Math.sol\":12799:12899  if (value >= 10 ** 4) {... */\n      tag_327\n      jumpi\n        /* \"@openzeppelin/contracts@5.0.0/utils/math/Math.sol\":12848:12855  10 ** 4 */\n      0x2710\n        /* \"@openzeppelin/contracts@5.0.0/utils/math/Math.sol\":12839:12855  value /= 10 ** 4 */\n      dup4\n      dup2\n      tag_328\n      jumpi\n      tag_329\n      tag_306\n      jump\t// in\n    tag_329:\n    tag_328:\n      div\n      swap3\n      pop\n        /* \"@openzeppelin/contracts@5.0.0/utils/math/Math.sol\":12883:12884  4 */\n      0x04\n        /* \"@openzeppelin/contracts@5.0.0/utils/math/Math.sol\":12873:12884  result += 4 */\n      dup2\n      add\n      swap1\n      pop\n        /* \"@openzeppelin/contracts@5.0.0/utils/math/Math.sol\":12799:12899  if (value >= 10 ** 4) {... */\n    tag_327:\n        /* \"@openzeppelin/contracts@5.0.0/utils/math/Math.sol\":12925:12932  10 ** 2 */\n      0x64\n        /* \"@openzeppelin/contracts@5.0.0/utils/math/Math.sol\":12916:12921  value */\n      dup4\n        /* \"@openzeppelin/contracts@5.0.0/utils/math/Math.sol\":12916:12932  value >= 10 ** 2 */\n      lt\n        /* \"@openzeppelin/contracts@5.0.0/utils/math/Math.sol\":12912:13012  if (value >= 10 ** 2) {... */\n      tag_330\n      jumpi\n        /* \"@openzeppelin/contracts@5.0.0/utils/math/Math.sol\":12961:12968  10 ** 2 */\n      0x64\n        /* \"@openzeppelin/contracts@5.0.0/utils/math/Math.sol\":12952:12968  value /= 10 ** 2 */\n      dup4\n      dup2\n      tag_331\n      jumpi\n      tag_332\n      tag_306\n      jump\t// in\n    tag_332:\n    tag_331:\n      div\n      swap3\n      pop\n        /* \"@openzeppelin/contracts@5.0.0/utils/math/Math.sol\":12996:12997  2 */\n      0x02\n        /* \"@openzeppelin/contracts@5.0.0/utils/math/Math.sol\":12986:12997  result += 2 */\n      dup2\n      add\n      swap1\n      pop\n        /* \"@openzeppelin/contracts@5.0.0/utils/math/Math.sol\":12912:13012  if (value >= 10 ** 2) {... */\n    tag_330:\n        /* \"@openzeppelin/contracts@5.0.0/utils/math/Math.sol\":13038:13045  10 ** 1 */\n      0x0a\n        /* \"@openzeppelin/contracts@5.0.0/utils/math/Math.sol\":13029:13034  value */\n      dup4\n        /* \"@openzeppelin/contracts@5.0.0/utils/math/Math.sol\":13029:13045  value >= 10 ** 1 */\n      lt\n        /* \"@openzeppelin/contracts@5.0.0/utils/math/Math.sol\":13025:13091  if (value >= 10 ** 1) {... */\n      tag_333\n      jumpi\n        /* \"@openzeppelin/contracts@5.0.0/utils/math/Math.sol\":13075:13076  1 */\n      0x01\n        /* \"@openzeppelin/contracts@5.0.0/utils/math/Math.sol\":13065:13076  result += 1 */\n      dup2\n      add\n      swap1\n      pop\n        /* \"@openzeppelin/contracts@5.0.0/utils/math/Math.sol\":13025:13091  if (value >= 10 ** 1) {... */\n    tag_333:\n        /* \"@openzeppelin/contracts@5.0.0/utils/math/Math.sol\":13117:13123  result */\n      dup1\n        /* \"@openzeppelin/contracts@5.0.0/utils/math/Math.sol\":13110:13123  return result */\n      swap2\n      pop\n      pop\n        /* \"@openzeppelin/contracts@5.0.0/utils/math/Math.sol\":12214:13130  function log10(uint256 value) internal pure returns (uint256) {... */\n      swap2\n      swap1\n      pop\n      jump\t// out\n        /* \"#utility.yul\":7:82   */\n    tag_334:\n        /* \"#utility.yul\":40:46   */\n      0x00\n        /* \"#utility.yul\":73:75   */\n      0x40\n        /* \"#utility.yul\":67:76   */\n      mload\n        /* \"#utility.yul\":57:76   */\n      swap1\n      pop\n        /* \"#utility.yul\":7:82   */\n      swap1\n      jump\t// out\n        /* \"#utility.yul\":88:205   */\n    tag_335:\n        /* \"#utility.yul\":197:198   */\n      0x00\n        /* \"#utility.yul\":194:195   */\n      dup1\n        /* \"#utility.yul\":187:199   */\n      revert\n        /* \"#utility.yul\":211:328   */\n    tag_336:\n        /* \"#utility.yul\":320:321   */\n      0x00\n        /* \"#utility.yul\":317:318   */\n      dup1\n        /* \"#utility.yul\":310:322   */\n      revert\n        /* \"#utility.yul\":334:483   */\n    tag_337:\n        /* \"#utility.yul\":370:377   */\n      0x00\n        /* \"#utility.yul\":410:476   */\n      0xffffffff00000000000000000000000000000000000000000000000000000000\n        /* \"#utility.yul\":403:408   */\n      dup3\n        /* \"#utility.yul\":399:477   */\n      and\n        /* \"#utility.yul\":388:477   */\n      swap1\n      pop\n        /* \"#utility.yul\":334:483   */\n      swap2\n      swap1\n      pop\n      jump\t// out\n        /* \"#utility.yul\":489:609   */\n    tag_338:\n        /* \"#utility.yul\":561:584   */\n      tag_398\n        /* \"#utility.yul\":578:583   */\n      dup2\n        /* \"#utility.yul\":561:584   */\n      tag_337\n      jump\t// in\n    tag_398:\n        /* \"#utility.yul\":554:559   */\n      dup2\n        /* \"#utility.yul\":551:585   */\n      eq\n        /* \"#utility.yul\":541:603   */\n      tag_399\n      jumpi\n        /* \"#utility.yul\":599:600   */\n      0x00\n        /* \"#utility.yul\":596:597   */\n      dup1\n        /* \"#utility.yul\":589:601   */\n      revert\n        /* \"#utility.yul\":541:603   */\n    tag_399:\n        /* \"#utility.yul\":489:609   */\n      pop\n      jump\t// out\n        /* \"#utility.yul\":615:752   */\n    tag_339:\n        /* \"#utility.yul\":660:665   */\n      0x00\n        /* \"#utility.yul\":698:704   */\n      dup2\n        /* \"#utility.yul\":685:705   */\n      calldataload\n        /* \"#utility.yul\":676:705   */\n      swap1\n      pop\n        /* \"#utility.yul\":714:746   */\n      tag_401\n        /* \"#utility.yul\":740:745   */\n      dup2\n        /* \"#utility.yul\":714:746   */\n      tag_338\n      jump\t// in\n    tag_401:\n        /* \"#utility.yul\":615:752   */\n      swap3\n      swap2\n      pop\n      pop\n      jump\t// out\n        /* \"#utility.yul\":758:1085   */\n    tag_26:\n        /* \"#utility.yul\":816:822   */\n      0x00\n        /* \"#utility.yul\":865:867   */\n      0x20\n        /* \"#utility.yul\":853:862   */\n      dup3\n        /* \"#utility.yul\":844:851   */\n      dup5\n        /* \"#utility.yul\":840:863   */\n      sub\n        /* \"#utility.yul\":836:868   */\n      slt\n        /* \"#utility.yul\":833:952   */\n      iszero\n      tag_403\n      jumpi\n        /* \"#utility.yul\":871:950   */\n      tag_404\n      tag_335\n      jump\t// in\n    tag_404:\n        /* \"#utility.yul\":833:952   */\n    tag_403:\n        /* \"#utility.yul\":991:992   */\n      0x00\n        /* \"#utility.yul\":1016:1068   */\n      tag_405\n        /* \"#utility.yul\":1060:1067   */\n      dup5\n        /* \"#utility.yul\":1051:1057   */\n      dup3\n        /* \"#utility.yul\":1040:1049   */\n      dup6\n        /* \"#utility.yul\":1036:1058   */\n      add\n        /* \"#utility.yul\":1016:1068   */\n      tag_339\n      jump\t// in\n    tag_405:\n        /* \"#utility.yul\":1006:1068   */\n      swap2\n      pop\n        /* \"#utility.yul\":962:1078   */\n      pop\n        /* \"#utility.yul\":758:1085   */\n      swap3\n      swap2\n      pop\n      pop\n      jump\t// out\n        /* \"#utility.yul\":1091:1181   */\n    tag_340:\n        /* \"#utility.yul\":1125:1132   */\n      0x00\n        /* \"#utility.yul\":1168:1173   */\n      dup2\n        /* \"#utility.yul\":1161:1174   */\n      iszero\n        /* \"#utility.yul\":1154:1175   */\n      iszero\n        /* \"#utility.yul\":1143:1175   */\n      swap1\n      pop\n        /* \"#utility.yul\":1091:1181   */\n      swap2\n      swap1\n      pop\n      jump\t// out\n        /* \"#utility.yul\":1187:1296   */\n    tag_341:\n        /* \"#utility.yul\":1268:1289   */\n      tag_408\n        /* \"#utility.yul\":1283:1288   */\n      dup2\n        /* \"#utility.yul\":1268:1289   */\n      tag_340\n      jump\t// in\n    tag_408:\n        /* \"#utility.yul\":1263:1266   */\n      dup3\n        /* \"#utility.yul\":1256:1290   */\n      mstore\n        /* \"#utility.yul\":1187:1296   */\n      pop\n      pop\n      jump\t// out\n        /* \"#utility.yul\":1302:1512   */\n    tag_29:\n        /* \"#utility.yul\":1389:1393   */\n      0x00\n        /* \"#utility.yul\":1427:1429   */\n      0x20\n        /* \"#utility.yul\":1416:1425   */\n      dup3\n        /* \"#utility.yul\":1412:1430   */\n      add\n        /* \"#utility.yul\":1404:1430   */\n      swap1\n      pop\n        /* \"#utility.yul\":1440:1505   */\n      tag_410\n        /* \"#utility.yul\":1502:1503   */\n      0x00\n        /* \"#utility.yul\":1491:1500   */\n      dup4\n        /* \"#utility.yul\":1487:1504   */\n      add\n        /* \"#utility.yul\":1478:1484   */\n      dup5\n        /* \"#utility.yul\":1440:1505   */\n      tag_341\n      jump\t// in\n    tag_410:\n        /* \"#utility.yul\":1302:1512   */\n      swap3\n      swap2\n      pop\n      pop\n      jump\t// out\n        /* \"#utility.yul\":1518:1617   */\n    tag_342:\n        /* \"#utility.yul\":1570:1576   */\n      0x00\n        /* \"#utility.yul\":1604:1609   */\n      dup2\n        /* \"#utility.yul\":1598:1610   */\n      mload\n        /* \"#utility.yul\":1588:1610   */\n      swap1\n      pop\n        /* \"#utility.yul\":1518:1617   */\n      swap2\n      swap1\n      pop\n      jump\t// out\n        /* \"#utility.yul\":1623:1792   */\n    tag_343:\n        /* \"#utility.yul\":1707:1718   */\n      0x00\n        /* \"#utility.yul\":1741:1747   */\n      dup3\n        /* \"#utility.yul\":1736:1739   */\n      dup3\n        /* \"#utility.yul\":1729:1748   */\n      mstore\n        /* \"#utility.yul\":1781:1785   */\n      0x20\n        /* \"#utility.yul\":1776:1779   */\n      dup3\n        /* \"#utility.yul\":1772:1786   */\n      add\n        /* \"#utility.yul\":1757:1786   */\n      swap1\n      pop\n        /* \"#utility.yul\":1623:1792   */\n      swap3\n      swap2\n      pop\n      pop\n      jump\t// out\n        /* \"#utility.yul\":1798:1937   */\n    tag_344:\n        /* \"#utility.yul\":1887:1893   */\n      dup3\n        /* \"#utility.yul\":1882:1885   */\n      dup2\n        /* \"#utility.yul\":1877:1880   */\n      dup4\n        /* \"#utility.yul\":1871:1894   */\n      mcopy\n        /* \"#utility.yul\":1928:1929   */\n      0x00\n        /* \"#utility.yul\":1919:1925   */\n      dup4\n        /* \"#utility.yul\":1914:1917   */\n      dup4\n        /* \"#utility.yul\":1910:1926   */\n      add\n        /* \"#utility.yul\":1903:1930   */\n      mstore\n        /* \"#utility.yul\":1798:1937   */\n      pop\n      pop\n      pop\n      jump\t// out\n        /* \"#utility.yul\":1943:2045   */\n    tag_345:\n        /* \"#utility.yul\":1984:1990   */\n      0x00\n        /* \"#utility.yul\":2035:2037   */\n      0x1f\n        /* \"#utility.yul\":2031:2038   */\n      not\n        /* \"#utility.yul\":2026:2028   */\n      0x1f\n        /* \"#utility.yul\":2019:2024   */\n      dup4\n        /* \"#utility.yul\":2015:2029   */\n      add\n        /* \"#utility.yul\":2011:2039   */\n      and\n        /* \"#utility.yul\":2001:2039   */\n      swap1\n      pop\n        /* \"#utility.yul\":1943:2045   */\n      swap2\n      swap1\n      pop\n      jump\t// out\n        /* \"#utility.yul\":2051:2428   */\n    tag_346:\n        /* \"#utility.yul\":2139:2142   */\n      0x00\n        /* \"#utility.yul\":2167:2206   */\n      tag_416\n        /* \"#utility.yul\":2200:2205   */\n      dup3\n        /* \"#utility.yul\":2167:2206   */\n      tag_342\n      jump\t// in\n    tag_416:\n        /* \"#utility.yul\":2222:2293   */\n      tag_417\n        /* \"#utility.yul\":2286:2292   */\n      dup2\n        /* \"#utility.yul\":2281:2284   */\n      dup6\n        /* \"#utility.yul\":2222:2293   */\n      tag_343\n      jump\t// in\n    tag_417:\n        /* \"#utility.yul\":2215:2293   */\n      swap4\n      pop\n        /* \"#utility.yul\":2302:2367   */\n      tag_418\n        /* \"#utility.yul\":2360:2366   */\n      dup2\n        /* \"#utility.yul\":2355:2358   */\n      dup6\n        /* \"#utility.yul\":2348:2352   */\n      0x20\n        /* \"#utility.yul\":2341:2346   */\n      dup7\n        /* \"#utility.yul\":2337:2353   */\n      add\n        /* \"#utility.yul\":2302:2367   */\n      tag_344\n      jump\t// in\n    tag_418:\n        /* \"#utility.yul\":2392:2421   */\n      tag_419\n        /* \"#utility.yul\":2414:2420   */\n      dup2\n        /* \"#utility.yul\":2392:2421   */\n      tag_345\n      jump\t// in\n    tag_419:\n        /* \"#utility.yul\":2387:2390   */\n      dup5\n        /* \"#utility.yul\":2383:2422   */\n      add\n        /* \"#utility.yul\":2376:2422   */\n      swap2\n      pop\n        /* \"#utility.yul\":2143:2428   */\n      pop\n        /* \"#utility.yul\":2051:2428   */\n      swap3\n      swap2\n      pop\n      pop\n      jump\t// out\n        /* \"#utility.yul\":2434:2747   */\n    tag_33:\n        /* \"#utility.yul\":2547:2551   */\n      0x00\n        /* \"#utility.yul\":2585:2587   */\n      0x20\n        /* \"#utility.yul\":2574:2583   */\n      dup3\n        /* \"#utility.yul\":2570:2588   */\n      add\n        /* \"#utility.yul\":2562:2588   */\n      swap1\n      pop\n        /* \"#utility.yul\":2634:2643   */\n      dup2\n        /* \"#utility.yul\":2628:2632   */\n      dup2\n        /* \"#utility.yul\":2624:2644   */\n      sub\n        /* \"#utility.yul\":2620:2621   */\n      0x00\n        /* \"#utility.yul\":2609:2618   */\n      dup4\n        /* \"#utility.yul\":2605:2622   */\n      add\n        /* \"#utility.yul\":2598:2645   */\n      mstore\n        /* \"#utility.yul\":2662:2740   */\n      tag_421\n        /* \"#utility.yul\":2735:2739   */\n      dup2\n        /* \"#utility.yul\":2726:2732   */\n      dup5\n        /* \"#utility.yul\":2662:2740   */\n      tag_346\n      jump\t// in\n    tag_421:\n        /* \"#utility.yul\":2654:2740   */\n      swap1\n      pop\n        /* \"#utility.yul\":2434:2747   */\n      swap3\n      swap2\n      pop\n      pop\n      jump\t// out\n        /* \"#utility.yul\":2753:2830   */\n    tag_347:\n        /* \"#utility.yul\":2790:2797   */\n      0x00\n        /* \"#utility.yul\":2819:2824   */\n      dup2\n        /* \"#utility.yul\":2808:2824   */\n      swap1\n      pop\n        /* \"#utility.yul\":2753:2830   */\n      swap2\n      swap1\n      pop\n      jump\t// out\n        /* \"#utility.yul\":2836:2958   */\n    tag_348:\n        /* \"#utility.yul\":2909:2933   */\n      tag_424\n        /* \"#utility.yul\":2927:2932   */\n      dup2\n        /* \"#utility.yul\":2909:2933   */\n      tag_347\n      jump\t// in\n    tag_424:\n        /* \"#utility.yul\":2902:2907   */\n      dup2\n        /* \"#utility.yul\":2899:2934   */\n      eq\n        /* \"#utility.yul\":2889:2952   */\n      tag_425\n      jumpi\n        /* \"#utility.yul\":2948:2949   */\n      0x00\n        /* \"#utility.yul\":2945:2946   */\n      dup1\n        /* \"#utility.yul\":2938:2950   */\n      revert\n        /* \"#utility.yul\":2889:2952   */\n    tag_425:\n        /* \"#utility.yul\":2836:2958   */\n      pop\n      jump\t// out\n        /* \"#utility.yul\":2964:3103   */\n    tag_349:\n        /* \"#utility.yul\":3010:3015   */\n      0x00\n        /* \"#utility.yul\":3048:3054   */\n      dup2\n        /* \"#utility.yul\":3035:3055   */\n      calldataload\n        /* \"#utility.yul\":3026:3055   */\n      swap1\n      pop\n        /* \"#utility.yul\":3064:3097   */\n      tag_427\n        /* \"#utility.yul\":3091:3096   */\n      dup2\n        /* \"#utility.yul\":3064:3097   */\n      tag_348\n      jump\t// in\n    tag_427:\n        /* \"#utility.yul\":2964:3103   */\n      swap3\n      swap2\n      pop\n      pop\n      jump\t// out\n        /* \"#utility.yul\":3109:3438   */\n    tag_36:\n        /* \"#utility.yul\":3168:3174   */\n      0x00\n        /* \"#utility.yul\":3217:3219   */\n      0x20\n        /* \"#utility.yul\":3205:3214   */\n      dup3\n        /* \"#utility.yul\":3196:3203   */\n      dup5\n        /* \"#utility.yul\":3192:3215   */\n      sub\n        /* \"#utility.yul\":3188:3220   */\n      slt\n        /* \"#utility.yul\":3185:3304   */\n      iszero\n      tag_429\n      jumpi\n        /* \"#utility.yul\":3223:3302   */\n      tag_430\n      tag_335\n      jump\t// in\n    tag_430:\n        /* \"#utility.yul\":3185:3304   */\n    tag_429:\n        /* \"#utility.yul\":3343:3344   */\n      0x00\n        /* \"#utility.yul\":3368:3421   */\n      tag_431\n        /* \"#utility.yul\":3413:3420   */\n      dup5\n        /* \"#utility.yul\":3404:3410   */\n      dup3\n        /* \"#utility.yul\":3393:3402   */\n      dup6\n        /* \"#utility.yul\":3389:3411   */\n      add\n        /* \"#utility.yul\":3368:3421   */\n      tag_349\n      jump\t// in\n    tag_431:\n        /* \"#utility.yul\":3358:3421   */\n      swap2\n      pop\n        /* \"#utility.yul\":3314:3431   */\n      pop\n        /* \"#utility.yul\":3109:3438   */\n      swap3\n      swap2\n      pop\n      pop\n      jump\t// out\n        /* \"#utility.yul\":3444:3570   */\n    tag_350:\n        /* \"#utility.yul\":3481:3488   */\n      0x00\n        /* \"#utility.yul\":3521:3563   */\n      0xffffffffffffffffffffffffffffffffffffffff\n        /* \"#utility.yul\":3514:3519   */\n      dup3\n        /* \"#utility.yul\":3510:3564   */\n      and\n        /* \"#utility.yul\":3499:3564   */\n      swap1\n      pop\n        /* \"#utility.yul\":3444:3570   */\n      swap2\n      swap1\n      pop\n      jump\t// out\n        /* \"#utility.yul\":3576:3672   */\n    tag_351:\n        /* \"#utility.yul\":3613:3620   */\n      0x00\n        /* \"#utility.yul\":3642:3666   */\n      tag_434\n        /* \"#utility.yul\":3660:3665   */\n      dup3\n        /* \"#utility.yul\":3642:3666   */\n      tag_350\n      jump\t// in\n    tag_434:\n        /* \"#utility.yul\":3631:3666   */\n      swap1\n      pop\n        /* \"#utility.yul\":3576:3672   */\n      swap2\n      swap1\n      pop\n      jump\t// out\n        /* \"#utility.yul\":3678:3796   */\n    tag_352:\n        /* \"#utility.yul\":3765:3789   */\n      tag_436\n        /* \"#utility.yul\":3783:3788   */\n      dup2\n        /* \"#utility.yul\":3765:3789   */\n      tag_351\n      jump\t// in\n    tag_436:\n        /* \"#utility.yul\":3760:3763   */\n      dup3\n        /* \"#utility.yul\":3753:3790   */\n      mstore\n        /* \"#utility.yul\":3678:3796   */\n      pop\n      pop\n      jump\t// out\n        /* \"#utility.yul\":3802:4024   */\n    tag_39:\n        /* \"#utility.yul\":3895:3899   */\n      0x00\n        /* \"#utility.yul\":3933:3935   */\n      0x20\n        /* \"#utility.yul\":3922:3931   */\n      dup3\n        /* \"#utility.yul\":3918:3936   */\n      add\n        /* \"#utility.yul\":3910:3936   */\n      swap1\n      pop\n        /* \"#utility.yul\":3946:4017   */\n      tag_438\n        /* \"#utility.yul\":4014:4015   */\n      0x00\n        /* \"#utility.yul\":4003:4012   */\n      dup4\n        /* \"#utility.yul\":3999:4016   */\n      add\n        /* \"#utility.yul\":3990:3996   */\n      dup5\n        /* \"#utility.yul\":3946:4017   */\n      tag_352\n      jump\t// in\n    tag_438:\n        /* \"#utility.yul\":3802:4024   */\n      swap3\n      swap2\n      pop\n      pop\n      jump\t// out\n        /* \"#utility.yul\":4030:4152   */\n    tag_353:\n        /* \"#utility.yul\":4103:4127   */\n      tag_440\n        /* \"#utility.yul\":4121:4126   */\n      dup2\n        /* \"#utility.yul\":4103:4127   */\n      tag_351\n      jump\t// in\n    tag_440:\n        /* \"#utility.yul\":4096:4101   */\n      dup2\n        /* \"#utility.yul\":4093:4128   */\n      eq\n        /* \"#utility.yul\":4083:4146   */\n      tag_441\n      jumpi\n        /* \"#utility.yul\":4142:4143   */\n      0x00\n        /* \"#utility.yul\":4139:4140   */\n      dup1\n        /* \"#utility.yul\":4132:4144   */\n      revert\n        /* \"#utility.yul\":4083:4146   */\n    tag_441:\n        /* \"#utility.yul\":4030:4152   */\n      pop\n      jump\t// out\n        /* \"#utility.yul\":4158:4297   */\n    tag_354:\n        /* \"#utility.yul\":4204:4209   */\n      0x00\n        /* \"#utility.yul\":4242:4248   */\n      dup2\n        /* \"#utility.yul\":4229:4249   */\n      calldataload\n        /* \"#utility.yul\":4220:4249   */\n      swap1\n      pop\n        /* \"#utility.yul\":4258:4291   */\n      tag_443\n        /* \"#utility.yul\":4285:4290   */\n      dup2\n        /* \"#utility.yul\":4258:4291   */\n      tag_353\n      jump\t// in\n    tag_443:\n        /* \"#utility.yul\":4158:4297   */\n      swap3\n      swap2\n      pop\n      pop\n      jump\t// out\n        /* \"#utility.yul\":4303:4777   */\n    tag_42:\n        /* \"#utility.yul\":4371:4377   */\n      0x00\n        /* \"#utility.yul\":4379:4385   */\n      dup1\n        /* \"#utility.yul\":4428:4430   */\n      0x40\n        /* \"#utility.yul\":4416:4425   */\n      dup4\n        /* \"#utility.yul\":4407:4414   */\n      dup6\n        /* \"#utility.yul\":4403:4426   */\n      sub\n        /* \"#utility.yul\":4399:4431   */\n      slt\n        /* \"#utility.yul\":4396:4515   */\n      iszero\n      tag_445\n      jumpi\n        /* \"#utility.yul\":4434:4513   */\n      tag_446\n      tag_335\n      jump\t// in\n    tag_446:\n        /* \"#utility.yul\":4396:4515   */\n    tag_445:\n        /* \"#utility.yul\":4554:4555   */\n      0x00\n        /* \"#utility.yul\":4579:4632   */\n      tag_447\n        /* \"#utility.yul\":4624:4631   */\n      dup6\n        /* \"#utility.yul\":4615:4621   */\n      dup3\n        /* \"#utility.yul\":4604:4613   */\n      dup7\n        /* \"#utility.yul\":4600:4622   */\n      add\n        /* \"#utility.yul\":4579:4632   */\n      tag_354\n      jump\t// in\n    tag_447:\n        /* \"#utility.yul\":4569:4632   */\n      swap3\n      pop\n        /* \"#utility.yul\":4525:4642   */\n      pop\n        /* \"#utility.yul\":4681:4683   */\n      0x20\n        /* \"#utility.yul\":4707:4760   */\n      tag_448\n        /* \"#utility.yul\":4752:4759   */\n      dup6\n        /* \"#utility.yul\":4743:4749   */\n      dup3\n        /* \"#utility.yul\":4732:4741   */\n      dup7\n        /* \"#utility.yul\":4728:4750   */\n      add\n        /* \"#utility.yul\":4707:4760   */\n      tag_349\n      jump\t// in\n    tag_448:\n        /* \"#utility.yul\":4697:4760   */\n      swap2\n      pop\n        /* \"#utility.yul\":4652:4770   */\n      pop\n        /* \"#utility.yul\":4303:4777   */\n      swap3\n      pop\n      swap3\n      swap1\n      pop\n      jump\t// out\n        /* \"#utility.yul\":4783:5402   */\n    tag_46:\n        /* \"#utility.yul\":4860:4866   */\n      0x00\n        /* \"#utility.yul\":4868:4874   */\n      dup1\n        /* \"#utility.yul\":4876:4882   */\n      0x00\n        /* \"#utility.yul\":4925:4927   */\n      0x60\n        /* \"#utility.yul\":4913:4922   */\n      dup5\n        /* \"#utility.yul\":4904:4911   */\n      dup7\n        /* \"#utility.yul\":4900:4923   */\n      sub\n        /* \"#utility.yul\":4896:4928   */\n      slt\n        /* \"#utility.yul\":4893:5012   */\n      iszero\n      tag_450\n      jumpi\n        /* \"#utility.yul\":4931:5010   */\n      tag_451\n      tag_335\n      jump\t// in\n    tag_451:\n        /* \"#utility.yul\":4893:5012   */\n    tag_450:\n        /* \"#utility.yul\":5051:5052   */\n      0x00\n        /* \"#utility.yul\":5076:5129   */\n      tag_452\n        /* \"#utility.yul\":5121:5128   */\n      dup7\n        /* \"#utility.yul\":5112:5118   */\n      dup3\n        /* \"#utility.yul\":5101:5110   */\n      dup8\n        /* \"#utility.yul\":5097:5119   */\n      add\n        /* \"#utility.yul\":5076:5129   */\n      tag_354\n      jump\t// in\n    tag_452:\n        /* \"#utility.yul\":5066:5129   */\n      swap4\n      pop\n        /* \"#utility.yul\":5022:5139   */\n      pop\n        /* \"#utility.yul\":5178:5180   */\n      0x20\n        /* \"#utility.yul\":5204:5257   */\n      tag_453\n        /* \"#utility.yul\":5249:5256   */\n      dup7\n        /* \"#utility.yul\":5240:5246   */\n      dup3\n        /* \"#utility.yul\":5229:5238   */\n      dup8\n        /* \"#utility.yul\":5225:5247   */\n      add\n        /* \"#utility.yul\":5204:5257   */\n      tag_354\n      jump\t// in\n    tag_453:\n        /* \"#utility.yul\":5194:5257   */\n      swap3\n      pop\n        /* \"#utility.yul\":5149:5267   */\n      pop\n        /* \"#utility.yul\":5306:5308   */\n      0x40\n        /* \"#utility.yul\":5332:5385   */\n      tag_454\n        /* \"#utility.yul\":5377:5384   */\n      dup7\n        /* \"#utility.yul\":5368:5374   */\n      dup3\n        /* \"#utility.yul\":5357:5366   */\n      dup8\n        /* \"#utility.yul\":5353:5375   */\n      add\n        /* \"#utility.yul\":5332:5385   */\n      tag_349\n      jump\t// in\n    tag_454:\n        /* \"#utility.yul\":5322:5385   */\n      swap2\n      pop\n        /* \"#utility.yul\":5277:5395   */\n      pop\n        /* \"#utility.yul\":4783:5402   */\n      swap3\n      pop\n      swap3\n      pop\n      swap3\n      jump\t// out\n        /* \"#utility.yul\":5408:5737   */\n    tag_60:\n        /* \"#utility.yul\":5467:5473   */\n      0x00\n        /* \"#utility.yul\":5516:5518   */\n      0x20\n        /* \"#utility.yul\":5504:5513   */\n      dup3\n        /* \"#utility.yul\":5495:5502   */\n      dup5\n        /* \"#utility.yul\":5491:5514   */\n      sub\n        /* \"#utility.yul\":5487:5519   */\n      slt\n        /* \"#utility.yul\":5484:5603   */\n      iszero\n      tag_456\n      jumpi\n        /* \"#utility.yul\":5522:5601   */\n      tag_457\n      tag_335\n      jump\t// in\n    tag_457:\n        /* \"#utility.yul\":5484:5603   */\n    tag_456:\n        /* \"#utility.yul\":5642:5643   */\n      0x00\n        /* \"#utility.yul\":5667:5720   */\n      tag_458\n        /* \"#utility.yul\":5712:5719   */\n      dup5\n        /* \"#utility.yul\":5703:5709   */\n      dup3\n        /* \"#utility.yul\":5692:5701   */\n      dup6\n        /* \"#utility.yul\":5688:5710   */\n      add\n        /* \"#utility.yul\":5667:5720   */\n      tag_354\n      jump\t// in\n    tag_458:\n        /* \"#utility.yul\":5657:5720   */\n      swap2\n      pop\n        /* \"#utility.yul\":5613:5730   */\n      pop\n        /* \"#utility.yul\":5408:5737   */\n      swap3\n      swap2\n      pop\n      pop\n      jump\t// out\n        /* \"#utility.yul\":5743:5861   */\n    tag_355:\n        /* \"#utility.yul\":5830:5854   */\n      tag_460\n        /* \"#utility.yul\":5848:5853   */\n      dup2\n        /* \"#utility.yul\":5830:5854   */\n      tag_347\n      jump\t// in\n    tag_460:\n        /* \"#utility.yul\":5825:5828   */\n      dup3\n        /* \"#utility.yul\":5818:5855   */\n      mstore\n        /* \"#utility.yul\":5743:5861   */\n      pop\n      pop\n      jump\t// out\n        /* \"#utility.yul\":5867:6089   */\n    tag_63:\n        /* \"#utility.yul\":5960:5964   */\n      0x00\n        /* \"#utility.yul\":5998:6000   */\n      0x20\n        /* \"#utility.yul\":5987:5996   */\n      dup3\n        /* \"#utility.yul\":5983:6001   */\n      add\n        /* \"#utility.yul\":5975:6001   */\n      swap1\n      pop\n        /* \"#utility.yul\":6011:6082   */\n      tag_462\n        /* \"#utility.yul\":6079:6080   */\n      0x00\n        /* \"#utility.yul\":6068:6077   */\n      dup4\n        /* \"#utility.yul\":6064:6081   */\n      add\n        /* \"#utility.yul\":6055:6061   */\n      dup5\n        /* \"#utility.yul\":6011:6082   */\n      tag_355\n      jump\t// in\n    tag_462:\n        /* \"#utility.yul\":5867:6089   */\n      swap3\n      swap2\n      pop\n      pop\n      jump\t// out\n        /* \"#utility.yul\":6095:6211   */\n    tag_356:\n        /* \"#utility.yul\":6165:6186   */\n      tag_464\n        /* \"#utility.yul\":6180:6185   */\n      dup2\n        /* \"#utility.yul\":6165:6186   */\n      tag_340\n      jump\t// in\n    tag_464:\n        /* \"#utility.yul\":6158:6163   */\n      dup2\n        /* \"#utility.yul\":6155:6187   */\n      eq\n        /* \"#utility.yul\":6145:6205   */\n      tag_465\n      jumpi\n        /* \"#utility.yul\":6201:6202   */\n      0x00\n        /* \"#utility.yul\":6198:6199   */\n      dup1\n        /* \"#utility.yul\":6191:6203   */\n      revert\n        /* \"#utility.yul\":6145:6205   */\n    tag_465:\n        /* \"#utility.yul\":6095:6211   */\n      pop\n      jump\t// out\n        /* \"#utility.yul\":6217:6350   */\n    tag_357:\n        /* \"#utility.yul\":6260:6265   */\n      0x00\n        /* \"#utility.yul\":6298:6304   */\n      dup2\n        /* \"#utility.yul\":6285:6305   */\n      calldataload\n        /* \"#utility.yul\":6276:6305   */\n      swap1\n      pop\n        /* \"#utility.yul\":6314:6344   */\n      tag_467\n        /* \"#utility.yul\":6338:6343   */\n      dup2\n        /* \"#utility.yul\":6314:6344   */\n      tag_356\n      jump\t// in\n    tag_467:\n        /* \"#utility.yul\":6217:6350   */\n      swap3\n      swap2\n      pop\n      pop\n      jump\t// out\n        /* \"#utility.yul\":6356:6824   */\n    tag_74:\n        /* \"#utility.yul\":6421:6427   */\n      0x00\n        /* \"#utility.yul\":6429:6435   */\n      dup1\n        /* \"#utility.yul\":6478:6480   */\n      0x40\n        /* \"#utility.yul\":6466:6475   */\n      dup4\n        /* \"#utility.yul\":6457:6464   */\n      dup6\n        /* \"#utility.yul\":6453:6476   */\n      sub\n        /* \"#utility.yul\":6449:6481   */\n      slt\n        /* \"#utility.yul\":6446:6565   */\n      iszero\n      tag_469\n      jumpi\n        /* \"#utility.yul\":6484:6563   */\n      tag_470\n      tag_335\n      jump\t// in\n    tag_470:\n        /* \"#utility.yul\":6446:6565   */\n    tag_469:\n        /* \"#utility.yul\":6604:6605   */\n      0x00\n        /* \"#utility.yul\":6629:6682   */\n      tag_471\n        /* \"#utility.yul\":6674:6681   */\n      dup6\n        /* \"#utility.yul\":6665:6671   */\n      dup3\n        /* \"#utility.yul\":6654:6663   */\n      dup7\n        /* \"#utility.yul\":6650:6672   */\n      add\n        /* \"#utility.yul\":6629:6682   */\n      tag_354\n      jump\t// in\n    tag_471:\n        /* \"#utility.yul\":6619:6682   */\n      swap3\n      pop\n        /* \"#utility.yul\":6575:6692   */\n      pop\n        /* \"#utility.yul\":6731:6733   */\n      0x20\n        /* \"#utility.yul\":6757:6807   */\n      tag_472\n        /* \"#utility.yul\":6799:6806   */\n      dup6\n        /* \"#utility.yul\":6790:6796   */\n      dup3\n        /* \"#utility.yul\":6779:6788   */\n      dup7\n        /* \"#utility.yul\":6775:6797   */\n      add\n        /* \"#utility.yul\":6757:6807   */\n      tag_357\n      jump\t// in\n    tag_472:\n        /* \"#utility.yul\":6747:6807   */\n      swap2\n      pop\n        /* \"#utility.yul\":6702:6817   */\n      pop\n        /* \"#utility.yul\":6356:6824   */\n      swap3\n      pop\n      swap3\n      swap1\n      pop\n      jump\t// out\n        /* \"#utility.yul\":6830:6947   */\n    tag_358:\n        /* \"#utility.yul\":6939:6940   */\n      0x00\n        /* \"#utility.yul\":6936:6937   */\n      dup1\n        /* \"#utility.yul\":6929:6941   */\n      revert\n        /* \"#utility.yul\":6953:7070   */\n    tag_359:\n        /* \"#utility.yul\":7062:7063   */\n      0x00\n        /* \"#utility.yul\":7059:7060   */\n      dup1\n        /* \"#utility.yul\":7052:7064   */\n      revert\n        /* \"#utility.yul\":7076:7256   */\n    tag_300:\n        /* \"#utility.yul\":7124:7201   */\n      0x4e487b7100000000000000000000000000000000000000000000000000000000\n        /* \"#utility.yul\":7121:7122   */\n      0x00\n        /* \"#utility.yul\":7114:7202   */\n      mstore\n        /* \"#utility.yul\":7221:7225   */\n      0x41\n        /* \"#utility.yul\":7218:7219   */\n      0x04\n        /* \"#utility.yul\":7211:7226   */\n      mstore\n        /* \"#utility.yul\":7245:7249   */\n      0x24\n        /* \"#utility.yul\":7242:7243   */\n      0x00\n        /* \"#utility.yul\":7235:7250   */\n      revert\n        /* \"#utility.yul\":7262:7543   */\n    tag_360:\n        /* \"#utility.yul\":7345:7372   */\n      tag_477\n        /* \"#utility.yul\":7367:7371   */\n      dup3\n        /* \"#utility.yul\":7345:7372   */\n      tag_345\n      jump\t// in\n    tag_477:\n        /* \"#utility.yul\":7337:7343   */\n      dup2\n        /* \"#utility.yul\":7333:7373   */\n      add\n        /* \"#utility.yul\":7475:7481   */\n      dup2\n        /* \"#utility.yul\":7463:7473   */\n      dup2\n        /* \"#utility.yul\":7460:7482   */\n      lt\n        /* \"#utility.yul\":7439:7457   */\n      0xffffffffffffffff\n        /* \"#utility.yul\":7427:7437   */\n      dup3\n        /* \"#utility.yul\":7424:7458   */\n      gt\n        /* \"#utility.yul\":7421:7483   */\n      or\n        /* \"#utility.yul\":7418:7506   */\n      iszero\n      tag_478\n      jumpi\n        /* \"#utility.yul\":7486:7504   */\n      tag_479\n      tag_300\n      jump\t// in\n    tag_479:\n        /* \"#utility.yul\":7418:7506   */\n    tag_478:\n        /* \"#utility.yul\":7526:7536   */\n      dup1\n        /* \"#utility.yul\":7522:7524   */\n      0x40\n        /* \"#utility.yul\":7515:7537   */\n      mstore\n        /* \"#utility.yul\":7305:7543   */\n      pop\n        /* \"#utility.yul\":7262:7543   */\n      pop\n      pop\n      jump\t// out\n        /* \"#utility.yul\":7549:7678   */\n    tag_361:\n        /* \"#utility.yul\":7583:7589   */\n      0x00\n        /* \"#utility.yul\":7610:7630   */\n      tag_481\n      tag_334\n      jump\t// in\n    tag_481:\n        /* \"#utility.yul\":7600:7630   */\n      swap1\n      pop\n        /* \"#utility.yul\":7639:7672   */\n      tag_482\n        /* \"#utility.yul\":7667:7671   */\n      dup3\n        /* \"#utility.yul\":7659:7665   */\n      dup3\n        /* \"#utility.yul\":7639:7672   */\n      tag_360\n      jump\t// in\n    tag_482:\n        /* \"#utility.yul\":7549:7678   */\n      swap2\n      swap1\n      pop\n      jump\t// out\n        /* \"#utility.yul\":7684:7991   */\n    tag_362:\n        /* \"#utility.yul\":7745:7749   */\n      0x00\n        /* \"#utility.yul\":7835:7853   */\n      0xffffffffffffffff\n        /* \"#utility.yul\":7827:7833   */\n      dup3\n        /* \"#utility.yul\":7824:7854   */\n      gt\n        /* \"#utility.yul\":7821:7877   */\n      iszero\n      tag_484\n      jumpi\n        /* \"#utility.yul\":7857:7875   */\n      tag_485\n      tag_300\n      jump\t// in\n    tag_485:\n        /* \"#utility.yul\":7821:7877   */\n    tag_484:\n        /* \"#utility.yul\":7895:7924   */\n      tag_486\n        /* \"#utility.yul\":7917:7923   */\n      dup3\n        /* \"#utility.yul\":7895:7924   */\n      tag_345\n      jump\t// in\n    tag_486:\n        /* \"#utility.yul\":7887:7924   */\n      swap1\n      pop\n        /* \"#utility.yul\":7979:7983   */\n      0x20\n        /* \"#utility.yul\":7973:7977   */\n      dup2\n        /* \"#utility.yul\":7969:7984   */\n      add\n        /* \"#utility.yul\":7961:7984   */\n      swap1\n      pop\n        /* \"#utility.yul\":7684:7991   */\n      swap2\n      swap1\n      pop\n      jump\t// out\n        /* \"#utility.yul\":7997:8145   */\n    tag_363:\n        /* \"#utility.yul\":8095:8101   */\n      dup3\n        /* \"#utility.yul\":8090:8093   */\n      dup2\n        /* \"#utility.yul\":8085:8088   */\n      dup4\n        /* \"#utility.yul\":8072:8102   */\n      calldatacopy\n        /* \"#utility.yul\":8136:8137   */\n      0x00\n        /* \"#utility.yul\":8127:8133   */\n      dup4\n        /* \"#utility.yul\":8122:8125   */\n      dup4\n        /* \"#utility.yul\":8118:8134   */\n      add\n        /* \"#utility.yul\":8111:8138   */\n      mstore\n        /* \"#utility.yul\":7997:8145   */\n      pop\n      pop\n      pop\n      jump\t// out\n        /* \"#utility.yul\":8151:8574   */\n    tag_364:\n        /* \"#utility.yul\":8228:8233   */\n      0x00\n        /* \"#utility.yul\":8253:8318   */\n      tag_489\n        /* \"#utility.yul\":8269:8317   */\n      tag_490\n        /* \"#utility.yul\":8310:8316   */\n      dup5\n        /* \"#utility.yul\":8269:8317   */\n      tag_362\n      jump\t// in\n    tag_490:\n        /* \"#utility.yul\":8253:8318   */\n      tag_361\n      jump\t// in\n    tag_489:\n        /* \"#utility.yul\":8244:8318   */\n      swap1\n      pop\n        /* \"#utility.yul\":8341:8347   */\n      dup3\n        /* \"#utility.yul\":8334:8339   */\n      dup2\n        /* \"#utility.yul\":8327:8348   */\n      mstore\n        /* \"#utility.yul\":8379:8383   */\n      0x20\n        /* \"#utility.yul\":8372:8377   */\n      dup2\n        /* \"#utility.yul\":8368:8384   */\n      add\n        /* \"#utility.yul\":8417:8420   */\n      dup5\n        /* \"#utility.yul\":8408:8414   */\n      dup5\n        /* \"#utility.yul\":8403:8406   */\n      dup5\n        /* \"#utility.yul\":8399:8415   */\n      add\n        /* \"#utility.yul\":8396:8421   */\n      gt\n        /* \"#utility.yul\":8393:8505   */\n      iszero\n      tag_491\n      jumpi\n        /* \"#utility.yul\":8424:8503   */\n      tag_492\n      tag_359\n      jump\t// in\n    tag_492:\n        /* \"#utility.yul\":8393:8505   */\n    tag_491:\n        /* \"#utility.yul\":8514:8568   */\n      tag_493\n        /* \"#utility.yul\":8561:8567   */\n      dup5\n        /* \"#utility.yul\":8556:8559   */\n      dup3\n        /* \"#utility.yul\":8551:8554   */\n      dup6\n        /* \"#utility.yul\":8514:8568   */\n      tag_363\n      jump\t// in\n    tag_493:\n        /* \"#utility.yul\":8234:8574   */\n      pop\n        /* \"#utility.yul\":8151:8574   */\n      swap4\n      swap3\n      pop\n      pop\n      pop\n      jump\t// out\n        /* \"#utility.yul\":8593:8931   */\n    tag_365:\n        /* \"#utility.yul\":8648:8653   */\n      0x00\n        /* \"#utility.yul\":8697:8700   */\n      dup3\n        /* \"#utility.yul\":8690:8694   */\n      0x1f\n        /* \"#utility.yul\":8682:8688   */\n      dup4\n        /* \"#utility.yul\":8678:8695   */\n      add\n        /* \"#utility.yul\":8674:8701   */\n      slt\n        /* \"#utility.yul\":8664:8786   */\n      tag_495\n      jumpi\n        /* \"#utility.yul\":8705:8784   */\n      tag_496\n      tag_358\n      jump\t// in\n    tag_496:\n        /* \"#utility.yul\":8664:8786   */\n    tag_495:\n        /* \"#utility.yul\":8822:8828   */\n      dup2\n        /* \"#utility.yul\":8809:8829   */\n      calldataload\n        /* \"#utility.yul\":8847:8925   */\n      tag_497\n        /* \"#utility.yul\":8921:8924   */\n      dup5\n        /* \"#utility.yul\":8913:8919   */\n      dup3\n        /* \"#utility.yul\":8906:8910   */\n      0x20\n        /* \"#utility.yul\":8898:8904   */\n      dup7\n        /* \"#utility.yul\":8894:8911   */\n      add\n        /* \"#utility.yul\":8847:8925   */\n      tag_364\n      jump\t// in\n    tag_497:\n        /* \"#utility.yul\":8838:8925   */\n      swap2\n      pop\n        /* \"#utility.yul\":8654:8931   */\n      pop\n        /* \"#utility.yul\":8593:8931   */\n      swap3\n      swap2\n      pop\n      pop\n      jump\t// out\n        /* \"#utility.yul\":8937:9880   */\n    tag_78:\n        /* \"#utility.yul\":9032:9038   */\n      0x00\n        /* \"#utility.yul\":9040:9046   */\n      dup1\n        /* \"#utility.yul\":9048:9054   */\n      0x00\n        /* \"#utility.yul\":9056:9062   */\n      dup1\n        /* \"#utility.yul\":9105:9108   */\n      0x80\n        /* \"#utility.yul\":9093:9102   */\n      dup6\n        /* \"#utility.yul\":9084:9091   */\n      dup8\n        /* \"#utility.yul\":9080:9103   */\n      sub\n        /* \"#utility.yul\":9076:9109   */\n      slt\n        /* \"#utility.yul\":9073:9193   */\n      iszero\n      tag_499\n      jumpi\n        /* \"#utility.yul\":9112:9191   */\n      tag_500\n      tag_335\n      jump\t// in\n    tag_500:\n        /* \"#utility.yul\":9073:9193   */\n    tag_499:\n        /* \"#utility.yul\":9232:9233   */\n      0x00\n        /* \"#utility.yul\":9257:9310   */\n      tag_501\n        /* \"#utility.yul\":9302:9309   */\n      dup8\n        /* \"#utility.yul\":9293:9299   */\n      dup3\n        /* \"#utility.yul\":9282:9291   */\n      dup9\n        /* \"#utility.yul\":9278:9300   */\n      add\n        /* \"#utility.yul\":9257:9310   */\n      tag_354\n      jump\t// in\n    tag_501:\n        /* \"#utility.yul\":9247:9310   */\n      swap5\n      pop\n        /* \"#utility.yul\":9203:9320   */\n      pop\n        /* \"#utility.yul\":9359:9361   */\n      0x20\n        /* \"#utility.yul\":9385:9438   */\n      tag_502\n        /* \"#utility.yul\":9430:9437   */\n      dup8\n        /* \"#utility.yul\":9421:9427   */\n      dup3\n        /* \"#utility.yul\":9410:9419   */\n      dup9\n        /* \"#utility.yul\":9406:9428   */\n      add\n        /* \"#utility.yul\":9385:9438   */\n      tag_354\n      jump\t// in\n    tag_502:\n        /* \"#utility.yul\":9375:9438   */\n      swap4\n      pop\n        /* \"#utility.yul\":9330:9448   */\n      pop\n        /* \"#utility.yul\":9487:9489   */\n      0x40\n        /* \"#utility.yul\":9513:9566   */\n      tag_503\n        /* \"#utility.yul\":9558:9565   */\n      dup8\n        /* \"#utility.yul\":9549:9555   */\n      dup3\n        /* \"#utility.yul\":9538:9547   */\n      dup9\n        /* \"#utility.yul\":9534:9556   */\n      add\n        /* \"#utility.yul\":9513:9566   */\n      tag_349\n      jump\t// in\n    tag_503:\n        /* \"#utility.yul\":9503:9566   */\n      swap3\n      pop\n        /* \"#utility.yul\":9458:9576   */\n      pop\n        /* \"#utility.yul\":9643:9645   */\n      0x60\n        /* \"#utility.yul\":9632:9641   */\n      dup6\n        /* \"#utility.yul\":9628:9646   */\n      add\n        /* \"#utility.yul\":9615:9647   */\n      calldataload\n        /* \"#utility.yul\":9674:9692   */\n      0xffffffffffffffff\n        /* \"#utility.yul\":9666:9672   */\n      dup2\n        /* \"#utility.yul\":9663:9693   */\n      gt\n        /* \"#utility.yul\":9660:9777   */\n      iszero\n      tag_504\n      jumpi\n        /* \"#utility.yul\":9696:9775   */\n      tag_505\n      tag_336\n      jump\t// in\n    tag_505:\n        /* \"#utility.yul\":9660:9777   */\n    tag_504:\n        /* \"#utility.yul\":9801:9863   */\n      tag_506\n        /* \"#utility.yul\":9855:9862   */\n      dup8\n        /* \"#utility.yul\":9846:9852   */\n      dup3\n        /* \"#utility.yul\":9835:9844   */\n      dup9\n        /* \"#utility.yul\":9831:9853   */\n      add\n        /* \"#utility.yul\":9801:9863   */\n      tag_365\n      jump\t// in\n    tag_506:\n        /* \"#utility.yul\":9791:9863   */\n      swap2\n      pop\n        /* \"#utility.yul\":9586:9873   */\n      pop\n        /* \"#utility.yul\":8937:9880   */\n      swap3\n      swap6\n      swap2\n      swap5\n      pop\n      swap3\n      pop\n      jump\t// out\n        /* \"#utility.yul\":9886:10194   */\n    tag_366:\n        /* \"#utility.yul\":9948:9952   */\n      0x00\n        /* \"#utility.yul\":10038:10056   */\n      0xffffffffffffffff\n        /* \"#utility.yul\":10030:10036   */\n      dup3\n        /* \"#utility.yul\":10027:10057   */\n      gt\n        /* \"#utility.yul\":10024:10080   */\n      iszero\n      tag_508\n      jumpi\n        /* \"#utility.yul\":10060:10078   */\n      tag_509\n      tag_300\n      jump\t// in\n    tag_509:\n        /* \"#utility.yul\":10024:10080   */\n    tag_508:\n        /* \"#utility.yul\":10098:10127   */\n      tag_510\n        /* \"#utility.yul\":10120:10126   */\n      dup3\n        /* \"#utility.yul\":10098:10127   */\n      tag_345\n      jump\t// in\n    tag_510:\n        /* \"#utility.yul\":10090:10127   */\n      swap1\n      pop\n        /* \"#utility.yul\":10182:10186   */\n      0x20\n        /* \"#utility.yul\":10176:10180   */\n      dup2\n        /* \"#utility.yul\":10172:10187   */\n      add\n        /* \"#utility.yul\":10164:10187   */\n      swap1\n      pop\n        /* \"#utility.yul\":9886:10194   */\n      swap2\n      swap1\n      pop\n      jump\t// out\n        /* \"#utility.yul\":10200:10625   */\n    tag_367:\n        /* \"#utility.yul\":10278:10283   */\n      0x00\n        /* \"#utility.yul\":10303:10369   */\n      tag_512\n        /* \"#utility.yul\":10319:10368   */\n      tag_513\n        /* \"#utility.yul\":10361:10367   */\n      dup5\n        /* \"#utility.yul\":10319:10368   */\n      tag_366\n      jump\t// in\n    tag_513:\n        /* \"#utility.yul\":10303:10369   */\n      tag_361\n      jump\t// in\n    tag_512:\n        /* \"#utility.yul\":10294:10369   */\n      swap1\n      pop\n        /* \"#utility.yul\":10392:10398   */\n      dup3\n        /* \"#utility.yul\":10385:10390   */\n      dup2\n        /* \"#utility.yul\":10378:10399   */\n      mstore\n        /* \"#utility.yul\":10430:10434   */\n      0x20\n        /* \"#utility.yul\":10423:10428   */\n      dup2\n        /* \"#utility.yul\":10419:10435   */\n      add\n        /* \"#utility.yul\":10468:10471   */\n      dup5\n        /* \"#utility.yul\":10459:10465   */\n      dup5\n        /* \"#utility.yul\":10454:10457   */\n      dup5\n        /* \"#utility.yul\":10450:10466   */\n      add\n        /* \"#utility.yul\":10447:10472   */\n      gt\n        /* \"#utility.yul\":10444:10556   */\n      iszero\n      tag_514\n      jumpi\n        /* \"#utility.yul\":10475:10554   */\n      tag_515\n      tag_359\n      jump\t// in\n    tag_515:\n        /* \"#utility.yul\":10444:10556   */\n    tag_514:\n        /* \"#utility.yul\":10565:10619   */\n      tag_516\n        /* \"#utility.yul\":10612:10618   */\n      dup5\n        /* \"#utility.yul\":10607:10610   */\n      dup3\n        /* \"#utility.yul\":10602:10605   */\n      dup6\n        /* \"#utility.yul\":10565:10619   */\n      tag_363\n      jump\t// in\n    tag_516:\n        /* \"#utility.yul\":10284:10625   */\n      pop\n        /* \"#utility.yul\":10200:10625   */\n      swap4\n      swap3\n      pop\n      pop\n      pop\n      jump\t// out\n        /* \"#utility.yul\":10645:10985   */\n    tag_368:\n        /* \"#utility.yul\":10701:10706   */\n      0x00\n        /* \"#utility.yul\":10750:10753   */\n      dup3\n        /* \"#utility.yul\":10743:10747   */\n      0x1f\n        /* \"#utility.yul\":10735:10741   */\n      dup4\n        /* \"#utility.yul\":10731:10748   */\n      add\n        /* \"#utility.yul\":10727:10754   */\n      slt\n        /* \"#utility.yul\":10717:10839   */\n      tag_518\n      jumpi\n        /* \"#utility.yul\":10758:10837   */\n      tag_519\n      tag_358\n      jump\t// in\n    tag_519:\n        /* \"#utility.yul\":10717:10839   */\n    tag_518:\n        /* \"#utility.yul\":10875:10881   */\n      dup2\n        /* \"#utility.yul\":10862:10882   */\n      calldataload\n        /* \"#utility.yul\":10900:10979   */\n      tag_520\n        /* \"#utility.yul\":10975:10978   */\n      dup5\n        /* \"#utility.yul\":10967:10973   */\n      dup3\n        /* \"#utility.yul\":10960:10964   */\n      0x20\n        /* \"#utility.yul\":10952:10958   */\n      dup7\n        /* \"#utility.yul\":10948:10965   */\n      add\n        /* \"#utility.yul\":10900:10979   */\n      tag_367\n      jump\t// in\n    tag_520:\n        /* \"#utility.yul\":10891:10979   */\n      swap2\n      pop\n        /* \"#utility.yul\":10707:10985   */\n      pop\n        /* \"#utility.yul\":10645:10985   */\n      swap3\n      swap2\n      pop\n      pop\n      jump\t// out\n        /* \"#utility.yul\":10991:11645   */\n    tag_86:\n        /* \"#utility.yul\":11069:11075   */\n      0x00\n        /* \"#utility.yul\":11077:11083   */\n      dup1\n        /* \"#utility.yul\":11126:11128   */\n      0x40\n        /* \"#utility.yul\":11114:11123   */\n      dup4\n        /* \"#utility.yul\":11105:11112   */\n      dup6\n        /* \"#utility.yul\":11101:11124   */\n      sub\n        /* \"#utility.yul\":11097:11129   */\n      slt\n        /* \"#utility.yul\":11094:11213   */\n      iszero\n      tag_522\n      jumpi\n        /* \"#utility.yul\":11132:11211   */\n      tag_523\n      tag_335\n      jump\t// in\n    tag_523:\n        /* \"#utility.yul\":11094:11213   */\n    tag_522:\n        /* \"#utility.yul\":11252:11253   */\n      0x00\n        /* \"#utility.yul\":11277:11330   */\n      tag_524\n        /* \"#utility.yul\":11322:11329   */\n      dup6\n        /* \"#utility.yul\":11313:11319   */\n      dup3\n        /* \"#utility.yul\":11302:11311   */\n      dup7\n        /* \"#utility.yul\":11298:11320   */\n      add\n        /* \"#utility.yul\":11277:11330   */\n      tag_354\n      jump\t// in\n    tag_524:\n        /* \"#utility.yul\":11267:11330   */\n      swap3\n      pop\n        /* \"#utility.yul\":11223:11340   */\n      pop\n        /* \"#utility.yul\":11407:11409   */\n      0x20\n        /* \"#utility.yul\":11396:11405   */\n      dup4\n        /* \"#utility.yul\":11392:11410   */\n      add\n        /* \"#utility.yul\":11379:11411   */\n      calldataload\n        /* \"#utility.yul\":11438:11456   */\n      0xffffffffffffffff\n        /* \"#utility.yul\":11430:11436   */\n      dup2\n        /* \"#utility.yul\":11427:11457   */\n      gt\n        /* \"#utility.yul\":11424:11541   */\n      iszero\n      tag_525\n      jumpi\n        /* \"#utility.yul\":11460:11539   */\n      tag_526\n      tag_336\n      jump\t// in\n    tag_526:\n        /* \"#utility.yul\":11424:11541   */\n    tag_525:\n        /* \"#utility.yul\":11565:11628   */\n      tag_527\n        /* \"#utility.yul\":11620:11627   */\n      dup6\n        /* \"#utility.yul\":11611:11617   */\n      dup3\n        /* \"#utility.yul\":11600:11609   */\n      dup7\n        /* \"#utility.yul\":11596:11618   */\n      add\n        /* \"#utility.yul\":11565:11628   */\n      tag_368\n      jump\t// in\n    tag_527:\n        /* \"#utility.yul\":11555:11628   */\n      swap2\n      pop\n        /* \"#utility.yul\":11350:11638   */\n      pop\n        /* \"#utility.yul\":10991:11645   */\n      swap3\n      pop\n      swap3\n      swap1\n      pop\n      jump\t// out\n        /* \"#utility.yul\":11651:12125   */\n    tag_90:\n        /* \"#utility.yul\":11719:11725   */\n      0x00\n        /* \"#utility.yul\":11727:11733   */\n      dup1\n        /* \"#utility.yul\":11776:11778   */\n      0x40\n        /* \"#utility.yul\":11764:11773   */\n      dup4\n        /* \"#utility.yul\":11755:11762   */\n      dup6\n        /* \"#utility.yul\":11751:11774   */\n      sub\n        /* \"#utility.yul\":11747:11779   */\n      slt\n        /* \"#utility.yul\":11744:11863   */\n      iszero\n      tag_529\n      jumpi\n        /* \"#utility.yul\":11782:11861   */\n      tag_530\n      tag_335\n      jump\t// in\n    tag_530:\n        /* \"#utility.yul\":11744:11863   */\n    tag_529:\n        /* \"#utility.yul\":11902:11903   */\n      0x00\n        /* \"#utility.yul\":11927:11980   */\n      tag_531\n        /* \"#utility.yul\":11972:11979   */\n      dup6\n        /* \"#utility.yul\":11963:11969   */\n      dup3\n        /* \"#utility.yul\":11952:11961   */\n      dup7\n        /* \"#utility.yul\":11948:11970   */\n      add\n        /* \"#utility.yul\":11927:11980   */\n      tag_354\n      jump\t// in\n    tag_531:\n        /* \"#utility.yul\":11917:11980   */\n      swap3\n      pop\n        /* \"#utility.yul\":11873:11990   */\n      pop\n        /* \"#utility.yul\":12029:12031   */\n      0x20\n        /* \"#utility.yul\":12055:12108   */\n      tag_532\n        /* \"#utility.yul\":12100:12107   */\n      dup6\n        /* \"#utility.yul\":12091:12097   */\n      dup3\n        /* \"#utility.yul\":12080:12089   */\n      dup7\n        /* \"#utility.yul\":12076:12098   */\n      add\n        /* \"#utility.yul\":12055:12108   */\n      tag_354\n      jump\t// in\n    tag_532:\n        /* \"#utility.yul\":12045:12108   */\n      swap2\n      pop\n        /* \"#utility.yul\":12000:12118   */\n      pop\n        /* \"#utility.yul\":11651:12125   */\n      swap3\n      pop\n      swap3\n      swap1\n      pop\n      jump\t// out\n        /* \"#utility.yul\":12131:12311   */\n    tag_369:\n        /* \"#utility.yul\":12179:12256   */\n      0x4e487b7100000000000000000000000000000000000000000000000000000000\n        /* \"#utility.yul\":12176:12177   */\n      0x00\n        /* \"#utility.yul\":12169:12257   */\n      mstore\n        /* \"#utility.yul\":12276:12280   */\n      0x22\n        /* \"#utility.yul\":12273:12274   */\n      0x04\n        /* \"#utility.yul\":12266:12281   */\n      mstore\n        /* \"#utility.yul\":12300:12304   */\n      0x24\n        /* \"#utility.yul\":12297:12298   */\n      0x00\n        /* \"#utility.yul\":12290:12305   */\n      revert\n        /* \"#utility.yul\":12317:12637   */\n    tag_101:\n        /* \"#utility.yul\":12361:12367   */\n      0x00\n        /* \"#utility.yul\":12398:12399   */\n      0x02\n        /* \"#utility.yul\":12392:12396   */\n      dup3\n        /* \"#utility.yul\":12388:12400   */\n      div\n        /* \"#utility.yul\":12378:12400   */\n      swap1\n      pop\n        /* \"#utility.yul\":12445:12446   */\n      0x01\n        /* \"#utility.yul\":12439:12443   */\n      dup3\n        /* \"#utility.yul\":12435:12447   */\n      and\n        /* \"#utility.yul\":12466:12484   */\n      dup1\n        /* \"#utility.yul\":12456:12537   */\n      tag_535\n      jumpi\n        /* \"#utility.yul\":12522:12526   */\n      0x7f\n        /* \"#utility.yul\":12514:12520   */\n      dup3\n        /* \"#utility.yul\":12510:12527   */\n      and\n        /* \"#utility.yul\":12500:12527   */\n      swap2\n      pop\n        /* \"#utility.yul\":12456:12537   */\n    tag_535:\n        /* \"#utility.yul\":12584:12586   */\n      0x20\n        /* \"#utility.yul\":12576:12582   */\n      dup3\n        /* \"#utility.yul\":12573:12587   */\n      lt\n        /* \"#utility.yul\":12553:12571   */\n      dup2\n        /* \"#utility.yul\":12550:12588   */\n      sub\n        /* \"#utility.yul\":12547:12631   */\n      tag_536\n      jumpi\n        /* \"#utility.yul\":12603:12621   */\n      tag_537\n      tag_369\n      jump\t// in\n    tag_537:\n        /* \"#utility.yul\":12547:12631   */\n    tag_536:\n        /* \"#utility.yul\":12368:12637   */\n      pop\n        /* \"#utility.yul\":12317:12637   */\n      swap2\n      swap1\n      pop\n      jump\t// out\n        /* \"#utility.yul\":12643:13085   */\n    tag_124:\n        /* \"#utility.yul\":12792:12796   */\n      0x00\n        /* \"#utility.yul\":12830:12832   */\n      0x60\n        /* \"#utility.yul\":12819:12828   */\n      dup3\n        /* \"#utility.yul\":12815:12833   */\n      add\n        /* \"#utility.yul\":12807:12833   */\n      swap1\n      pop\n        /* \"#utility.yul\":12843:12914   */\n      tag_539\n        /* \"#utility.yul\":12911:12912   */\n      0x00\n        /* \"#utility.yul\":12900:12909   */\n      dup4\n        /* \"#utility.yul\":12896:12913   */\n      add\n        /* \"#utility.yul\":12887:12893   */\n      dup7\n        /* \"#utility.yul\":12843:12914   */\n      tag_352\n      jump\t// in\n    tag_539:\n        /* \"#utility.yul\":12924:12996   */\n      tag_540\n        /* \"#utility.yul\":12992:12994   */\n      0x20\n        /* \"#utility.yul\":12981:12990   */\n      dup4\n        /* \"#utility.yul\":12977:12995   */\n      add\n        /* \"#utility.yul\":12968:12974   */\n      dup6\n        /* \"#utility.yul\":12924:12996   */\n      tag_355\n      jump\t// in\n    tag_540:\n        /* \"#utility.yul\":13006:13078   */\n      tag_541\n        /* \"#utility.yul\":13074:13076   */\n      0x40\n        /* \"#utility.yul\":13063:13072   */\n      dup4\n        /* \"#utility.yul\":13059:13077   */\n      add\n        /* \"#utility.yul\":13050:13056   */\n      dup5\n        /* \"#utility.yul\":13006:13078   */\n      tag_352\n      jump\t// in\n    tag_541:\n        /* \"#utility.yul\":12643:13085   */\n      swap5\n      swap4\n      pop\n      pop\n      pop\n      pop\n      jump\t// out\n        /* \"#utility.yul\":13091:13271   */\n    tag_370:\n        /* \"#utility.yul\":13139:13216   */\n      0x4e487b7100000000000000000000000000000000000000000000000000000000\n        /* \"#utility.yul\":13136:13137   */\n      0x00\n        /* \"#utility.yul\":13129:13217   */\n      mstore\n        /* \"#utility.yul\":13236:13240   */\n      0x11\n        /* \"#utility.yul\":13233:13234   */\n      0x04\n        /* \"#utility.yul\":13226:13241   */\n      mstore\n        /* \"#utility.yul\":13260:13264   */\n      0x24\n        /* \"#utility.yul\":13257:13258   */\n      0x00\n        /* \"#utility.yul\":13250:13265   */\n      revert\n        /* \"#utility.yul\":13277:13510   */\n    tag_163:\n        /* \"#utility.yul\":13316:13319   */\n      0x00\n        /* \"#utility.yul\":13339:13363   */\n      tag_544\n        /* \"#utility.yul\":13357:13362   */\n      dup3\n        /* \"#utility.yul\":13339:13363   */\n      tag_347\n      jump\t// in\n    tag_544:\n        /* \"#utility.yul\":13330:13363   */\n      swap2\n      pop\n        /* \"#utility.yul\":13385:13451   */\n      0xffffffffffffffffffffffffffffffffffffffffffffffffffffffffffffffff\n        /* \"#utility.yul\":13378:13383   */\n      dup3\n        /* \"#utility.yul\":13375:13452   */\n      sub\n        /* \"#utility.yul\":13372:13475   */\n      tag_545\n      jumpi\n        /* \"#utility.yul\":13455:13473   */\n      tag_546\n      tag_370\n      jump\t// in\n    tag_546:\n        /* \"#utility.yul\":13372:13475   */\n    tag_545:\n        /* \"#utility.yul\":13502:13503   */\n      0x01\n        /* \"#utility.yul\":13495:13500   */\n      dup3\n        /* \"#utility.yul\":13491:13504   */\n      add\n        /* \"#utility.yul\":13484:13504   */\n      swap1\n      pop\n        /* \"#utility.yul\":13277:13510   */\n      swap2\n      swap1\n      pop\n      jump\t// out\n        /* \"#utility.yul\":13516:13614   */\n    tag_371:\n        /* \"#utility.yul\":13567:13573   */\n      0x00\n        /* \"#utility.yul\":13601:13606   */\n      dup2\n        /* \"#utility.yul\":13595:13607   */\n      mload\n        /* \"#utility.yul\":13585:13607   */\n      swap1\n      pop\n        /* \"#utility.yul\":13516:13614   */\n      swap2\n      swap1\n      pop\n      jump\t// out\n        /* \"#utility.yul\":13620:13788   */\n    tag_372:\n        /* \"#utility.yul\":13703:13714   */\n      0x00\n        /* \"#utility.yul\":13737:13743   */\n      dup3\n        /* \"#utility.yul\":13732:13735   */\n      dup3\n        /* \"#utility.yul\":13725:13744   */\n      mstore\n        /* \"#utility.yul\":13777:13781   */\n      0x20\n        /* \"#utility.yul\":13772:13775   */\n      dup3\n        /* \"#utility.yul\":13768:13782   */\n      add\n        /* \"#utility.yul\":13753:13782   */\n      swap1\n      pop\n        /* \"#utility.yul\":13620:13788   */\n      swap3\n      swap2\n      pop\n      pop\n      jump\t// out\n        /* \"#utility.yul\":13794:14167   */\n    tag_373:\n        /* \"#utility.yul\":13880:13883   */\n      0x00\n        /* \"#utility.yul\":13908:13946   */\n      tag_550\n        /* \"#utility.yul\":13940:13945   */\n      dup3\n        /* \"#utility.yul\":13908:13946   */\n      tag_371\n      jump\t// in\n    tag_550:\n        /* \"#utility.yul\":13962:14032   */\n      tag_551\n        /* \"#utility.yul\":14025:14031   */\n      dup2\n        /* \"#utility.yul\":14020:14023   */\n      dup6\n        /* \"#utility.yul\":13962:14032   */\n      tag_372\n      jump\t// in\n    tag_551:\n        /* \"#utility.yul\":13955:14032   */\n      swap4\n      pop\n        /* \"#utility.yul\":14041:14106   */\n      tag_552\n        /* \"#utility.yul\":14099:14105   */\n      dup2\n        /* \"#utility.yul\":14094:14097   */\n      dup6\n        /* \"#utility.yul\":14087:14091   */\n      0x20\n        /* \"#utility.yul\":14080:14085   */\n      dup7\n        /* \"#utility.yul\":14076:14092   */\n      add\n        /* \"#utility.yul\":14041:14106   */\n      tag_344\n      jump\t// in\n    tag_552:\n        /* \"#utility.yul\":14131:14160   */\n      tag_553\n        /* \"#utility.yul\":14153:14159   */\n      dup2\n        /* \"#utility.yul\":14131:14160   */\n      tag_345\n      jump\t// in\n    tag_553:\n        /* \"#utility.yul\":14126:14129   */\n      dup5\n        /* \"#utility.yul\":14122:14161   */\n      add\n        /* \"#utility.yul\":14115:14161   */\n      swap2\n      pop\n        /* \"#utility.yul\":13884:14167   */\n      pop\n        /* \"#utility.yul\":13794:14167   */\n      swap3\n      swap2\n      pop\n      pop\n      jump\t// out\n        /* \"#utility.yul\":14173:14813   */\n    tag_212:\n        /* \"#utility.yul\":14368:14372   */\n      0x00\n        /* \"#utility.yul\":14406:14409   */\n      0x80\n        /* \"#utility.yul\":14395:14404   */\n      dup3\n        /* \"#utility.yul\":14391:14410   */\n      add\n        /* \"#utility.yul\":14383:14410   */\n      swap1\n      pop\n        /* \"#utility.yul\":14420:14491   */\n      tag_555\n        /* \"#utility.yul\":14488:14489   */\n      0x00\n        /* \"#utility.yul\":14477:14486   */\n      dup4\n        /* \"#utility.yul\":14473:14490   */\n      add\n        /* \"#utility.yul\":14464:14470   */\n      dup8\n        /* \"#utility.yul\":14420:14491   */\n      tag_352\n      jump\t// in\n    tag_555:\n        /* \"#utility.yul\":14501:14573   */\n      tag_556\n        /* \"#utility.yul\":14569:14571   */\n      0x20\n        /* \"#utility.yul\":14558:14567   */\n      dup4\n        /* \"#utility.yul\":14554:14572   */\n      add\n        /* \"#utility.yul\":14545:14551   */\n      dup7\n        /* \"#utility.yul\":14501:14573   */\n      tag_352\n      jump\t// in\n    tag_556:\n        /* \"#utility.yul\":14583:14655   */\n      tag_557\n        /* \"#utility.yul\":14651:14653   */\n      0x40\n        /* \"#utility.yul\":14640:14649   */\n      dup4\n        /* \"#utility.yul\":14636:14654   */\n      add\n        /* \"#utility.yul\":14627:14633   */\n      dup6\n        /* \"#utility.yul\":14583:14655   */\n      tag_355\n      jump\t// in\n    tag_557:\n        /* \"#utility.yul\":14702:14711   */\n      dup2\n        /* \"#utility.yul\":14696:14700   */\n      dup2\n        /* \"#utility.yul\":14692:14712   */\n      sub\n        /* \"#utility.yul\":14687:14689   */\n      0x60\n        /* \"#utility.yul\":14676:14685   */\n      dup4\n        /* \"#utility.yul\":14672:14690   */\n      add\n        /* \"#utility.yul\":14665:14713   */\n      mstore\n        /* \"#utility.yul\":14730:14806   */\n      tag_558\n        /* \"#utility.yul\":14801:14805   */\n      dup2\n        /* \"#utility.yul\":14792:14798   */\n      dup5\n        /* \"#utility.yul\":14730:14806   */\n      tag_373\n      jump\t// in\n    tag_558:\n        /* \"#utility.yul\":14722:14806   */\n      swap1\n      pop\n        /* \"#utility.yul\":14173:14813   */\n      swap6\n      swap5\n      pop\n      pop\n      pop\n      pop\n      pop\n      jump\t// out\n        /* \"#utility.yul\":14819:14960   */\n    tag_374:\n        /* \"#utility.yul\":14875:14880   */\n      0x00\n        /* \"#utility.yul\":14906:14912   */\n      dup2\n        /* \"#utility.yul\":14900:14913   */\n      mload\n        /* \"#utility.yul\":14891:14913   */\n      swap1\n      pop\n        /* \"#utility.yul\":14922:14954   */\n      tag_560\n        /* \"#utility.yul\":14948:14953   */\n      dup2\n        /* \"#utility.yul\":14922:14954   */\n      tag_338\n      jump\t// in\n    tag_560:\n        /* \"#utility.yul\":14819:14960   */\n      swap3\n      swap2\n      pop\n      pop\n      jump\t// out\n        /* \"#utility.yul\":14966:15315   */\n    tag_215:\n        /* \"#utility.yul\":15035:15041   */\n      0x00\n        /* \"#utility.yul\":15084:15086   */\n      0x20\n        /* \"#utility.yul\":15072:15081   */\n      dup3\n        /* \"#utility.yul\":15063:15070   */\n      dup5\n        /* \"#utility.yul\":15059:15082   */\n      sub\n        /* \"#utility.yul\":15055:15087   */\n      slt\n        /* \"#utility.yul\":15052:15171   */\n      iszero\n      tag_562\n      jumpi\n        /* \"#utility.yul\":15090:15169   */\n      tag_563\n      tag_335\n      jump\t// in\n    tag_563:\n        /* \"#utility.yul\":15052:15171   */\n    tag_562:\n        /* \"#utility.yul\":15210:15211   */\n      0x00\n        /* \"#utility.yul\":15235:15298   */\n      tag_564\n        /* \"#utility.yul\":15290:15297   */\n      dup5\n        /* \"#utility.yul\":15281:15287   */\n      dup3\n        /* \"#utility.yul\":15270:15279   */\n      dup6\n        /* \"#utility.yul\":15266:15288   */\n      add\n        /* \"#utility.yul\":15235:15298   */\n      tag_374\n      jump\t// in\n    tag_564:\n        /* \"#utility.yul\":15225:15298   */\n      swap2\n      pop\n        /* \"#utility.yul\":15181:15308   */\n      pop\n        /* \"#utility.yul\":14966:15315   */\n      swap3\n      swap2\n      pop\n      pop\n      jump\t// out\n        /* \"#utility.yul\":15321:15469   */\n    tag_375:\n        /* \"#utility.yul\":15423:15434   */\n      0x00\n        /* \"#utility.yul\":15460:15463   */\n      dup2\n        /* \"#utility.yul\":15445:15463   */\n      swap1\n      pop\n        /* \"#utility.yul\":15321:15469   */\n      swap3\n      swap2\n      pop\n      pop\n      jump\t// out\n        /* \"#utility.yul\":15475:15865   */\n    tag_376:\n        /* \"#utility.yul\":15581:15584   */\n      0x00\n        /* \"#utility.yul\":15609:15648   */\n      tag_567\n        /* \"#utility.yul\":15642:15647   */\n      dup3\n        /* \"#utility.yul\":15609:15648   */\n      tag_342\n      jump\t// in\n    tag_567:\n        /* \"#utility.yul\":15664:15753   */\n      tag_568\n        /* \"#utility.yul\":15746:15752   */\n      dup2\n        /* \"#utility.yul\":15741:15744   */\n      dup6\n        /* \"#utility.yul\":15664:15753   */\n      tag_375\n      jump\t// in\n    tag_568:\n        /* \"#utility.yul\":15657:15753   */\n      swap4\n      pop\n        /* \"#utility.yul\":15762:15827   */\n      tag_569\n        /* \"#utility.yul\":15820:15826   */\n      dup2\n        /* \"#utility.yul\":15815:15818   */\n      dup6\n        /* \"#utility.yul\":15808:15812   */\n      0x20\n        /* \"#utility.yul\":15801:15806   */\n      dup7\n        /* \"#utility.yul\":15797:15813   */\n      add\n        /* \"#utility.yul\":15762:15827   */\n      tag_344\n      jump\t// in\n    tag_569:\n        /* \"#utility.yul\":15852:15858   */\n      dup1\n        /* \"#utility.yul\":15847:15850   */\n      dup5\n        /* \"#utility.yul\":15843:15859   */\n      add\n        /* \"#utility.yul\":15836:15859   */\n      swap2\n      pop\n        /* \"#utility.yul\":15585:15865   */\n      pop\n        /* \"#utility.yul\":15475:15865   */\n      swap3\n      swap2\n      pop\n      pop\n      jump\t// out\n        /* \"#utility.yul\":15871:16306   */\n    tag_240:\n        /* \"#utility.yul\":16051:16054   */\n      0x00\n        /* \"#utility.yul\":16073:16168   */\n      tag_571\n        /* \"#utility.yul\":16164:16167   */\n      dup3\n        /* \"#utility.yul\":16155:16161   */\n      dup6\n        /* \"#utility.yul\":16073:16168   */\n      tag_376\n      jump\t// in\n    tag_571:\n        /* \"#utility.yul\":16066:16168   */\n      swap2\n      pop\n        /* \"#utility.yul\":16185:16280   */\n      tag_572\n        /* \"#utility.yul\":16276:16279   */\n      dup3\n        /* \"#utility.yul\":16267:16273   */\n      dup5\n        /* \"#utility.yul\":16185:16280   */\n      tag_376\n      jump\t// in\n    tag_572:\n        /* \"#utility.yul\":16178:16280   */\n      swap2\n      pop\n        /* \"#utility.yul\":16297:16300   */\n      dup2\n        /* \"#utility.yul\":16290:16300   */\n      swap1\n      pop\n        /* \"#utility.yul\":15871:16306   */\n      swap4\n      swap3\n      pop\n      pop\n      pop\n      jump\t// out\n        /* \"#utility.yul\":16312:16453   */\n    tag_377:\n        /* \"#utility.yul\":16361:16365   */\n      0x00\n        /* \"#utility.yul\":16384:16387   */\n      dup2\n        /* \"#utility.yul\":16376:16387   */\n      swap1\n      pop\n        /* \"#utility.yul\":16407:16410   */\n      dup2\n        /* \"#utility.yul\":16404:16405   */\n      0x00\n        /* \"#utility.yul\":16397:16411   */\n      mstore\n        /* \"#utility.yul\":16441:16445   */\n      0x20\n        /* \"#utility.yul\":16438:16439   */\n      0x00\n        /* \"#utility.yul\":16428:16446   */\n      keccak256\n        /* \"#utility.yul\":16420:16446   */\n      swap1\n      pop\n        /* \"#utility.yul\":16312:16453   */\n      swap2\n      swap1\n      pop\n      jump\t// out\n        /* \"#utility.yul\":16459:16552   */\n    tag_378:\n        /* \"#utility.yul\":16496:16502   */\n      0x00\n        /* \"#utility.yul\":16543:16545   */\n      0x20\n        /* \"#utility.yul\":16538:16540   */\n      0x1f\n        /* \"#utility.yul\":16531:16536   */\n      dup4\n        /* \"#utility.yul\":16527:16541   */\n      add\n        /* \"#utility.yul\":16523:16546   */\n      div\n        /* \"#utility.yul\":16513:16546   */\n      swap1\n      pop\n        /* \"#utility.yul\":16459:16552   */\n      swap2\n      swap1\n      pop\n      jump\t// out\n        /* \"#utility.yul\":16558:16665   */\n    tag_379:\n        /* \"#utility.yul\":16602:16610   */\n      0x00\n        /* \"#utility.yul\":16652:16657   */\n      dup3\n        /* \"#utility.yul\":16646:16650   */\n      dup3\n        /* \"#utility.yul\":16642:16658   */\n      shl\n        /* \"#utility.yul\":16621:16658   */\n      swap1\n      pop\n        /* \"#utility.yul\":16558:16665   */\n      swap3\n      swap2\n      pop\n      pop\n      jump\t// out\n        /* \"#utility.yul\":16671:17064   */\n    tag_380:\n        /* \"#utility.yul\":16740:16746   */\n      0x00\n        /* \"#utility.yul\":16790:16791   */\n      0x08\n        /* \"#utility.yul\":16778:16788   */\n      dup4\n        /* \"#utility.yul\":16774:16792   */\n      mul\n        /* \"#utility.yul\":16813:16910   */\n      tag_577\n        /* \"#utility.yul\":16843:16909   */\n      0xffffffffffffffffffffffffffffffffffffffffffffffffffffffffffffffff\n        /* \"#utility.yul\":16832:16841   */\n      dup3\n        /* \"#utility.yul\":16813:16910   */\n      tag_379\n      jump\t// in\n    tag_577:\n        /* \"#utility.yul\":16931:16970   */\n      tag_578\n        /* \"#utility.yul\":16961:16969   */\n      dup7\n        /* \"#utility.yul\":16950:16959   */\n      dup4\n        /* \"#utility.yul\":16931:16970   */\n      tag_379\n      jump\t// in\n    tag_578:\n        /* \"#utility.yul\":16919:16970   */\n      swap6\n      pop\n        /* \"#utility.yul\":17003:17007   */\n      dup1\n        /* \"#utility.yul\":16999:17008   */\n      not\n        /* \"#utility.yul\":16992:16997   */\n      dup5\n        /* \"#utility.yul\":16988:17009   */\n      and\n        /* \"#utility.yul\":16979:17009   */\n      swap4\n      pop\n        /* \"#utility.yul\":17052:17056   */\n      dup1\n        /* \"#utility.yul\":17042:17050   */\n      dup7\n        /* \"#utility.yul\":17038:17057   */\n      and\n        /* \"#utility.yul\":17031:17036   */\n      dup5\n        /* \"#utility.yul\":17028:17058   */\n      or\n        /* \"#utility.yul\":17018:17058   */\n      swap3\n      pop\n        /* \"#utility.yul\":16747:17064   */\n      pop\n      pop\n        /* \"#utility.yul\":16671:17064   */\n      swap4\n      swap3\n      pop\n      pop\n      pop\n      jump\t// out\n        /* \"#utility.yul\":17070:17130   */\n    tag_381:\n        /* \"#utility.yul\":17098:17101   */\n      0x00\n        /* \"#utility.yul\":17119:17124   */\n      dup2\n        /* \"#utility.yul\":17112:17124   */\n      swap1\n      pop\n        /* \"#utility.yul\":17070:17130   */\n      swap2\n      swap1\n      pop\n      jump\t// out\n        /* \"#utility.yul\":17136:17278   */\n    tag_382:\n        /* \"#utility.yul\":17186:17195   */\n      0x00\n        /* \"#utility.yul\":17219:17272   */\n      tag_581\n        /* \"#utility.yul\":17237:17271   */\n      tag_582\n        /* \"#utility.yul\":17246:17270   */\n      tag_583\n        /* \"#utility.yul\":17264:17269   */\n      dup5\n        /* \"#utility.yul\":17246:17270   */\n      tag_347\n      jump\t// in\n    tag_583:\n        /* \"#utility.yul\":17237:17271   */\n      tag_381\n      jump\t// in\n    tag_582:\n        /* \"#utility.yul\":17219:17272   */\n      tag_347\n      jump\t// in\n    tag_581:\n        /* \"#utility.yul\":17206:17272   */\n      swap1\n      pop\n        /* \"#utility.yul\":17136:17278   */\n      swap2\n      swap1\n      pop\n      jump\t// out\n        /* \"#utility.yul\":17284:17359   */\n    tag_383:\n        /* \"#utility.yul\":17327:17330   */\n      0x00\n        /* \"#utility.yul\":17348:17353   */\n      dup2\n        /* \"#utility.yul\":17341:17353   */\n      swap1\n      pop\n        /* \"#utility.yul\":17284:17359   */\n      swap2\n      swap1\n      pop\n      jump\t// out\n        /* \"#utility.yul\":17365:17634   */\n    tag_384:\n        /* \"#utility.yul\":17475:17514   */\n      tag_586\n        /* \"#utility.yul\":17506:17513   */\n      dup4\n        /* \"#utility.yul\":17475:17514   */\n      tag_382\n      jump\t// in\n    tag_586:\n        /* \"#utility.yul\":17536:17627   */\n      tag_587\n        /* \"#utility.yul\":17585:17626   */\n      tag_588\n        /* \"#utility.yul\":17609:17625   */\n      dup3\n        /* \"#utility.yul\":17585:17626   */\n      tag_383\n      jump\t// in\n    tag_588:\n        /* \"#utility.yul\":17577:17583   */\n      dup5\n        /* \"#utility.yul\":17570:17574   */\n      dup5\n        /* \"#utility.yul\":17564:17575   */\n      sload\n        /* \"#utility.yul\":17536:17627   */\n      tag_380\n      jump\t// in\n    tag_587:\n        /* \"#utility.yul\":17530:17534   */\n      dup3\n        /* \"#utility.yul\":17523:17628   */\n      sstore\n        /* \"#utility.yul\":17441:17634   */\n      pop\n        /* \"#utility.yul\":17365:17634   */\n      pop\n      pop\n      pop\n      jump\t// out\n        /* \"#utility.yul\":17640:17713   */\n    tag_385:\n        /* \"#utility.yul\":17685:17688   */\n      0x00\n        /* \"#utility.yul\":17640:17713   */\n      swap1\n      jump\t// out\n        /* \"#utility.yul\":17719:17908   */\n    tag_386:\n        /* \"#utility.yul\":17796:17828   */\n      tag_591\n      tag_385\n      jump\t// in\n    tag_591:\n        /* \"#utility.yul\":17837:17902   */\n      tag_592\n        /* \"#utility.yul\":17895:17901   */\n      dup2\n        /* \"#utility.yul\":17887:17893   */\n      dup5\n        /* \"#utility.yul\":17881:17885   */\n      dup5\n        /* \"#utility.yul\":17837:17902   */\n      tag_384\n      jump\t// in\n    tag_592:\n        /* \"#utility.yul\":17772:17908   */\n      pop\n        /* \"#utility.yul\":17719:17908   */\n      pop\n      pop\n      jump\t// out\n        /* \"#utility.yul\":17914:18100   */\n    tag_387:\n        /* \"#utility.yul\":17974:18094   */\n    tag_594:\n        /* \"#utility.yul\":17991:17994   */\n      dup2\n        /* \"#utility.yul\":17984:17989   */\n      dup2\n        /* \"#utility.yul\":17981:17995   */\n      lt\n        /* \"#utility.yul\":17974:18094   */\n      iszero\n      tag_596\n      jumpi\n        /* \"#utility.yul\":18045:18084   */\n      tag_597\n        /* \"#utility.yul\":18082:18083   */\n      0x00\n        /* \"#utility.yul\":18075:18080   */\n      dup3\n        /* \"#utility.yul\":18045:18084   */\n      tag_386\n      jump\t// in\n    tag_597:\n        /* \"#utility.yul\":18018:18019   */\n      0x01\n        /* \"#utility.yul\":18011:18016   */\n      dup2\n        /* \"#utility.yul\":18007:18020   */\n      add\n        /* \"#utility.yul\":17998:18020   */\n      swap1\n      pop\n        /* \"#utility.yul\":17974:18094   */\n      jump(tag_594)\n    tag_596:\n        /* \"#utility.yul\":17914:18100   */\n      pop\n      pop\n      jump\t// out\n        /* \"#utility.yul\":18106:18649   */\n    tag_388:\n        /* \"#utility.yul\":18207:18209   */\n      0x1f\n        /* \"#utility.yul\":18202:18205   */\n      dup3\n        /* \"#utility.yul\":18199:18210   */\n      gt\n        /* \"#utility.yul\":18196:18642   */\n      iszero\n      tag_599\n      jumpi\n        /* \"#utility.yul\":18241:18279   */\n      tag_600\n        /* \"#utility.yul\":18273:18278   */\n      dup2\n        /* \"#utility.yul\":18241:18279   */\n      tag_377\n      jump\t// in\n    tag_600:\n        /* \"#utility.yul\":18325:18354   */\n      tag_601\n        /* \"#utility.yul\":18343:18353   */\n      dup5\n        /* \"#utility.yul\":18325:18354   */\n      tag_378\n      jump\t// in\n    tag_601:\n        /* \"#utility.yul\":18315:18323   */\n      dup2\n        /* \"#utility.yul\":18311:18355   */\n      add\n        /* \"#utility.yul\":18508:18510   */\n      0x20\n        /* \"#utility.yul\":18496:18506   */\n      dup6\n        /* \"#utility.yul\":18493:18511   */\n      lt\n        /* \"#utility.yul\":18490:18539   */\n      iszero\n      tag_602\n      jumpi\n        /* \"#utility.yul\":18529:18537   */\n      dup2\n        /* \"#utility.yul\":18514:18537   */\n      swap1\n      pop\n        /* \"#utility.yul\":18490:18539   */\n    tag_602:\n        /* \"#utility.yul\":18552:18632   */\n      tag_603\n        /* \"#utility.yul\":18608:18630   */\n      tag_604\n        /* \"#utility.yul\":18626:18629   */\n      dup6\n        /* \"#utility.yul\":18608:18630   */\n      tag_378\n      jump\t// in\n    tag_604:\n        /* \"#utility.yul\":18598:18606   */\n      dup4\n        /* \"#utility.yul\":18594:18631   */\n      add\n        /* \"#utility.yul\":18581:18592   */\n      dup3\n        /* \"#utility.yul\":18552:18632   */\n      tag_387\n      jump\t// in\n    tag_603:\n        /* \"#utility.yul\":18211:18642   */\n      pop\n      pop\n        /* \"#utility.yul\":18196:18642   */\n    tag_599:\n        /* \"#utility.yul\":18106:18649   */\n      pop\n      pop\n      pop\n      jump\t// out\n        /* \"#utility.yul\":18655:18772   */\n    tag_389:\n        /* \"#utility.yul\":18709:18717   */\n      0x00\n        /* \"#utility.yul\":18759:18764   */\n      dup3\n        /* \"#utility.yul\":18753:18757   */\n      dup3\n        /* \"#utility.yul\":18749:18765   */\n      shr\n        /* \"#utility.yul\":18728:18765   */\n      swap1\n      pop\n        /* \"#utility.yul\":18655:18772   */\n      swap3\n      swap2\n      pop\n      pop\n      jump\t// out\n        /* \"#utility.yul\":18778:18947   */\n    tag_390:\n        /* \"#utility.yul\":18822:18828   */\n      0x00\n        /* \"#utility.yul\":18855:18906   */\n      tag_607\n        /* \"#utility.yul\":18903:18904   */\n      0x00\n        /* \"#utility.yul\":18899:18905   */\n      not\n        /* \"#utility.yul\":18891:18896   */\n      dup5\n        /* \"#utility.yul\":18888:18889   */\n      0x08\n        /* \"#utility.yul\":18884:18897   */\n      mul\n        /* \"#utility.yul\":18855:18906   */\n      tag_389\n      jump\t// in\n    tag_607:\n        /* \"#utility.yul\":18851:18907   */\n      not\n        /* \"#utility.yul\":18936:18940   */\n      dup1\n        /* \"#utility.yul\":18930:18934   */\n      dup4\n        /* \"#utility.yul\":18926:18941   */\n      and\n        /* \"#utility.yul\":18916:18941   */\n      swap2\n      pop\n        /* \"#utility.yul\":18829:18947   */\n      pop\n        /* \"#utility.yul\":18778:18947   */\n      swap3\n      swap2\n      pop\n      pop\n      jump\t// out\n        /* \"#utility.yul\":18952:19247   */\n    tag_391:\n        /* \"#utility.yul\":19028:19032   */\n      0x00\n        /* \"#utility.yul\":19174:19203   */\n      tag_609\n        /* \"#utility.yul\":19199:19202   */\n      dup4\n        /* \"#utility.yul\":19193:19197   */\n      dup4\n        /* \"#utility.yul\":19174:19203   */\n      tag_390\n      jump\t// in\n    tag_609:\n        /* \"#utility.yul\":19166:19203   */\n      swap2\n      pop\n        /* \"#utility.yul\":19236:19239   */\n      dup3\n        /* \"#utility.yul\":19233:19234   */\n      0x02\n        /* \"#utility.yul\":19229:19240   */\n      mul\n        /* \"#utility.yul\":19223:19227   */\n      dup3\n        /* \"#utility.yul\":19220:19241   */\n      or\n        /* \"#utility.yul\":19212:19241   */\n      swap1\n      pop\n        /* \"#utility.yul\":18952:19247   */\n      swap3\n      swap2\n      pop\n      pop\n      jump\t// out\n        /* \"#utility.yul\":19252:20647   */\n    tag_248:\n        /* \"#utility.yul\":19369:19406   */\n      tag_611\n        /* \"#utility.yul\":19402:19405   */\n      dup3\n        /* \"#utility.yul\":19369:19406   */\n      tag_342\n      jump\t// in\n    tag_611:\n        /* \"#utility.yul\":19471:19489   */\n      0xffffffffffffffff\n        /* \"#utility.yul\":19463:19469   */\n      dup2\n        /* \"#utility.yul\":19460:19490   */\n      gt\n        /* \"#utility.yul\":19457:19513   */\n      iszero\n      tag_612\n      jumpi\n        /* \"#utility.yul\":19493:19511   */\n      tag_613\n      tag_300\n      jump\t// in\n    tag_613:\n        /* \"#utility.yul\":19457:19513   */\n    tag_612:\n        /* \"#utility.yul\":19537:19575   */\n      tag_614\n        /* \"#utility.yul\":19569:19573   */\n      dup3\n        /* \"#utility.yul\":19563:19574   */\n      sload\n        /* \"#utility.yul\":19537:19575   */\n      tag_101\n      jump\t// in\n    tag_614:\n        /* \"#utility.yul\":19622:19689   */\n      tag_615\n        /* \"#utility.yul\":19682:19688   */\n      dup3\n        /* \"#utility.yul\":19674:19680   */\n      dup3\n        /* \"#utility.yul\":19668:19672   */\n      dup6\n        /* \"#utility.yul\":19622:19689   */\n      tag_388\n      jump\t// in\n    tag_615:\n        /* \"#utility.yul\":19716:19717   */\n      0x00\n        /* \"#utility.yul\":19740:19744   */\n      0x20\n        /* \"#utility.yul\":19727:19744   */\n      swap1\n      pop\n        /* \"#utility.yul\":19772:19774   */\n      0x1f\n        /* \"#utility.yul\":19764:19770   */\n      dup4\n        /* \"#utility.yul\":19761:19775   */\n      gt\n        /* \"#utility.yul\":19789:19790   */\n      0x01\n        /* \"#utility.yul\":19784:20402   */\n      dup2\n      eq\n      tag_617\n      jumpi\n        /* \"#utility.yul\":20446:20447   */\n      0x00\n        /* \"#utility.yul\":20463:20469   */\n      dup5\n        /* \"#utility.yul\":20460:20537   */\n      iszero\n      tag_618\n      jumpi\n        /* \"#utility.yul\":20512:20521   */\n      dup3\n        /* \"#utility.yul\":20507:20510   */\n      dup8\n        /* \"#utility.yul\":20503:20522   */\n      add\n        /* \"#utility.yul\":20497:20523   */\n      mload\n        /* \"#utility.yul\":20488:20523   */\n      swap1\n      pop\n        /* \"#utility.yul\":20460:20537   */\n    tag_618:\n        /* \"#utility.yul\":20563:20630   */\n      tag_619\n        /* \"#utility.yul\":20623:20629   */\n      dup6\n        /* \"#utility.yul\":20616:20621   */\n      dup3\n        /* \"#utility.yul\":20563:20630   */\n      tag_391\n      jump\t// in\n    tag_619:\n        /* \"#utility.yul\":20557:20561   */\n      dup7\n        /* \"#utility.yul\":20550:20631   */\n      sstore\n        /* \"#utility.yul\":20419:20641   */\n      pop\n        /* \"#utility.yul\":19754:20641   */\n      jump(tag_616)\n        /* \"#utility.yul\":19784:20402   */\n    tag_617:\n        /* \"#utility.yul\":19836:19840   */\n      0x1f\n        /* \"#utility.yul\":19832:19841   */\n      not\n        /* \"#utility.yul\":19824:19830   */\n      dup5\n        /* \"#utility.yul\":19820:19842   */\n      and\n        /* \"#utility.yul\":19870:19907   */\n      tag_620\n        /* \"#utility.yul\":19902:19906   */\n      dup7\n        /* \"#utility.yul\":19870:19907   */\n      tag_377\n      jump\t// in\n    tag_620:\n        /* \"#utility.yul\":19929:19930   */\n      0x00\n        /* \"#utility.yul\":19943:20151   */\n    tag_621:\n        /* \"#utility.yul\":19957:19964   */\n      dup3\n        /* \"#utility.yul\":19954:19955   */\n      dup2\n        /* \"#utility.yul\":19951:19965   */\n      lt\n        /* \"#utility.yul\":19943:20151   */\n      iszero\n      tag_623\n      jumpi\n        /* \"#utility.yul\":20036:20045   */\n      dup5\n        /* \"#utility.yul\":20031:20034   */\n      dup10\n        /* \"#utility.yul\":20027:20046   */\n      add\n        /* \"#utility.yul\":20021:20047   */\n      mload\n        /* \"#utility.yul\":20013:20019   */\n      dup3\n        /* \"#utility.yul\":20006:20048   */\n      sstore\n        /* \"#utility.yul\":20087:20088   */\n      0x01\n        /* \"#utility.yul\":20079:20085   */\n      dup3\n        /* \"#utility.yul\":20075:20089   */\n      add\n        /* \"#utility.yul\":20065:20089   */\n      swap2\n      pop\n        /* \"#utility.yul\":20134:20136   */\n      0x20\n        /* \"#utility.yul\":20123:20132   */\n      dup6\n        /* \"#utility.yul\":20119:20137   */\n      add\n        /* \"#utility.yul\":20106:20137   */\n      swap5\n      pop\n        /* \"#utility.yul\":19980:19984   */\n      0x20\n        /* \"#utility.yul\":19977:19978   */\n      dup2\n        /* \"#utility.yul\":19973:19985   */\n      add\n        /* \"#utility.yul\":19968:19985   */\n      swap1\n      pop\n        /* \"#utility.yul\":19943:20151   */\n      jump(tag_621)\n    tag_623:\n        /* \"#utility.yul\":20179:20185   */\n      dup7\n        /* \"#utility.yul\":20170:20177   */\n      dup4\n        /* \"#utility.yul\":20167:20186   */\n      lt\n        /* \"#utility.yul\":20164:20343   */\n      iszero\n      tag_624\n      jumpi\n        /* \"#utility.yul\":20237:20246   */\n      dup5\n        /* \"#utility.yul\":20232:20235   */\n      dup10\n        /* \"#utility.yul\":20228:20247   */\n      add\n        /* \"#utility.yul\":20222:20248   */\n      mload\n        /* \"#utility.yul\":20280:20328   */\n      tag_625\n        /* \"#utility.yul\":20322:20326   */\n      0x1f\n        /* \"#utility.yul\":20314:20320   */\n      dup10\n        /* \"#utility.yul\":20310:20327   */\n      and\n        /* \"#utility.yul\":20299:20308   */\n      dup3\n        /* \"#utility.yul\":20280:20328   */\n      tag_390\n      jump\t// in\n    tag_625:\n        /* \"#utility.yul\":20272:20278   */\n      dup4\n        /* \"#utility.yul\":20265:20329   */\n      sstore\n        /* \"#utility.yul\":20187:20343   */\n      pop\n        /* \"#utility.yul\":20164:20343   */\n    tag_624:\n        /* \"#utility.yul\":20389:20390   */\n      0x01\n        /* \"#utility.yul\":20385:20386   */\n      0x02\n        /* \"#utility.yul\":20377:20383   */\n      dup9\n        /* \"#utility.yul\":20373:20387   */\n      mul\n        /* \"#utility.yul\":20369:20391   */\n      add\n        /* \"#utility.yul\":20363:20367   */\n      dup9\n        /* \"#utility.yul\":20356:20392   */\n      sstore\n        /* \"#utility.yul\":19791:20402   */\n      pop\n      pop\n      pop\n        /* \"#utility.yul\":19754:20641   */\n    tag_616:\n      pop\n        /* \"#utility.yul\":19344:20647   */\n      pop\n      pop\n      pop\n        /* \"#utility.yul\":19252:20647   */\n      pop\n      pop\n      jump\t// out\n        /* \"#utility.yul\":20653:20985   */\n    tag_274:\n        /* \"#utility.yul\":20774:20778   */\n      0x00\n        /* \"#utility.yul\":20812:20814   */\n      0x40\n        /* \"#utility.yul\":20801:20810   */\n      dup3\n        /* \"#utility.yul\":20797:20815   */\n      add\n        /* \"#utility.yul\":20789:20815   */\n      swap1\n      pop\n        /* \"#utility.yul\":20825:20896   */\n      tag_627\n        /* \"#utility.yul\":20893:20894   */\n      0x00\n        /* \"#utility.yul\":20882:20891   */\n      dup4\n        /* \"#utility.yul\":20878:20895   */\n      add\n        /* \"#utility.yul\":20869:20875   */\n      dup6\n        /* \"#utility.yul\":20825:20896   */\n      tag_352\n      jump\t// in\n    tag_627:\n        /* \"#utility.yul\":20906:20978   */\n      tag_628\n        /* \"#utility.yul\":20974:20976   */\n      0x20\n        /* \"#utility.yul\":20963:20972   */\n      dup4\n        /* \"#utility.yul\":20959:20977   */\n      add\n        /* \"#utility.yul\":20950:20956   */\n      dup5\n        /* \"#utility.yul\":20906:20978   */\n      tag_355\n      jump\t// in\n    tag_628:\n        /* \"#utility.yul\":20653:20985   */\n      swap4\n      swap3\n      pop\n      pop\n      pop\n      jump\t// out\n        /* \"#utility.yul\":20991:21171   */\n    tag_306:\n        /* \"#utility.yul\":21039:21116   */\n      0x4e487b7100000000000000000000000000000000000000000000000000000000\n        /* \"#utility.yul\":21036:21037   */\n      0x00\n        /* \"#utility.yul\":21029:21117   */\n      mstore\n        /* \"#utility.yul\":21136:21140   */\n      0x12\n        /* \"#utility.yul\":21133:21134   */\n      0x04\n        /* \"#utility.yul\":21126:21141   */\n      mstore\n        /* \"#utility.yul\":21160:21164   */\n      0x24\n        /* \"#utility.yul\":21157:21158   */\n      0x00\n        /* \"#utility.yul\":21150:21165   */\n      revert\n\n    auxdata: 0xa26469706673582212202c8cf53db7adb802e31035e11e7c5130a9824ee4228f267ccdfd758f4d3df2dc64736f6c63430008190033\n}\n",
				"bytecode": {
					"linkReferences": {},
					"object": "608060405234801561000f575f80fd5b50604051612b9a380380612b9a83398181016040528101906100319190610266565b806040518060400160405280600781526020017f46756e67656573000000000000000000000000000000000000000000000000008152506040518060400160405280600381526020017f46756e0000000000000000000000000000000000000000000000000000000000815250815f90816100ac91906104cb565b5080600190816100bc91906104cb565b5050505f73ffffffffffffffffffffffffffffffffffffffff168173ffffffffffffffffffffffffffffffffffffffff160361012f575f6040517f1e4fbdf700000000000000000000000000000000000000000000000000000000815260040161012691906105a9565b60405180910390fd5b61013e8161014560201b60201c565b50506105c2565b5f60075f9054906101000a900473ffffffffffffffffffffffffffffffffffffffff1690508160075f6101000a81548173ffffffffffffffffffffffffffffffffffffffff021916908373ffffffffffffffffffffffffffffffffffffffff1602179055508173ffffffffffffffffffffffffffffffffffffffff168173ffffffffffffffffffffffffffffffffffffffff167f8be0079c531659141344cd1fd0a4f28419497f9722a3daafe3b4186f6b6457e060405160405180910390a35050565b5f80fd5b5f73ffffffffffffffffffffffffffffffffffffffff82169050919050565b5f6102358261020c565b9050919050565b6102458161022b565b811461024f575f80fd5b50565b5f815190506102608161023c565b92915050565b5f6020828403121561027b5761027a610208565b5b5f61028884828501610252565b91505092915050565b5f81519050919050565b7f4e487b71000000000000000000000000000000000000000000000000000000005f52604160045260245ffd5b7f4e487b71000000000000000000000000000000000000000000000000000000005f52602260045260245ffd5b5f600282049050600182168061030c57607f821691505b60208210810361031f5761031e6102c8565b5b50919050565b5f819050815f5260205f209050919050565b5f6020601f8301049050919050565b5f82821b905092915050565b5f600883026103817fffffffffffffffffffffffffffffffffffffffffffffffffffffffffffffffff82610346565b61038b8683610346565b95508019841693508086168417925050509392505050565b5f819050919050565b5f819050919050565b5f6103cf6103ca6103c5846103a3565b6103ac565b6103a3565b9050919050565b5f819050919050565b6103e8836103b5565b6103fc6103f4826103d6565b848454610352565b825550505050565b5f90565b610410610404565b61041b8184846103df565b505050565b5b8181101561043e576104335f82610408565b600181019050610421565b5050565b601f8211156104835761045481610325565b61045d84610337565b8101602085101561046c578190505b61048061047885610337565b830182610420565b50505b505050565b5f82821c905092915050565b5f6104a35f1984600802610488565b1980831691505092915050565b5f6104bb8383610494565b9150826002028217905092915050565b6104d482610291565b67ffffffffffffffff8111156104ed576104ec61029b565b5b6104f782546102f5565b610502828285610442565b5f60209050601f831160018114610533575f8415610521578287015190505b61052b85826104b0565b865550610592565b601f19841661054186610325565b5f5b8281101561056857848901518255600182019150602085019450602081019050610543565b868310156105855784890151610581601f891682610494565b8355505b6001600288020188555050505b505050505050565b6105a38161022b565b82525050565b5f6020820190506105bc5f83018461059a565b92915050565b6125cb806105cf5f395ff3fe608060405234801561000f575f80fd5b5060043610610114575f3560e01c8063715018a6116100a0578063b88d4fde1161006f578063b88d4fde146102c8578063c87b56dd146102e4578063d204c45e14610314578063e985e9c514610330578063f2fde38b1461036057610114565b8063715018a6146102665780638da5cb5b1461027057806395d89b411461028e578063a22cb465146102ac57610114565b806323b872dd116100e757806323b872dd146101b257806342842e0e146101ce57806342966c68146101ea5780636352211e1461020657806370a082311461023657610114565b806301ffc9a71461011857806306fdde0314610148578063081812fc14610166578063095ea7b314610196575b5f80fd5b610132600480360381019061012d9190611a9e565b61037c565b60405161013f9190611ae3565b60405180910390f35b61015061038d565b60405161015d9190611b6c565b60405180910390f35b610180600480360381019061017b9190611bbf565b61041c565b60405161018d9190611c29565b60405180910390f35b6101b060048036038101906101ab9190611c6c565b610437565b005b6101cc60048036038101906101c79190611caa565b61044d565b005b6101e860048036038101906101e39190611caa565b61054c565b005b61020460048036038101906101ff9190611bbf565b61056b565b005b610220600480360381019061021b9190611bbf565b610581565b60405161022d9190611c29565b60405180910390f35b610250600480360381019061024b9190611cfa565b610592565b60405161025d9190611d34565b60405180910390f35b61026e610648565b005b61027861065b565b6040516102859190611c29565b60405180910390f35b610296610683565b6040516102a39190611b6c565b60405180910390f35b6102c660048036038101906102c19190611d77565b610713565b005b6102e260048036038101906102dd9190611ee1565b610729565b005b6102fe60048036038101906102f99190611bbf565b610746565b60405161030b9190611b6c565b60405180910390f35b61032e60048036038101906103299190611fff565b610758565b005b61034a60048036038101906103459190612059565b610792565b6040516103579190611ae3565b60405180910390f35b61037a60048036038101906103759190611cfa565b610820565b005b5f610386826108a4565b9050919050565b60605f805461039b906120c4565b80601f01602080910402602001604051908101604052809291908181526020018280546103c7906120c4565b80156104125780601f106103e957610100808354040283529160200191610412565b820191905f5260205f20905b8154815290600101906020018083116103f557829003601f168201915b5050505050905090565b5f61042682610904565b506104308261098a565b9050919050565b61044982826104446109c3565b6109ca565b5050565b5f73ffffffffffffffffffffffffffffffffffffffff168273ffffffffffffffffffffffffffffffffffffffff16036104bd575f6040517f64a0ae920000000000000000000000000000000000000000000000000000000081526004016104b49190611c29565b60405180910390fd5b5f6104d083836104cb6109c3565b6109dc565b90508373ffffffffffffffffffffffffffffffffffffffff168173ffffffffffffffffffffffffffffffffffffffff1614610546578382826040517f64283d7b00000000000000000000000000000000000000000000000000000000815260040161053d939291906120f4565b60405180910390fd5b50505050565b61056683838360405180602001604052805f815250610729565b505050565b61057d5f826105786109c3565b6109dc565b5050565b5f61058b82610904565b9050919050565b5f8073ffffffffffffffffffffffffffffffffffffffff168273ffffffffffffffffffffffffffffffffffffffff1603610603575f6040517f89c62b640000000000000000000000000000000000000000000000000000000081526004016105fa9190611c29565b60405180910390fd5b60035f8373ffffffffffffffffffffffffffffffffffffffff1673ffffffffffffffffffffffffffffffffffffffff1681526020019081526020015f20549050919050565b610650610be7565b6106595f610c6e565b565b5f60075f9054906101000a900473ffffffffffffffffffffffffffffffffffffffff16905090565b606060018054610692906120c4565b80601f01602080910402602001604051908101604052809291908181526020018280546106be906120c4565b80156107095780601f106106e057610100808354040283529160200191610709565b820191905f5260205f20905b8154815290600101906020018083116106ec57829003601f168201915b5050505050905090565b61072561071e6109c3565b8383610d31565b5050565b61073484848461044d565b61074084848484610e9a565b50505050565b60606107518261104c565b9050919050565b610760610be7565b5f60085f81548092919061077390612156565b9190505590506107838382611157565b61078d8183611174565b505050565b5f60055f8473ffffffffffffffffffffffffffffffffffffffff1673ffffffffffffffffffffffffffffffffffffffff1681526020019081526020015f205f8373ffffffffffffffffffffffffffffffffffffffff1673ffffffffffffffffffffffffffffffffffffffff1681526020019081526020015f205f9054906101000a900460ff16905092915050565b610828610be7565b5f73ffffffffffffffffffffffffffffffffffffffff168173ffffffffffffffffffffffffffffffffffffffff1603610898575f6040517f1e4fbdf700000000000000000000000000000000000000000000000000000000815260040161088f9190611c29565b60405180910390fd5b6108a181610c6e565b50565b5f634906490660e01b7bffffffffffffffffffffffffffffffffffffffffffffffffffffffff1916827bffffffffffffffffffffffffffffffffffffffffffffffffffffffff191614806108fd57506108fc826111ce565b5b9050919050565b5f8061090f836112af565b90505f73ffffffffffffffffffffffffffffffffffffffff168173ffffffffffffffffffffffffffffffffffffffff160361098157826040517f7e2732890000000000000000000000000000000000000000000000000000000081526004016109789190611d34565b60405180910390fd5b80915050919050565b5f60045f8381526020019081526020015f205f9054906101000a900473ffffffffffffffffffffffffffffffffffffffff169050919050565b5f33905090565b6109d783838360016112e8565b505050565b5f806109e7846112af565b90505f73ffffffffffffffffffffffffffffffffffffffff168373ffffffffffffffffffffffffffffffffffffffff1614610a2857610a278184866114a7565b5b5f73ffffffffffffffffffffffffffffffffffffffff168173ffffffffffffffffffffffffffffffffffffffff1614610ab357610a675f855f806112e8565b600160035f8373ffffffffffffffffffffffffffffffffffffffff1673ffffffffffffffffffffffffffffffffffffffff1681526020019081526020015f205f82825403925050819055505b5f73ffffffffffffffffffffffffffffffffffffffff168573ffffffffffffffffffffffffffffffffffffffff1614610b3257600160035f8773ffffffffffffffffffffffffffffffffffffffff1673ffffffffffffffffffffffffffffffffffffffff1681526020019081526020015f205f82825401925050819055505b8460025f8681526020019081526020015f205f6101000a81548173ffffffffffffffffffffffffffffffffffffffff021916908373ffffffffffffffffffffffffffffffffffffffff160217905550838573ffffffffffffffffffffffffffffffffffffffff168273ffffffffffffffffffffffffffffffffffffffff167fddf252ad1be2c89b69c2b068fc378daa952ba7f163c4a11628f55a4df523b3ef60405160405180910390a4809150509392505050565b610bef6109c3565b73ffffffffffffffffffffffffffffffffffffffff16610c0d61065b565b73ffffffffffffffffffffffffffffffffffffffff1614610c6c57610c306109c3565b6040517f118cdaa7000000000000000000000000000000000000000000000000000000008152600401610c639190611c29565b60405180910390fd5b565b5f60075f9054906101000a900473ffffffffffffffffffffffffffffffffffffffff1690508160075f6101000a81548173ffffffffffffffffffffffffffffffffffffffff021916908373ffffffffffffffffffffffffffffffffffffffff1602179055508173ffffffffffffffffffffffffffffffffffffffff168173ffffffffffffffffffffffffffffffffffffffff167f8be0079c531659141344cd1fd0a4f28419497f9722a3daafe3b4186f6b6457e060405160405180910390a35050565b5f73ffffffffffffffffffffffffffffffffffffffff168273ffffffffffffffffffffffffffffffffffffffff1603610da157816040517f5b08ba18000000000000000000000000000000000000000000000000000000008152600401610d989190611c29565b60405180910390fd5b8060055f8573ffffffffffffffffffffffffffffffffffffffff1673ffffffffffffffffffffffffffffffffffffffff1681526020019081526020015f205f8473ffffffffffffffffffffffffffffffffffffffff1673ffffffffffffffffffffffffffffffffffffffff1681526020019081526020015f205f6101000a81548160ff0219169083151502179055508173ffffffffffffffffffffffffffffffffffffffff168373ffffffffffffffffffffffffffffffffffffffff167f17307eab39ab6107e8899845ad3d59bd9653f200f220920489ca2b5937696c3183604051610e8d9190611ae3565b60405180910390a3505050565b5f8373ffffffffffffffffffffffffffffffffffffffff163b1115611046578273ffffffffffffffffffffffffffffffffffffffff1663150b7a02610edd6109c3565b8685856040518563ffffffff1660e01b8152600401610eff94939291906121ef565b6020604051808303815f875af1925050508015610f3a57506040513d601f19601f82011682018060405250810190610f37919061224d565b60015b610fbb573d805f8114610f68576040519150601f19603f3d011682016040523d82523d5f602084013e610f6d565b606091505b505f815103610fb357836040517f64a0ae92000000000000000000000000000000000000000000000000000000008152600401610faa9190611c29565b60405180910390fd5b805181602001fd5b63150b7a0260e01b7bffffffffffffffffffffffffffffffffffffffffffffffffffffffff1916817bffffffffffffffffffffffffffffffffffffffffffffffffffffffff19161461104457836040517f64a0ae9200000000000000000000000000000000000000000000000000000000815260040161103b9190611c29565b60405180910390fd5b505b50505050565b606061105782610904565b505f60065f8481526020019081526020015f208054611075906120c4565b80601f01602080910402602001604051908101604052809291908181526020018280546110a1906120c4565b80156110ec5780601f106110c3576101008083540402835291602001916110ec565b820191905f5260205f20905b8154815290600101906020018083116110cf57829003601f168201915b505050505090505f6110fc61156a565b90505f815103611110578192505050611152565b5f8251111561114457808260405160200161112c9291906122b2565b60405160208183030381529060405292505050611152565b61114d84611580565b925050505b919050565b611170828260405180602001604052805f8152506115e6565b5050565b8060065f8481526020019081526020015f2090816111929190612472565b507ff8e1a15aba9398e019f0b49df1a4fde98ee17ae345cb5f6b5e2c27f5033e8ce7826040516111c29190611d34565b60405180910390a15050565b5f7f80ac58cd000000000000000000000000000000000000000000000000000000007bffffffffffffffffffffffffffffffffffffffffffffffffffffffff1916827bffffffffffffffffffffffffffffffffffffffffffffffffffffffff1916148061129857507f5b5e139f000000000000000000000000000000000000000000000000000000007bffffffffffffffffffffffffffffffffffffffffffffffffffffffff1916827bffffffffffffffffffffffffffffffffffffffffffffffffffffffff1916145b806112a857506112a782611601565b5b9050919050565b5f60025f8381526020019081526020015f205f9054906101000a900473ffffffffffffffffffffffffffffffffffffffff169050919050565b808061132057505f73ffffffffffffffffffffffffffffffffffffffff168273ffffffffffffffffffffffffffffffffffffffff1614155b15611452575f61132f84610904565b90505f73ffffffffffffffffffffffffffffffffffffffff168373ffffffffffffffffffffffffffffffffffffffff161415801561139957508273ffffffffffffffffffffffffffffffffffffffff168173ffffffffffffffffffffffffffffffffffffffff1614155b80156113ac57506113aa8184610792565b155b156113ee57826040517fa9fbf51f0000000000000000000000000000000000000000000000000000000081526004016113e59190611c29565b60405180910390fd5b811561145057838573ffffffffffffffffffffffffffffffffffffffff168273ffffffffffffffffffffffffffffffffffffffff167f8c5be1e5ebec7d5bd14f71427d1e84f3dd0314c0f7b2291e5b200ac8c7c3b92560405160405180910390a45b505b8360045f8581526020019081526020015f205f6101000a81548173ffffffffffffffffffffffffffffffffffffffff021916908373ffffffffffffffffffffffffffffffffffffffff16021790555050505050565b6114b283838361166a565b611565575f73ffffffffffffffffffffffffffffffffffffffff168373ffffffffffffffffffffffffffffffffffffffff160361152657806040517f7e27328900000000000000000000000000000000000000000000000000000000815260040161151d9190611d34565b60405180910390fd5b81816040517f177e802f00000000000000000000000000000000000000000000000000000000815260040161155c929190612541565b60405180910390fd5b505050565b606060405180602001604052805f815250905090565b606061158b82610904565b505f61159561156a565b90505f8151116115b35760405180602001604052805f8152506115de565b806115bd8461172a565b6040516020016115ce9291906122b2565b6040516020818303038152906040525b915050919050565b6115f083836117f4565b6115fc5f848484610e9a565b505050565b5f7f01ffc9a7000000000000000000000000000000000000000000000000000000007bffffffffffffffffffffffffffffffffffffffffffffffffffffffff1916827bffffffffffffffffffffffffffffffffffffffffffffffffffffffff1916149050919050565b5f8073ffffffffffffffffffffffffffffffffffffffff168373ffffffffffffffffffffffffffffffffffffffff161415801561172157508273ffffffffffffffffffffffffffffffffffffffff168473ffffffffffffffffffffffffffffffffffffffff1614806116e257506116e18484610792565b5b8061172057508273ffffffffffffffffffffffffffffffffffffffff166117088361098a565b73ffffffffffffffffffffffffffffffffffffffff16145b5b90509392505050565b60605f6001611738846118e7565b0190505f8167ffffffffffffffff81111561175657611755611dbd565b5b6040519080825280601f01601f1916602001820160405280156117885781602001600182028036833780820191505090505b5090505f82602001820190505b6001156117e9578080600190039150507f3031323334353637383961626364656600000000000000000000000000000000600a86061a8153600a85816117de576117dd612568565b5b0494505f8503611795575b819350505050919050565b5f73ffffffffffffffffffffffffffffffffffffffff168273ffffffffffffffffffffffffffffffffffffffff1603611864575f6040517f64a0ae9200000000000000000000000000000000000000000000000000000000815260040161185b9190611c29565b60405180910390fd5b5f61187083835f6109dc565b90505f73ffffffffffffffffffffffffffffffffffffffff168173ffffffffffffffffffffffffffffffffffffffff16146118e2575f6040517f73c6ac6e0000000000000000000000000000000000000000000000000000000081526004016118d99190611c29565b60405180910390fd5b505050565b5f805f90507a184f03e93ff9f4daa797ed6e38ed64bf6a1f0100000000000000008310611943577a184f03e93ff9f4daa797ed6e38ed64bf6a1f010000000000000000838161193957611938612568565b5b0492506040810190505b6d04ee2d6d415b85acef81000000008310611980576d04ee2d6d415b85acef8100000000838161197657611975612568565b5b0492506020810190505b662386f26fc1000083106119af57662386f26fc1000083816119a5576119a4612568565b5b0492506010810190505b6305f5e10083106119d8576305f5e10083816119ce576119cd612568565b5b0492506008810190505b61271083106119fd5761271083816119f3576119f2612568565b5b0492506004810190505b60648310611a205760648381611a1657611a15612568565b5b0492506002810190505b600a8310611a2f576001810190505b80915050919050565b5f604051905090565b5f80fd5b5f80fd5b5f7fffffffff0000000000000000000000000000000000000000000000000000000082169050919050565b611a7d81611a49565b8114611a87575f80fd5b50565b5f81359050611a9881611a74565b92915050565b5f60208284031215611ab357611ab2611a41565b5b5f611ac084828501611a8a565b91505092915050565b5f8115159050919050565b611add81611ac9565b82525050565b5f602082019050611af65f830184611ad4565b92915050565b5f81519050919050565b5f82825260208201905092915050565b8281835e5f83830152505050565b5f601f19601f8301169050919050565b5f611b3e82611afc565b611b488185611b06565b9350611b58818560208601611b16565b611b6181611b24565b840191505092915050565b5f6020820190508181035f830152611b848184611b34565b905092915050565b5f819050919050565b611b9e81611b8c565b8114611ba8575f80fd5b50565b5f81359050611bb981611b95565b92915050565b5f60208284031215611bd457611bd3611a41565b5b5f611be184828501611bab565b91505092915050565b5f73ffffffffffffffffffffffffffffffffffffffff82169050919050565b5f611c1382611bea565b9050919050565b611c2381611c09565b82525050565b5f602082019050611c3c5f830184611c1a565b92915050565b611c4b81611c09565b8114611c55575f80fd5b50565b5f81359050611c6681611c42565b92915050565b5f8060408385031215611c8257611c81611a41565b5b5f611c8f85828601611c58565b9250506020611ca085828601611bab565b9150509250929050565b5f805f60608486031215611cc157611cc0611a41565b5b5f611cce86828701611c58565b9350506020611cdf86828701611c58565b9250506040611cf086828701611bab565b9150509250925092565b5f60208284031215611d0f57611d0e611a41565b5b5f611d1c84828501611c58565b91505092915050565b611d2e81611b8c565b82525050565b5f602082019050611d475f830184611d25565b92915050565b611d5681611ac9565b8114611d60575f80fd5b50565b5f81359050611d7181611d4d565b92915050565b5f8060408385031215611d8d57611d8c611a41565b5b5f611d9a85828601611c58565b9250506020611dab85828601611d63565b9150509250929050565b5f80fd5b5f80fd5b7f4e487b71000000000000000000000000000000000000000000000000000000005f52604160045260245ffd5b611df382611b24565b810181811067ffffffffffffffff82111715611e1257611e11611dbd565b5b80604052505050565b5f611e24611a38565b9050611e308282611dea565b919050565b5f67ffffffffffffffff821115611e4f57611e4e611dbd565b5b611e5882611b24565b9050602081019050919050565b828183375f83830152505050565b5f611e85611e8084611e35565b611e1b565b905082815260208101848484011115611ea157611ea0611db9565b5b611eac848285611e65565b509392505050565b5f82601f830112611ec857611ec7611db5565b5b8135611ed8848260208601611e73565b91505092915050565b5f805f8060808587031215611ef957611ef8611a41565b5b5f611f0687828801611c58565b9450506020611f1787828801611c58565b9350506040611f2887828801611bab565b925050606085013567ffffffffffffffff811115611f4957611f48611a45565b5b611f5587828801611eb4565b91505092959194509250565b5f67ffffffffffffffff821115611f7b57611f7a611dbd565b5b611f8482611b24565b9050602081019050919050565b5f611fa3611f9e84611f61565b611e1b565b905082815260208101848484011115611fbf57611fbe611db9565b5b611fca848285611e65565b509392505050565b5f82601f830112611fe657611fe5611db5565b5b8135611ff6848260208601611f91565b91505092915050565b5f806040838503121561201557612014611a41565b5b5f61202285828601611c58565b925050602083013567ffffffffffffffff81111561204357612042611a45565b5b61204f85828601611fd2565b9150509250929050565b5f806040838503121561206f5761206e611a41565b5b5f61207c85828601611c58565b925050602061208d85828601611c58565b9150509250929050565b7f4e487b71000000000000000000000000000000000000000000000000000000005f52602260045260245ffd5b5f60028204905060018216806120db57607f821691505b6020821081036120ee576120ed612097565b5b50919050565b5f6060820190506121075f830186611c1a565b6121146020830185611d25565b6121216040830184611c1a565b949350505050565b7f4e487b71000000000000000000000000000000000000000000000000000000005f52601160045260245ffd5b5f61216082611b8c565b91507fffffffffffffffffffffffffffffffffffffffffffffffffffffffffffffffff820361219257612191612129565b5b600182019050919050565b5f81519050919050565b5f82825260208201905092915050565b5f6121c18261219d565b6121cb81856121a7565b93506121db818560208601611b16565b6121e481611b24565b840191505092915050565b5f6080820190506122025f830187611c1a565b61220f6020830186611c1a565b61221c6040830185611d25565b818103606083015261222e81846121b7565b905095945050505050565b5f8151905061224781611a74565b92915050565b5f6020828403121561226257612261611a41565b5b5f61226f84828501612239565b91505092915050565b5f81905092915050565b5f61228c82611afc565b6122968185612278565b93506122a6818560208601611b16565b80840191505092915050565b5f6122bd8285612282565b91506122c98284612282565b91508190509392505050565b5f819050815f5260205f209050919050565b5f6020601f8301049050919050565b5f82821b905092915050565b5f600883026123317fffffffffffffffffffffffffffffffffffffffffffffffffffffffffffffffff826122f6565b61233b86836122f6565b95508019841693508086168417925050509392505050565b5f819050919050565b5f61237661237161236c84611b8c565b612353565b611b8c565b9050919050565b5f819050919050565b61238f8361235c565b6123a361239b8261237d565b848454612302565b825550505050565b5f90565b6123b76123ab565b6123c2818484612386565b505050565b5b818110156123e5576123da5f826123af565b6001810190506123c8565b5050565b601f82111561242a576123fb816122d5565b612404846122e7565b81016020851015612413578190505b61242761241f856122e7565b8301826123c7565b50505b505050565b5f82821c905092915050565b5f61244a5f198460080261242f565b1980831691505092915050565b5f612462838361243b565b9150826002028217905092915050565b61247b82611afc565b67ffffffffffffffff81111561249457612493611dbd565b5b61249e82546120c4565b6124a98282856123e9565b5f60209050601f8311600181146124da575f84156124c8578287015190505b6124d28582612457565b865550612539565b601f1984166124e8866122d5565b5f5b8281101561250f578489015182556001820191506020850194506020810190506124ea565b8683101561252c5784890151612528601f89168261243b565b8355505b6001600288020188555050505b505050505050565b5f6040820190506125545f830185611c1a565b6125616020830184611d25565b9392505050565b7f4e487b71000000000000000000000000000000000000000000000000000000005f52601260045260245ffdfea26469706673582212202c8cf53db7adb802e31035e11e7c5130a9824ee4228f267ccdfd758f4d3df2dc64736f6c63430008190033",
					"opcodes": "PUSH1 0x80 PUSH1 0x40 MSTORE CALLVALUE DUP1 ISZERO PUSH2 0xF JUMPI PUSH0 DUP1 REVERT JUMPDEST POP PUSH1 0x40 MLOAD PUSH2 0x2B9A CODESIZE SUB DUP1 PUSH2 0x2B9A DUP4 CODECOPY DUP2 DUP2 ADD PUSH1 0x40 MSTORE DUP2 ADD SWAP1 PUSH2 0x31 SWAP2 SWAP1 PUSH2 0x266 JUMP JUMPDEST DUP1 PUSH1 0x40 MLOAD DUP1 PUSH1 0x40 ADD PUSH1 0x40 MSTORE DUP1 PUSH1 0x7 DUP2 MSTORE PUSH1 0x20 ADD PUSH32 0x46756E6765657300000000000000000000000000000000000000000000000000 DUP2 MSTORE POP PUSH1 0x40 MLOAD DUP1 PUSH1 0x40 ADD PUSH1 0x40 MSTORE DUP1 PUSH1 0x3 DUP2 MSTORE PUSH1 0x20 ADD PUSH32 0x46756E0000000000000000000000000000000000000000000000000000000000 DUP2 MSTORE POP DUP2 PUSH0 SWAP1 DUP2 PUSH2 0xAC SWAP2 SWAP1 PUSH2 0x4CB JUMP JUMPDEST POP DUP1 PUSH1 0x1 SWAP1 DUP2 PUSH2 0xBC SWAP2 SWAP1 PUSH2 0x4CB JUMP JUMPDEST POP POP POP PUSH0 PUSH20 0xFFFFFFFFFFFFFFFFFFFFFFFFFFFFFFFFFFFFFFFF AND DUP2 PUSH20 0xFFFFFFFFFFFFFFFFFFFFFFFFFFFFFFFFFFFFFFFF AND SUB PUSH2 0x12F JUMPI PUSH0 PUSH1 0x40 MLOAD PUSH32 0x1E4FBDF700000000000000000000000000000000000000000000000000000000 DUP2 MSTORE PUSH1 0x4 ADD PUSH2 0x126 SWAP2 SWAP1 PUSH2 0x5A9 JUMP JUMPDEST PUSH1 0x40 MLOAD DUP1 SWAP2 SUB SWAP1 REVERT JUMPDEST PUSH2 0x13E DUP2 PUSH2 0x145 PUSH1 0x20 SHL PUSH1 0x20 SHR JUMP JUMPDEST POP POP PUSH2 0x5C2 JUMP JUMPDEST PUSH0 PUSH1 0x7 PUSH0 SWAP1 SLOAD SWAP1 PUSH2 0x100 EXP SWAP1 DIV PUSH20 0xFFFFFFFFFFFFFFFFFFFFFFFFFFFFFFFFFFFFFFFF AND SWAP1 POP DUP2 PUSH1 0x7 PUSH0 PUSH2 0x100 EXP DUP2 SLOAD DUP2 PUSH20 0xFFFFFFFFFFFFFFFFFFFFFFFFFFFFFFFFFFFFFFFF MUL NOT AND SWAP1 DUP4 PUSH20 0xFFFFFFFFFFFFFFFFFFFFFFFFFFFFFFFFFFFFFFFF AND MUL OR SWAP1 SSTORE POP DUP2 PUSH20 0xFFFFFFFFFFFFFFFFFFFFFFFFFFFFFFFFFFFFFFFF AND DUP2 PUSH20 0xFFFFFFFFFFFFFFFFFFFFFFFFFFFFFFFFFFFFFFFF AND PUSH32 0x8BE0079C531659141344CD1FD0A4F28419497F9722A3DAAFE3B4186F6B6457E0 PUSH1 0x40 MLOAD PUSH1 0x40 MLOAD DUP1 SWAP2 SUB SWAP1 LOG3 POP POP JUMP JUMPDEST PUSH0 DUP1 REVERT JUMPDEST PUSH0 PUSH20 0xFFFFFFFFFFFFFFFFFFFFFFFFFFFFFFFFFFFFFFFF DUP3 AND SWAP1 POP SWAP2 SWAP1 POP JUMP JUMPDEST PUSH0 PUSH2 0x235 DUP3 PUSH2 0x20C JUMP JUMPDEST SWAP1 POP SWAP2 SWAP1 POP JUMP JUMPDEST PUSH2 0x245 DUP2 PUSH2 0x22B JUMP JUMPDEST DUP2 EQ PUSH2 0x24F JUMPI PUSH0 DUP1 REVERT JUMPDEST POP JUMP JUMPDEST PUSH0 DUP2 MLOAD SWAP1 POP PUSH2 0x260 DUP2 PUSH2 0x23C JUMP JUMPDEST SWAP3 SWAP2 POP POP JUMP JUMPDEST PUSH0 PUSH1 0x20 DUP3 DUP5 SUB SLT ISZERO PUSH2 0x27B JUMPI PUSH2 0x27A PUSH2 0x208 JUMP JUMPDEST JUMPDEST PUSH0 PUSH2 0x288 DUP5 DUP3 DUP6 ADD PUSH2 0x252 JUMP JUMPDEST SWAP2 POP POP SWAP3 SWAP2 POP POP JUMP JUMPDEST PUSH0 DUP2 MLOAD SWAP1 POP SWAP2 SWAP1 POP JUMP JUMPDEST PUSH32 0x4E487B7100000000000000000000000000000000000000000000000000000000 PUSH0 MSTORE PUSH1 0x41 PUSH1 0x4 MSTORE PUSH1 0x24 PUSH0 REVERT JUMPDEST PUSH32 0x4E487B7100000000000000000000000000000000000000000000000000000000 PUSH0 MSTORE PUSH1 0x22 PUSH1 0x4 MSTORE PUSH1 0x24 PUSH0 REVERT JUMPDEST PUSH0 PUSH1 0x2 DUP3 DIV SWAP1 POP PUSH1 0x1 DUP3 AND DUP1 PUSH2 0x30C JUMPI PUSH1 0x7F DUP3 AND SWAP2 POP JUMPDEST PUSH1 0x20 DUP3 LT DUP2 SUB PUSH2 0x31F JUMPI PUSH2 0x31E PUSH2 0x2C8 JUMP JUMPDEST JUMPDEST POP SWAP2 SWAP1 POP JUMP JUMPDEST PUSH0 DUP2 SWAP1 POP DUP2 PUSH0 MSTORE PUSH1 0x20 PUSH0 KECCAK256 SWAP1 POP SWAP2 SWAP1 POP JUMP JUMPDEST PUSH0 PUSH1 0x20 PUSH1 0x1F DUP4 ADD DIV SWAP1 POP SWAP2 SWAP1 POP JUMP JUMPDEST PUSH0 DUP3 DUP3 SHL SWAP1 POP SWAP3 SWAP2 POP POP JUMP JUMPDEST PUSH0 PUSH1 0x8 DUP4 MUL PUSH2 0x381 PUSH32 0xFFFFFFFFFFFFFFFFFFFFFFFFFFFFFFFFFFFFFFFFFFFFFFFFFFFFFFFFFFFFFFFF DUP3 PUSH2 0x346 JUMP JUMPDEST PUSH2 0x38B DUP7 DUP4 PUSH2 0x346 JUMP JUMPDEST SWAP6 POP DUP1 NOT DUP5 AND SWAP4 POP DUP1 DUP7 AND DUP5 OR SWAP3 POP POP POP SWAP4 SWAP3 POP POP POP JUMP JUMPDEST PUSH0 DUP2 SWAP1 POP SWAP2 SWAP1 POP JUMP JUMPDEST PUSH0 DUP2 SWAP1 POP SWAP2 SWAP1 POP JUMP JUMPDEST PUSH0 PUSH2 0x3CF PUSH2 0x3CA PUSH2 0x3C5 DUP5 PUSH2 0x3A3 JUMP JUMPDEST PUSH2 0x3AC JUMP JUMPDEST PUSH2 0x3A3 JUMP JUMPDEST SWAP1 POP SWAP2 SWAP1 POP JUMP JUMPDEST PUSH0 DUP2 SWAP1 POP SWAP2 SWAP1 POP JUMP JUMPDEST PUSH2 0x3E8 DUP4 PUSH2 0x3B5 JUMP JUMPDEST PUSH2 0x3FC PUSH2 0x3F4 DUP3 PUSH2 0x3D6 JUMP JUMPDEST DUP5 DUP5 SLOAD PUSH2 0x352 JUMP JUMPDEST DUP3 SSTORE POP POP POP POP JUMP JUMPDEST PUSH0 SWAP1 JUMP JUMPDEST PUSH2 0x410 PUSH2 0x404 JUMP JUMPDEST PUSH2 0x41B DUP2 DUP5 DUP5 PUSH2 0x3DF JUMP JUMPDEST POP POP POP JUMP JUMPDEST JUMPDEST DUP2 DUP2 LT ISZERO PUSH2 0x43E JUMPI PUSH2 0x433 PUSH0 DUP3 PUSH2 0x408 JUMP JUMPDEST PUSH1 0x1 DUP2 ADD SWAP1 POP PUSH2 0x421 JUMP JUMPDEST POP POP JUMP JUMPDEST PUSH1 0x1F DUP3 GT ISZERO PUSH2 0x483 JUMPI PUSH2 0x454 DUP2 PUSH2 0x325 JUMP JUMPDEST PUSH2 0x45D DUP5 PUSH2 0x337 JUMP JUMPDEST DUP2 ADD PUSH1 0x20 DUP6 LT ISZERO PUSH2 0x46C JUMPI DUP2 SWAP1 POP JUMPDEST PUSH2 0x480 PUSH2 0x478 DUP6 PUSH2 0x337 JUMP JUMPDEST DUP4 ADD DUP3 PUSH2 0x420 JUMP JUMPDEST POP POP JUMPDEST POP POP POP JUMP JUMPDEST PUSH0 DUP3 DUP3 SHR SWAP1 POP SWAP3 SWAP2 POP POP JUMP JUMPDEST PUSH0 PUSH2 0x4A3 PUSH0 NOT DUP5 PUSH1 0x8 MUL PUSH2 0x488 JUMP JUMPDEST NOT DUP1 DUP4 AND SWAP2 POP POP SWAP3 SWAP2 POP POP JUMP JUMPDEST PUSH0 PUSH2 0x4BB DUP4 DUP4 PUSH2 0x494 JUMP JUMPDEST SWAP2 POP DUP3 PUSH1 0x2 MUL DUP3 OR SWAP1 POP SWAP3 SWAP2 POP POP JUMP JUMPDEST PUSH2 0x4D4 DUP3 PUSH2 0x291 JUMP JUMPDEST PUSH8 0xFFFFFFFFFFFFFFFF DUP2 GT ISZERO PUSH2 0x4ED JUMPI PUSH2 0x4EC PUSH2 0x29B JUMP JUMPDEST JUMPDEST PUSH2 0x4F7 DUP3 SLOAD PUSH2 0x2F5 JUMP JUMPDEST PUSH2 0x502 DUP3 DUP3 DUP6 PUSH2 0x442 JUMP JUMPDEST PUSH0 PUSH1 0x20 SWAP1 POP PUSH1 0x1F DUP4 GT PUSH1 0x1 DUP2 EQ PUSH2 0x533 JUMPI PUSH0 DUP5 ISZERO PUSH2 0x521 JUMPI DUP3 DUP8 ADD MLOAD SWAP1 POP JUMPDEST PUSH2 0x52B DUP6 DUP3 PUSH2 0x4B0 JUMP JUMPDEST DUP7 SSTORE POP PUSH2 0x592 JUMP JUMPDEST PUSH1 0x1F NOT DUP5 AND PUSH2 0x541 DUP7 PUSH2 0x325 JUMP JUMPDEST PUSH0 JUMPDEST DUP3 DUP2 LT ISZERO PUSH2 0x568 JUMPI DUP5 DUP10 ADD MLOAD DUP3 SSTORE PUSH1 0x1 DUP3 ADD SWAP2 POP PUSH1 0x20 DUP6 ADD SWAP5 POP PUSH1 0x20 DUP2 ADD SWAP1 POP PUSH2 0x543 JUMP JUMPDEST DUP7 DUP4 LT ISZERO PUSH2 0x585 JUMPI DUP5 DUP10 ADD MLOAD PUSH2 0x581 PUSH1 0x1F DUP10 AND DUP3 PUSH2 0x494 JUMP JUMPDEST DUP4 SSTORE POP JUMPDEST PUSH1 0x1 PUSH1 0x2 DUP9 MUL ADD DUP9 SSTORE POP POP POP JUMPDEST POP POP POP POP POP POP JUMP JUMPDEST PUSH2 0x5A3 DUP2 PUSH2 0x22B JUMP JUMPDEST DUP3 MSTORE POP POP JUMP JUMPDEST PUSH0 PUSH1 0x20 DUP3 ADD SWAP1 POP PUSH2 0x5BC PUSH0 DUP4 ADD DUP5 PUSH2 0x59A JUMP JUMPDEST SWAP3 SWAP2 POP POP JUMP JUMPDEST PUSH2 0x25CB DUP1 PUSH2 0x5CF PUSH0 CODECOPY PUSH0 RETURN INVALID PUSH1 0x80 PUSH1 0x40 MSTORE CALLVALUE DUP1 ISZERO PUSH2 0xF JUMPI PUSH0 DUP1 REVERT JUMPDEST POP PUSH1 0x4 CALLDATASIZE LT PUSH2 0x114 JUMPI PUSH0 CALLDATALOAD PUSH1 0xE0 SHR DUP1 PUSH4 0x715018A6 GT PUSH2 0xA0 JUMPI DUP1 PUSH4 0xB88D4FDE GT PUSH2 0x6F JUMPI DUP1 PUSH4 0xB88D4FDE EQ PUSH2 0x2C8 JUMPI DUP1 PUSH4 0xC87B56DD EQ PUSH2 0x2E4 JUMPI DUP1 PUSH4 0xD204C45E EQ PUSH2 0x314 JUMPI DUP1 PUSH4 0xE985E9C5 EQ PUSH2 0x330 JUMPI DUP1 PUSH4 0xF2FDE38B EQ PUSH2 0x360 JUMPI PUSH2 0x114 JUMP JUMPDEST DUP1 PUSH4 0x715018A6 EQ PUSH2 0x266 JUMPI DUP1 PUSH4 0x8DA5CB5B EQ PUSH2 0x270 JUMPI DUP1 PUSH4 0x95D89B41 EQ PUSH2 0x28E JUMPI DUP1 PUSH4 0xA22CB465 EQ PUSH2 0x2AC JUMPI PUSH2 0x114 JUMP JUMPDEST DUP1 PUSH4 0x23B872DD GT PUSH2 0xE7 JUMPI DUP1 PUSH4 0x23B872DD EQ PUSH2 0x1B2 JUMPI DUP1 PUSH4 0x42842E0E EQ PUSH2 0x1CE JUMPI DUP1 PUSH4 0x42966C68 EQ PUSH2 0x1EA JUMPI DUP1 PUSH4 0x6352211E EQ PUSH2 0x206 JUMPI DUP1 PUSH4 0x70A08231 EQ PUSH2 0x236 JUMPI PUSH2 0x114 JUMP JUMPDEST DUP1 PUSH4 0x1FFC9A7 EQ PUSH2 0x118 JUMPI DUP1 PUSH4 0x6FDDE03 EQ PUSH2 0x148 JUMPI DUP1 PUSH4 0x81812FC EQ PUSH2 0x166 JUMPI DUP1 PUSH4 0x95EA7B3 EQ PUSH2 0x196 JUMPI JUMPDEST PUSH0 DUP1 REVERT JUMPDEST PUSH2 0x132 PUSH1 0x4 DUP1 CALLDATASIZE SUB DUP2 ADD SWAP1 PUSH2 0x12D SWAP2 SWAP1 PUSH2 0x1A9E JUMP JUMPDEST PUSH2 0x37C JUMP JUMPDEST PUSH1 0x40 MLOAD PUSH2 0x13F SWAP2 SWAP1 PUSH2 0x1AE3 JUMP JUMPDEST PUSH1 0x40 MLOAD DUP1 SWAP2 SUB SWAP1 RETURN JUMPDEST PUSH2 0x150 PUSH2 0x38D JUMP JUMPDEST PUSH1 0x40 MLOAD PUSH2 0x15D SWAP2 SWAP1 PUSH2 0x1B6C JUMP JUMPDEST PUSH1 0x40 MLOAD DUP1 SWAP2 SUB SWAP1 RETURN JUMPDEST PUSH2 0x180 PUSH1 0x4 DUP1 CALLDATASIZE SUB DUP2 ADD SWAP1 PUSH2 0x17B SWAP2 SWAP1 PUSH2 0x1BBF JUMP JUMPDEST PUSH2 0x41C JUMP JUMPDEST PUSH1 0x40 MLOAD PUSH2 0x18D SWAP2 SWAP1 PUSH2 0x1C29 JUMP JUMPDEST PUSH1 0x40 MLOAD DUP1 SWAP2 SUB SWAP1 RETURN JUMPDEST PUSH2 0x1B0 PUSH1 0x4 DUP1 CALLDATASIZE SUB DUP2 ADD SWAP1 PUSH2 0x1AB SWAP2 SWAP1 PUSH2 0x1C6C JUMP JUMPDEST PUSH2 0x437 JUMP JUMPDEST STOP JUMPDEST PUSH2 0x1CC PUSH1 0x4 DUP1 CALLDATASIZE SUB DUP2 ADD SWAP1 PUSH2 0x1C7 SWAP2 SWAP1 PUSH2 0x1CAA JUMP JUMPDEST PUSH2 0x44D JUMP JUMPDEST STOP JUMPDEST PUSH2 0x1E8 PUSH1 0x4 DUP1 CALLDATASIZE SUB DUP2 ADD SWAP1 PUSH2 0x1E3 SWAP2 SWAP1 PUSH2 0x1CAA JUMP JUMPDEST PUSH2 0x54C JUMP JUMPDEST STOP JUMPDEST PUSH2 0x204 PUSH1 0x4 DUP1 CALLDATASIZE SUB DUP2 ADD SWAP1 PUSH2 0x1FF SWAP2 SWAP1 PUSH2 0x1BBF JUMP JUMPDEST PUSH2 0x56B JUMP JUMPDEST STOP JUMPDEST PUSH2 0x220 PUSH1 0x4 DUP1 CALLDATASIZE SUB DUP2 ADD SWAP1 PUSH2 0x21B SWAP2 SWAP1 PUSH2 0x1BBF JUMP JUMPDEST PUSH2 0x581 JUMP JUMPDEST PUSH1 0x40 MLOAD PUSH2 0x22D SWAP2 SWAP1 PUSH2 0x1C29 JUMP JUMPDEST PUSH1 0x40 MLOAD DUP1 SWAP2 SUB SWAP1 RETURN JUMPDEST PUSH2 0x250 PUSH1 0x4 DUP1 CALLDATASIZE SUB DUP2 ADD SWAP1 PUSH2 0x24B SWAP2 SWAP1 PUSH2 0x1CFA JUMP JUMPDEST PUSH2 0x592 JUMP JUMPDEST PUSH1 0x40 MLOAD PUSH2 0x25D SWAP2 SWAP1 PUSH2 0x1D34 JUMP JUMPDEST PUSH1 0x40 MLOAD DUP1 SWAP2 SUB SWAP1 RETURN JUMPDEST PUSH2 0x26E PUSH2 0x648 JUMP JUMPDEST STOP JUMPDEST PUSH2 0x278 PUSH2 0x65B JUMP JUMPDEST PUSH1 0x40 MLOAD PUSH2 0x285 SWAP2 SWAP1 PUSH2 0x1C29 JUMP JUMPDEST PUSH1 0x40 MLOAD DUP1 SWAP2 SUB SWAP1 RETURN JUMPDEST PUSH2 0x296 PUSH2 0x683 JUMP JUMPDEST PUSH1 0x40 MLOAD PUSH2 0x2A3 SWAP2 SWAP1 PUSH2 0x1B6C JUMP JUMPDEST PUSH1 0x40 MLOAD DUP1 SWAP2 SUB SWAP1 RETURN JUMPDEST PUSH2 0x2C6 PUSH1 0x4 DUP1 CALLDATASIZE SUB DUP2 ADD SWAP1 PUSH2 0x2C1 SWAP2 SWAP1 PUSH2 0x1D77 JUMP JUMPDEST PUSH2 0x713 JUMP JUMPDEST STOP JUMPDEST PUSH2 0x2E2 PUSH1 0x4 DUP1 CALLDATASIZE SUB DUP2 ADD SWAP1 PUSH2 0x2DD SWAP2 SWAP1 PUSH2 0x1EE1 JUMP JUMPDEST PUSH2 0x729 JUMP JUMPDEST STOP JUMPDEST PUSH2 0x2FE PUSH1 0x4 DUP1 CALLDATASIZE SUB DUP2 ADD SWAP1 PUSH2 0x2F9 SWAP2 SWAP1 PUSH2 0x1BBF JUMP JUMPDEST PUSH2 0x746 JUMP JUMPDEST PUSH1 0x40 MLOAD PUSH2 0x30B SWAP2 SWAP1 PUSH2 0x1B6C JUMP JUMPDEST PUSH1 0x40 MLOAD DUP1 SWAP2 SUB SWAP1 RETURN JUMPDEST PUSH2 0x32E PUSH1 0x4 DUP1 CALLDATASIZE SUB DUP2 ADD SWAP1 PUSH2 0x329 SWAP2 SWAP1 PUSH2 0x1FFF JUMP JUMPDEST PUSH2 0x758 JUMP JUMPDEST STOP JUMPDEST PUSH2 0x34A PUSH1 0x4 DUP1 CALLDATASIZE SUB DUP2 ADD SWAP1 PUSH2 0x345 SWAP2 SWAP1 PUSH2 0x2059 JUMP JUMPDEST PUSH2 0x792 JUMP JUMPDEST PUSH1 0x40 MLOAD PUSH2 0x357 SWAP2 SWAP1 PUSH2 0x1AE3 JUMP JUMPDEST PUSH1 0x40 MLOAD DUP1 SWAP2 SUB SWAP1 RETURN JUMPDEST PUSH2 0x37A PUSH1 0x4 DUP1 CALLDATASIZE SUB DUP2 ADD SWAP1 PUSH2 0x375 SWAP2 SWAP1 PUSH2 0x1CFA JUMP JUMPDEST PUSH2 0x820 JUMP JUMPDEST STOP JUMPDEST PUSH0 PUSH2 0x386 DUP3 PUSH2 0x8A4 JUMP JUMPDEST SWAP1 POP SWAP2 SWAP1 POP JUMP JUMPDEST PUSH1 0x60 PUSH0 DUP1 SLOAD PUSH2 0x39B SWAP1 PUSH2 0x20C4 JUMP JUMPDEST DUP1 PUSH1 0x1F ADD PUSH1 0x20 DUP1 SWAP2 DIV MUL PUSH1 0x20 ADD PUSH1 0x40 MLOAD SWAP1 DUP2 ADD PUSH1 0x40 MSTORE DUP1 SWAP3 SWAP2 SWAP1 DUP2 DUP2 MSTORE PUSH1 0x20 ADD DUP3 DUP1 SLOAD PUSH2 0x3C7 SWAP1 PUSH2 0x20C4 JUMP JUMPDEST DUP1 ISZERO PUSH2 0x412 JUMPI DUP1 PUSH1 0x1F LT PUSH2 0x3E9 JUMPI PUSH2 0x100 DUP1 DUP4 SLOAD DIV MUL DUP4 MSTORE SWAP2 PUSH1 0x20 ADD SWAP2 PUSH2 0x412 JUMP JUMPDEST DUP3 ADD SWAP2 SWAP1 PUSH0 MSTORE PUSH1 0x20 PUSH0 KECCAK256 SWAP1 JUMPDEST DUP2 SLOAD DUP2 MSTORE SWAP1 PUSH1 0x1 ADD SWAP1 PUSH1 0x20 ADD DUP1 DUP4 GT PUSH2 0x3F5 JUMPI DUP3 SWAP1 SUB PUSH1 0x1F AND DUP3 ADD SWAP2 JUMPDEST POP POP POP POP POP SWAP1 POP SWAP1 JUMP JUMPDEST PUSH0 PUSH2 0x426 DUP3 PUSH2 0x904 JUMP JUMPDEST POP PUSH2 0x430 DUP3 PUSH2 0x98A JUMP JUMPDEST SWAP1 POP SWAP2 SWAP1 POP JUMP JUMPDEST PUSH2 0x449 DUP3 DUP3 PUSH2 0x444 PUSH2 0x9C3 JUMP JUMPDEST PUSH2 0x9CA JUMP JUMPDEST POP POP JUMP JUMPDEST PUSH0 PUSH20 0xFFFFFFFFFFFFFFFFFFFFFFFFFFFFFFFFFFFFFFFF AND DUP3 PUSH20 0xFFFFFFFFFFFFFFFFFFFFFFFFFFFFFFFFFFFFFFFF AND SUB PUSH2 0x4BD JUMPI PUSH0 PUSH1 0x40 MLOAD PUSH32 0x64A0AE9200000000000000000000000000000000000000000000000000000000 DUP2 MSTORE PUSH1 0x4 ADD PUSH2 0x4B4 SWAP2 SWAP1 PUSH2 0x1C29 JUMP JUMPDEST PUSH1 0x40 MLOAD DUP1 SWAP2 SUB SWAP1 REVERT JUMPDEST PUSH0 PUSH2 0x4D0 DUP4 DUP4 PUSH2 0x4CB PUSH2 0x9C3 JUMP JUMPDEST PUSH2 0x9DC JUMP JUMPDEST SWAP1 POP DUP4 PUSH20 0xFFFFFFFFFFFFFFFFFFFFFFFFFFFFFFFFFFFFFFFF AND DUP2 PUSH20 0xFFFFFFFFFFFFFFFFFFFFFFFFFFFFFFFFFFFFFFFF AND EQ PUSH2 0x546 JUMPI DUP4 DUP3 DUP3 PUSH1 0x40 MLOAD PUSH32 0x64283D7B00000000000000000000000000000000000000000000000000000000 DUP2 MSTORE PUSH1 0x4 ADD PUSH2 0x53D SWAP4 SWAP3 SWAP2 SWAP1 PUSH2 0x20F4 JUMP JUMPDEST PUSH1 0x40 MLOAD DUP1 SWAP2 SUB SWAP1 REVERT JUMPDEST POP POP POP POP JUMP JUMPDEST PUSH2 0x566 DUP4 DUP4 DUP4 PUSH1 0x40 MLOAD DUP1 PUSH1 0x20 ADD PUSH1 0x40 MSTORE DUP1 PUSH0 DUP2 MSTORE POP PUSH2 0x729 JUMP JUMPDEST POP POP POP JUMP JUMPDEST PUSH2 0x57D PUSH0 DUP3 PUSH2 0x578 PUSH2 0x9C3 JUMP JUMPDEST PUSH2 0x9DC JUMP JUMPDEST POP POP JUMP JUMPDEST PUSH0 PUSH2 0x58B DUP3 PUSH2 0x904 JUMP JUMPDEST SWAP1 POP SWAP2 SWAP1 POP JUMP JUMPDEST PUSH0 DUP1 PUSH20 0xFFFFFFFFFFFFFFFFFFFFFFFFFFFFFFFFFFFFFFFF AND DUP3 PUSH20 0xFFFFFFFFFFFFFFFFFFFFFFFFFFFFFFFFFFFFFFFF AND SUB PUSH2 0x603 JUMPI PUSH0 PUSH1 0x40 MLOAD PUSH32 0x89C62B6400000000000000000000000000000000000000000000000000000000 DUP2 MSTORE PUSH1 0x4 ADD PUSH2 0x5FA SWAP2 SWAP1 PUSH2 0x1C29 JUMP JUMPDEST PUSH1 0x40 MLOAD DUP1 SWAP2 SUB SWAP1 REVERT JUMPDEST PUSH1 0x3 PUSH0 DUP4 PUSH20 0xFFFFFFFFFFFFFFFFFFFFFFFFFFFFFFFFFFFFFFFF AND PUSH20 0xFFFFFFFFFFFFFFFFFFFFFFFFFFFFFFFFFFFFFFFF AND DUP2 MSTORE PUSH1 0x20 ADD SWAP1 DUP2 MSTORE PUSH1 0x20 ADD PUSH0 KECCAK256 SLOAD SWAP1 POP SWAP2 SWAP1 POP JUMP JUMPDEST PUSH2 0x650 PUSH2 0xBE7 JUMP JUMPDEST PUSH2 0x659 PUSH0 PUSH2 0xC6E JUMP JUMPDEST JUMP JUMPDEST PUSH0 PUSH1 0x7 PUSH0 SWAP1 SLOAD SWAP1 PUSH2 0x100 EXP SWAP1 DIV PUSH20 0xFFFFFFFFFFFFFFFFFFFFFFFFFFFFFFFFFFFFFFFF AND SWAP1 POP SWAP1 JUMP JUMPDEST PUSH1 0x60 PUSH1 0x1 DUP1 SLOAD PUSH2 0x692 SWAP1 PUSH2 0x20C4 JUMP JUMPDEST DUP1 PUSH1 0x1F ADD PUSH1 0x20 DUP1 SWAP2 DIV MUL PUSH1 0x20 ADD PUSH1 0x40 MLOAD SWAP1 DUP2 ADD PUSH1 0x40 MSTORE DUP1 SWAP3 SWAP2 SWAP1 DUP2 DUP2 MSTORE PUSH1 0x20 ADD DUP3 DUP1 SLOAD PUSH2 0x6BE SWAP1 PUSH2 0x20C4 JUMP JUMPDEST DUP1 ISZERO PUSH2 0x709 JUMPI DUP1 PUSH1 0x1F LT PUSH2 0x6E0 JUMPI PUSH2 0x100 DUP1 DUP4 SLOAD DIV MUL DUP4 MSTORE SWAP2 PUSH1 0x20 ADD SWAP2 PUSH2 0x709 JUMP JUMPDEST DUP3 ADD SWAP2 SWAP1 PUSH0 MSTORE PUSH1 0x20 PUSH0 KECCAK256 SWAP1 JUMPDEST DUP2 SLOAD DUP2 MSTORE SWAP1 PUSH1 0x1 ADD SWAP1 PUSH1 0x20 ADD DUP1 DUP4 GT PUSH2 0x6EC JUMPI DUP3 SWAP1 SUB PUSH1 0x1F AND DUP3 ADD SWAP2 JUMPDEST POP POP POP POP POP SWAP1 POP SWAP1 JUMP JUMPDEST PUSH2 0x725 PUSH2 0x71E PUSH2 0x9C3 JUMP JUMPDEST DUP4 DUP4 PUSH2 0xD31 JUMP JUMPDEST POP POP JUMP JUMPDEST PUSH2 0x734 DUP5 DUP5 DUP5 PUSH2 0x44D JUMP JUMPDEST PUSH2 0x740 DUP5 DUP5 DUP5 DUP5 PUSH2 0xE9A JUMP JUMPDEST POP POP POP POP JUMP JUMPDEST PUSH1 0x60 PUSH2 0x751 DUP3 PUSH2 0x104C JUMP JUMPDEST SWAP1 POP SWAP2 SWAP1 POP JUMP JUMPDEST PUSH2 0x760 PUSH2 0xBE7 JUMP JUMPDEST PUSH0 PUSH1 0x8 PUSH0 DUP2 SLOAD DUP1 SWAP3 SWAP2 SWAP1 PUSH2 0x773 SWAP1 PUSH2 0x2156 JUMP JUMPDEST SWAP2 SWAP1 POP SSTORE SWAP1 POP PUSH2 0x783 DUP4 DUP3 PUSH2 0x1157 JUMP JUMPDEST PUSH2 0x78D DUP2 DUP4 PUSH2 0x1174 JUMP JUMPDEST POP POP POP JUMP JUMPDEST PUSH0 PUSH1 0x5 PUSH0 DUP5 PUSH20 0xFFFFFFFFFFFFFFFFFFFFFFFFFFFFFFFFFFFFFFFF AND PUSH20 0xFFFFFFFFFFFFFFFFFFFFFFFFFFFFFFFFFFFFFFFF AND DUP2 MSTORE PUSH1 0x20 ADD SWAP1 DUP2 MSTORE PUSH1 0x20 ADD PUSH0 KECCAK256 PUSH0 DUP4 PUSH20 0xFFFFFFFFFFFFFFFFFFFFFFFFFFFFFFFFFFFFFFFF AND PUSH20 0xFFFFFFFFFFFFFFFFFFFFFFFFFFFFFFFFFFFFFFFF AND DUP2 MSTORE PUSH1 0x20 ADD SWAP1 DUP2 MSTORE PUSH1 0x20 ADD PUSH0 KECCAK256 PUSH0 SWAP1 SLOAD SWAP1 PUSH2 0x100 EXP SWAP1 DIV PUSH1 0xFF AND SWAP1 POP SWAP3 SWAP2 POP POP JUMP JUMPDEST PUSH2 0x828 PUSH2 0xBE7 JUMP JUMPDEST PUSH0 PUSH20 0xFFFFFFFFFFFFFFFFFFFFFFFFFFFFFFFFFFFFFFFF AND DUP2 PUSH20 0xFFFFFFFFFFFFFFFFFFFFFFFFFFFFFFFFFFFFFFFF AND SUB PUSH2 0x898 JUMPI PUSH0 PUSH1 0x40 MLOAD PUSH32 0x1E4FBDF700000000000000000000000000000000000000000000000000000000 DUP2 MSTORE PUSH1 0x4 ADD PUSH2 0x88F SWAP2 SWAP1 PUSH2 0x1C29 JUMP JUMPDEST PUSH1 0x40 MLOAD DUP1 SWAP2 SUB SWAP1 REVERT JUMPDEST PUSH2 0x8A1 DUP2 PUSH2 0xC6E JUMP JUMPDEST POP JUMP JUMPDEST PUSH0 PUSH4 0x49064906 PUSH1 0xE0 SHL PUSH28 0xFFFFFFFFFFFFFFFFFFFFFFFFFFFFFFFFFFFFFFFFFFFFFFFFFFFFFFFF NOT AND DUP3 PUSH28 0xFFFFFFFFFFFFFFFFFFFFFFFFFFFFFFFFFFFFFFFFFFFFFFFFFFFFFFFF NOT AND EQ DUP1 PUSH2 0x8FD JUMPI POP PUSH2 0x8FC DUP3 PUSH2 0x11CE JUMP JUMPDEST JUMPDEST SWAP1 POP SWAP2 SWAP1 POP JUMP JUMPDEST PUSH0 DUP1 PUSH2 0x90F DUP4 PUSH2 0x12AF JUMP JUMPDEST SWAP1 POP PUSH0 PUSH20 0xFFFFFFFFFFFFFFFFFFFFFFFFFFFFFFFFFFFFFFFF AND DUP2 PUSH20 0xFFFFFFFFFFFFFFFFFFFFFFFFFFFFFFFFFFFFFFFF AND SUB PUSH2 0x981 JUMPI DUP3 PUSH1 0x40 MLOAD PUSH32 0x7E27328900000000000000000000000000000000000000000000000000000000 DUP2 MSTORE PUSH1 0x4 ADD PUSH2 0x978 SWAP2 SWAP1 PUSH2 0x1D34 JUMP JUMPDEST PUSH1 0x40 MLOAD DUP1 SWAP2 SUB SWAP1 REVERT JUMPDEST DUP1 SWAP2 POP POP SWAP2 SWAP1 POP JUMP JUMPDEST PUSH0 PUSH1 0x4 PUSH0 DUP4 DUP2 MSTORE PUSH1 0x20 ADD SWAP1 DUP2 MSTORE PUSH1 0x20 ADD PUSH0 KECCAK256 PUSH0 SWAP1 SLOAD SWAP1 PUSH2 0x100 EXP SWAP1 DIV PUSH20 0xFFFFFFFFFFFFFFFFFFFFFFFFFFFFFFFFFFFFFFFF AND SWAP1 POP SWAP2 SWAP1 POP JUMP JUMPDEST PUSH0 CALLER SWAP1 POP SWAP1 JUMP JUMPDEST PUSH2 0x9D7 DUP4 DUP4 DUP4 PUSH1 0x1 PUSH2 0x12E8 JUMP JUMPDEST POP POP POP JUMP JUMPDEST PUSH0 DUP1 PUSH2 0x9E7 DUP5 PUSH2 0x12AF JUMP JUMPDEST SWAP1 POP PUSH0 PUSH20 0xFFFFFFFFFFFFFFFFFFFFFFFFFFFFFFFFFFFFFFFF AND DUP4 PUSH20 0xFFFFFFFFFFFFFFFFFFFFFFFFFFFFFFFFFFFFFFFF AND EQ PUSH2 0xA28 JUMPI PUSH2 0xA27 DUP2 DUP5 DUP7 PUSH2 0x14A7 JUMP JUMPDEST JUMPDEST PUSH0 PUSH20 0xFFFFFFFFFFFFFFFFFFFFFFFFFFFFFFFFFFFFFFFF AND DUP2 PUSH20 0xFFFFFFFFFFFFFFFFFFFFFFFFFFFFFFFFFFFFFFFF AND EQ PUSH2 0xAB3 JUMPI PUSH2 0xA67 PUSH0 DUP6 PUSH0 DUP1 PUSH2 0x12E8 JUMP JUMPDEST PUSH1 0x1 PUSH1 0x3 PUSH0 DUP4 PUSH20 0xFFFFFFFFFFFFFFFFFFFFFFFFFFFFFFFFFFFFFFFF AND PUSH20 0xFFFFFFFFFFFFFFFFFFFFFFFFFFFFFFFFFFFFFFFF AND DUP2 MSTORE PUSH1 0x20 ADD SWAP1 DUP2 MSTORE PUSH1 0x20 ADD PUSH0 KECCAK256 PUSH0 DUP3 DUP3 SLOAD SUB SWAP3 POP POP DUP2 SWAP1 SSTORE POP JUMPDEST PUSH0 PUSH20 0xFFFFFFFFFFFFFFFFFFFFFFFFFFFFFFFFFFFFFFFF AND DUP6 PUSH20 0xFFFFFFFFFFFFFFFFFFFFFFFFFFFFFFFFFFFFFFFF AND EQ PUSH2 0xB32 JUMPI PUSH1 0x1 PUSH1 0x3 PUSH0 DUP8 PUSH20 0xFFFFFFFFFFFFFFFFFFFFFFFFFFFFFFFFFFFFFFFF AND PUSH20 0xFFFFFFFFFFFFFFFFFFFFFFFFFFFFFFFFFFFFFFFF AND DUP2 MSTORE PUSH1 0x20 ADD SWAP1 DUP2 MSTORE PUSH1 0x20 ADD PUSH0 KECCAK256 PUSH0 DUP3 DUP3 SLOAD ADD SWAP3 POP POP DUP2 SWAP1 SSTORE POP JUMPDEST DUP5 PUSH1 0x2 PUSH0 DUP7 DUP2 MSTORE PUSH1 0x20 ADD SWAP1 DUP2 MSTORE PUSH1 0x20 ADD PUSH0 KECCAK256 PUSH0 PUSH2 0x100 EXP DUP2 SLOAD DUP2 PUSH20 0xFFFFFFFFFFFFFFFFFFFFFFFFFFFFFFFFFFFFFFFF MUL NOT AND SWAP1 DUP4 PUSH20 0xFFFFFFFFFFFFFFFFFFFFFFFFFFFFFFFFFFFFFFFF AND MUL OR SWAP1 SSTORE POP DUP4 DUP6 PUSH20 0xFFFFFFFFFFFFFFFFFFFFFFFFFFFFFFFFFFFFFFFF AND DUP3 PUSH20 0xFFFFFFFFFFFFFFFFFFFFFFFFFFFFFFFFFFFFFFFF AND PUSH32 0xDDF252AD1BE2C89B69C2B068FC378DAA952BA7F163C4A11628F55A4DF523B3EF PUSH1 0x40 MLOAD PUSH1 0x40 MLOAD DUP1 SWAP2 SUB SWAP1 LOG4 DUP1 SWAP2 POP POP SWAP4 SWAP3 POP POP POP JUMP JUMPDEST PUSH2 0xBEF PUSH2 0x9C3 JUMP JUMPDEST PUSH20 0xFFFFFFFFFFFFFFFFFFFFFFFFFFFFFFFFFFFFFFFF AND PUSH2 0xC0D PUSH2 0x65B JUMP JUMPDEST PUSH20 0xFFFFFFFFFFFFFFFFFFFFFFFFFFFFFFFFFFFFFFFF AND EQ PUSH2 0xC6C JUMPI PUSH2 0xC30 PUSH2 0x9C3 JUMP JUMPDEST PUSH1 0x40 MLOAD PUSH32 0x118CDAA700000000000000000000000000000000000000000000000000000000 DUP2 MSTORE PUSH1 0x4 ADD PUSH2 0xC63 SWAP2 SWAP1 PUSH2 0x1C29 JUMP JUMPDEST PUSH1 0x40 MLOAD DUP1 SWAP2 SUB SWAP1 REVERT JUMPDEST JUMP JUMPDEST PUSH0 PUSH1 0x7 PUSH0 SWAP1 SLOAD SWAP1 PUSH2 0x100 EXP SWAP1 DIV PUSH20 0xFFFFFFFFFFFFFFFFFFFFFFFFFFFFFFFFFFFFFFFF AND SWAP1 POP DUP2 PUSH1 0x7 PUSH0 PUSH2 0x100 EXP DUP2 SLOAD DUP2 PUSH20 0xFFFFFFFFFFFFFFFFFFFFFFFFFFFFFFFFFFFFFFFF MUL NOT AND SWAP1 DUP4 PUSH20 0xFFFFFFFFFFFFFFFFFFFFFFFFFFFFFFFFFFFFFFFF AND MUL OR SWAP1 SSTORE POP DUP2 PUSH20 0xFFFFFFFFFFFFFFFFFFFFFFFFFFFFFFFFFFFFFFFF AND DUP2 PUSH20 0xFFFFFFFFFFFFFFFFFFFFFFFFFFFFFFFFFFFFFFFF AND PUSH32 0x8BE0079C531659141344CD1FD0A4F28419497F9722A3DAAFE3B4186F6B6457E0 PUSH1 0x40 MLOAD PUSH1 0x40 MLOAD DUP1 SWAP2 SUB SWAP1 LOG3 POP POP JUMP JUMPDEST PUSH0 PUSH20 0xFFFFFFFFFFFFFFFFFFFFFFFFFFFFFFFFFFFFFFFF AND DUP3 PUSH20 0xFFFFFFFFFFFFFFFFFFFFFFFFFFFFFFFFFFFFFFFF AND SUB PUSH2 0xDA1 JUMPI DUP2 PUSH1 0x40 MLOAD PUSH32 0x5B08BA1800000000000000000000000000000000000000000000000000000000 DUP2 MSTORE PUSH1 0x4 ADD PUSH2 0xD98 SWAP2 SWAP1 PUSH2 0x1C29 JUMP JUMPDEST PUSH1 0x40 MLOAD DUP1 SWAP2 SUB SWAP1 REVERT JUMPDEST DUP1 PUSH1 0x5 PUSH0 DUP6 PUSH20 0xFFFFFFFFFFFFFFFFFFFFFFFFFFFFFFFFFFFFFFFF AND PUSH20 0xFFFFFFFFFFFFFFFFFFFFFFFFFFFFFFFFFFFFFFFF AND DUP2 MSTORE PUSH1 0x20 ADD SWAP1 DUP2 MSTORE PUSH1 0x20 ADD PUSH0 KECCAK256 PUSH0 DUP5 PUSH20 0xFFFFFFFFFFFFFFFFFFFFFFFFFFFFFFFFFFFFFFFF AND PUSH20 0xFFFFFFFFFFFFFFFFFFFFFFFFFFFFFFFFFFFFFFFF AND DUP2 MSTORE PUSH1 0x20 ADD SWAP1 DUP2 MSTORE PUSH1 0x20 ADD PUSH0 KECCAK256 PUSH0 PUSH2 0x100 EXP DUP2 SLOAD DUP2 PUSH1 0xFF MUL NOT AND SWAP1 DUP4 ISZERO ISZERO MUL OR SWAP1 SSTORE POP DUP2 PUSH20 0xFFFFFFFFFFFFFFFFFFFFFFFFFFFFFFFFFFFFFFFF AND DUP4 PUSH20 0xFFFFFFFFFFFFFFFFFFFFFFFFFFFFFFFFFFFFFFFF AND PUSH32 0x17307EAB39AB6107E8899845AD3D59BD9653F200F220920489CA2B5937696C31 DUP4 PUSH1 0x40 MLOAD PUSH2 0xE8D SWAP2 SWAP1 PUSH2 0x1AE3 JUMP JUMPDEST PUSH1 0x40 MLOAD DUP1 SWAP2 SUB SWAP1 LOG3 POP POP POP JUMP JUMPDEST PUSH0 DUP4 PUSH20 0xFFFFFFFFFFFFFFFFFFFFFFFFFFFFFFFFFFFFFFFF AND EXTCODESIZE GT ISZERO PUSH2 0x1046 JUMPI DUP3 PUSH20 0xFFFFFFFFFFFFFFFFFFFFFFFFFFFFFFFFFFFFFFFF AND PUSH4 0x150B7A02 PUSH2 0xEDD PUSH2 0x9C3 JUMP JUMPDEST DUP7 DUP6 DUP6 PUSH1 0x40 MLOAD DUP6 PUSH4 0xFFFFFFFF AND PUSH1 0xE0 SHL DUP2 MSTORE PUSH1 0x4 ADD PUSH2 0xEFF SWAP5 SWAP4 SWAP3 SWAP2 SWAP1 PUSH2 0x21EF JUMP JUMPDEST PUSH1 0x20 PUSH1 0x40 MLOAD DUP1 DUP4 SUB DUP2 PUSH0 DUP8 GAS CALL SWAP3 POP POP POP DUP1 ISZERO PUSH2 0xF3A JUMPI POP PUSH1 0x40 MLOAD RETURNDATASIZE PUSH1 0x1F NOT PUSH1 0x1F DUP3 ADD AND DUP3 ADD DUP1 PUSH1 0x40 MSTORE POP DUP2 ADD SWAP1 PUSH2 0xF37 SWAP2 SWAP1 PUSH2 0x224D JUMP JUMPDEST PUSH1 0x1 JUMPDEST PUSH2 0xFBB JUMPI RETURNDATASIZE DUP1 PUSH0 DUP2 EQ PUSH2 0xF68 JUMPI PUSH1 0x40 MLOAD SWAP2 POP PUSH1 0x1F NOT PUSH1 0x3F RETURNDATASIZE ADD AND DUP3 ADD PUSH1 0x40 MSTORE RETURNDATASIZE DUP3 MSTORE RETURNDATASIZE PUSH0 PUSH1 0x20 DUP5 ADD RETURNDATACOPY PUSH2 0xF6D JUMP JUMPDEST PUSH1 0x60 SWAP2 POP JUMPDEST POP PUSH0 DUP2 MLOAD SUB PUSH2 0xFB3 JUMPI DUP4 PUSH1 0x40 MLOAD PUSH32 0x64A0AE9200000000000000000000000000000000000000000000000000000000 DUP2 MSTORE PUSH1 0x4 ADD PUSH2 0xFAA SWAP2 SWAP1 PUSH2 0x1C29 JUMP JUMPDEST PUSH1 0x40 MLOAD DUP1 SWAP2 SUB SWAP1 REVERT JUMPDEST DUP1 MLOAD DUP2 PUSH1 0x20 ADD REVERT JUMPDEST PUSH4 0x150B7A02 PUSH1 0xE0 SHL PUSH28 0xFFFFFFFFFFFFFFFFFFFFFFFFFFFFFFFFFFFFFFFFFFFFFFFFFFFFFFFF NOT AND DUP2 PUSH28 0xFFFFFFFFFFFFFFFFFFFFFFFFFFFFFFFFFFFFFFFFFFFFFFFFFFFFFFFF NOT AND EQ PUSH2 0x1044 JUMPI DUP4 PUSH1 0x40 MLOAD PUSH32 0x64A0AE9200000000000000000000000000000000000000000000000000000000 DUP2 MSTORE PUSH1 0x4 ADD PUSH2 0x103B SWAP2 SWAP1 PUSH2 0x1C29 JUMP JUMPDEST PUSH1 0x40 MLOAD DUP1 SWAP2 SUB SWAP1 REVERT JUMPDEST POP JUMPDEST POP POP POP POP JUMP JUMPDEST PUSH1 0x60 PUSH2 0x1057 DUP3 PUSH2 0x904 JUMP JUMPDEST POP PUSH0 PUSH1 0x6 PUSH0 DUP5 DUP2 MSTORE PUSH1 0x20 ADD SWAP1 DUP2 MSTORE PUSH1 0x20 ADD PUSH0 KECCAK256 DUP1 SLOAD PUSH2 0x1075 SWAP1 PUSH2 0x20C4 JUMP JUMPDEST DUP1 PUSH1 0x1F ADD PUSH1 0x20 DUP1 SWAP2 DIV MUL PUSH1 0x20 ADD PUSH1 0x40 MLOAD SWAP1 DUP2 ADD PUSH1 0x40 MSTORE DUP1 SWAP3 SWAP2 SWAP1 DUP2 DUP2 MSTORE PUSH1 0x20 ADD DUP3 DUP1 SLOAD PUSH2 0x10A1 SWAP1 PUSH2 0x20C4 JUMP JUMPDEST DUP1 ISZERO PUSH2 0x10EC JUMPI DUP1 PUSH1 0x1F LT PUSH2 0x10C3 JUMPI PUSH2 0x100 DUP1 DUP4 SLOAD DIV MUL DUP4 MSTORE SWAP2 PUSH1 0x20 ADD SWAP2 PUSH2 0x10EC JUMP JUMPDEST DUP3 ADD SWAP2 SWAP1 PUSH0 MSTORE PUSH1 0x20 PUSH0 KECCAK256 SWAP1 JUMPDEST DUP2 SLOAD DUP2 MSTORE SWAP1 PUSH1 0x1 ADD SWAP1 PUSH1 0x20 ADD DUP1 DUP4 GT PUSH2 0x10CF JUMPI DUP3 SWAP1 SUB PUSH1 0x1F AND DUP3 ADD SWAP2 JUMPDEST POP POP POP POP POP SWAP1 POP PUSH0 PUSH2 0x10FC PUSH2 0x156A JUMP JUMPDEST SWAP1 POP PUSH0 DUP2 MLOAD SUB PUSH2 0x1110 JUMPI DUP2 SWAP3 POP POP POP PUSH2 0x1152 JUMP JUMPDEST PUSH0 DUP3 MLOAD GT ISZERO PUSH2 0x1144 JUMPI DUP1 DUP3 PUSH1 0x40 MLOAD PUSH1 0x20 ADD PUSH2 0x112C SWAP3 SWAP2 SWAP1 PUSH2 0x22B2 JUMP JUMPDEST PUSH1 0x40 MLOAD PUSH1 0x20 DUP2 DUP4 SUB SUB DUP2 MSTORE SWAP1 PUSH1 0x40 MSTORE SWAP3 POP POP POP PUSH2 0x1152 JUMP JUMPDEST PUSH2 0x114D DUP5 PUSH2 0x1580 JUMP JUMPDEST SWAP3 POP POP POP JUMPDEST SWAP2 SWAP1 POP JUMP JUMPDEST PUSH2 0x1170 DUP3 DUP3 PUSH1 0x40 MLOAD DUP1 PUSH1 0x20 ADD PUSH1 0x40 MSTORE DUP1 PUSH0 DUP2 MSTORE POP PUSH2 0x15E6 JUMP JUMPDEST POP POP JUMP JUMPDEST DUP1 PUSH1 0x6 PUSH0 DUP5 DUP2 MSTORE PUSH1 0x20 ADD SWAP1 DUP2 MSTORE PUSH1 0x20 ADD PUSH0 KECCAK256 SWAP1 DUP2 PUSH2 0x1192 SWAP2 SWAP1 PUSH2 0x2472 JUMP JUMPDEST POP PUSH32 0xF8E1A15ABA9398E019F0B49DF1A4FDE98EE17AE345CB5F6B5E2C27F5033E8CE7 DUP3 PUSH1 0x40 MLOAD PUSH2 0x11C2 SWAP2 SWAP1 PUSH2 0x1D34 JUMP JUMPDEST PUSH1 0x40 MLOAD DUP1 SWAP2 SUB SWAP1 LOG1 POP POP JUMP JUMPDEST PUSH0 PUSH32 0x80AC58CD00000000000000000000000000000000000000000000000000000000 PUSH28 0xFFFFFFFFFFFFFFFFFFFFFFFFFFFFFFFFFFFFFFFFFFFFFFFFFFFFFFFF NOT AND DUP3 PUSH28 0xFFFFFFFFFFFFFFFFFFFFFFFFFFFFFFFFFFFFFFFFFFFFFFFFFFFFFFFF NOT AND EQ DUP1 PUSH2 0x1298 JUMPI POP PUSH32 0x5B5E139F00000000000000000000000000000000000000000000000000000000 PUSH28 0xFFFFFFFFFFFFFFFFFFFFFFFFFFFFFFFFFFFFFFFFFFFFFFFFFFFFFFFF NOT AND DUP3 PUSH28 0xFFFFFFFFFFFFFFFFFFFFFFFFFFFFFFFFFFFFFFFFFFFFFFFFFFFFFFFF NOT AND EQ JUMPDEST DUP1 PUSH2 0x12A8 JUMPI POP PUSH2 0x12A7 DUP3 PUSH2 0x1601 JUMP JUMPDEST JUMPDEST SWAP1 POP SWAP2 SWAP1 POP JUMP JUMPDEST PUSH0 PUSH1 0x2 PUSH0 DUP4 DUP2 MSTORE PUSH1 0x20 ADD SWAP1 DUP2 MSTORE PUSH1 0x20 ADD PUSH0 KECCAK256 PUSH0 SWAP1 SLOAD SWAP1 PUSH2 0x100 EXP SWAP1 DIV PUSH20 0xFFFFFFFFFFFFFFFFFFFFFFFFFFFFFFFFFFFFFFFF AND SWAP1 POP SWAP2 SWAP1 POP JUMP JUMPDEST DUP1 DUP1 PUSH2 0x1320 JUMPI POP PUSH0 PUSH20 0xFFFFFFFFFFFFFFFFFFFFFFFFFFFFFFFFFFFFFFFF AND DUP3 PUSH20 0xFFFFFFFFFFFFFFFFFFFFFFFFFFFFFFFFFFFFFFFF AND EQ ISZERO JUMPDEST ISZERO PUSH2 0x1452 JUMPI PUSH0 PUSH2 0x132F DUP5 PUSH2 0x904 JUMP JUMPDEST SWAP1 POP PUSH0 PUSH20 0xFFFFFFFFFFFFFFFFFFFFFFFFFFFFFFFFFFFFFFFF AND DUP4 PUSH20 0xFFFFFFFFFFFFFFFFFFFFFFFFFFFFFFFFFFFFFFFF AND EQ ISZERO DUP1 ISZERO PUSH2 0x1399 JUMPI POP DUP3 PUSH20 0xFFFFFFFFFFFFFFFFFFFFFFFFFFFFFFFFFFFFFFFF AND DUP2 PUSH20 0xFFFFFFFFFFFFFFFFFFFFFFFFFFFFFFFFFFFFFFFF AND EQ ISZERO JUMPDEST DUP1 ISZERO PUSH2 0x13AC JUMPI POP PUSH2 0x13AA DUP2 DUP5 PUSH2 0x792 JUMP JUMPDEST ISZERO JUMPDEST ISZERO PUSH2 0x13EE JUMPI DUP3 PUSH1 0x40 MLOAD PUSH32 0xA9FBF51F00000000000000000000000000000000000000000000000000000000 DUP2 MSTORE PUSH1 0x4 ADD PUSH2 0x13E5 SWAP2 SWAP1 PUSH2 0x1C29 JUMP JUMPDEST PUSH1 0x40 MLOAD DUP1 SWAP2 SUB SWAP1 REVERT JUMPDEST DUP2 ISZERO PUSH2 0x1450 JUMPI DUP4 DUP6 PUSH20 0xFFFFFFFFFFFFFFFFFFFFFFFFFFFFFFFFFFFFFFFF AND DUP3 PUSH20 0xFFFFFFFFFFFFFFFFFFFFFFFFFFFFFFFFFFFFFFFF AND PUSH32 0x8C5BE1E5EBEC7D5BD14F71427D1E84F3DD0314C0F7B2291E5B200AC8C7C3B925 PUSH1 0x40 MLOAD PUSH1 0x40 MLOAD DUP1 SWAP2 SUB SWAP1 LOG4 JUMPDEST POP JUMPDEST DUP4 PUSH1 0x4 PUSH0 DUP6 DUP2 MSTORE PUSH1 0x20 ADD SWAP1 DUP2 MSTORE PUSH1 0x20 ADD PUSH0 KECCAK256 PUSH0 PUSH2 0x100 EXP DUP2 SLOAD DUP2 PUSH20 0xFFFFFFFFFFFFFFFFFFFFFFFFFFFFFFFFFFFFFFFF MUL NOT AND SWAP1 DUP4 PUSH20 0xFFFFFFFFFFFFFFFFFFFFFFFFFFFFFFFFFFFFFFFF AND MUL OR SWAP1 SSTORE POP POP POP POP POP JUMP JUMPDEST PUSH2 0x14B2 DUP4 DUP4 DUP4 PUSH2 0x166A JUMP JUMPDEST PUSH2 0x1565 JUMPI PUSH0 PUSH20 0xFFFFFFFFFFFFFFFFFFFFFFFFFFFFFFFFFFFFFFFF AND DUP4 PUSH20 0xFFFFFFFFFFFFFFFFFFFFFFFFFFFFFFFFFFFFFFFF AND SUB PUSH2 0x1526 JUMPI DUP1 PUSH1 0x40 MLOAD PUSH32 0x7E27328900000000000000000000000000000000000000000000000000000000 DUP2 MSTORE PUSH1 0x4 ADD PUSH2 0x151D SWAP2 SWAP1 PUSH2 0x1D34 JUMP JUMPDEST PUSH1 0x40 MLOAD DUP1 SWAP2 SUB SWAP1 REVERT JUMPDEST DUP2 DUP2 PUSH1 0x40 MLOAD PUSH32 0x177E802F00000000000000000000000000000000000000000000000000000000 DUP2 MSTORE PUSH1 0x4 ADD PUSH2 0x155C SWAP3 SWAP2 SWAP1 PUSH2 0x2541 JUMP JUMPDEST PUSH1 0x40 MLOAD DUP1 SWAP2 SUB SWAP1 REVERT JUMPDEST POP POP POP JUMP JUMPDEST PUSH1 0x60 PUSH1 0x40 MLOAD DUP1 PUSH1 0x20 ADD PUSH1 0x40 MSTORE DUP1 PUSH0 DUP2 MSTORE POP SWAP1 POP SWAP1 JUMP JUMPDEST PUSH1 0x60 PUSH2 0x158B DUP3 PUSH2 0x904 JUMP JUMPDEST POP PUSH0 PUSH2 0x1595 PUSH2 0x156A JUMP JUMPDEST SWAP1 POP PUSH0 DUP2 MLOAD GT PUSH2 0x15B3 JUMPI PUSH1 0x40 MLOAD DUP1 PUSH1 0x20 ADD PUSH1 0x40 MSTORE DUP1 PUSH0 DUP2 MSTORE POP PUSH2 0x15DE JUMP JUMPDEST DUP1 PUSH2 0x15BD DUP5 PUSH2 0x172A JUMP JUMPDEST PUSH1 0x40 MLOAD PUSH1 0x20 ADD PUSH2 0x15CE SWAP3 SWAP2 SWAP1 PUSH2 0x22B2 JUMP JUMPDEST PUSH1 0x40 MLOAD PUSH1 0x20 DUP2 DUP4 SUB SUB DUP2 MSTORE SWAP1 PUSH1 0x40 MSTORE JUMPDEST SWAP2 POP POP SWAP2 SWAP1 POP JUMP JUMPDEST PUSH2 0x15F0 DUP4 DUP4 PUSH2 0x17F4 JUMP JUMPDEST PUSH2 0x15FC PUSH0 DUP5 DUP5 DUP5 PUSH2 0xE9A JUMP JUMPDEST POP POP POP JUMP JUMPDEST PUSH0 PUSH32 0x1FFC9A700000000000000000000000000000000000000000000000000000000 PUSH28 0xFFFFFFFFFFFFFFFFFFFFFFFFFFFFFFFFFFFFFFFFFFFFFFFFFFFFFFFF NOT AND DUP3 PUSH28 0xFFFFFFFFFFFFFFFFFFFFFFFFFFFFFFFFFFFFFFFFFFFFFFFFFFFFFFFF NOT AND EQ SWAP1 POP SWAP2 SWAP1 POP JUMP JUMPDEST PUSH0 DUP1 PUSH20 0xFFFFFFFFFFFFFFFFFFFFFFFFFFFFFFFFFFFFFFFF AND DUP4 PUSH20 0xFFFFFFFFFFFFFFFFFFFFFFFFFFFFFFFFFFFFFFFF AND EQ ISZERO DUP1 ISZERO PUSH2 0x1721 JUMPI POP DUP3 PUSH20 0xFFFFFFFFFFFFFFFFFFFFFFFFFFFFFFFFFFFFFFFF AND DUP5 PUSH20 0xFFFFFFFFFFFFFFFFFFFFFFFFFFFFFFFFFFFFFFFF AND EQ DUP1 PUSH2 0x16E2 JUMPI POP PUSH2 0x16E1 DUP5 DUP5 PUSH2 0x792 JUMP JUMPDEST JUMPDEST DUP1 PUSH2 0x1720 JUMPI POP DUP3 PUSH20 0xFFFFFFFFFFFFFFFFFFFFFFFFFFFFFFFFFFFFFFFF AND PUSH2 0x1708 DUP4 PUSH2 0x98A JUMP JUMPDEST PUSH20 0xFFFFFFFFFFFFFFFFFFFFFFFFFFFFFFFFFFFFFFFF AND EQ JUMPDEST JUMPDEST SWAP1 POP SWAP4 SWAP3 POP POP POP JUMP JUMPDEST PUSH1 0x60 PUSH0 PUSH1 0x1 PUSH2 0x1738 DUP5 PUSH2 0x18E7 JUMP JUMPDEST ADD SWAP1 POP PUSH0 DUP2 PUSH8 0xFFFFFFFFFFFFFFFF DUP2 GT ISZERO PUSH2 0x1756 JUMPI PUSH2 0x1755 PUSH2 0x1DBD JUMP JUMPDEST JUMPDEST PUSH1 0x40 MLOAD SWAP1 DUP1 DUP3 MSTORE DUP1 PUSH1 0x1F ADD PUSH1 0x1F NOT AND PUSH1 0x20 ADD DUP3 ADD PUSH1 0x40 MSTORE DUP1 ISZERO PUSH2 0x1788 JUMPI DUP2 PUSH1 0x20 ADD PUSH1 0x1 DUP3 MUL DUP1 CALLDATASIZE DUP4 CALLDATACOPY DUP1 DUP3 ADD SWAP2 POP POP SWAP1 POP JUMPDEST POP SWAP1 POP PUSH0 DUP3 PUSH1 0x20 ADD DUP3 ADD SWAP1 POP JUMPDEST PUSH1 0x1 ISZERO PUSH2 0x17E9 JUMPI DUP1 DUP1 PUSH1 0x1 SWAP1 SUB SWAP2 POP POP PUSH32 0x3031323334353637383961626364656600000000000000000000000000000000 PUSH1 0xA DUP7 MOD BYTE DUP2 MSTORE8 PUSH1 0xA DUP6 DUP2 PUSH2 0x17DE JUMPI PUSH2 0x17DD PUSH2 0x2568 JUMP JUMPDEST JUMPDEST DIV SWAP5 POP PUSH0 DUP6 SUB PUSH2 0x1795 JUMPI JUMPDEST DUP2 SWAP4 POP POP POP POP SWAP2 SWAP1 POP JUMP JUMPDEST PUSH0 PUSH20 0xFFFFFFFFFFFFFFFFFFFFFFFFFFFFFFFFFFFFFFFF AND DUP3 PUSH20 0xFFFFFFFFFFFFFFFFFFFFFFFFFFFFFFFFFFFFFFFF AND SUB PUSH2 0x1864 JUMPI PUSH0 PUSH1 0x40 MLOAD PUSH32 0x64A0AE9200000000000000000000000000000000000000000000000000000000 DUP2 MSTORE PUSH1 0x4 ADD PUSH2 0x185B SWAP2 SWAP1 PUSH2 0x1C29 JUMP JUMPDEST PUSH1 0x40 MLOAD DUP1 SWAP2 SUB SWAP1 REVERT JUMPDEST PUSH0 PUSH2 0x1870 DUP4 DUP4 PUSH0 PUSH2 0x9DC JUMP JUMPDEST SWAP1 POP PUSH0 PUSH20 0xFFFFFFFFFFFFFFFFFFFFFFFFFFFFFFFFFFFFFFFF AND DUP2 PUSH20 0xFFFFFFFFFFFFFFFFFFFFFFFFFFFFFFFFFFFFFFFF AND EQ PUSH2 0x18E2 JUMPI PUSH0 PUSH1 0x40 MLOAD PUSH32 0x73C6AC6E00000000000000000000000000000000000000000000000000000000 DUP2 MSTORE PUSH1 0x4 ADD PUSH2 0x18D9 SWAP2 SWAP1 PUSH2 0x1C29 JUMP JUMPDEST PUSH1 0x40 MLOAD DUP1 SWAP2 SUB SWAP1 REVERT JUMPDEST POP POP POP JUMP JUMPDEST PUSH0 DUP1 PUSH0 SWAP1 POP PUSH27 0x184F03E93FF9F4DAA797ED6E38ED64BF6A1F010000000000000000 DUP4 LT PUSH2 0x1943 JUMPI PUSH27 0x184F03E93FF9F4DAA797ED6E38ED64BF6A1F010000000000000000 DUP4 DUP2 PUSH2 0x1939 JUMPI PUSH2 0x1938 PUSH2 0x2568 JUMP JUMPDEST JUMPDEST DIV SWAP3 POP PUSH1 0x40 DUP2 ADD SWAP1 POP JUMPDEST PUSH14 0x4EE2D6D415B85ACEF8100000000 DUP4 LT PUSH2 0x1980 JUMPI PUSH14 0x4EE2D6D415B85ACEF8100000000 DUP4 DUP2 PUSH2 0x1976 JUMPI PUSH2 0x1975 PUSH2 0x2568 JUMP JUMPDEST JUMPDEST DIV SWAP3 POP PUSH1 0x20 DUP2 ADD SWAP1 POP JUMPDEST PUSH7 0x2386F26FC10000 DUP4 LT PUSH2 0x19AF JUMPI PUSH7 0x2386F26FC10000 DUP4 DUP2 PUSH2 0x19A5 JUMPI PUSH2 0x19A4 PUSH2 0x2568 JUMP JUMPDEST JUMPDEST DIV SWAP3 POP PUSH1 0x10 DUP2 ADD SWAP1 POP JUMPDEST PUSH4 0x5F5E100 DUP4 LT PUSH2 0x19D8 JUMPI PUSH4 0x5F5E100 DUP4 DUP2 PUSH2 0x19CE JUMPI PUSH2 0x19CD PUSH2 0x2568 JUMP JUMPDEST JUMPDEST DIV SWAP3 POP PUSH1 0x8 DUP2 ADD SWAP1 POP JUMPDEST PUSH2 0x2710 DUP4 LT PUSH2 0x19FD JUMPI PUSH2 0x2710 DUP4 DUP2 PUSH2 0x19F3 JUMPI PUSH2 0x19F2 PUSH2 0x2568 JUMP JUMPDEST JUMPDEST DIV SWAP3 POP PUSH1 0x4 DUP2 ADD SWAP1 POP JUMPDEST PUSH1 0x64 DUP4 LT PUSH2 0x1A20 JUMPI PUSH1 0x64 DUP4 DUP2 PUSH2 0x1A16 JUMPI PUSH2 0x1A15 PUSH2 0x2568 JUMP JUMPDEST JUMPDEST DIV SWAP3 POP PUSH1 0x2 DUP2 ADD SWAP1 POP JUMPDEST PUSH1 0xA DUP4 LT PUSH2 0x1A2F JUMPI PUSH1 0x1 DUP2 ADD SWAP1 POP JUMPDEST DUP1 SWAP2 POP POP SWAP2 SWAP1 POP JUMP JUMPDEST PUSH0 PUSH1 0x40 MLOAD SWAP1 POP SWAP1 JUMP JUMPDEST PUSH0 DUP1 REVERT JUMPDEST PUSH0 DUP1 REVERT JUMPDEST PUSH0 PUSH32 0xFFFFFFFF00000000000000000000000000000000000000000000000000000000 DUP3 AND SWAP1 POP SWAP2 SWAP1 POP JUMP JUMPDEST PUSH2 0x1A7D DUP2 PUSH2 0x1A49 JUMP JUMPDEST DUP2 EQ PUSH2 0x1A87 JUMPI PUSH0 DUP1 REVERT JUMPDEST POP JUMP JUMPDEST PUSH0 DUP2 CALLDATALOAD SWAP1 POP PUSH2 0x1A98 DUP2 PUSH2 0x1A74 JUMP JUMPDEST SWAP3 SWAP2 POP POP JUMP JUMPDEST PUSH0 PUSH1 0x20 DUP3 DUP5 SUB SLT ISZERO PUSH2 0x1AB3 JUMPI PUSH2 0x1AB2 PUSH2 0x1A41 JUMP JUMPDEST JUMPDEST PUSH0 PUSH2 0x1AC0 DUP5 DUP3 DUP6 ADD PUSH2 0x1A8A JUMP JUMPDEST SWAP2 POP POP SWAP3 SWAP2 POP POP JUMP JUMPDEST PUSH0 DUP2 ISZERO ISZERO SWAP1 POP SWAP2 SWAP1 POP JUMP JUMPDEST PUSH2 0x1ADD DUP2 PUSH2 0x1AC9 JUMP JUMPDEST DUP3 MSTORE POP POP JUMP JUMPDEST PUSH0 PUSH1 0x20 DUP3 ADD SWAP1 POP PUSH2 0x1AF6 PUSH0 DUP4 ADD DUP5 PUSH2 0x1AD4 JUMP JUMPDEST SWAP3 SWAP2 POP POP JUMP JUMPDEST PUSH0 DUP2 MLOAD SWAP1 POP SWAP2 SWAP1 POP JUMP JUMPDEST PUSH0 DUP3 DUP3 MSTORE PUSH1 0x20 DUP3 ADD SWAP1 POP SWAP3 SWAP2 POP POP JUMP JUMPDEST DUP3 DUP2 DUP4 MCOPY PUSH0 DUP4 DUP4 ADD MSTORE POP POP POP JUMP JUMPDEST PUSH0 PUSH1 0x1F NOT PUSH1 0x1F DUP4 ADD AND SWAP1 POP SWAP2 SWAP1 POP JUMP JUMPDEST PUSH0 PUSH2 0x1B3E DUP3 PUSH2 0x1AFC JUMP JUMPDEST PUSH2 0x1B48 DUP2 DUP6 PUSH2 0x1B06 JUMP JUMPDEST SWAP4 POP PUSH2 0x1B58 DUP2 DUP6 PUSH1 0x20 DUP7 ADD PUSH2 0x1B16 JUMP JUMPDEST PUSH2 0x1B61 DUP2 PUSH2 0x1B24 JUMP JUMPDEST DUP5 ADD SWAP2 POP POP SWAP3 SWAP2 POP POP JUMP JUMPDEST PUSH0 PUSH1 0x20 DUP3 ADD SWAP1 POP DUP2 DUP2 SUB PUSH0 DUP4 ADD MSTORE PUSH2 0x1B84 DUP2 DUP5 PUSH2 0x1B34 JUMP JUMPDEST SWAP1 POP SWAP3 SWAP2 POP POP JUMP JUMPDEST PUSH0 DUP2 SWAP1 POP SWAP2 SWAP1 POP JUMP JUMPDEST PUSH2 0x1B9E DUP2 PUSH2 0x1B8C JUMP JUMPDEST DUP2 EQ PUSH2 0x1BA8 JUMPI PUSH0 DUP1 REVERT JUMPDEST POP JUMP JUMPDEST PUSH0 DUP2 CALLDATALOAD SWAP1 POP PUSH2 0x1BB9 DUP2 PUSH2 0x1B95 JUMP JUMPDEST SWAP3 SWAP2 POP POP JUMP JUMPDEST PUSH0 PUSH1 0x20 DUP3 DUP5 SUB SLT ISZERO PUSH2 0x1BD4 JUMPI PUSH2 0x1BD3 PUSH2 0x1A41 JUMP JUMPDEST JUMPDEST PUSH0 PUSH2 0x1BE1 DUP5 DUP3 DUP6 ADD PUSH2 0x1BAB JUMP JUMPDEST SWAP2 POP POP SWAP3 SWAP2 POP POP JUMP JUMPDEST PUSH0 PUSH20 0xFFFFFFFFFFFFFFFFFFFFFFFFFFFFFFFFFFFFFFFF DUP3 AND SWAP1 POP SWAP2 SWAP1 POP JUMP JUMPDEST PUSH0 PUSH2 0x1C13 DUP3 PUSH2 0x1BEA JUMP JUMPDEST SWAP1 POP SWAP2 SWAP1 POP JUMP JUMPDEST PUSH2 0x1C23 DUP2 PUSH2 0x1C09 JUMP JUMPDEST DUP3 MSTORE POP POP JUMP JUMPDEST PUSH0 PUSH1 0x20 DUP3 ADD SWAP1 POP PUSH2 0x1C3C PUSH0 DUP4 ADD DUP5 PUSH2 0x1C1A JUMP JUMPDEST SWAP3 SWAP2 POP POP JUMP JUMPDEST PUSH2 0x1C4B DUP2 PUSH2 0x1C09 JUMP JUMPDEST DUP2 EQ PUSH2 0x1C55 JUMPI PUSH0 DUP1 REVERT JUMPDEST POP JUMP JUMPDEST PUSH0 DUP2 CALLDATALOAD SWAP1 POP PUSH2 0x1C66 DUP2 PUSH2 0x1C42 JUMP JUMPDEST SWAP3 SWAP2 POP POP JUMP JUMPDEST PUSH0 DUP1 PUSH1 0x40 DUP4 DUP6 SUB SLT ISZERO PUSH2 0x1C82 JUMPI PUSH2 0x1C81 PUSH2 0x1A41 JUMP JUMPDEST JUMPDEST PUSH0 PUSH2 0x1C8F DUP6 DUP3 DUP7 ADD PUSH2 0x1C58 JUMP JUMPDEST SWAP3 POP POP PUSH1 0x20 PUSH2 0x1CA0 DUP6 DUP3 DUP7 ADD PUSH2 0x1BAB JUMP JUMPDEST SWAP2 POP POP SWAP3 POP SWAP3 SWAP1 POP JUMP JUMPDEST PUSH0 DUP1 PUSH0 PUSH1 0x60 DUP5 DUP7 SUB SLT ISZERO PUSH2 0x1CC1 JUMPI PUSH2 0x1CC0 PUSH2 0x1A41 JUMP JUMPDEST JUMPDEST PUSH0 PUSH2 0x1CCE DUP7 DUP3 DUP8 ADD PUSH2 0x1C58 JUMP JUMPDEST SWAP4 POP POP PUSH1 0x20 PUSH2 0x1CDF DUP7 DUP3 DUP8 ADD PUSH2 0x1C58 JUMP JUMPDEST SWAP3 POP POP PUSH1 0x40 PUSH2 0x1CF0 DUP7 DUP3 DUP8 ADD PUSH2 0x1BAB JUMP JUMPDEST SWAP2 POP POP SWAP3 POP SWAP3 POP SWAP3 JUMP JUMPDEST PUSH0 PUSH1 0x20 DUP3 DUP5 SUB SLT ISZERO PUSH2 0x1D0F JUMPI PUSH2 0x1D0E PUSH2 0x1A41 JUMP JUMPDEST JUMPDEST PUSH0 PUSH2 0x1D1C DUP5 DUP3 DUP6 ADD PUSH2 0x1C58 JUMP JUMPDEST SWAP2 POP POP SWAP3 SWAP2 POP POP JUMP JUMPDEST PUSH2 0x1D2E DUP2 PUSH2 0x1B8C JUMP JUMPDEST DUP3 MSTORE POP POP JUMP JUMPDEST PUSH0 PUSH1 0x20 DUP3 ADD SWAP1 POP PUSH2 0x1D47 PUSH0 DUP4 ADD DUP5 PUSH2 0x1D25 JUMP JUMPDEST SWAP3 SWAP2 POP POP JUMP JUMPDEST PUSH2 0x1D56 DUP2 PUSH2 0x1AC9 JUMP JUMPDEST DUP2 EQ PUSH2 0x1D60 JUMPI PUSH0 DUP1 REVERT JUMPDEST POP JUMP JUMPDEST PUSH0 DUP2 CALLDATALOAD SWAP1 POP PUSH2 0x1D71 DUP2 PUSH2 0x1D4D JUMP JUMPDEST SWAP3 SWAP2 POP POP JUMP JUMPDEST PUSH0 DUP1 PUSH1 0x40 DUP4 DUP6 SUB SLT ISZERO PUSH2 0x1D8D JUMPI PUSH2 0x1D8C PUSH2 0x1A41 JUMP JUMPDEST JUMPDEST PUSH0 PUSH2 0x1D9A DUP6 DUP3 DUP7 ADD PUSH2 0x1C58 JUMP JUMPDEST SWAP3 POP POP PUSH1 0x20 PUSH2 0x1DAB DUP6 DUP3 DUP7 ADD PUSH2 0x1D63 JUMP JUMPDEST SWAP2 POP POP SWAP3 POP SWAP3 SWAP1 POP JUMP JUMPDEST PUSH0 DUP1 REVERT JUMPDEST PUSH0 DUP1 REVERT JUMPDEST PUSH32 0x4E487B7100000000000000000000000000000000000000000000000000000000 PUSH0 MSTORE PUSH1 0x41 PUSH1 0x4 MSTORE PUSH1 0x24 PUSH0 REVERT JUMPDEST PUSH2 0x1DF3 DUP3 PUSH2 0x1B24 JUMP JUMPDEST DUP2 ADD DUP2 DUP2 LT PUSH8 0xFFFFFFFFFFFFFFFF DUP3 GT OR ISZERO PUSH2 0x1E12 JUMPI PUSH2 0x1E11 PUSH2 0x1DBD JUMP JUMPDEST JUMPDEST DUP1 PUSH1 0x40 MSTORE POP POP POP JUMP JUMPDEST PUSH0 PUSH2 0x1E24 PUSH2 0x1A38 JUMP JUMPDEST SWAP1 POP PUSH2 0x1E30 DUP3 DUP3 PUSH2 0x1DEA JUMP JUMPDEST SWAP2 SWAP1 POP JUMP JUMPDEST PUSH0 PUSH8 0xFFFFFFFFFFFFFFFF DUP3 GT ISZERO PUSH2 0x1E4F JUMPI PUSH2 0x1E4E PUSH2 0x1DBD JUMP JUMPDEST JUMPDEST PUSH2 0x1E58 DUP3 PUSH2 0x1B24 JUMP JUMPDEST SWAP1 POP PUSH1 0x20 DUP2 ADD SWAP1 POP SWAP2 SWAP1 POP JUMP JUMPDEST DUP3 DUP2 DUP4 CALLDATACOPY PUSH0 DUP4 DUP4 ADD MSTORE POP POP POP JUMP JUMPDEST PUSH0 PUSH2 0x1E85 PUSH2 0x1E80 DUP5 PUSH2 0x1E35 JUMP JUMPDEST PUSH2 0x1E1B JUMP JUMPDEST SWAP1 POP DUP3 DUP2 MSTORE PUSH1 0x20 DUP2 ADD DUP5 DUP5 DUP5 ADD GT ISZERO PUSH2 0x1EA1 JUMPI PUSH2 0x1EA0 PUSH2 0x1DB9 JUMP JUMPDEST JUMPDEST PUSH2 0x1EAC DUP5 DUP3 DUP6 PUSH2 0x1E65 JUMP JUMPDEST POP SWAP4 SWAP3 POP POP POP JUMP JUMPDEST PUSH0 DUP3 PUSH1 0x1F DUP4 ADD SLT PUSH2 0x1EC8 JUMPI PUSH2 0x1EC7 PUSH2 0x1DB5 JUMP JUMPDEST JUMPDEST DUP2 CALLDATALOAD PUSH2 0x1ED8 DUP5 DUP3 PUSH1 0x20 DUP7 ADD PUSH2 0x1E73 JUMP JUMPDEST SWAP2 POP POP SWAP3 SWAP2 POP POP JUMP JUMPDEST PUSH0 DUP1 PUSH0 DUP1 PUSH1 0x80 DUP6 DUP8 SUB SLT ISZERO PUSH2 0x1EF9 JUMPI PUSH2 0x1EF8 PUSH2 0x1A41 JUMP JUMPDEST JUMPDEST PUSH0 PUSH2 0x1F06 DUP8 DUP3 DUP9 ADD PUSH2 0x1C58 JUMP JUMPDEST SWAP5 POP POP PUSH1 0x20 PUSH2 0x1F17 DUP8 DUP3 DUP9 ADD PUSH2 0x1C58 JUMP JUMPDEST SWAP4 POP POP PUSH1 0x40 PUSH2 0x1F28 DUP8 DUP3 DUP9 ADD PUSH2 0x1BAB JUMP JUMPDEST SWAP3 POP POP PUSH1 0x60 DUP6 ADD CALLDATALOAD PUSH8 0xFFFFFFFFFFFFFFFF DUP2 GT ISZERO PUSH2 0x1F49 JUMPI PUSH2 0x1F48 PUSH2 0x1A45 JUMP JUMPDEST JUMPDEST PUSH2 0x1F55 DUP8 DUP3 DUP9 ADD PUSH2 0x1EB4 JUMP JUMPDEST SWAP2 POP POP SWAP3 SWAP6 SWAP2 SWAP5 POP SWAP3 POP JUMP JUMPDEST PUSH0 PUSH8 0xFFFFFFFFFFFFFFFF DUP3 GT ISZERO PUSH2 0x1F7B JUMPI PUSH2 0x1F7A PUSH2 0x1DBD JUMP JUMPDEST JUMPDEST PUSH2 0x1F84 DUP3 PUSH2 0x1B24 JUMP JUMPDEST SWAP1 POP PUSH1 0x20 DUP2 ADD SWAP1 POP SWAP2 SWAP1 POP JUMP JUMPDEST PUSH0 PUSH2 0x1FA3 PUSH2 0x1F9E DUP5 PUSH2 0x1F61 JUMP JUMPDEST PUSH2 0x1E1B JUMP JUMPDEST SWAP1 POP DUP3 DUP2 MSTORE PUSH1 0x20 DUP2 ADD DUP5 DUP5 DUP5 ADD GT ISZERO PUSH2 0x1FBF JUMPI PUSH2 0x1FBE PUSH2 0x1DB9 JUMP JUMPDEST JUMPDEST PUSH2 0x1FCA DUP5 DUP3 DUP6 PUSH2 0x1E65 JUMP JUMPDEST POP SWAP4 SWAP3 POP POP POP JUMP JUMPDEST PUSH0 DUP3 PUSH1 0x1F DUP4 ADD SLT PUSH2 0x1FE6 JUMPI PUSH2 0x1FE5 PUSH2 0x1DB5 JUMP JUMPDEST JUMPDEST DUP2 CALLDATALOAD PUSH2 0x1FF6 DUP5 DUP3 PUSH1 0x20 DUP7 ADD PUSH2 0x1F91 JUMP JUMPDEST SWAP2 POP POP SWAP3 SWAP2 POP POP JUMP JUMPDEST PUSH0 DUP1 PUSH1 0x40 DUP4 DUP6 SUB SLT ISZERO PUSH2 0x2015 JUMPI PUSH2 0x2014 PUSH2 0x1A41 JUMP JUMPDEST JUMPDEST PUSH0 PUSH2 0x2022 DUP6 DUP3 DUP7 ADD PUSH2 0x1C58 JUMP JUMPDEST SWAP3 POP POP PUSH1 0x20 DUP4 ADD CALLDATALOAD PUSH8 0xFFFFFFFFFFFFFFFF DUP2 GT ISZERO PUSH2 0x2043 JUMPI PUSH2 0x2042 PUSH2 0x1A45 JUMP JUMPDEST JUMPDEST PUSH2 0x204F DUP6 DUP3 DUP7 ADD PUSH2 0x1FD2 JUMP JUMPDEST SWAP2 POP POP SWAP3 POP SWAP3 SWAP1 POP JUMP JUMPDEST PUSH0 DUP1 PUSH1 0x40 DUP4 DUP6 SUB SLT ISZERO PUSH2 0x206F JUMPI PUSH2 0x206E PUSH2 0x1A41 JUMP JUMPDEST JUMPDEST PUSH0 PUSH2 0x207C DUP6 DUP3 DUP7 ADD PUSH2 0x1C58 JUMP JUMPDEST SWAP3 POP POP PUSH1 0x20 PUSH2 0x208D DUP6 DUP3 DUP7 ADD PUSH2 0x1C58 JUMP JUMPDEST SWAP2 POP POP SWAP3 POP SWAP3 SWAP1 POP JUMP JUMPDEST PUSH32 0x4E487B7100000000000000000000000000000000000000000000000000000000 PUSH0 MSTORE PUSH1 0x22 PUSH1 0x4 MSTORE PUSH1 0x24 PUSH0 REVERT JUMPDEST PUSH0 PUSH1 0x2 DUP3 DIV SWAP1 POP PUSH1 0x1 DUP3 AND DUP1 PUSH2 0x20DB JUMPI PUSH1 0x7F DUP3 AND SWAP2 POP JUMPDEST PUSH1 0x20 DUP3 LT DUP2 SUB PUSH2 0x20EE JUMPI PUSH2 0x20ED PUSH2 0x2097 JUMP JUMPDEST JUMPDEST POP SWAP2 SWAP1 POP JUMP JUMPDEST PUSH0 PUSH1 0x60 DUP3 ADD SWAP1 POP PUSH2 0x2107 PUSH0 DUP4 ADD DUP7 PUSH2 0x1C1A JUMP JUMPDEST PUSH2 0x2114 PUSH1 0x20 DUP4 ADD DUP6 PUSH2 0x1D25 JUMP JUMPDEST PUSH2 0x2121 PUSH1 0x40 DUP4 ADD DUP5 PUSH2 0x1C1A JUMP JUMPDEST SWAP5 SWAP4 POP POP POP POP JUMP JUMPDEST PUSH32 0x4E487B7100000000000000000000000000000000000000000000000000000000 PUSH0 MSTORE PUSH1 0x11 PUSH1 0x4 MSTORE PUSH1 0x24 PUSH0 REVERT JUMPDEST PUSH0 PUSH2 0x2160 DUP3 PUSH2 0x1B8C JUMP JUMPDEST SWAP2 POP PUSH32 0xFFFFFFFFFFFFFFFFFFFFFFFFFFFFFFFFFFFFFFFFFFFFFFFFFFFFFFFFFFFFFFFF DUP3 SUB PUSH2 0x2192 JUMPI PUSH2 0x2191 PUSH2 0x2129 JUMP JUMPDEST JUMPDEST PUSH1 0x1 DUP3 ADD SWAP1 POP SWAP2 SWAP1 POP JUMP JUMPDEST PUSH0 DUP2 MLOAD SWAP1 POP SWAP2 SWAP1 POP JUMP JUMPDEST PUSH0 DUP3 DUP3 MSTORE PUSH1 0x20 DUP3 ADD SWAP1 POP SWAP3 SWAP2 POP POP JUMP JUMPDEST PUSH0 PUSH2 0x21C1 DUP3 PUSH2 0x219D JUMP JUMPDEST PUSH2 0x21CB DUP2 DUP6 PUSH2 0x21A7 JUMP JUMPDEST SWAP4 POP PUSH2 0x21DB DUP2 DUP6 PUSH1 0x20 DUP7 ADD PUSH2 0x1B16 JUMP JUMPDEST PUSH2 0x21E4 DUP2 PUSH2 0x1B24 JUMP JUMPDEST DUP5 ADD SWAP2 POP POP SWAP3 SWAP2 POP POP JUMP JUMPDEST PUSH0 PUSH1 0x80 DUP3 ADD SWAP1 POP PUSH2 0x2202 PUSH0 DUP4 ADD DUP8 PUSH2 0x1C1A JUMP JUMPDEST PUSH2 0x220F PUSH1 0x20 DUP4 ADD DUP7 PUSH2 0x1C1A JUMP JUMPDEST PUSH2 0x221C PUSH1 0x40 DUP4 ADD DUP6 PUSH2 0x1D25 JUMP JUMPDEST DUP2 DUP2 SUB PUSH1 0x60 DUP4 ADD MSTORE PUSH2 0x222E DUP2 DUP5 PUSH2 0x21B7 JUMP JUMPDEST SWAP1 POP SWAP6 SWAP5 POP POP POP POP POP JUMP JUMPDEST PUSH0 DUP2 MLOAD SWAP1 POP PUSH2 0x2247 DUP2 PUSH2 0x1A74 JUMP JUMPDEST SWAP3 SWAP2 POP POP JUMP JUMPDEST PUSH0 PUSH1 0x20 DUP3 DUP5 SUB SLT ISZERO PUSH2 0x2262 JUMPI PUSH2 0x2261 PUSH2 0x1A41 JUMP JUMPDEST JUMPDEST PUSH0 PUSH2 0x226F DUP5 DUP3 DUP6 ADD PUSH2 0x2239 JUMP JUMPDEST SWAP2 POP POP SWAP3 SWAP2 POP POP JUMP JUMPDEST PUSH0 DUP2 SWAP1 POP SWAP3 SWAP2 POP POP JUMP JUMPDEST PUSH0 PUSH2 0x228C DUP3 PUSH2 0x1AFC JUMP JUMPDEST PUSH2 0x2296 DUP2 DUP6 PUSH2 0x2278 JUMP JUMPDEST SWAP4 POP PUSH2 0x22A6 DUP2 DUP6 PUSH1 0x20 DUP7 ADD PUSH2 0x1B16 JUMP JUMPDEST DUP1 DUP5 ADD SWAP2 POP POP SWAP3 SWAP2 POP POP JUMP JUMPDEST PUSH0 PUSH2 0x22BD DUP3 DUP6 PUSH2 0x2282 JUMP JUMPDEST SWAP2 POP PUSH2 0x22C9 DUP3 DUP5 PUSH2 0x2282 JUMP JUMPDEST SWAP2 POP DUP2 SWAP1 POP SWAP4 SWAP3 POP POP POP JUMP JUMPDEST PUSH0 DUP2 SWAP1 POP DUP2 PUSH0 MSTORE PUSH1 0x20 PUSH0 KECCAK256 SWAP1 POP SWAP2 SWAP1 POP JUMP JUMPDEST PUSH0 PUSH1 0x20 PUSH1 0x1F DUP4 ADD DIV SWAP1 POP SWAP2 SWAP1 POP JUMP JUMPDEST PUSH0 DUP3 DUP3 SHL SWAP1 POP SWAP3 SWAP2 POP POP JUMP JUMPDEST PUSH0 PUSH1 0x8 DUP4 MUL PUSH2 0x2331 PUSH32 0xFFFFFFFFFFFFFFFFFFFFFFFFFFFFFFFFFFFFFFFFFFFFFFFFFFFFFFFFFFFFFFFF DUP3 PUSH2 0x22F6 JUMP JUMPDEST PUSH2 0x233B DUP7 DUP4 PUSH2 0x22F6 JUMP JUMPDEST SWAP6 POP DUP1 NOT DUP5 AND SWAP4 POP DUP1 DUP7 AND DUP5 OR SWAP3 POP POP POP SWAP4 SWAP3 POP POP POP JUMP JUMPDEST PUSH0 DUP2 SWAP1 POP SWAP2 SWAP1 POP JUMP JUMPDEST PUSH0 PUSH2 0x2376 PUSH2 0x2371 PUSH2 0x236C DUP5 PUSH2 0x1B8C JUMP JUMPDEST PUSH2 0x2353 JUMP JUMPDEST PUSH2 0x1B8C JUMP JUMPDEST SWAP1 POP SWAP2 SWAP1 POP JUMP JUMPDEST PUSH0 DUP2 SWAP1 POP SWAP2 SWAP1 POP JUMP JUMPDEST PUSH2 0x238F DUP4 PUSH2 0x235C JUMP JUMPDEST PUSH2 0x23A3 PUSH2 0x239B DUP3 PUSH2 0x237D JUMP JUMPDEST DUP5 DUP5 SLOAD PUSH2 0x2302 JUMP JUMPDEST DUP3 SSTORE POP POP POP POP JUMP JUMPDEST PUSH0 SWAP1 JUMP JUMPDEST PUSH2 0x23B7 PUSH2 0x23AB JUMP JUMPDEST PUSH2 0x23C2 DUP2 DUP5 DUP5 PUSH2 0x2386 JUMP JUMPDEST POP POP POP JUMP JUMPDEST JUMPDEST DUP2 DUP2 LT ISZERO PUSH2 0x23E5 JUMPI PUSH2 0x23DA PUSH0 DUP3 PUSH2 0x23AF JUMP JUMPDEST PUSH1 0x1 DUP2 ADD SWAP1 POP PUSH2 0x23C8 JUMP JUMPDEST POP POP JUMP JUMPDEST PUSH1 0x1F DUP3 GT ISZERO PUSH2 0x242A JUMPI PUSH2 0x23FB DUP2 PUSH2 0x22D5 JUMP JUMPDEST PUSH2 0x2404 DUP5 PUSH2 0x22E7 JUMP JUMPDEST DUP2 ADD PUSH1 0x20 DUP6 LT ISZERO PUSH2 0x2413 JUMPI DUP2 SWAP1 POP JUMPDEST PUSH2 0x2427 PUSH2 0x241F DUP6 PUSH2 0x22E7 JUMP JUMPDEST DUP4 ADD DUP3 PUSH2 0x23C7 JUMP JUMPDEST POP POP JUMPDEST POP POP POP JUMP JUMPDEST PUSH0 DUP3 DUP3 SHR SWAP1 POP SWAP3 SWAP2 POP POP JUMP JUMPDEST PUSH0 PUSH2 0x244A PUSH0 NOT DUP5 PUSH1 0x8 MUL PUSH2 0x242F JUMP JUMPDEST NOT DUP1 DUP4 AND SWAP2 POP POP SWAP3 SWAP2 POP POP JUMP JUMPDEST PUSH0 PUSH2 0x2462 DUP4 DUP4 PUSH2 0x243B JUMP JUMPDEST SWAP2 POP DUP3 PUSH1 0x2 MUL DUP3 OR SWAP1 POP SWAP3 SWAP2 POP POP JUMP JUMPDEST PUSH2 0x247B DUP3 PUSH2 0x1AFC JUMP JUMPDEST PUSH8 0xFFFFFFFFFFFFFFFF DUP2 GT ISZERO PUSH2 0x2494 JUMPI PUSH2 0x2493 PUSH2 0x1DBD JUMP JUMPDEST JUMPDEST PUSH2 0x249E DUP3 SLOAD PUSH2 0x20C4 JUMP JUMPDEST PUSH2 0x24A9 DUP3 DUP3 DUP6 PUSH2 0x23E9 JUMP JUMPDEST PUSH0 PUSH1 0x20 SWAP1 POP PUSH1 0x1F DUP4 GT PUSH1 0x1 DUP2 EQ PUSH2 0x24DA JUMPI PUSH0 DUP5 ISZERO PUSH2 0x24C8 JUMPI DUP3 DUP8 ADD MLOAD SWAP1 POP JUMPDEST PUSH2 0x24D2 DUP6 DUP3 PUSH2 0x2457 JUMP JUMPDEST DUP7 SSTORE POP PUSH2 0x2539 JUMP JUMPDEST PUSH1 0x1F NOT DUP5 AND PUSH2 0x24E8 DUP7 PUSH2 0x22D5 JUMP JUMPDEST PUSH0 JUMPDEST DUP3 DUP2 LT ISZERO PUSH2 0x250F JUMPI DUP5 DUP10 ADD MLOAD DUP3 SSTORE PUSH1 0x1 DUP3 ADD SWAP2 POP PUSH1 0x20 DUP6 ADD SWAP5 POP PUSH1 0x20 DUP2 ADD SWAP1 POP PUSH2 0x24EA JUMP JUMPDEST DUP7 DUP4 LT ISZERO PUSH2 0x252C JUMPI DUP5 DUP10 ADD MLOAD PUSH2 0x2528 PUSH1 0x1F DUP10 AND DUP3 PUSH2 0x243B JUMP JUMPDEST DUP4 SSTORE POP JUMPDEST PUSH1 0x1 PUSH1 0x2 DUP9 MUL ADD DUP9 SSTORE POP POP POP JUMPDEST POP POP POP POP POP POP JUMP JUMPDEST PUSH0 PUSH1 0x40 DUP3 ADD SWAP1 POP PUSH2 0x2554 PUSH0 DUP4 ADD DUP6 PUSH2 0x1C1A JUMP JUMPDEST PUSH2 0x2561 PUSH1 0x20 DUP4 ADD DUP5 PUSH2 0x1D25 JUMP JUMPDEST SWAP4 SWAP3 POP POP POP JUMP JUMPDEST PUSH32 0x4E487B7100000000000000000000000000000000000000000000000000000000 PUSH0 MSTORE PUSH1 0x12 PUSH1 0x4 MSTORE PUSH1 0x24 PUSH0 REVERT INVALID LOG2 PUSH5 0x6970667358 0x22 SLT KECCAK256 0x2C DUP13 CREATE2 RETURNDATASIZE 0xB7 0xAD 0xB8 MUL 0xE3 LT CALLDATALOAD 0xE1 0x1E PUSH29 0x5130A9824EE4228F267CCDFD758F4D3DF2DC64736F6C63430008190033 "
				},
				"gasEstimates": {
					"creation": {
						"codeDepositCost": "1935000",
						"executionCost": "infinite",
						"totalCost": "infinite"
					},
					"external": {
						"approve(address,uint256)": "infinite",
						"balanceOf(address)": "infinite",
						"burn(uint256)": "infinite",
						"getApproved(uint256)": "infinite",
						"isApprovedForAll(address,address)": "infinite",
						"name()": "infinite",
						"owner()": "2560",
						"ownerOf(uint256)": "infinite",
						"renounceOwnership()": "infinite",
						"safeMint(address,string)": "infinite",
						"safeTransferFrom(address,address,uint256)": "infinite",
						"safeTransferFrom(address,address,uint256,bytes)": "infinite",
						"setApprovalForAll(address,bool)": "infinite",
						"supportsInterface(bytes4)": "923",
						"symbol()": "infinite",
						"tokenURI(uint256)": "infinite",
						"transferFrom(address,address,uint256)": "infinite",
						"transferOwnership(address)": "infinite"
					}
				},
				"methodIdentifiers": {
					"approve(address,uint256)": "095ea7b3",
					"balanceOf(address)": "70a08231",
					"burn(uint256)": "42966c68",
					"getApproved(uint256)": "081812fc",
					"isApprovedForAll(address,address)": "e985e9c5",
					"name()": "06fdde03",
					"owner()": "8da5cb5b",
					"ownerOf(uint256)": "6352211e",
					"renounceOwnership()": "715018a6",
					"safeMint(address,string)": "d204c45e",
					"safeTransferFrom(address,address,uint256)": "42842e0e",
					"safeTransferFrom(address,address,uint256,bytes)": "b88d4fde",
					"setApprovalForAll(address,bool)": "a22cb465",
					"supportsInterface(bytes4)": "01ffc9a7",
					"symbol()": "95d89b41",
					"tokenURI(uint256)": "c87b56dd",
					"transferFrom(address,address,uint256)": "23b872dd",
					"transferOwnership(address)": "f2fde38b"
				}
			},
			"storageLayout": {
				"storage": [
					{
						"astId": 349,
						"contract": "contracts/Fungees.sol:MyToken",
						"label": "_name",
						"offset": 0,
						"slot": "0",
						"type": "t_string_storage"
					},
					{
						"astId": 351,
						"contract": "contracts/Fungees.sol:MyToken",
						"label": "_symbol",
						"offset": 0,
						"slot": "1",
						"type": "t_string_storage"
					},
					{
						"astId": 355,
						"contract": "contracts/Fungees.sol:MyToken",
						"label": "_owners",
						"offset": 0,
						"slot": "2",
						"type": "t_mapping(t_uint256,t_address)"
					},
					{
						"astId": 359,
						"contract": "contracts/Fungees.sol:MyToken",
						"label": "_balances",
						"offset": 0,
						"slot": "3",
						"type": "t_mapping(t_address,t_uint256)"
					},
					{
						"astId": 363,
						"contract": "contracts/Fungees.sol:MyToken",
						"label": "_tokenApprovals",
						"offset": 0,
						"slot": "4",
						"type": "t_mapping(t_uint256,t_address)"
					},
					{
						"astId": 369,
						"contract": "contracts/Fungees.sol:MyToken",
						"label": "_operatorApprovals",
						"offset": 0,
						"slot": "5",
						"type": "t_mapping(t_address,t_mapping(t_address,t_bool))"
					},
					{
						"astId": 1517,
						"contract": "contracts/Fungees.sol:MyToken",
						"label": "_tokenURIs",
						"offset": 0,
						"slot": "6",
						"type": "t_mapping(t_uint256,t_string_storage)"
					},
					{
						"astId": 8,
						"contract": "contracts/Fungees.sol:MyToken",
						"label": "_owner",
						"offset": 0,
						"slot": "7",
						"type": "t_address"
					},
					{
						"astId": 3145,
						"contract": "contracts/Fungees.sol:MyToken",
						"label": "_nextTokenId",
						"offset": 0,
						"slot": "8",
						"type": "t_uint256"
					}
				],
				"types": {
					"t_address": {
						"encoding": "inplace",
						"label": "address",
						"numberOfBytes": "20"
					},
					"t_bool": {
						"encoding": "inplace",
						"label": "bool",
						"numberOfBytes": "1"
					},
					"t_mapping(t_address,t_bool)": {
						"encoding": "mapping",
						"key": "t_address",
						"label": "mapping(address => bool)",
						"numberOfBytes": "32",
						"value": "t_bool"
					},
					"t_mapping(t_address,t_mapping(t_address,t_bool))": {
						"encoding": "mapping",
						"key": "t_address",
						"label": "mapping(address => mapping(address => bool))",
						"numberOfBytes": "32",
						"value": "t_mapping(t_address,t_bool)"
					},
					"t_mapping(t_address,t_uint256)": {
						"encoding": "mapping",
						"key": "t_address",
						"label": "mapping(address => uint256)",
						"numberOfBytes": "32",
						"value": "t_uint256"
					},
					"t_mapping(t_uint256,t_address)": {
						"encoding": "mapping",
						"key": "t_uint256",
						"label": "mapping(uint256 => address)",
						"numberOfBytes": "32",
						"value": "t_address"
					},
					"t_mapping(t_uint256,t_string_storage)": {
						"encoding": "mapping",
						"key": "t_uint256",
						"label": "mapping(uint256 => string)",
						"numberOfBytes": "32",
						"value": "t_string_storage"
					},
					"t_string_storage": {
						"encoding": "bytes",
						"label": "string",
						"numberOfBytes": "32"
					},
					"t_uint256": {
						"encoding": "inplace",
						"label": "uint256",
						"numberOfBytes": "32"
					}
				}
			},
			"userdoc": {
				"kind": "user",
				"methods": {},
				"version": 1
			}
		}
	}
}